:10780000112414BEE0E6F0E088E18083108211E0EC
:10781000A0E0B1E0E2E9FBE702C005900D92AA31D9
:10782000B107D9F721E0AAE1B1E001C01D92AE395C
:10783000B207E1F71F92CDB7DEB780E384B92D9A86
:10784000F0E0E0E085919491019611F4109200012E
:1078500085E085BD82E090E094D1182F83E090E030
:1078600090D1153A21F49FEF980F9E37B8F08AB166
:1078700087788AB98BB188678BB9198289818233FD
:10788000A0F189B183FB882780F991E089274C9B7F
:1078900082604D9B84604E9B88608F5F880F8093D1
:1078A000BA0092E589278093BD0084E48093BC00F0
:1078B00083E0982E9DE9E92E91E0F92E01E025E084
:1078C000D22E31E1C32E40E2B42E51E2A52E80919A
:1078D0009D01813279F41092BC0015BC15B8F0E01E
:1078E000E0E000003197E9F70995000089818F5F9A
:1078F0008983C4CF8091BC0087FF17C01091BC0062
:107900008091B900887F803A09F47FC010F58038F3
:10791000D1F1883809F470C0803609F0DDC01092CA
:107920001A012C9A10681093BC00A89BD0CFD6BC2B
:1079300085B18B2585B980910001882341F0809124
:107940000101823008F4CAC081508093010105BB57
:10795000BECF883B49F0803C09F46EC0883A09F0FC
:10796000BBC010921A012C9AE0911A0181E08E0F8F
:1079700080931A0180919D01823171F188F48130E8
:1079800019F18FEF26C06091BB0080911A0191E040
:10799000980F90931A01A8D08111C4CF1F7BC2CF3A
:1079A0008232F9F0823369F780911B0190911C01BA
:1079B0009C012F5F3F4F30931C0120931B0181BD21
:1079C00092BDF89A80B505C0EF70F0E0E65FFE4F1B
:1079D00080818093BB00A6CFE770F0E0EE5FFE4FA2
:1079E000F7CFE0911B01F0911C0184913196F09347
:1079F0001C01E0931B01EDCF6091BB0080911A0147
:107A000091E0980F90931A016FD080919D018F7E25
:107A1000823481F41F7B812F80688093BC00809129
:107A20009D01823519F580911A018450EDE1F1E054
:107A3000815028F410921A012C98106473CF919100
:107A400020911B0121BD20911C0122BD90BD2091E0
:107A50001B0130911C012F5F3F4F30931C0120937D
:107A60001B01FA9AF99AF999FECFE2CF80911B0196
:107A700090911C018115E8E79E07E0F6FC019092C9
:107A80005700E89507B600FCFDCFADE1B1E0AC01D1
:107A90004D5151402C91FA01EA0FFB1F11963C9178
:107AA0001197090100935700E89511241296EA16E0
:107AB000FB0681F79C0120583F4F30931C01209317
:107AC0001B01FC01D0925700E89507B600FCFDCFE2
:107AD000C0925700E895AECF106124CF813009F0F5
:107AE00036CFA0929D0133CF8130C1F058F0843061
:107AF00070F580E090911B01862B90931C01809380
:107B00001B0106C0633030F41092010160939D01A7
:107B100081E0089591E290939D01089590919D01D7
:107B2000913021F0923041F080E008956038E1F723
:107B300081E280939D01F8CF611102C092E1EBCF09
:107B400092E2613041F392E3623071F7E4CF9091B9
:107B50009D01923391F0923511F0923229F78450C1
:107B6000E82FF0E0E35EFE4F60838F3788F280916C
:107B70009D018232C9F682E4DCCF92E590939D01AB
:107B8000EECFF999FECF92BD81BDF89A992780B5C5
:027B9000089556
:107B9200013E1E950F8078000400545749424F4F12
:0A7BA200542076332E32000000005C
:107F8000FC0107B600FCFDCF83E061FD03C062FF8A
:107F900008C085E080935700E89507B600FCFDCF48
:107FA000089564FF05C081E180935700E895F5CFFF
:0E7FB00081E00A0180935700E8951124EECF7E
:040000030000780081
:00000001FF
