:100000000C9462000C948A000C948A000C948A0070
:100010000C948A000C948A000C948A000C948A0038
:100020000C948A000C948A000C948A000C948A0028
:100030000C948A000C948A000C948A000C948A0018
:100040000C94A20B0C948A000C948A000C948A00E5
:100050000C948A000C948A000C948A000C948A00F8
:100060000C94EC0B0C948A00000000002400270084
:100070002A0000000000250028002B0000000000DE
:1000800023002600290004040404040404040202DA
:100090000202020203030303030301020408102007
:1000A0004080010204081020010204081020000012
:1000B0000008000201000003040700000000000027
:1000C00000000B0D11241FBECFEFD8E0DEBFCDBF67
:1000D00011E0A0E0B1E0E2ECF0E302C005900D9287
:1000E000A832B107D9F722E0A8E2B1E001C01D9221
:1000F000A439B207E1F710E0C2E6D0E004C02197CE
:10010000FE010E945717C136D107C9F70E94540D4E
:100110000C945F180C940000833081F028F4813037
:1001200099F08230A9F008958730A9F08830C9F09D
:100130008430B1F4809180008F7D03C08091800075
:100140008F7780938000089584B58F7784BD08955C
:1001500084B58F7DFBCF8091B0008F778093B00006
:1001600008958091B0008F7DF9CFCF93DF93282F32
:1001700030E0F901E255FF4F8491F901E656FF4F57
:10018000D491F901EA57FF4FC491CC23A1F081111A
:100190000E948C00EC2FF0E0EE0FFF1FE458FF4FA1
:1001A000A591B491EC91ED2381E090E009F480E019
:1001B000DF91CF91089580E090E0FACF1F93CF9325
:1001C000DF93282F30E0F901E255FF4F8491F901C8
:1001D000E656FF4FD491F901EA57FF4FC491CC2363
:1001E000A9F0162F81110E948C00EC2FF0E0EE0F89
:1001F000FF1FEE58FF4FA591B4918FB7F894EC9183
:10020000111108C0D095DE23DC938FBFDF91CF9111
:100210001F910895DE2BF8CFCF93DF93EC018091EF
:100220007E0290917F02029749F4C130D10509F412
:100230003BC06CF560E0209709F437C080917E02E6
:1002400090917F02049749F4C130D10509F45CC054
:100250000CF037C0209709F442C080917E02909143
:100260007F02059709F0E5C0CA30D10508F0E1C06A
:10027000FE01E35CFE4F0C9457179C01A801B901E5
:10028000CF01EA01EC01F301FF0110021702C230B5
:10029000D105A9F060E0C330D10581F680918202DA
:1002A0000E94DE0060E006C061E0809182020E9450
:1002B000DE0061E0809184020E94DE00BFCF61E039
:1002C000EDCFC230D10539F1C330D10509F0C5CF2A
:1002D00061E0809182020E94DE0060E022C061E065
:1002E000809182020E94DE0060E0809184020E9480
:1002F000DE0061E0809186020E94DE0060E0809175
:1003000088020E94DE00A9CF60E0809182020E94F4
:10031000DE0061E0EACF60E0809182020E94DE00B0
:1003200061E0809184020E94DE0060E0809186029C
:100330000E94DE0061E0E3CF60E0809182020E94D3
:10034000DE0061E0809184020E94DE0061E00BC06B
:1003500060E0809182020E94DE0061E08091840270
:100360000E94DE0060E0809186020E94DE0060E074
:1003700010C060E0809182020E94DE0061E0809106
:1003800084020E94DE0060E0809186020E94DE000E
:1003900061E0809188020E94DE0061E015C060E0AB
:1003A000809182020E94DE0061E0809184020E94BE
:1003B000DE0060E0809186020E94DE0061E08091B4
:1003C00088020E94DE0060E080918A02DF91CF9176
:1003D0000C94DE0061E0E4CF61E0809182020E9433
:1003E000DE0060E0E2CF61E0809182020E94DE00E8
:1003F00060E0809184020E94DE0061E0DBCF61E07A
:10040000809182020E94DE0060E0809184020E945E
:10041000DE0061E0809186020E94DE0060E0CFCFC6
:1004200061E0809182020E94DE0060E08BCF60E09C
:10043000F8CFDF91CF910895CF93DF9390E0FC0147
:10044000E656FF4F24918A579F4FFC0184918823E1
:10045000C9F090E0880F991FFC01E859FF4FA59162
:10046000B491FC01EE58FF4FC591D49161110DC0BC
:100470009FB7F8948C91209582238C9388812823B0
:1004800028839FBFDF91CF910895623051F49FB7C9
:10049000F8943C91822F809583238C93E8812E2BB6
:1004A000EFCF8FB7F894EC912E2B2C938FBFEACF20
:1004B0003FB7F8948091660290916702A09168021C
:1004C000B091690226B5A89B05C02F3F19F001968F
:1004D000A11DB11D3FBFBA2FA92F982F8827BC019E
:1004E000CD01620F711D811D911D42E0660F771FC6
:1004F000881F991F4A95D1F708958F929F92AF92C6
:10050000BF92CF92DF92EF92FF924B015C010E946B
:1005100058026B017C010E9458026C197D098E09FA
:100520009F09683E734081059105A8F321E0821A76
:100530009108A108B10888EEC80E83E0D81EE11C1E
:10054000F11C81149104A104B10429F7FF90EF90EC
:10055000DF90CF90BF90AF909F908F9008952FB76E
:10056000F8946091620270916302809164029091AC
:1005700065022FBF0895E091FC01F091FD013097D5
:1005800029F01092F7011092F60109940895CF9383
:10059000DF93AC01E091FA01F091FB013097F1F0AB
:1005A0009091F9018091F8019817C0F090E0292FFF
:1005B00030E02617370754F4D901AF59BE4F240F46
:1005C000351FE90128812C939F5FF1CF1092F9012B
:1005D0006093F801CB01DF91CF910994DF91CF9126
:1005E00008952091A701260F3327331F21323105AB
:1005F000ECF42091CB01FC0190E080E0243069F024
:1006000082E00895A091A7012191AC0149575E4F66
:10061000A40FB52FB11D2C930196861798F38091E6
:10062000A701680F6093A70180E0089581E0089515
:100630001092CB0181E08093CD011092CC0161E05A
:1006400082E10E94DE0061E083E10E94DE00E9EBCE
:10065000F0E080818E7F808380818D7F808388E43D
:100660008093B80085E48093BC0008950895E091DC
:10067000F9018091F801E81730F4F0E0EF59FE4FEE
:10068000808190E008958FEF9FEF08959091F90198
:100690008091F8012FEF3FEF981748F4E92FF0E031
:1006A000EF59FE4F208130E09F5F9093F901C9011F
:1006B00008958091F8019091F901891B990B089593
:1006C000CF93DF93CB01EA01642F0E94F102CE01A8
:1006D000DF91CF910895CF93DF931F92CDB7DEB70F
:1006E000698361E0CE0101960E94F10281E090E011
:1006F0000F90DF91CF91089590E080E00895CF931F
:10070000DF93CDB7DEB72B970FB6F894DEBF0FBEE1
:10071000CDBFF0915F01E091600170915D0160914A
:100720005E0180910501909106018F3F980721F4A9
:1007300080915B0190915C015091040140912102F4
:100740003091220220910F02F983EA837B836C832C
:100750008D839E835F83488739872A87FE01319680
:100760009E01255F3F4FDF0180E09D918927A21701
:10077000B307D9F793E989278B87F89490E080E055
:100780002191DC01A05BBE4F2C9301968B3091052B
:10079000B9F778942B960FB6F894DEBF0FBECDBF95
:1007A000DF91CF910895CF93DF93CDB7DEB7289730
:1007B0000FB6F894DEBF0FBECDBF50915B014091E4
:1007C0005C0180910201909103018F3F980711F421
:1007D000852F942F60915402709155022091000151
:1007E000309101012F3F320711F430E020E05983AE
:1007F0004A838B839C836D832E833F83FE013196D6
:100800009E01285F3F4FDF0180E09D918927A2175D
:10081000B307D9F79CE389278887F89490E080E0B4
:100820002191DC01A85BBE4F2C9301968830910585
:10083000B9F7789428960FB6F894DEBF0FBECDBFF7
:10084000DF91CF9108951F93CF93DF9300D0CDB761
:10085000DEB7182F8EE480937C0062E070E080E0C9
:1008600090E00E947D0280917A00806480937A00FB
:1008700080917A0086FDFCCF20917800309179003C
:100880002115310531F510925C0110925B01209128
:100890009002309191022115310511F424E932E0E2
:1008A000CE010196821B930B97FF02C090E080E07F
:1008B00020910001309101018217930720F4909359
:1008C0000101809300010F900F90DF91CF911F9154
:1008D000089550E040E064EB7BE281E190E00E940B
:1008E00002172115310581E04807510508F18FEF06
:1008F0009FEF90935C0180935B0120910201309106
:1009000003018217930720F490930301809302015F
:10091000112309F4BCCF2091050130910601821703
:10092000930708F0B4CF9093060180930501AFCFF1
:10093000C90130935C0120935B01DFCF8F929F92BE
:10094000AF92BF92EF92FF920F931F93CF93DF93DB
:10095000CDB7DEB72F970FB6F894DEBF0FBECDBF71
:100960000091200280911C028111026080905B0244
:1009700090905C02E0901E02F0901F0210911D0208
:100980002FEF882399F160911A0270911B0290E079
:1009900080E0092C000CAA08BB08681979098A09AB
:1009A0009B0926EF37E040E050E00E94D0169B0103
:1009B000AC0157FF04C02A50384F4F4F5F4FADE294
:1009C000B0E00E94EF1665507C4F8F4F9F4F26EF8F
:1009D00037E040E050E00E940217CA01B9012DE261
:1009E00030E040E050E00E940217262F2A870B8754
:1009F0001C87C70131E8E3163FEFF30614F481E8E2
:100A00009FEF8038910514F08FE790E08D871E8668
:100A100067EB61276827602762276F87809108024C
:100A200089839091090280910A029A838B83909125
:100A30000B0280910C029C838D8390910D0280911A
:100A40000E029E838F831886FE0131969E01275FDA
:100A50003F4FDF0180E09D918927A217B307D9F7A7
:100A60009CE589278987F894BE01665F7F4F90E0F7
:100A700080E0DB014D91BD019C012E5B3E4FD90111
:100A80004C93019686309105A1F790E080E021918A
:100A9000DC01A75CBE4F2C93019689309105B9F714
:100AA00078942F960FB6F894DEBF0FBECDBFDF91BE
:100AB000CF911F910F91FF90EF90BF90AF909F90BB
:100AC0008F90089581E090E0909315028093140236
:100AD000609138018BE00E94DE00609137018AE06E
:100AE0000E94DE006091360189E00E94DE00609184
:100AF000350188E00C94DE008BE00E94B50021E017
:100B0000892B09F420E0209338018AE00E94B50087
:100B100021E0892B09F420E02093370189E00E942D
:100B2000B50021E0892B09F420E02093360188E00C
:100B30000E94B50021E0892B09F420E020933501C3
:100B400060E08BE00E94DE0060E08AE00E94DE0050
:100B500060E089E00E94DE0060E088E00E94DE0044
:100B6000109215021092140264E670E080E090E0AA
:100B70000C947D024F925F926F927F928F929F9220
:100B8000AF92BF92CF92DF92EF92FF920F931F939B
:100B9000CF93DF936C017C0197FF04C0EE24FF2408
:100BA000E81AF90A1C141D040CF063C081E090E0FF
:100BB0009093770280937602C4E0D0E00AE010E0E0
:100BC000E114F10409F472C00E94580280908C0272
:100BD00090908D02A0908E02B0908F022B013C016C
:100BE000481859086A087B0880907802909079022A
:100BF000A0907A02B0907B02481459046A047B04E6
:100C0000F8F260938C0270938D0280938E02909321
:100C10008F02809180029091810220917602309122
:100C200077022130310571F501969093810280930E
:100C3000800220917C0230917D028217930721F47B
:100C4000109281021092800221E0E21AF108809154
:100C500080029091810220917E0230917F02B80142
:100C60002530310509F0BE010E9443170E940C0196
:100C7000A7CFC114D10409F49FCF1092770210922C
:100C800076029ACF892B41F480917C0290917D026B
:100C900090938102809380028091800290918102E2
:100CA00001979093810280938002CECF0D2C000C8F
:100CB000EE08FF08D701C601F7FE07C0882799276D
:100CC000DC018C199D09AE09BF09209142023091C7
:100CD0004302BC01CD01620F731F811D911D26EFE0
:100CE000422E27E0522E612C712CA30192010E940A
:100CF000021780903E0290903F02A0904002B09078
:100D00004102820E931EA41EB51E80923E02909256
:100D10003F02A0924002B09241027093430260935E
:100D2000420280911A0290911B02A7019601280F9E
:100D3000391F411D511DCA01B901A30192010E9431
:100D4000D01697FF04C06A50784F8F4F9F4F709313
:100D50001B0260931A028091440290914502A09177
:100D60004602B091470288159905AA05BB0531F1E5
:100D7000F89480913E0290913F02A0914002B09180
:100D800041028093440290934502A0934602B0939F
:100D90004702789480910702811110C0809101026E
:100DA000909102028F3F910519F010F08FEF90E0C3
:100DB000809304011092020210920102DF91CF9100
:100DC0001F910F91FF90EF90DF90CF90BF90AF9069
:100DD0009F908F907F906F905F904F900895DF92DB
:100DE000EF92FF920F931F93CF93DF93082F81E031
:100DF00090E09093150280931402D0903102D110AC
:100E0000D0901C02E0901A02F0901B0220917C020C
:100E100030917D02032E000C440B550B60E077E807
:100E200083E993E00E94D016CA01B9012AE030E0BC
:100E300040E050E00E94D01620937802309379026F
:100E400040937A0250937B02D0E0C0E010E0A89576
:100E500087E00E94B500009709F4C4C0019709F427
:100E600093C020911C0280911A0290911B028C3F2A
:100E700033E0930710F0865F974010921B021092A8
:100E80001A0231E030931C022223A9F09C0197FF43
:100E900004C022273327281B390B283131055CF089
:100EA00020911D022F3F19F02F5F20931D02909378
:100EB0001F0280931E0210922002809101029091E5
:100EC00002028F3F980729F00196909302028093C7
:100ED0000102DD20D9F086EF97E08E199F09C8172F
:100EE000D90708F47CC09E01281B390BC9019093D7
:100EF000600180935F0120915D0130915E012817B0
:100F0000390720F490935E0180935D0180915B022C
:100F100090915C020E94BA05109253021092520204
:100F2000109203021092040210920502109206021F
:100F3000F8941092340181E0182710933301D09374
:100F40003201C093310180933102789401110E94E3
:100F50007C05CE01DF91CF911F910F91FF90EF9013
:100F6000DF90089587E00E94B500892B09F03FC00B
:100F7000A89581E090E00E94BA052196C33E27E142
:100F8000D20781F711E012C0209741F482E390E08C
:100F90000E94BA05C2E3D0E0219659CF81E090E0EB
:100FA0000E94BA05C33E37E1D307B4F3109253024F
:100FB0001092520210921C0210922002F89481E0CA
:100FC00080933401182710933301D0933201C093DA
:100FD000310178940E947C05CFEFDFEFBACF90E02B
:100FE00080E085CF209709F4BDCF11E03ACF82E3AE
:100FF00090E00E94BA05E29611E0D4CF4F925F9242
:101000006F927F929F92AF92BF92CF92DF92EF92B8
:10101000FF920F931F93CF93DF936C0187E00E94A1
:10102000B500BB24B394892B09F0B12CD0E0C0E00B
:10103000A12C99249394CC15DD050CF092C0A895B1
:1010400020E039EE43E95EE360910302709104020F
:1010500080910502909106020E9479172B013C01B4
:1010600020E030E040E85FE30E94361818164CF1AB
:1010700040920302509204026092050270920602AE
:101080009DE2E92EF12C10E000E081E090E00E946A
:10109000BA0587E00E94B500892B09F05FC021E006
:1010A0002A1508F0A39482E0A81204C0BB20E9F03E
:1010B000BB24B3940F5F1F4FE016F10631F7219662
:1010C000BACF20E030E040E85FE3C301B2010E9404
:1010D0007817609303027093040280930502909343
:1010E00006028EE2E82EF12CCECF80910102909183
:1010F00002028F3F980729F0019690930202809395
:101100000102B0901C0280911A0290911B028C3F48
:1011100023E0920710F0865F974010921B02109216
:101120001A0290921C02BB2019F29C0197FF04C086
:1011300022273327281B390B283131050CF4B8CF6F
:1011400020911D022F3F19F02F5F20931D029093D5
:101150001F0280931E0290922002ACCFA12CB12CD2
:10116000A9CFDF91CF911F910F91FF90EF90DF906A
:10117000CF90BF90AF909F907F906F905F904F9077
:1011800008958F929F92AF92BF92CF92DF92EF928B
:10119000FF92CF93DF93CDB7DEB728970FB6F894C1
:1011A000DEBF0FBECDBF80913001882361F1BE014B
:1011B0006F5F7F4F88E0FB0111928A95E9F7EFE1BD
:1011C000F1E0DB018191882329F08D9381E0E73202
:1011D000F807C1F748E050E08AE692E00E94600319
:1011E0001092300128960FB6F894DEBF0FBECDBF27
:1011F000DF91CF91FF90EF90DF90CF90BF90AF90B5
:101200009F908F90089580912F01882391F0809175
:101210005B0290915C0289839A8342E050E0BE01B8
:101220006F5F7F4F8AE692E00E94600310922F0169
:10123000D9CF80912E01882399F08091520290910C
:101240005302898380958A8342E050E0BE016F5F3C
:101250007F4F8AE692E00E94600310922E01C2CF77
:1012600080912D01882349F140914402509145021B
:1012700060914602709147024983852E962EA72ED3
:10128000BB248A826B01EE24FF24CB82872F99270F
:10129000AA27BB278C8325EA242728252C258227EB
:1012A0008D8345E050E0BE016F5F7F4F8AE692E09C
:1012B0000E94600310922D0195CF80912C0188230C
:1012C00059F046E050E062E471E08AE692E00E9464
:1012D000600310922C0186CF80912B01882359F056
:1012E00049E050E069E371E08AE692E00E94600321
:1012F00010922B0177CF80912A01882359F048E082
:1013000050E068E471E08AE692E00E946003109287
:101310002A0168CF80912901882359F04BE050E0E1
:1013200060E571E08AE692E00E9460031092290174
:1013300059CF80912801882309F44BC020911402D1
:101340003091150281E0232B09F480E09091340163
:101350009111826090913301911184609091F1011B
:10136000911180619091310291118062209131013F
:10137000309132018983809100028A838091FF013C
:101380008B838091FE018C83809132029091330295
:101390009D8380913202909133028E8380914A0224
:1013A0008F8384E0369527958A95E1F72F3F3105A5
:1013B00019F010F02FEF30E0288748E050E0BE0130
:1013C0006F5F7F4F8AE692E00E94600310922801CF
:1013D00009CF60911402709115028AE692E00E9492
:1013E0006B0300CF1F93CF93DF93181619060CF0F1
:1013F000B3C0EC0181E080932F028AE692E00E9464
:1014000046039E01215031098D3291050CF4BFC075
:101410008058990B8931910508F0AEC0FC01ED5E52
:10142000F54F0C9457172C0A3A0A3E0A420A460A0C
:101430004A0A4E0A520A560A5A0ABC0ABC0ABC0A8E
:10144000BC0ABC0ABC0A900A840A2C0A620A940AE2
:10145000B00AB40AB80A5E0A81E080936002E9012A
:101460001C161D060CF078C08AE692E00E94460326
:101470002197F6CF81E080933001F1CF81E0809316
:101480002F01EDCF81E080932801E9CF81E08093A7
:101490002E01E5CF81E080932D01E1CF81E08093A3
:1014A0002C01DDCF81E080932B01D9CF81E08093A7
:1014B0002A01D5CF81E080932901D1CF81E08093AB
:1014C0003902CDCF223031050CF456C08AE692E0C5
:1014D0000E944603182F8AE692E00E9446039E016E
:1014E0002350310940E0582F412BCA018A50984FB0
:1014F0008D3E9F4008F040C050935E0240935D02D5
:1015000081E080935F02ABCF232BE9F08AE692E083
:101510000E944603809351029E01225031099FCFC1
:1015200081E0809356029BCF232B69F08AE692E0FC
:101530000E94460380934B029E012250310981E0B4
:1015400080934C028CCF80914A028F3F29F080918A
:101550004A028F5F80934A02DF91CF911F910895D5
:1015600081E0809349027BCF81E08093380277CF7E
:1015700081E08093480273CF80914A028F3F09F443
:101580006ECF80914A028F5F80934A0268CFC2304B
:10159000D10589F04CF080914A028F3F29F080916B
:1015A0004A028F5F80934A022197B1F28AE692E065
:1015B0000E944603F9CF90935502809354028AE625
:1015C00092E00E9446031816190614F081E090E09C
:1015D0009093080180930701BFCF0C94BA16CF9364
:1015E000DF9385ED8093BC0080918301909184010D
:1015F000A0918501B09186010796A11DB11D23E040
:10160000B695A795979587952A95D1F72091BC0017
:1016100024FD03C01092CB0136C04091830150914C
:1016200084016091850170918601452B462B472BE3
:1016300069F30097A105B10541F02AE22A95F1F777
:1016400000C00197A109B109E1CF8091820191E029
:10165000909381018823B9F0C091B800D091BA006D
:101660008091BC008A7B8093BC0060E082E10E9494
:10167000DE0060E083E10E94DE000E941803D09348
:10168000BA00C093B800DF91CF910895FF920F93F5
:101690001F93CF93DF93EC01F62E08811981C801C7
:1016A0000E94BA16F81621F06F2DC8010E94C216CA
:1016B000CE01DF91CF911F910F91FF900895AF92CE
:1016C000BF92CF92DF92EF92FF920F931F93CF932F
:1016D000DF9300D0CDB7DEB78B016B0124E0C20EE3
:1016E000D11C7B015C01A61AB70AC5018E0D9F1D96
:1016F0009A838983F70161917F01CE0101960E944F
:10170000460BEC14FD0489F7C8010F900F90DF9190
:10171000CF911F910F91FF90EF90DF90CF90BF90EE
:10172000AF900895CF93DF9300D0CDB7DEB79A8303
:101730008983CE0101960E94460B0F900F90DF9196
:10174000CF9108951F920F920FB60F9211242F93ED
:101750003F938F939F93AF93BF9380916202909139
:101760006302A0916402B09165023091610223E0AE
:10177000230F2D3758F50196A11DB11D209361024D
:101780008093620290936302A0936402B093650217
:101790008091660290916702A0916802B0916902FF
:1017A0000196A11DB11D8093660290936702A093DC
:1017B0006802B0936902BF91AF919F918F913F9161
:1017C0002F910F900FBE0F901F90189526E8230FB2
:1017D0000296A11DB11DD2CF1F920F920FB60F928C
:1017E00011242F933F934F935F936F937F938F9326
:1017F0009F93AF93BF93EF93FF938091B900887F3E
:10180000803609F44AC0F0F5883209F4A7C018F50B
:10181000803109F49BC0B8F4882309F4F9C08830FA
:1018200009F494C0FF91EF91BF91AF919F918F9177
:101830007F916F915F914F913F912F910F900FBECC
:101840000F901F901895883109F488C0803251F7A5
:101850008093CA0114C0803409F49DC040F48033E1
:10186000B9F38833F9F68093CA0185ECB0C08035AE
:1018700009F485C0883509F496C0883499F60E9429
:10188000EF0AD0CF883909F48CC038F5883729F0B1
:1018900050F4883611F0803729F683E08093CB012D
:1018A0001092C90157C0883809F47BC0803919F0FB
:1018B000803809F0B7CF8091C901803208F071C03B
:1018C000E091C90181E08E0F8093C9018091BB0036
:1018D000F0E0E755FE4F80833DC0803B39F0E0F4F7
:1018E000803A09F479C0883A09F09CCF84E080936B
:1018F000CB011092A8011092A701E091F401F091A0
:10190000F50109958091A70181110FC081E08093B5
:10191000A7011092870109C0803C09F4A6CF883C3A
:1019200009F4A3CF883B09F07DCFE091A80181E0C5
:101930008E0F8093A801F0E0E957FE4F80818093DD
:10194000BB009091A8018091A70129C08091F0016E
:101950008093BB0085EC8093BC0064CF9091EF0135
:101960008091EE01981758F5E091EF0181E08E0F1C
:101970008093EF01F0E0E253FE4F8081E9CFE091E8
:10198000EF0181E08E0F8093EF018091BB00F0E0CA
:10199000E253FE4F80839091EF018091EE01981702
:1019A000C8F285E8D8CFE091EF0181E08E0F8093F7
:1019B000EF018091BB00F0E0E253FE4F8083809105
:1019C000CD0181115CCF81E08093CC0184EA8093CA
:1019D000BC001092CB0126CF85EC8093BC00109206
:1019E000CB018091C901803230F4E091C901F0E06F
:1019F000E755FE4F10826091C90170E0E091F2015D
:101A0000F091F30189EA91E009951092C9010ACF9A
:101A10001092CA0134CFCF93DF93EAE6F2E013824B
:101A2000128288EE93E0A0E0B0E084839583A683E1
:101A3000B78381E191E091838083C6E7D2E01B8682
:101A40001A86198218821E8A1F8A188E198E86EFAE
:101A500097E09F838E838BE090E09D878C8789E061
:101A600090E09F878E878AE090E0998B888B88E052
:101A700090E09B8B8A8B61E08BE00E941C0261E00E
:101A80008E850E941C0261E088890E941C0261E030
:101A90008A890E941C021D8A1C8A84E090E0998732
:101AA0008887DF91CF910895CF93DF93CDB7DEB7CD
:101AB000C555D1090FB6F894DEBF0FBECDBF7894DF
:101AC00084B5826084BD84B5816084BD85B5826043
:101AD00085BD85B5816085BD80916E0081608093F4
:101AE0006E0010928100809181008260809381005D
:101AF000809181008160809381008091800081606D
:101B0000809380008091B10084608093B1008091C7
:101B1000B00081608093B00080917A0084608093EF
:101B20007A0080917A00826080937A0080917A00B6
:101B3000816080937A0080917A00806880937A0037
:101B40001092C10084B78093000214BE0FB6F894BF
:101B5000A895809160008861809360001092600079
:101B60000FBE86E090E00E94ED0A8A3509F095C12B
:101B700084E090E00E94ED0A8093FF0185E090E010
:101B80000E94ED0A8093FE018091000282FF0BC04B
:101B90006091FF016F3F39F06F5F6093FF0184E058
:101BA00090E00E94920B8091000283FF0BC0609135
:101BB000FE016F3F39F06F5F6093FE0185E090E0BA
:101BC0000E94920B87E090E00E94ED0A782E8DE350
:101BD000870D823008F0BAC18E010F5F1F4F680178
:101BE000780108E010E0570134E0A30EB11C480171
:101BF0008E189F08C4018E0D9F1D0E94BA16D70132
:101C00008D937D01AA15BB05A9F70C5F1F4F083402
:101C1000110549F7B3EC7B1254C1EE24E394F12C87
:101C2000EC0EFD1EE0E4EE0EF11CFE01319680E0AC
:101C300090E0DC0141915191619171914F3F2FEF03
:101C400052076207720739F084179507A607B7078E
:101C500010F4DB01CA01EE16FF0661F780933E0225
:101C600090933F02A0934002B09341028CE3F82E80
:101C7000F60181919191A191B1916F01682F6F252A
:101C800069276A276B27C8010E94920B0F5F1F4FBD
:101C90000835110569F764EC87E090E00E94920B2B
:101CA00080913E0290913F02A0914002B09141028A
:101CB00080933A0290933B02A0933C02B0933D0282
:101CC0008093440290934502A0934602B09347024A
:101CD00062E086E00E941C0262E085E00E941C0235
:101CE00062E084E00E941C0262E083E00E941C0229
:101CF00060E087E00E941C0261E08DE00E941C020F
:101D000060E08DE00E94DE0082E090E00E94ED0A3B
:101D1000853A09F044C183E090E00E94ED0A9FEF0C
:101D2000980F9E3708F03BC191E09093F101082F86
:101D300010E010932E0200932D0290E080E00E94AC
:101D4000BA16898381E090E00E94BA168A8389815D
:101D50009A818A50984F8D3E9F4010F01A821982C6
:101D600089819A8190935C0280935B020E949E0419
:101D700080E00E9423040E94D3030E947F031092FC
:101D8000F9011092F8011092F7011092F6010E94E9
:101D900018038BEB92E09093F5018093F40187ECAC
:101DA00092E09093F3018093F201000F0093BA0048
:101DB0008091BA0081608093BA0082EF99E090939D
:101DC000FB018093FA0181EC98E09093FD018093F0
:101DD000FC0188E199E20FB6F894A8958093600021
:101DE0000FBE9093600080E480937C0080917A0025
:101DF000806480937A0080917A0086FDFCCFC09049
:101E00007800D09079000D2C000CEE08FF087601C8
:101E1000DD24CC240E945802C616D706E806F9062F
:101E200031F06C257D258E259F250E94B1160E94DC
:101E300062162BEF30E040E050E00E94D016709325
:101E40002C0260932B02412CB7E85B2EB3E96B2E7A
:101E5000B3E07B2E22242394312CA8950E949E046B
:101E60000E94D3030E947F030091600262960FAF2D
:101E70006297002309F4C3C06AE070E080E090E05C
:101E80000E947D0288E198E00FB6F894A8958093AF
:101E900060000FBE90936000FFCF1092FF01109280
:101EA000FE0160E084E090E00E94920B60E085E03B
:101EB00090E00E94920B6AE586E090E00E94920B0F
:101EC00063CE7E01F1E4EF0EF11C5701C8010E94C0
:101ED000ED0AD5018D935D010F5F1F4F0835110588
:101EE000A9F741E050E04C0F5D1F405C5F4F812C33
:101EF000912C54013CE3F60181919191A191B19112
:101F00006F018F3FFFEF9F07AF07BF0781F0282FBB
:101F1000232729272A272B27F7016081621307C06F
:101F200088169906AA06BB0610F44C015D01FFEF66
:101F3000EF1AFF0A4C155D05F1F680923E02909271
:101F40003F02A0924002B0924102AACE19821A82A8
:101F50001B821C8208E4E02EF12C08E010E0BE0198
:101F60006F5F7F4FC8010E945F0B6CE3C7010E9447
:101F7000920B0C5F1F4F2FEFE21AF20A0834110583
:101F800071F764EC87E090E00E94920B10923E02A1
:101F900010923F02109240021092410281CE83E0E3
:101FA0000E94B50001E010E0892B11F010E000E084
:101FB00084E00E94B500892BC9F482E090E0080F0C
:101FC000191F85E00E94B500892B99F484E090E008
:101FD000080F191F86E00E94B500892B69F488E07C
:101FE00090E0080F191F0F5F1F4FA3CE90E080E015
:101FF000E6CF90E080E0ECCF90E080E0F2CF8091FF
:102000005F02882321F1F89400915D0210915E0235
:1020100010925F0210935C0200935B0278941A8224
:102020001982602FCE0101960E94460B3A822982C6
:10203000612FCE0101960E94460B0E94AF02609371
:102040005702709358028093590290935A028091DC
:1020500056028823C9F0F89410925602789481E0D1
:102060000E94EF06109255021092540210925302F1
:10207000109252020E94AF0260935702709358026E
:102080008093590290935A0280915102882309F457
:1020900059C0F894F09051021092510278940E9425
:1020A0006205009107011091080120917C02309196
:1020B0007D02032E000C440B550BC301B2010E949C
:1020C000D016CA01B9019801110F440B550B0E949B
:1020D000D016209378023093790240937A0250937D
:1020E0007B028F2DFF0C990B0E94BA0562E370E012
:1020F00080E090E00E947D020E947C050E94AF0279
:1021000060934D0270934E0280934F029093500261
:10211000672B682B692B61F421E030E040E050E050
:1021200020934D0230934E0240934F025093500241
:102130000E94AF0260935702709358028093590235
:1021400090935A0280914C028823B9F0F8946091E0
:102150004B0210924C0278948FEF860F8E3708F066
:102160001DC183E090E00E94920B65EA82E090E05E
:102170000E94920B81E08093600280914902882343
:1021800061F0F8941092490278946FEF82E090E049
:102190000E94920B81E08093600280914802882324
:1021A00009F445C0F894109248021092440210922B
:1021B00045021092460210924702789410923E0215
:1021C00010923F021092400210924102109243027C
:1021D0001092420210923A0210923B0210923C027C
:1021E00010923D0219821A821B821C82F8E4CF2EC3
:1021F000D12C08E010E0BE016F5F7F4FC8010E9444
:102200005F0B6CE3C6010E94920B0C5F1F4F3FEF08
:10221000C31AD30A0834110571F70E94AF02609304
:102220005702709358028093590290935A0200917A
:102230003E0210913F022091400230914102809174
:102240003A0290913B02A0913C02B0913D02B9014B
:10225000A801481B590B6A0B7B0BDB01CA018038B4
:102260009105A105B10590F109831A832B833C8365
:1022700057E036952795179507955A95D1F70F7022
:1022800010E0C8010296BE016F5F7F4F880F991F53
:10229000880F991F0E945F0B69812A819B818C8125
:1022A0003CE36327622769276827C801885B9F4F43
:1022B0000E94920B89819A81AB81BC8180933A0202
:1022C00090933B02A0933C02B0933D02F090390200
:1022D000FF2009F413C3F89410923902789481E036
:1022E00080930802809307020E949E040E94620568
:1022F00020917C0230917D02032E000C440B550B83
:10230000C301B2010E94D016CA01B9012AE030E02F
:1023100040E050E00E94D01620937802309379027A
:1023200040937A0250937B0287E00E94B500812C93
:10233000912C5401892B09F047C287E00E94B50017
:10234000892B09F038C2A89581E090E00E94BA0577
:102350005FEF851A950AA50AB50A63EE861667E14E
:102360009606A104B10449F733E0309308021092B5
:102370000A021092090210920C0210920B021092A3
:102380000E0210920D0210925302109252021092FD
:1023900055021092540210921C0284C2F89480914B
:1023A0004A028F3F29F080914A028F5F80934A0250
:1023B0007894E3CE113009F50F2D10E05401A89563
:1023C00081E090E00E94BA0545019FEF891A990AC1
:1023D000ADEE8A16AFE09A0639F287E00E94B500AA
:1023E000011106C0892B31F7BFEFCB1ADB0AE5CF0D
:1023F000892B19F7113009F416C211E0DFCF01E083
:1024000010E020E030E000934D0210934E02209344
:102410004F023093500258C22DE730E040E050E0C8
:102420000E940217CA01B901609570958095909538
:1024300061707727882799278DE00E94DE00B3C25C
:10244000215030E0A8E5B2E00E942417AB01BC01A6
:10245000CF01B0E0A0E0805D9A48AF4FBF4F840F3E
:10246000951FA61FB71FC816D906EA06FB0608F473
:10247000D2C281E0809330020E94EF061092550292
:102480001092540210925302109252020E94AF0214
:1024900060935702709358028093590290935A02A6
:1024A000BAC290E080E001C331E020E090E080E03B
:1024B00049C38091310281111DC0C0901002D0909B
:1024C0001102E0901202F0901302C114D104E10451
:1024D000F10409F07BC00E94AF0260931002709378
:1024E00011028093120290931302672B682B692BC1
:1024F00009F479C00E94AF0260934D0270934E02BE
:1025000080934F0290935002672B682B692B61F4E4
:1025100081E090E0A0E0B0E080934D0290934E0205
:10252000A0934F02B0935002AFEFBFEFB0930601FC
:10253000A093050180912102909122028F3F98077C
:1025400029F0019690932202809321020E94AF020B
:1025500066966CAF7DAF8EAF9FAF6697A09052022C
:10256000B0905302F0903102FF2021F00A151B05B4
:102570000CF046C080E00E94EF065C01C0900701AD
:10258000D090080120917C0230917D02032E000C36
:10259000440B550BC301B2010E94D0160D2C000C48
:1025A000EE08FF08CA01B901A70196010E94D016E2
:1025B000209378023093790240937A0250937B0201
:1025C000B7FEADC0812C912C5401ECC00E94AF022B
:1025D0006C197D098E099F09603375478105910546
:1025E00008F079CF1BC361E070E080E090E0609379
:1025F00010027093110280931202909313027ACF0B
:102600000E946205C0900701D090080120917C02D1
:1026100030917D02032E000C440B550BC301B20117
:102620000E94D016CA01B9019601DD0C440B550B6E
:102630000E94D016209378023093790240937A0258
:1026400050937B026801CA18DB08A0910701B09182
:1026500008011A161B0614F0A1E0B0E026EF37E0DF
:102660000E945D179B01AC01C301B2010E940217D9
:1026700049015A0126EF37E0D6010E945D172DE28D
:1026800030E040E050E00E940217CA01B901A50104
:1026900094010E94331728EE33E040E050E00E949E
:1026A000021749015A01C6010E94FE071093530206
:1026B00000935202FF2039F10E94AF02E0910F0215
:1026C000AB01BC0166960CAD1DAD2EAD3FAD66975E
:1026D000401B510B620B730B9501840192E0369500
:1026E0002795179507959A95D1F7800E911EA21EF2
:1026F000B31E8E2F84169506A606B70608F059C09D
:10270000816080930F0281E00E94230464E670E000
:1027100080E090E00E947D020E947C057FC2A09133
:102720000701B09108011A161B0614F0A1E0B0E0F1
:1027300026EF37E00E945D179B01AC01C301B20197
:102740000E94021769017A0126EF37E0D8010E9442
:102750005D172DE230E040E050E00E940217CA0110
:10276000B901A70196010E94331728EE33E040E03B
:1027700050E00E94021769017A0120E83BE0D50190
:102780000E945D1728EE33E040E050E00E940217FF
:1027900046015701820E931EA41EB51EE1E062960B
:1027A000EFAF6297C8010E94FE076296FFAC629786
:1027B0007DCF8E7FA6CF82E390E00E94BA0532E300
:1027C000830E911CA11CB11C87E00E94B500892BCF
:1027D00099F0A89581E090E00E94BA057FEF871AF2
:1027E000970AA70AB70A83EE881687E19806A1041C
:1027F000B1040CF0B9CDE8CF10921B0210921A026E
:1028000081E080931C020E94AF0266966CAF7DAFA0
:102810008EAF9FAF669700E010E0CC24C394D12C1C
:10282000B12CA12CCCCD0E94AF02DC01CB0166966D
:102830000CAD1DAD2EAD3FAD6697801B910BA20B6D
:10284000B30B009711E0A107B10520F08FEF9FEFC8
:10285000A0E0B0E090930E0280930D02B0920A02C5
:10286000A0920902D0920C02C0920B0222E02093A7
:10287000080210921B0210921A0281E080931C023F
:1028800080915B0290915C020E94BA051092530203
:10289000109252021092030210920402109205024A
:1028A00010920602109220020E94AF02611571057B
:1028B0008105910509F4A3CD60934D0270934E02FA
:1028C00080934F029093500264E670E080E090E0C5
:1028D0000E947D020E947C05109202021092010269
:1028E000109207020E949E040E94AF02609357025A
:1028F000709358028093590290935A028091380243
:102900008823F1F0F8941092380278940E94AF0274
:1029100060933402709335028093360290933702AD
:10292000672B682B692B61F421E030E040E050E038
:10293000209334023093350240933602509337028D
:102940000E94AF026B017C018091340290913502AC
:10295000A0913602B09137020097A105B10519F197
:10296000C0925702D0925802E0925902F0925A0255
:1029700097018601081B190B2A0B3B0BC901B801F3
:10298000683B1BE071078105910508F445CD60E0C7
:102990008DE00E94DE0010923402109235021092F7
:1029A000360210923702C701B60128EE33E040E04C
:1029B00050E00E9402172115310561E046075105DC
:1029C00020F02FEF3FEF40E050E0F89430933302D7
:1029D0002093320278948091310281111CC0809141
:1029E0003002811118C09091310280912F02911113
:1029F00012C020912D02E0912B02F0912C0288232D
:102A000009F41ECD70ECC71674EDD70671E0E70629
:102A1000F10408F02ECD8091270290912802A09118
:102A20002902B0912A0297018601081B190B2A0B73
:102A30003B0BD901C801883E9340A105B10558F070
:102A4000C0922702D0922802E0922902F0922A0234
:102A500080E00E9423048091230290912402A0919F
:102A60002502B0912602A7019601281B390B4A0BBB
:102A70005B0BDA01C90180369A4EA105B105C8F099
:102A8000C0922302D0922402E0922502F092260204
:102A900080912102909122028230910508F401CDAB
:102AA0009C0136952795821B930B9093220280936D
:102AB000210280912002882309F459C020915202FA
:102AC0003091530280915402909155022817390792
:102AD00009F04DC08091570290915802A09159027F
:102AE000B0915A02B701A601481B590B6A0B7B0B28
:102AF000DB01CA01803D9740A105B105C0F180917D
:102B0000160290911702A0911802B0911902009735
:102B1000A105B10569F097018601081B190B2A0B65
:102B20003B0BD901C80180369A4EA105B105F8F0DA
:102B3000C114D104E104F10409F4B6CC3C2D2D2DCF
:102B40009E2D8F2D3093160220931702909318021A
:102B50008093190281E00E94EF060E94AF02609309
:102B60005702709358028093590290935A028091B1
:102B7000570290915802A0915902B0915A02A701B0
:102B80009601281B390B4A0B5B0BDA01C901803D0A
:102B90009740A105B10590F083B7817F83BF83B7CC
:102BA000816083BF889583B78E7F83BFC0925702B1
:102BB000D0925802E0925902F0925A0220915202A9
:102BC0003091530280915402909155022817390791
:102BD00029F100915402109155020D321105F0F4C3
:102BE000C0904D02D0904E02E0904F02F090500203
:102BF000C114D104E104F10409F45BCC0E94AF02DA
:102C00006C197D098E099F09613D77408105910509
:102C100008F04FCC309215022092140220E030E0F0
:102C2000232B09F41AC90E94000014C98F929F92A5
:102C3000AF92BF92CF92DF92EF92FF92CF93DF934A
:102C4000EC01688179818A819B816115710581051B
:102C5000910521F464E279ED8BE597E02DE133EF06
:102C600041E050E00E94D01649015A019B01AC019D
:102C7000A7EAB1E40E94EF166B017C01ACEEB4EF61
:102C8000A50194010E94FD16C60ED71EE81EF91E6E
:102C9000F7FE06C081E0C81AD108E10880E8F80A0A
:102CA000C882D982EA82FB82C701B6019F77DF9191
:102CB000CF91FF90EF90DF90CF90BF90AF909F901B
:102CC0008F9008958F929F92AF92BF92CF92DF9292
:102CD000EF92FF926091090170910A0180910B01BE
:102CE00090910C01611571058105910521F464E253
:102CF00079ED8BE597E02DE133EF41E050E00E9464
:102D0000D01649015A019B01AC01A7EAB1E40E9427
:102D1000EF166B017C01ACEEB4EFA50194010E94AB
:102D2000FD16C60ED71EE81EF91EF7FE06C081E08E
:102D3000C81AD108E10880E8F80AC0920901D092C7
:102D40000A01E0920B01F0920C01C701B6019F77D6
:102D5000FF90EF90DF90CF90BF90AF909F908F90BB
:102D600008956093090170930A0180930B01909379
:102D70000C010895F999FECF92BD81BDF89A99276B
:102D800080B50895262FF999FECF1FBA92BD81BD57
:102D900020BD0FB6F894FA9AF99A0FBE01960895DD
:102DA000052E97FB1EF400940E94E71657FD07D0EE
:102DB0000E94021707FC03D04EF40C94E7165095BE
:102DC0004095309521953F4F4F4F5F4F0895909517
:102DD0008095709561957F4F8F4F9F4F08950E940A
:102DE0002417A59F900DB49F900DA49F800D911D59
:102DF00011240895B7FF0C94EF160E94EF16821B62
:102E0000930B0895A1E21A2EAA1BBB1BFD010DC056
:102E1000AA1FBB1FEE1FFF1FA217B307E407F5078A
:102E200020F0A21BB30BE40BF50B661F771F881F66
:102E3000991F1A9469F760957095809590959B01FC
:102E4000AC01BD01CF010895A29FB001B39FC001A5
:102E5000A39F700D811D1124911DB29F700D811DC6
:102E60001124911D0895DB018F939F930E94EF160B
:102E7000BF91AF91A29F800D911DA39F900DB29F16
:102E8000900D1124089597FB072E16F4009407D097
:102E900077FD09D00E94641707FC05D03EF4909599
:102EA00081959F4F0895709561957F4F0895EE0F1E
:102EB000FF1F0590F491E02D09940E942417B7FF9D
:102EC0000895821B930B0895AA1BBB1B51E107C0F9
:102ED000AA1FBB1FA617B70710F0A61BB70B881FAA
:102EE000991F5A95A9F780959095BC01CD01089539
:102EF0005058BB27AA270E9490170C94FC170E94D9
:102F0000EE1738F00E94F51720F039F49F3F19F4BE
:102F100026F40C94EB170EF4E095E7FB0C94E51700
:102F2000E92F0E940D1858F3BA1762077307840738
:102F3000950720F079F4A6F50C942F180EF4E0957F
:102F40000B2EBA2FA02D0B01B90190010C01CA0163
:102F5000A0011124FF27591B99F0593F50F4503E0E
:102F600068F11A16F040A22F232F342F4427585F00
:102F7000F3CF469537952795A795F0405395C9F718
:102F80007EF41F16BA0B620B730B840BBAF09150D0
:102F9000A1F0FF0FBB1F661F771F881FC2F70EC06F
:102FA000BA0F621F731F841F48F487957795679542
:102FB000B795F7959E3F08F0B0CF9395880F08F02E
:102FC0009927EE0F97958795089597F99F6780E861
:102FD00070E060E008959FEF80EC089500240A946B
:102FE0001616170618060906089500240A941216E4
:102FF0001306140605060895092E0394000C11F417
:10300000882352F0BB0F40F4BF2B11F460FF04C0C3
:103010006F5F7F4F8F4F9F4F089557FD9058440F1C
:10302000551F59F05F3F71F04795880F97FB991F27
:1030300061F09F3F79F087950895121613061406E4
:10304000551FF2CF4695F1DF08C016161706180671
:10305000991FF1CF86957105610508940895E8944C
:10306000BB2766277727CB0197F908950E943B1865
:1030700008F48FEF0895990F0008550FAA0BE0E8A8
:10308000FEEF16161706E807F907C0F0121613062A
:10309000E407F50798F0621B730B840B950B39F46A
:1030A0000A2661F0232B242B252B21F408950A26D0
:1030B00009F4A140A6958FEF811D811D0895F89414
:0230C000FFCF40
:1030C200FFFFFFFF01FFFF0A0001000000000000F8
:1030D200006B0360037C0336035903460337036224
:0830E200663634393433000076
:00000001FF
