:100000000C9462000C948A000C948A000C948A0070
:100010000C948A000C948A000C948A000C948A0038
:100020000C948A000C948A000C948A000C948A0028
:100030000C948A000C948A000C948A000C948A0018
:100040000C94A20B0C948A000C948A000C948A00E5
:100050000C948A000C948A000C948A000C948A00F8
:100060000C94EC0B0C948A00000000002400270084
:100070002A0000000000250028002B0000000000DE
:1000800023002600290004040404040404040202DA
:100090000202020203030303030301020408102007
:1000A0004080010204081020010204081020000012
:1000B0000008000201000003040700000000000027
:1000C00000000B0D11241FBECFEFD8E0DEBFCDBF67
:1000D00011E0A0E0B1E0E4EBF0E302C005900D9286
:1000E000A632B107D9F722E0A6E2B1E001C01D9225
:1000F000A339B207E1F710E0C2E6D0E004C02197CF
:10010000FE010E945017C136D107C9F70E94540D55
:100110000C9458180C940000833081F028F481303E
:1001200099F08230A9F008958730A9F08830C9F09D
:100130008430B1F4809180008F7D03C08091800075
:100140008F7780938000089584B58F7784BD08955C
:1001500084B58F7DFBCF8091B0008F778093B00006
:1001600008958091B0008F7DF9CFCF93DF93282F32
:1001700030E0F901E255FF4F8491F901E656FF4F57
:10018000D491F901EA57FF4FC491CC23A1F081111A
:100190000E948C00EC2FF0E0EE0FFF1FE458FF4FA1
:1001A000A591B491EC91ED2381E090E009F480E019
:1001B000DF91CF91089580E090E0FACF1F93CF9325
:1001C000DF93282F30E0F901E255FF4F8491F901C8
:1001D000E656FF4FD491F901EA57FF4FC491CC2363
:1001E000A9F0162F81110E948C00EC2FF0E0EE0F89
:1001F000FF1FEE58FF4FA591B4918FB7F894EC9183
:10020000111108C0D095DE23DC938FBFDF91CF9111
:100210001F910895DE2BF8CFCF93DF93EC018091EF
:100220007D0290917E02029749F4C130D10509F414
:100230003BC06CF560E0209709F437C080917D02E7
:1002400090917E02049749F4C130D10509F45CC055
:100250000CF037C0209709F442C080917D02909144
:100260007E02059709F0E5C0CA30D10508F0E1C06B
:10027000FE01E35CFE4F0C9450179C01A801B901EC
:10028000CF01EA01EC01F301FF0110021702C230B5
:10029000D105A9F060E0C330D10581F680918102DB
:1002A0000E94DE0060E006C061E0809181020E9451
:1002B000DE0061E0809183020E94DE00BFCF61E03A
:1002C000EDCFC230D10539F1C330D10509F0C5CF2A
:1002D00061E0809181020E94DE0060E022C061E066
:1002E000809181020E94DE0060E0809183020E9482
:1002F000DE0061E0809185020E94DE0060E0809176
:1003000087020E94DE00A9CF60E0809181020E94F6
:10031000DE0061E0EACF60E0809181020E94DE00B1
:1003200061E0809183020E94DE0060E0809185029E
:100330000E94DE0061E0E3CF60E0809181020E94D4
:10034000DE0061E0809183020E94DE0061E00BC06C
:1003500060E0809181020E94DE0061E08091830272
:100360000E94DE0060E0809185020E94DE0060E075
:1003700010C060E0809181020E94DE0061E0809107
:1003800083020E94DE0060E0809185020E94DE0010
:1003900061E0809187020E94DE0061E015C060E0AC
:1003A000809181020E94DE0061E0809183020E94C0
:1003B000DE0060E0809185020E94DE0061E08091B5
:1003C00087020E94DE0060E080918902DF91CF9178
:1003D0000C94DE0061E0E4CF61E0809181020E9434
:1003E000DE0060E0E2CF61E0809181020E94DE00E9
:1003F00060E0809183020E94DE0061E0DBCF61E07B
:10040000809181020E94DE0060E0809183020E9460
:10041000DE0061E0809185020E94DE0060E0CFCFC7
:1004200061E0809181020E94DE0060E08BCF60E09D
:10043000F8CFDF91CF910895CF93DF9390E0FC0147
:10044000E656FF4F24918A579F4FFC0184918823E1
:10045000C9F090E0880F991FFC01E859FF4FA59162
:10046000B491FC01EE58FF4FC591D49161110DC0BC
:100470009FB7F8948C91209582238C9388812823B0
:1004800028839FBFDF91CF910895623051F49FB7C9
:10049000F8943C91822F809583238C93E8812E2BB6
:1004A000EFCF8FB7F894EC912E2B2C938FBFEACF20
:1004B0003FB7F8948091650290916602A09167021F
:1004C000B091680226B5A89B05C02F3F19F0019690
:1004D000A11DB11D3FBFBA2FA92F982F8827BC019E
:1004E000CD01620F711D811D911D42E0660F771FC6
:1004F000881F991F4A95D1F708958F929F92AF92C6
:10050000BF92CF92DF92EF92FF924B015C010E946B
:1005100058026B017C010E9458026C197D098E09FA
:100520009F09683E734081059105A8F321E0821A76
:100530009108A108B10888EEC80E83E0D81EE11C1E
:10054000F11C81149104A104B10429F7FF90EF90EC
:10055000DF90CF90BF90AF909F908F9008952FB76E
:10056000F8946091610270916202809163029091AF
:1005700064022FBF0895E091FB01F091FC013097D8
:1005800029F01092F6011092F50109940895CF9385
:10059000DF93AC01E091F901F091FA013097F1F0AD
:1005A0009091F8018091F7019817C0F090E0292F01
:1005B00030E02617370754F4D901A05ABE4F240F54
:1005C000351FE90128812C939F5FF1CF1092F8012C
:1005D0006093F701CB01DF91CF910994DF91CF9127
:1005E00008952091A601260F3327331F21323105AC
:1005F000ECF42091CA01FC0190E080E0243069F025
:1006000082E00895A091A6012191AC014A575E4F66
:10061000A40FB52FB11D2C930196861798F38091E6
:10062000A601680F6093A60180E0089581E0089517
:100630001092CA0181E08093CC011092CB0161E05D
:1006400082E10E94DE0061E083E10E94DE00E9EBCE
:10065000F0E080818E7F808380818D7F808388E43D
:100660008093B80085E48093BC0008950895E091DC
:10067000F8018091F701E81730F4F0E0E05AFE4FFE
:10068000808190E008958FEF9FEF08959091F80199
:100690008091F7012FEF3FEF981748F4E92FF0E032
:1006A000E05AFE4F208130E09F5F9093F801C9012E
:1006B00008958091F7019091F801891B990B089595
:1006C000CF93DF93CB01EA01642F0E94F102CE01A8
:1006D000DF91CF910895CF93DF931F92CDB7DEB70F
:1006E000698361E0CE0101960E94F10281E090E011
:1006F0000F90DF91CF91089590E080E00895CF931F
:10070000DF93CDB7DEB72B970FB6F894DEBF0FBEE1
:10071000CDBFF0915E01E0915F0170915C0160914D
:100720005D0180910401909105018F3F980721F4AC
:1007300080915A0190915B015091590140912002A2
:100740003091210220910E02F983EA837B836C832E
:100750008D839E835F83488739872A87FE01319680
:100760009E01255F3F4FDF0180E09D918927A21701
:10077000B307D9F793E989278B87F89490E080E055
:100780002191DC01A25BBE4F2C9301968B30910529
:10079000B9F778942B960FB6F894DEBF0FBECDBF95
:1007A000DF91CF910895CF93DF93CDB7DEB7289730
:1007B0000FB6F894DEBF0FBECDBF50915A014091E5
:1007C0005B0180910201909103018F3F980711F422
:1007D000852F942F60915302709154022091000153
:1007E000309101012F3F320711F430E020E05983AE
:1007F0004A838B839C836D832E833F83FE013196D6
:100800009E01285F3F4FDF0180E09D918927A2175D
:10081000B307D9F79CE389278887F89490E080E0B4
:100820002191DC01AA5BBE4F2C9301968830910583
:10083000B9F7789428960FB6F894DEBF0FBECDBFF7
:10084000DF91CF9108951F93CF93DF9300D0CDB761
:10085000DEB7182F8EE480937C0062E070E080E0C9
:1008600090E00E947D0280917A00806480937A00FB
:1008700080917A0086FDFCCF20917800309179003C
:100880002115310531F510925B0110925A0120912A
:100890008F02309190022115310511F423E932E0E5
:1008A000CE010196821B930B97FF02C090E080E07F
:1008B00020910001309101018217930720F4909359
:1008C0000101809300010F900F90DF91CF911F9154
:1008D000089550E040E064EB7BE281E190E00E940B
:1008E000FB162115310581E04807510508F18FEF0E
:1008F0009FEF90935B0180935A0120910201309108
:1009000003018217930720F490930301809302015F
:10091000112309F4BCCF2091040130910501821705
:10092000930708F0B4CF9093050180930401AFCFF3
:10093000C90130935B0120935A01DFCF8F929F92C0
:10094000AF92BF92EF92FF920F931F93CF93DF93DB
:10095000CDB7DEB72F970FB6F894DEBF0FBECDBF71
:1009600000911F0280911B028111026080905A0247
:1009700090905B02E0901D02F0901E0210911C020C
:100980002FEF882399F16091190270911A0290E07B
:1009900080E0092C000CAA08BB08681979098A09AB
:1009A0009B0926EF37E040E050E00E94C9169B010A
:1009B000AC0157FF04C02A50384F4F4F5F4FADE294
:1009C000B0E00E94E81665507C4F8F4F9F4F26EF96
:1009D00037E040E050E00E94FB16CA01B9012DE269
:1009E00030E040E050E00E94FB16262F2A870B875C
:1009F0001C87C70131E8E3163FEFF30614F481E8E2
:100A00009FEF8038910514F08FE790E08D871E8668
:100A100067EB61276827602762276F87809107024D
:100A2000898390910802809109029A838B83909127
:100A30000A0280910B029C838D8390910C0280911D
:100A40000D029E838F831886FE0131969E01275FDB
:100A50003F4FDF0180E09D918927A217B307D9F7A7
:100A60009CE589278987F894BE01665F7F4F90E0F7
:100A700080E0DB014D91BD019C01205C3E4FD9011E
:100A80004C93019686309105A1F790E080E021918A
:100A9000DC01A95CBE4F2C93019689309105B9F712
:100AA00078942F960FB6F894DEBF0FBECDBFDF91BE
:100AB000CF911F910F91FF90EF90BF90AF909F90BB
:100AC0008F90089581E090E0909314028093130238
:100AD000609136018BE00E94DE00609135018AE072
:100AE0000E94DE006091340189E00E94DE00609186
:100AF000330188E00C94DE008BE00E94B50021E019
:100B0000892B09F420E0209336018AE00E94B50089
:100B100021E0892B09F420E02093350189E00E942F
:100B2000B50021E0892B09F420E02093340188E00E
:100B30000E94B50021E0892B09F420E020933301C5
:100B400060E08BE00E94DE0060E08AE00E94DE0050
:100B500060E089E00E94DE0060E088E00E94DE0044
:100B6000109214021092130264E670E080E090E0AC
:100B70000C947D024F925F926F927F928F929F9220
:100B8000AF92BF92CF92DF92EF92FF920F931F939B
:100B9000CF93DF936C017C0197FF04C0EE24FF2408
:100BA000E81AF90A1C141D040CF063C081E090E0FF
:100BB0009093760280937502C4E0D0E00AE010E0E2
:100BC000E114F10409F472C00E94580280908B0273
:100BD00090908C02A0908D02B0908E022B013C016F
:100BE000481859086A087B0880907702909078022C
:100BF000A0907902B0907A02481459046A047B04E8
:100C0000F8F260938B0270938C0280938D02909324
:100C10008E0280917F029091800220917502309126
:100C200076022130310571F5019690938002809310
:100C30007F0220917B0230917C028217930721F47E
:100C40001092800210927F0221E0E21AF108809156
:100C50007F029091800220917D0230917E02B80146
:100C60002530310509F0BE010E943C170E940C019D
:100C7000A7CFC114D10409F49FCF1092760210922D
:100C800075029ACF892B41F480917B0290917C026E
:100C90009093800280937F0280917F0290918002E6
:100CA00001979093800280937F02CECF0D2C000C91
:100CB000EE08FF08D701C601F7FE07C0882799276D
:100CC000DC018C199D09AE09BF09209141023091C8
:100CD0004202BC01CD01620F731F811D911D26EFE1
:100CE000422E27E0522E612C712CA30192010E940A
:100CF000FB1680903D0290903E02A0903F02B09083
:100D00004002820E931EA41EB51E80923D02909258
:100D10003E02A0923F02B092400270934202609362
:100D200041028091190290911A02A7019601280FA1
:100D3000391F411D511DCA01B901A30192010E9431
:100D4000C91697FF04C06A50784F8F4F9F4F70931A
:100D50001A02609319028091430290914402A0917B
:100D60004502B091460288159905AA05BB0531F1E7
:100D7000F89480913D0290913E02A0913F02B09183
:100D800040028093430290934402A0934502B093A3
:100D90004602789480910602811110C08091000271
:100DA000909101028F3F910519F010F08FEF90E0C4
:100DB000809359011092010210920002DF91CF91AD
:100DC0001F910F91FF90EF90DF90CF90BF90AF9069
:100DD0009F908F907F906F905F904F900895DF92DB
:100DE000EF92FF920F931F93CF93DF93082F81E031
:100DF00090E09093140280931302D0903002D110AF
:100E0000D0901B02E0901902F0901A0220917B0210
:100E100030917C02032E000C440B550B60E077E808
:100E200083E993E00E94C916CA01B9012AE030E0C3
:100E300040E050E00E94C916209377023093780278
:100E40004093790250937A02D0E0C0E010E0A89578
:100E500087E00E94B500009709F4C4C0019709F427
:100E600093C020911B028091190290911A028C3F2D
:100E700033E0930710F0865F974010921A021092A9
:100E8000190231E030931B022223A9F09C0197FF45
:100E900004C022273327281B390B283131055CF089
:100EA00020911C022F3F19F02F5F20931C0290937A
:100EB0001E0280931D0210921F02809100029091E9
:100EC00001028F3F980729F00196909301028093C9
:100ED0000002DD20D9F086EF97E08E199F09C81730
:100EE000D90708F47CC09E01281B390BC9019093D7
:100EF0005F0180935E0120915C0130915D012817B4
:100F0000390720F490935D0180935C0180915A022F
:100F100090915B020E94BA05109252021092510207
:100F20001092020210920302109204021092050223
:100F3000F8941092320181E0182710933101D09378
:100F40003001C0932F0180933002789401110E94E8
:100F50007C05CE01DF91CF911F910F91FF90EF9013
:100F6000DF90089587E00E94B500892B09F03FC00B
:100F7000A89581E090E00E94BA052196C33E27E142
:100F8000D20781F711E012C0209741F482E390E08C
:100F90000E94BA05C2E3D0E0219659CF81E090E0EB
:100FA0000E94BA05C33E37E1D307B4F31092520250
:100FB0001092510210921B0210921F02F89481E0CD
:100FC00080933201182710933101D0933001C093E0
:100FD0002F0178940E947C05CFEFDFEFBACF90E02D
:100FE00080E085CF209709F4BDCF11E03ACF82E3AE
:100FF00090E00E94BA05E29611E0D4CF4F925F9242
:101000006F927F929F92AF92BF92CF92DF92EF92B8
:10101000FF920F931F93CF93DF936C0187E00E94A1
:10102000B500BB24B394892B09F0B12CD0E0C0E00B
:10103000A12C99249394CC15DD050CF092C0A895B1
:1010400020E039EE43E95EE3609102027091030211
:1010500080910402909105020E9472172B013C01BD
:1010600020E030E040E85FE30E942F1818164CF1B2
:1010700040920202509203026092040270920502B2
:101080009DE2E92EF12C10E000E081E090E00E946A
:10109000BA0587E00E94B500892B09F05FC021E006
:1010A0002A1508F0A39482E0A81204C0BB20E9F03E
:1010B000BB24B3940F5F1F4FE016F10631F7219662
:1010C000BACF20E030E040E85FE3C301B2010E9404
:1010D000711760930202709303028093040290934D
:1010E00005028EE2E82EF12CCECF80910002909185
:1010F00001028F3F980729F0019690930102809397
:101100000002B0901B028091190290911A028C3F4C
:1011100023E0920710F0865F974010921A02109217
:10112000190290921B02BB2019F29C0197FF04C088
:1011300022273327281B390B283131050CF4B8CF6F
:1011400020911C022F3F19F02F5F20931C029093D7
:101150001E0280931D0290921F02ACCFA12CB12CD5
:10116000A9CFDF91CF911F910F91FF90EF90DF906A
:10117000CF90BF90AF909F907F906F905F904F9077
:1011800008958F929F92AF92BF92CF92DF92EF928B
:10119000FF92CF93DF93CDB7DEB728970FB6F894C1
:1011A000DEBF0FBECDBF80912E01882361F1BE014D
:1011B0006F5F7F4F88E0FB0111928A95E9F7EEE1BE
:1011C000F1E0DB018191882329F08D9381E0E63203
:1011D000F807C1F748E050E089E692E00E9460031A
:1011E00010922E0128960FB6F894DEBF0FBECDBF29
:1011F000DF91CF91FF90EF90DF90CF90BF90AF90B5
:101200009F908F90089580912D01882391F0809177
:101210005A0290915B0289839A8342E050E0BE01BA
:101220006F5F7F4F89E692E00E94600310922D016C
:10123000D9CF80912C01882399F08091510290910F
:101240005202898380958A8342E050E0BE016F5F3D
:101250007F4F89E692E00E94600310922C01C2CF7A
:1012600080912B01882349F140914302509144021F
:1012700060914502709146024983852E962EA72ED5
:10128000BB248A826B01EE24FF24CB82872F99270F
:10129000AA27BB278C8325EA242728252C258227EB
:1012A0008D8345E050E0BE016F5F7F4F89E692E09D
:1012B0000E94600310922B0195CF80912A01882310
:1012C00059F046E050E060E471E089E692E00E9467
:1012D000600310922A0186CF80912901882359F05A
:1012E00049E050E067E371E089E692E00E94600324
:1012F0001092290177CF80912801882359F048E086
:1013000050E066E471E089E692E00E94600310928A
:10131000280168CF80912701882359F04BE050E0E5
:101320006EE471E089E692E00E946003109227016A
:1013300059CF80912601882309F44BC020911302D4
:101340003091140281E0232B09F480E09091320166
:101350009111826090913101911184609091F0011E
:1013600091118061909130029111806220912F0142
:101370003091300189838091FF018A838091FE0141
:101380008B838091FD018C83809131029091320298
:101390009D8380913102909132028E838091490227
:1013A0008F8384E0369527958A95E1F72F3F3105A5
:1013B00019F010F02FEF30E0288748E050E0BE0130
:1013C0006F5F7F4F89E692E00E94600310922601D2
:1013D00009CF609113027091140289E692E00E9495
:1013E0006B0300CF1F93CF93DF93181619060CF0F1
:1013F000B3C0EC0181E080932E0289E692E00E9466
:1014000046039E01215031098D3291050CF4BFC075
:101410008058990B8931910508F0AEC0FC01ED5E52
:10142000F54F0C9450172C0A3A0A3E0A420A460A13
:101430004A0A4E0A520A560A5A0ABC0ABC0ABC0A8E
:10144000BC0ABC0ABC0A900A840A2C0A620A940AE2
:10145000B00AB40AB80A5E0A81E080935F02E9012B
:101460001C161D060CF078C089E692E00E94460327
:101470002197F6CF81E080932E01F1CF81E0809318
:101480002D01EDCF81E080932601E9CF81E08093AB
:101490002C01E5CF81E080932B01E1CF81E08093A7
:1014A0002A01DDCF81E080932901D9CF81E08093AB
:1014B0002801D5CF81E080932701D1CF81E08093AF
:1014C0003802CDCF223031050CF456C089E692E0C7
:1014D0000E944603182F89E692E00E9446039E016F
:1014E0002350310940E0582F412BCA018A50984FB0
:1014F0008D3E9F4008F040C050935D0240935C02D7
:1015000081E080935E02ABCF232BE9F089E692E085
:101510000E944603809350029E01225031099FCFC2
:1015200081E0809355029BCF232B69F089E692E0FE
:101530000E94460380934A029E012250310981E0B5
:1015400080934B028CCF809149028F3F29F080918C
:1015500049028F5F80934902DF91CF911F910895D7
:1015600081E0809348027BCF81E08093370277CF80
:1015700081E08093470273CF809149028F3F09F445
:101580006ECF809149028F5F8093490268CFC2304D
:10159000D10589F04CF0809149028F3F29F080916C
:1015A00049028F5F809349022197B1F289E692E068
:1015B0000E944603F9CF909354028093530289E628
:1015C00092E00E9446031816190614F081E090E09C
:1015D0009093070180930601BFCF0C94B316CF936D
:1015E000DF9385ED8093BC0080918201909183010F
:1015F000A0918401B09185010796A11DB11D23E042
:10160000B695A795979587952A95D1F72091BC0017
:1016100024FD03C01092CA0136C04091820150914E
:1016200083016091840170918501452B462B472BE6
:1016300069F30097A105B10541F02AE22A95F1F777
:1016400000C00197A109B109E1CF8091810191E02A
:10165000909380018823B9F0C091B800D091BA006E
:101660008091BC008A7B8093BC0060E082E10E9494
:10167000DE0060E083E10E94DE000E941803D09348
:10168000BA00C093B800DF91CF910895FF920F93F5
:101690001F93CF93DF93EC01F62E08811981C801C7
:1016A0000E94B316F81621F06F2DC8010E94BB16D8
:1016B000CE01DF91CF911F910F91FF900895AF92CE
:1016C000BF92CF92DF92EF92FF920F931F93CF932F
:1016D000DF9300D0CDB7DEB78B016B0124E0C20EE3
:1016E000D11C7B015C01A61AB70AC5018E0D9F1D96
:1016F0009A838983F70161917F01CE0101960E944F
:10170000460BEC14FD0489F7C8010F900F90DF9190
:10171000CF911F910F91FF90EF90DF90CF90BF90EE
:10172000AF900895CF93DF9300D0CDB7DEB79A8303
:101730008983CE0101960E94460B0F900F90DF9196
:10174000CF9108951F920F920FB60F9211242F93ED
:101750003F938F939F93AF93BF938091610290913A
:101760006202A0916302B09164023091600223E0B2
:10177000230F2D3758F50196A11DB11D209360024E
:101780008093610290936202A0936302B09364021B
:101790008091650290916602A0916702B091680203
:1017A0000196A11DB11D8093650290936602A093DE
:1017B0006702B0936802BF91AF919F918F913F9163
:1017C0002F910F900FBE0F901F90189526E8230FB2
:1017D0000296A11DB11DD2CF1F920F920FB60F928C
:1017E00011242F933F934F935F936F937F938F9326
:1017F0009F93AF93BF93EF93FF938091B900887F3E
:10180000803609F44AC0F0F5883209F4A7C018F50B
:10181000803109F49BC0B8F4882309F4F9C08830FA
:1018200009F494C0FF91EF91BF91AF919F918F9177
:101830007F916F915F914F913F912F910F900FBECC
:101840000F901F901895883109F488C0803251F7A5
:101850008093C90114C0803409F49DC040F48033E2
:10186000B9F38833F9F68093C90185ECB0C08035AF
:1018700009F485C0883509F496C0883499F60E9429
:10188000EF0AD0CF883909F48CC038F5883729F0B1
:1018900050F4883611F0803729F683E08093CA012E
:1018A0001092C80157C0883809F47BC0803919F0FC
:1018B000803809F0B7CF8091C801803208F071C03C
:1018C000E091C80181E08E0F8093C8018091BB0038
:1018D000F0E0E855FE4F80833DC0803B39F0E0F4F6
:1018E000803A09F479C0883A09F09CCF84E080936B
:1018F000CA011092A7011092A601E091F301F091A4
:10190000F40109958091A60181110FC081E08093B7
:10191000A6011092860109C0803C09F4A6CF883C3C
:1019200009F4A3CF883B09F07DCFE091A70181E0C6
:101930008E0F8093A701F0E0EA57FE4F80818093DD
:10194000BB009091A7018091A60129C08091EF0171
:101950008093BB0085EC8093BC0064CF9091EE0136
:101960008091ED01981758F5E091EE0181E08E0F1E
:101970008093EE01F0E0E353FE4F8081E9CFE091E8
:10198000EE0181E08E0F8093EE018091BB00F0E0CC
:10199000E353FE4F80839091EE018091ED01981703
:1019A000C8F285E8D8CFE091EE0181E08E0F8093F8
:1019B000EE018091BB00F0E0E353FE4F8083809105
:1019C000CC0181115CCF81E08093CB0184EA8093CC
:1019D000BC001092CA0126CF85EC8093BC00109207
:1019E000CA018091C801803230F4E091C801F0E072
:1019F000E855FE4F10826091C80170E0E091F1015E
:101A0000F091F20188EA91E009951092C8010ACF9D
:101A10001092C90134CFCF93DF93E9E6F2E013824D
:101A2000128288EE93E0A0E0B0E084839583A683E1
:101A3000B78380E191E091838083C5E7D2E01B8684
:101A40001A86198218821E8A1F8A188E198E86EFAE
:101A500097E09F838E838BE090E09D878C8789E061
:101A600090E09F878E878AE090E0998B888B88E052
:101A700090E09B8B8A8B61E08BE00E941C0261E00E
:101A80008E850E941C0261E088890E941C0261E030
:101A90008A890E941C021D8A1C8A84E090E0998732
:101AA0008887DF91CF910895CF93DF93CDB7DEB7CD
:101AB000C555D1090FB6F894DEBF0FBECDBF7894DF
:101AC00084B5826084BD84B5816084BD85B5826043
:101AD00085BD85B5816085BD80916E0081608093F4
:101AE0006E0010928100809181008260809381005D
:101AF000809181008160809381008091800081606D
:101B0000809380008091B10084608093B1008091C7
:101B1000B00081608093B00080917A0084608093EF
:101B20007A0080917A00826080937A0080917A00B6
:101B3000816080937A0080917A00806880937A0037
:101B40001092C10084B78093FF0114BE0FB6F894C1
:101B5000A895809160008861809360001092600079
:101B60000FBE86E090E00E94ED0A8A3509F095C12B
:101B700084E090E00E94ED0A8093FE0185E090E011
:101B80000E94ED0A8093FD018091FF0182FF0BC04E
:101B90006091FE016F3F39F06F5F6093FE0184E05A
:101BA00090E00E94920B8091FF0183FF0BC0609137
:101BB000FD016F3F39F06F5F6093FD0185E090E0BC
:101BC0000E94920B87E090E00E94ED0A782E8DE350
:101BD000870D823008F0BAC18E010F5F1F4F680178
:101BE000780108E010E0570134E0A30EB11C480171
:101BF0008E189F08C4018E0D9F1D0E94B316D70139
:101C00008D937D01AA15BB05A9F70C5F1F4F083402
:101C1000110549F7B3EC7B1254C1EE24E394F12C87
:101C2000EC0EFD1EE0E4EE0EF11CFE01319680E0AC
:101C300090E0DC0141915191619171914F3F2FEF03
:101C400052076207720739F084179507A607B7078E
:101C500010F4DB01CA01EE16FF0661F780933D0226
:101C600090933E02A0933F02B09340028CE3F82E83
:101C7000F60181919191A191B1916F01682F6F252A
:101C800069276A276B27C8010E94920B0F5F1F4FBD
:101C90000835110569F764EC87E090E00E94920B2B
:101CA00080913D0290913E02A0913F02B09140028E
:101CB0008093390290933A02A0933B02B0933C0286
:101CC0008093430290934402A0934502B09346024E
:101CD00062E086E00E941C0262E085E00E941C0235
:101CE00062E084E00E941C0262E083E00E941C0229
:101CF00060E087E00E941C0261E08DE00E941C020F
:101D000060E08DE00E94DE0082E090E00E94ED0A3B
:101D1000853A09F044C183E090E00E94ED0A9FEF0C
:101D2000980F9E3708F03BC191E09093F001082F87
:101D300010E010932D0200932C0290E080E00E94AE
:101D4000B316898381E090E00E94B3168A8389816B
:101D50009A818A50984F8D3E9F4010F01A821982C6
:101D600089819A8190935B0280935A020E949E041B
:101D700080E00E9423040E94D3030E947F031092FC
:101D8000F8011092F7011092F6011092F5010E94ED
:101D900018038BEB92E09093F4018093F30187ECAE
:101DA00092E09093F2018093F101000F0093BA004A
:101DB0008091BA0081608093BA0082EF99E090939D
:101DC000FA018093F90181EC98E09093FC018093F3
:101DD000FB0188E199E20FB6F894A8958093600022
:101DE0000FBE9093600080E480937C0080917A0025
:101DF000806480937A0080917A0086FDFCCFC09049
:101E00007800D09079000D2C000CEE08FF087601C8
:101E1000DD24CC240E945802C616D706E806F9062F
:101E200031F06C257D258E259F250E94AA160E94E3
:101E30005B162BEF30E040E050E00E94C916709333
:101E40002B0260932A02412CB7E85B2EB3E96B2E7C
:101E5000B3E07B2E22242394312CA8950E949E046B
:101E60000E94D3030E947F0300915F0262960FAF2E
:101E70006297002309F4C3C06AE070E080E090E05C
:101E80000E947D0288E198E00FB6F894A8958093AF
:101E900060000FBE90936000FFCF1092FE01109281
:101EA000FD0160E084E090E00E94920B60E085E03C
:101EB00090E00E94920B6AE586E090E00E94920B0F
:101EC00063CE7E01F1E4EF0EF11C5701C8010E94C0
:101ED000ED0AD5018D935D010F5F1F4F0835110588
:101EE000A9F741E050E04C0F5D1F405C5F4F812C33
:101EF000912C54013CE3F60181919191A191B19112
:101F00006F018F3FFFEF9F07AF07BF0781F0282FBB
:101F1000232729272A272B27F7016081621307C06F
:101F200088169906AA06BB0610F44C015D01FFEF66
:101F3000EF1AFF0A4C155D05F1F680923D02909272
:101F40003E02A0923F02B0924002AACE19821A82AB
:101F50001B821C8208E4E02EF12C08E010E0BE0198
:101F60006F5F7F4FC8010E945F0B6CE3C7010E9447
:101F7000920B0C5F1F4F2FEFE21AF20A0834110583
:101F800071F764EC87E090E00E94920B10923D02A2
:101F900010923E0210923F021092400281CE83E0E6
:101FA0000E94B50001E010E0892B11F010E000E084
:101FB00084E00E94B500892BC9F482E090E0080F0C
:101FC000191F85E00E94B500892B99F484E090E008
:101FD000080F191F86E00E94B500892B69F488E07C
:101FE00090E0080F191F0F5F1F4FA3CE90E080E015
:101FF000E6CF90E080E0ECCF90E080E0F2CF8091FF
:102000005E02882321F1F89400915C0210915D0238
:1020100010925E0210935B0200935A0278941A8227
:102020001982602FCE0101960E94460B3A822982C6
:10203000612FCE0101960E94460B0E94AF02609371
:1020400056027093570280935802909359028091E0
:1020500055028823C9F0F89410925502789481E0D3
:102060000E94EF06109254021092530210925202F4
:10207000109251020E94AF02609356027093570271
:10208000809358029093590280915002882309F45A
:1020900059C0F894F09050021092500278940E9427
:1020A0006205009106011091070120917B02309199
:1020B0007C02032E000C440B550BC301B2010E949D
:1020C000C916CA01B9019801110F440B550B0E94A2
:1020D000C916209377023093780240937902509387
:1020E0007A028F2DFF0C990B0E94BA0562E370E013
:1020F00080E090E00E947D020E947C050E94AF0279
:1021000060934C0270934D0280934E0290934F0265
:10211000672B682B692B61F421E030E040E050E050
:1021200020934C0230934D0240934E0250934F0245
:102130000E94AF0260935602709357028093580238
:102140009093590280914B028823B9F0F8946091E2
:102150004A0210924B0278948FEF860F8E3708F068
:102160001DC183E090E00E94920B65EA82E090E05E
:102170000E94920B81E080935F0280914802882345
:1021800061F0F8941092480278946FEF82E090E04A
:102190000E94920B81E080935F0280914702882326
:1021A00009F445C0F894109247021092430210922D
:1021B00044021092450210924602789410923D0219
:1021C00010923E0210923F02109240021092420280
:1021D000109241021092390210923A0210923B0280
:1021E00010923C0219821A821B821C82F8E4CF2EC4
:1021F000D12C08E010E0BE016F5F7F4FC8010E9444
:102200005F0B6CE3C6010E94920B0C5F1F4F3FEF08
:10221000C31AD30A0834110571F70E94AF02609304
:10222000560270935702809358029093590200917E
:102230003D0210913E0220913F0230914002809178
:10224000390290913A02A0913B02B0913C02B9014F
:10225000A801481B590B6A0B7B0BDB01CA018038B4
:102260009105A105B10590F109831A832B833C8365
:1022700057E036952795179507955A95D1F70F7022
:1022800010E0C8010296BE016F5F7F4F880F991F53
:10229000880F991F0E945F0B69812A819B818C8125
:1022A0003CE36327622769276827C801885B9F4F43
:1022B0000E94920B89819A81AB81BC818093390203
:1022C00090933A02A0933B02B0933C02F090380204
:1022D000FF2009F410C3F89410923802789481E03A
:1022E00080930702809306020E949E040E9462056A
:1022F00020917B0230917C02032E000C440B550B85
:10230000C301B2010E94C916CA01B9012AE030E036
:1023100040E050E00E94C916209377023093780283
:102320004093790250937A0287E00E94B500812C95
:10233000912C5401892B09F044C287E00E94B5001A
:10234000892B09F035C2A89581E090E00E94BA057A
:102350005FEF851A950AA50AB50A63EE861667E14E
:102360009606A104B10449F733E0309307021092B6
:1023700009021092080210920B0210920A021092A7
:102380000D0210920C021092520210925102109201
:1023900054021092530210921B0281C2F894809151
:1023A00049028F3F29F0809149028F5F8093490253
:1023B0007894E3CE113009F50F2D10E05401A89563
:1023C00081E090E00E94BA0545019FEF891A990AC1
:1023D000ADEE8A16AFE09A0639F287E00E94B500AA
:1023E000011106C0892B31F7BFEFCB1ADB0AE5CF0D
:1023F000892B19F7113009F413C211E0DFCF01E086
:1024000010E020E030E000934C0210934D02209346
:102410004E0230934F0255C22DE730E040E050E0CD
:102420000E94FB16CA01B901609570958095909540
:1024300061707727882799278DE00E94DE00B0C25F
:10244000215030E0A8E5B2E00E941D17AB01BC01AD
:10245000CF01B0E0A0E0805D9A48AF4FBF4F840F3E
:10246000951FA61FB71FC816D906EA06FB0608F473
:10247000CFC281E080932F020E94EF061092540297
:102480001092530210925202109251020E94AF0217
:1024900060935602709357028093580290935902AA
:1024A000B7C231E020E090E080E045C38091300287
:1024B00081111DC0C0900F02D0901002E090110257
:1024C000F0901202C114D104E104F10409F07BC0C0
:1024D0000E94AF0260930F0270931002809311026A
:1024E00090931202672B682B692B09F479C00E9424
:1024F000AF0260934C0270934D0280934E02909312
:102500004F02672B682B692B61F481E090E0A0E01B
:10251000B0E080934C0290934D02A0934E02B09392
:102520004F02AFEFBFEFB0930501A093040180917C
:102530002002909121028F3F980729F001969093F5
:102540002102809320020E94AF0266966CAF7DAF9D
:102550008EAF9FAF6697A0905102B0905202F0905C
:102560003002FF2021F00A151B050CF046C080E068
:102570000E94EF065C01C0900601D09007012091F7
:102580007B0230917C02032E000C440B550BC301DF
:10259000B2010E94C9160D2C000CEE08FF08CA01FA
:1025A000B901A70196010E94C916209377023093C2
:1025B00078024093790250937A02B7FEADC0812C25
:1025C000912C5401ECC00E94AF026C197D098E0958
:1025D0009F09603375478105910508F079CF17C3CE
:1025E00061E070E080E090E060930F027093100271
:1025F00080931102909312027ACF0E946205C090DC
:102600000601D090070120917B0230917C02032EBD
:10261000000C440B550BC301B2010E94C916CA013C
:10262000B9019601DD0C440B550B0E94C91620938D
:102630007702309378024093790250937A026801CE
:10264000CA18DB08A0910601B09107011A161B06F3
:1026500014F0A1E0B0E026EF37E00E9456179B018E
:10266000AC01C301B2010E94FB1649015A0126EFD9
:1026700037E0D6010E9456172DE230E040E050E0EE
:102680000E94FB16CA01B901A50194010E942C17F2
:1026900028EE33E040E050E00E94FB1649015A0169
:1026A000C6010E94FE071093520200935102FF20C0
:1026B00039F10E94AF02E0910E02AB01BC016696B7
:1026C0000CAD1DAD2EAD3FAD6697401B510B620B9F
:1026D000730B9501840192E0369527951795079520
:1026E0009A95D1F7800E911EA21EB31E8E2F8416CE
:1026F0009506A606B70608F059C0816080930E02C1
:1027000081E00E94230464E670E080E090E00E9493
:102710007D020E947C057BC2A0910601B091070159
:102720001A161B0614F0A1E0B0E026EF37E00E9475
:1027300056179B01AC01C301B2010E94FB1669014F
:102740007A0126EF37E0D8010E9456172DE230E0DB
:1027500040E050E00E94FB16CA01B901A7019601B2
:102760000E942C1728EE33E040E050E00E94FB1658
:1027700069017A0120E83BE0D5010E94561728EE56
:1027800033E040E050E00E94FB1646015701820E04
:10279000931EA41EB51EE1E06296EFAF6297C801DA
:1027A0000E94FE076296FFAC62977DCF8E7FA6CF18
:1027B00082E390E00E94BA0532E3830E911CA11CD3
:1027C000B11C87E00E94B500892B99F0A89581E0A3
:1027D00090E00E94BA057FEF871A970AA70AB70A06
:1027E00083EE881687E19806A104B1040CF0BCCDF5
:1027F000E8CF10921A021092190281E080931B0216
:102800000E94AF0266966CAF7DAF8EAF9FAF6697AA
:1028100000E010E0CC24C394D12CB12CA12CCFCD5E
:102820000E94AF02DC01CB0166960CAD1DAD2EAD52
:102830003FAD6697801B910BA20BB30B009711E085
:10284000A107B10520F08FEF9FEFA0E0B0E09093DB
:102850000D0280930C02B0920902A0920802D0925D
:102860000B02C0920A0222E02093070210921A0281
:102870001092190281E080931B0280915A0290917C
:102880005B020E94BA0510925202109251021092FD
:10289000020210920302109204021092050210929A
:1028A0001F020E94AF02611571058105910509F4AF
:1028B000A6CD60934C0270934D0280934E0290938C
:1028C0004F0264E670E080E090E00E947D020E948A
:1028D0007C051092010210920002109206020E94E2
:1028E0009E040E94AF026093560270935702809339
:1028F000580290935902809137028823F1F0F8949E
:102900001092370278940E94AF0260933302709362
:1029100034028093350290933602672B682B692B23
:1029200061F421E030E040E050E020933302309346
:10293000340240933502509336020E94AF026B017D
:102940007C018091330290913402A0913502B091C4
:1029500036020097A105B10519F1C0925602D09236
:102960005702E0925802F092590297018601081B23
:10297000190B2A0B3B0BC901B801683B1BE071071F
:102980008105910508F448CD60E08DE00E94DE00ED
:1029900010923302109234021092350210923602D5
:1029A000C701B60128EE33E040E050E00E94FB167C
:1029B0002115310561E04607510520F02FEF3FEF6B
:1029C00040E050E0F8943093320220933102789442
:1029D0008091300281111CC080912F02811118C09A
:1029E0009091300280912E02911112C020912C0200
:1029F000E0912A02F0912B02882309F421CD70EC9A
:102A0000C71674EDD70671E0E706F10408F031CD82
:102A10008091260290912702A0912802B09129026C
:102A200097018601081B190B2A0B3B0BD901C80122
:102A3000883E9340A105B10558F0C0922602D0927D
:102A40002702E0922802F092290280E00E942304EB
:102A50008091220290912302A0912402B09125023C
:102A6000A7019601281B390B4A0B5B0BDA01C90140
:102A700080369A4EA105B105A8F0C0922202D092EC
:102A80002302E0922402F09225028091200290918C
:102A900021029C0136952795821B930B909321026E
:102AA0008093200280911F02882309F459C020914D
:102AB0005102309152028091530290915402281792
:102AC000390709F04DC08091560290915702A091AC
:102AD0005802B0915902B701A601481B590B6A0B65
:102AE0007B0BDB01CA01803D9740A105B105C0F118
:102AF0008091150290911602A0911702B0911802D0
:102B00000097A105B10569F097018601081B190B13
:102B10002A0B3B0BD901C80180369A4EA105B1059D
:102B2000F8F0C114D104E104F10409F4BACC3C2D4D
:102B30002D2D9E2D8F2D30931502209316029093EC
:102B400017028093180281E00E94EF060E94AF02F4
:102B500060935602709357028093580290935902E3
:102B60008091560290915702A0915802B09159025B
:102B7000A7019601281B390B4A0B5B0BDA01C9012F
:102B8000803D9740A105B10590F083B7817F83BF59
:102B900083B7816083BF889583B78E7F83BFC092E0
:102BA0005602D0925702E0925802F09259022091B8
:102BB0005102309152028091530290915402281791
:102BC000390729F100915302109154020D32110579
:102BD000F0F4C0904C02D0904D02E0904E02F09084
:102BE0004F02C114D104E104F10409F45FCC0E9446
:102BF000AF026C197D098E099F09613D77408105FF
:102C0000910508F053CC309214022092130220E078
:102C100030E0232B09F421C90E9400001BC98F92C8
:102C20009F92AF92BF92CF92DF92EF92FF92CF939B
:102C3000DF93EC01688179818A819B81611571053F
:102C40008105910521F464E279ED8BE597E02DE1B2
:102C500033EF41E050E00E94C91649015A019B013F
:102C6000AC01A7EAB1E40E94E8166B017C01ACEE6E
:102C7000B4EFA50194010E94F616C60ED71EE81EF9
:102C8000F91EF7FE06C081E0C81AD108E10880E805
:102C9000F80AC882D982EA82FB82C701B6019F770F
:102CA000DF91CF91FF90EF90DF90CF90BF90AF90EA
:102CB0009F908F9008958F929F92AF92BF92CF92E4
:102CC000DF92EF92FF92609108017091090180916B
:102CD0000A0190910B01611571058105910521F49F
:102CE00064E279ED8BE597E02DE133EF41E050E0D0
:102CF0000E94C91649015A019B01AC01A7EAB1E43F
:102D00000E94E8166B017C01ACEEB4EFA5019401C2
:102D10000E94F616C60ED71EE81EF91EF7FE06C064
:102D200081E0C81AD108E10880E8F80AC0920801D9
:102D3000D0920901E0920A01F0920B01C701B6019D
:102D40009F77FF90EF90DF90CF90BF90AF909F90D4
:102D50008F900895609308017093090180930A0190
:102D600090930B010895F999FECF92BD81BDF89A19
:102D7000992780B50895262FF999FECF1FBA92BDE5
:102D800081BD20BD0FB6F894FA9AF99A0FBE01964C
:102D90000895052E97FB1EF400940E94E01657FD3F
:102DA00007D00E94FB1607FC03D04EF40C94E016EB
:102DB00050954095309521953F4F4F4F5F4F089567
:102DC00090958095709561957F4F8F4F9F4F089597
:102DD0000E941D17A59F900DB49F900DA49F800D7C
:102DE000911D11240895B7FF0C94E8160E94E8166F
:102DF000821B930B0895A1E21A2EAA1BBB1BFD0197
:102E00000DC0AA1FBB1FEE1FFF1FA217B307E407C9
:102E1000F50720F0A21BB30BE40BF50B661F771F21
:102E2000881F991F1A9469F7609570958095909501
:102E30009B01AC01BD01CF010895A29FB001B39FDA
:102E4000C001A39F700D811D1124911DB29F700DB3
:102E5000811D1124911D0895DB018F939F930E9482
:102E6000E816BF91AF91A29F800D911DA39F900D79
:102E7000B29F900D1124089597FB072E16F400942D
:102E800007D077FD09D00E945D1707FC05D03EF4FE
:102E9000909581959F4F0895709561957F4F089506
:102EA000EE0FFF1F0590F491E02D09940E941D176D
:102EB000B7FF0895821B930B0895AA1BBB1B51E11A
:102EC00007C0AA1FBB1FA617B70710F0A61BB70B9A
:102ED000881F991F5A95A9F780959095BC01CD013F
:102EE00008955058BB27AA270E9489170C94F517FC
:102EF0000E94E71738F00E94EE1720F039F49F3F48
:102F000019F426F40C94E4170EF4E095E7FB0C9406
:102F1000DE17E92F0E94061858F3BA1762077307E5
:102F20008407950720F079F4A6F50C9428180EF480
:102F3000E0950B2EBA2FA02D0B01B90190010C01C9
:102F4000CA01A0011124FF27591B99F0593F50F4E1
:102F5000503E68F11A16F040A22F232F342F442739
:102F6000585FF3CF469537952795A795F040539531
:102F7000C9F77EF41F16BA0B620B730B840BBAF001
:102F80009150A1F0FF0FBB1F661F771F881FC2F76C
:102F90000EC0BA0F621F731F841F48F48795779580
:102FA0006795B795F7959E3F08F0B0CF9395880F3A
:102FB00008F09927EE0F97958795089597F99F67E1
:102FC00080E870E060E008959FEF80EC08950024B1
:102FD0000A941616170618060906089500240A947E
:102FE00012161306140605060895092E0394000C04
:102FF00011F4882352F0BB0F40F4BF2B11F460FF93
:1030000004C06F5F7F4F8F4F9F4F089557FD9058BB
:10301000440F551F59F05F3F71F04795880F97FB9C
:10302000991F61F09F3F79F0879508951216130656
:103030001406551FF2CF4695F1DF08C01616170685
:103040001806991FF1CF86957105610508940895BA
:10305000E894BB2766277727CB0197F908950E944C
:10306000341808F48FEF0895990F0008550FAA0B34
:10307000E0E8FEEF16161706E807F907C0F012168B
:103080001306E407F50798F0621B730B840B950B8E
:1030900039F40A2661F0232B242B252B21F40895E3
:1030A0000A2609F4A140A6958FEF811D811D089580
:0430B000F894FFCFC2
:1030B400FFFFFFFFFFFF0A00010000000000000007
:1030C4006B0360037C033603590346033703353827
:0630D40061653435650062
:00000001FF
