:100000000C94A2020C94CA020C94CA020C94CA0268
:100010000C94CA020C94CA020C94CA020C94CA0230
:100020000C94CA020C94CA020C94CA020C94CA0220
:100030000C94CA020C94CA020C94CA020C94CA0210
:100040000C9403130C94CA020C94CA020C94CA02B6
:100050000C94CA020C94CA020C94CA020C94CA02F0
:100060000C944D130C94CA02112484B78EBB14BE99
:10007000E0E6F0E088E18083108211E0A0E0B1E0EA
:10008000EEEFFEE702C005900D92AA31B107D9F755
:1000900021E0AAE1B1E001C01D92AE39B207E1F75B
:1000A00080E384B92D9AF0E0E0E085919491019687
:1000B00011F41092000188E08BBD85E085BD8AB106
:1000C00087788AB98BB188678BB986E9000081503F
:1000D000E9F789B183FB882780F991E089274C9B58
:1000E00082604D9B84604E9B88608F5F880F8093F9
:1000F000BA0084E48093BC0093E0E92E0DE911E09E
:10010000D1E025E0F22E31E1D32E4CE0C42E89E07F
:10011000B82E80919D01813239F41092BC0015BC3B
:1001200015B8F0E0E0E009958091BC0087FF18C0A9
:10013000C091BC008091B900887F803A09F47CC0EE
:1001400040F5803809F447C0883809F46CC080361F
:1001500009F0B6C010921A012C9AC068C093BC0076
:10016000A89BD7CFF6BC85B190E2892785B980914D
:100170000001882361F08AB58F5F8ABD883038F02E
:100180001ABC8BB5823008F49DC081508BBDD5BBA5
:10019000BECF883B49F0803C09F48FC0883A09F013
:1001A0008FC010921A012C9A80911A0191E0980F39
:1001B00090931A0190919D019231D1F0923231F1D8
:1001C000913079F58F70E82FF0E0E75FFE4F808186
:1001D0008093BB00C2CF6091BB0080911A0191E077
:1001E000980F90931A0175D08111B7CFCF7BB5CFFF
:1001F0006C2DADD0E92FF0E0983018F4EF5FFE4F92
:10020000E6CF3897B09257008491E2CFE0911B017E
:10021000F0911C0184913196F0931C01E0931B0135
:10022000D7CF8FEFD5CF6091BB0080911A0191E0BD
:10023000980F90931A014DD080919D01823409F05E
:100240003AC0CF7B8C2F80688093BC0080911B01CB
:1002500090911C018115ECE79E0768F5FC01E09286
:100260005700E89507B600FCFDCFADE1B1E0AC0169
:100270004D5151402C91FA01EA0FFB1F11963C9110
:1002800011970901D0935700E895112412960A1787
:100290001B0781F79C0120583F4F30931C0120938E
:1002A0001B01FC01F0925700E89507B600FCFDCF5A
:1002B000D0925700E89510921A012C98C0644DCF47
:1002C000C0614BCF813009F062CF81E280939D0104
:1002D0005ECF8130C1F058F0843058F580E09091C5
:1002E0001B01862B90931C0180931B0106C0633079
:1002F00030F48AEE8BBD60939D0181E0089591E218
:1003000090939D01089590919D01913021F092303C
:1003100041F080E0089581E26038D9F780939D0133
:10032000F8CF611102C092E1EBCF92E2613089F720
:10033000E7CF90919D01923261F78450E82FF0E071
:10034000E35EFE4F60838F37C0F282E4E7CF991BF4
:1003500079E004C0991F961708F0961B881F7A95BC
:10036000C9F780950895011E950F807C0000005309
:1003700046020BFFFFFFFFFFFFFFFFFFFFFFFF0036
:10038000FFFFFFFFFFFFFFFFFFFFFFFFFFFFFFFF7D
:10039000FFFFFFFFFFFFFFFFFFFFFFFFFFFFFFFF6D
:1003A000FFFFFFFFFFFFFFFFFFFFFFFFFFFFFFFF5D
:1003B000FFFFFFFFFFFFFFFFFFFFFFFFFFFFFFFF4D
:1003C000FFFFFFFFFFFFFFFFFFFFFFFFFFFFFFFF3D
:1003D000FFFFFFFFFFFFFFFFFFFFFFFFFFFFFFFF2D
:1003E000FFFFFFFFFFFFFFFFFC010A0167BFE8956A
:1003F00077B770FDFDCF11240895FFFFFFFFFFFFCA
:10040000FFFFFFFFFFFFFFFFFFFFFFFFFFFFFFFFFC
:10041000FFFFFFFFFFFFFFFFFFFFFFFFFFFFFFFFEC
:10042000FFFFFFFFFFFFFFFFFFFFFFFFFFFFFFFFDC
:10043000FFFFFFFFFFFFFFFFFFFFFFFFFFFFFFFFCC
:10044000FFFFFFFFFFFFFFFFFFFFFFFFFFFFFFFFBC
:10045000FFFFFFFFFFFFFFFFFFFFFFFFFFFFFFFFAC
:10046000FFFFFFFFFFFF01FEFC010A0167BFE895E8
:1004700077B770FDFDCF11240895FFFFFFFFFFFF49
:10048000FFFFFFFFFFFFFFFFFFFFFFFFFFFFFFFF7C
:10049000FFFFFFFFFFFFFFFFFFFFFFFFFFFFFFFF6C
:1004A000FFFFFFFFFFFFFFFFFFFFFFFFFFFFFFFF5C
:1004B000FFFFFFFFFFFFFFFFFFFFFFFFFFFFFFFF4C
:1004C000FFFFFFFFFFFFFFFFFFFFFFFFFFFFFFFF3C
:1004D000FFFFFFFFFFFFFFFFFFFFFFFFFFFFFFFF2C
:1004E000FFFFFFFFFFFF01FE0000000024002700C8
:1004F0002A0000000000250028002B00000000005A
:100500002300260029000404040404040404020255
:100510000202020203030303030301020408102082
:10052000408001020408102001020408102000008D
:1005300000080002010000030407000000000000A2
:1005400000006C1411241FBECFEFD8E0DEBFCDBF7A
:1005500011E0A0E0B1E0ECE0F8E402C005900D92FB
:10056000A633B107D9F722E0A6E3B1E001C01D929E
:10057000AB3FB207E1F712E0C2EAD2E004C0219734
:10058000FE010E94FC22C13AD107C9F70E94B514AE
:100590000C9404240C940000E091F501F091F60114
:1005A000309729F01092CE021092CD02099408954E
:1005B000CF93DF93AC01E091F301F091F401309718
:1005C000F1F09091D0028091CF029817C0F090E0A6
:1005D000292F30E02617370754F4D901A755BD4F0E
:1005E000240F351FE90128812C939F5FF1CF1092D2
:1005F000D0026093CF02CB01DF91CF910994DF91BC
:10060000CF9108959091D0028091CF022FEF3FEFCC
:10061000981748F4E92FF0E0E755FD4F208130E0CE
:100620009F5F9093D002C90108959091D00280916C
:10063000CF022FEF3FEF981748F4E92FF0E0E7558E
:10064000FD4F208130E09F5F9093D002C901089553
:10065000833081F028F4813099F08230A9F0089538
:100660008730A9F08830C9F08430B1F480918000DF
:100670008F7D03C0809180008F77809380000895E4
:1006800084B58F7784BD089584B58F7DFBCF80912D
:10069000B0008F778093B00008958091B0008F7D77
:1006A000F9CFCF93DF93282F30E0F901E25DFA4FC5
:1006B0008491F901E65EFA4FD491F901EA5FFA4FAD
:1006C000C491CC23A1F081110E942803EC2FF0E00B
:1006D000EE0FFF1FE450FB4FA591B491EC91ED2379
:1006E00081E090E009F480E0DF91CF91089580E00F
:1006F00090E0FACF1F93CF93DF93282F30E0F901DA
:10070000E25DFA4F8491F901E65EFA4FD491F90166
:10071000EA5FFA4FC491CC23A9F0162F81110E94F1
:100720002803EC2FF0E0EE0FFF1FEE50FB4FA591DA
:10073000B4918FB7F894EC91111108C0D095DE23D5
:10074000DC938FBFDF91CF911F910895DE2BF8CFFF
:10075000CF93DF93EC018091E5029091E60202973E
:1007600049F4C130D10509F43BC06CF560E0209735
:1007700009F437C08091E5029091E602049749F4AC
:10078000C130D10509F45CC00CF037C0209709F4E2
:1007900042C08091E5029091E602059709F0E5C01C
:1007A000CA30D10508F0E1C0FE01E752FC4F0C94BD
:1007B000FC223804440455046B04860488048F0426
:1007C0009B04AC04B304C230D105A9F060E0C3308F
:1007D000D10581F68091E9020E947A0360E006C0AB
:1007E00061E08091E9020E947A0361E08091EB026E
:1007F0000E947A03BFCF61E0EDCFC230D10539F15D
:10080000C330D10509F0C5CF61E08091E9020E94B3
:100810007A0360E022C061E08091E9020E947A03DD
:1008200060E08091EB020E947A0361E08091ED022A
:100830000E947A0360E08091EF020E947A03A9CFC0
:1008400060E08091E9020E947A0361E0EACF60E013
:100850008091E9020E947A0361E08091EB020E949C
:100860007A0360E08091ED020E947A0361E0E3CFB9
:1008700060E08091E9020E947A0361E08091EB02DE
:100880000E947A0361E00BC060E08091E9020E945F
:100890007A0361E08091EB020E947A0360E080912C
:1008A000ED020E947A0360E010C060E08091E902EE
:1008B0000E947A0361E08091EB020E947A0360E07B
:1008C0008091ED020E947A0361E08091EF020E9424
:1008D0007A0361E015C060E08091E9020E947A032A
:1008E00061E08091EB020E947A0360E08091ED026A
:1008F0000E947A0361E08091EF020E947A0360E037
:100900008091F102DF91CF910C947A0361E0E4CF02
:1009100061E08091E9020E947A0360E0E2CF61E049
:100920008091E9020E947A0360E08091EB020E94CC
:100930007A0361E0DBCF61E08091E9020E947A03F3
:1009400060E08091EB020E947A0361E08091ED0209
:100950000E947A0360E0CFCF61E08091E9020E94BB
:100960007A0360E08BCF60E0F8CFDF91CF910895FC
:10097000CF93DF9390E0FC01E65EFA4F24918A5F0B
:100980009A4FFC0184918823C9F090E0880F991F49
:10099000FC01E851FB4FA591B491FC01EE50FB4FD7
:1009A000C591D49161110DC09FB7F8948C91209599
:1009B00082238C938881282328839FBFDF91CF9146
:1009C0000895623051F49FB7F8943C91822F80953E
:1009D00083238C93E8812E2BEFCF8FB7F894EC9183
:1009E0002E2B2C938FBFEACF3FB7F8948091A502AE
:1009F0009091A602A091A702B091A80226B5A89B4B
:100A000005C02F3F19F00196A11DB11D3FBFBA2FA0
:100A1000A92F982F8827BC01CD01620F711D811D60
:100A2000911D42E0660F771F881F991F4A95D1F7E5
:100A300008958F929F92AF92BF92CF92DF92EF92E2
:100A4000FF924B015C010E94F4046B017C010E9447
:100A5000F4046C197D098E099F09683E7340810575
:100A60009105A8F321E0821A9108A108B10888EE47
:100A7000C80E83E0D81EE11CF11C81149104A1046E
:100A8000B10429F7FF90EF90DF90CF90BF90AF9027
:100A90009F908F9008952FB7F8946091A102709164
:100AA000A2028091A3029091A4022FBF08952091E9
:100AB000A801260F3327331F21323105ECF4209192
:100AC000CC01FC0190E080E0243069F082E00895E0
:100AD000A091A8012191AC0148575E4FA40FB52FFA
:100AE000B11D2C930196861798F38091A801680F89
:100AF0006093A80180E0089581E008951092CC01F0
:100B000081E08093CE011092CD0161E082E10E94EC
:100B10007A0361E083E10E947A03E9EBF0E08081EF
:100B20008E7F808380818D7F808388E48093B8006E
:100B300085E48093BC000895CF93C82F1092D00213
:100B40001092CF021092CE021092CD020E947E052A
:100B50008CEC92E09093CA028093C90288ED92E0F7
:100B60009093CC028093CB02CC0FC093BA00CF916C
:100B700008950895E091D0028091CF02E81730F4F3
:100B8000F0E0E755FD4F808190E008958FEF9FEFF3
:100B900008958091CF029091D002891B990B0895FE
:100BA000CF93DF93CB01EA01642F0E945705CE015A
:100BB000DF91CF910895CF93DF931F92CDB7DEB72A
:100BC000698361E0CE0101960E94570581E090E0C3
:100BD0000F90DF91CF91089590E080E00895CF933A
:100BE000DF93CDB7DEB72B970FB6F894DEBF0FBEFD
:100BF000CDBFA0918001F0918101E0917E017091C3
:100C00007F0120910501309106012F3F320721F429
:100C100020917C0130917D016091040150913F024F
:100C20004091400280910402883008F087E0880FEC
:100C300090912702917F892BA983FA83EB837C8390
:100C40002D833E836F83588749878A87FE013196BB
:100C50009E01255F3F4FDF0180E09D918927A2170C
:100C6000B307D9F793E989278B87F89490E080E060
:100C70002191DC01AF58BE4F2C9301968B3091052A
:100C8000B9F778942B960FB6F894DEBF0FBECDBFA0
:100C9000DF91CF910895CF93DF93CDB7DEB728973B
:100CA0000FB6F894DEBF0FBECDBF50917C014091CE
:100CB0007D0180910201909103018F3F980711F40B
:100CC000852F942F60917A0270917B022091000110
:100CD000309101012F3F320711F430E020E05983B9
:100CE0004A838B839C836D832E833F83FE013196E1
:100CF0009E01285F3F4FDF0180E09D918927A21769
:100D0000B307D9F79CE389278887F89490E080E0BF
:100D10002191DC01A759BE4F2C9301968830910593
:100D2000B9F7789428960FB6F894DEBF0FBECDBF02
:100D3000DF91CF9108951F93CF93DF9300D0CDB76C
:100D4000DEB7182F8EE480937C0062E070E080E0D4
:100D500090E00E94190580917A00806480937A0067
:100D600080917A0086FDFCCF209178003091790047
:100D70002115310531F510927D0110927C012091F1
:100D8000F7023091F8022115310511F42BEF32E012
:100D9000CE010196821B930B97FF02C090E080E08A
:100DA00020910001309101018217930720F4909364
:100DB0000101809300010F900F90DF91CF911F915F
:100DC000089550E040E064EB7BE281E190E00E9416
:100DD000A7222115310581E04807510508F18FEF61
:100DE0009FEF90937D0180937C01209102013091CF
:100DF00003018217930720F490930301809302016B
:100E0000112309F4BCCF209105013091060182170E
:100E1000930708F0B4CF9093060180930501AFCFFC
:100E2000C90130937D0120937C01DFCF8F929F9287
:100E3000AF92BF92EF92FF920F931F93CF93DF93E6
:100E4000CDB7DEB72F970FB6F894DEBF0FBECDBF7C
:100E500000913D02809139028111026080909A02D6
:100E600090909B02E0903B02F0903C0210913A027D
:100E70002FEF882399F1609137027091380290E04A
:100E800080E0092C000CAA08BB08681979098A09B6
:100E90009B0926EF37E040E050E00E9475229B015D
:100EA000AC0157FF04C02A50384F4F4F5F4FADE29F
:100EB000B0E00E94942265507C4F8F4F9F4F26EFE9
:100EC00037E040E050E00E94A722CA01B9012DE2BC
:100ED00030E040E050E00E94A722262F2A870B87AF
:100EE0001C87C70131E8E3163FEFF30614F481E8ED
:100EF0009FEF8038910514F08FE790E08D871E8674
:100F000067EB61276827602762276F8780911F0240
:100F1000898390912002809121029A838B83909102
:100F20002202809123029C838D83909124028091E0
:100F300025029E838F83809126028887FE01319649
:100F40009E01275F3F4FDF0180E09D918927A21717
:100F5000B307D9F79CE589278987F894BE01665FB6
:100F60007F4F90E080E0DB014D91BD019C012D5948
:100F70003E4FD9014C93019686309105A1F790E040
:100F800080E02191DC01A65ABE4F2C930196893056
:100F90009105B9F778942F960FB6F894DEBF0FBE7F
:100FA000CDBFDF91CF911F910F91FF90EF90BF9038
:100FB000AF909F908F90089581E090E090933602DB
:100FC00080933502609159018BE00E947A03609111
:100FD00058018AE00E947A036091570189E00E94DB
:100FE0007A036091560188E00C947A038BE00E94AA
:100FF000510321E0892B09F420E0209359018AE074
:101000000E94510321E0892B09F420E0209358012C
:1010100089E00E94510321E0892B09F420E020930C
:10102000570188E00E94510321E0892B09F420E058
:101030002093560160E08BE00E947A0360E08AE032
:101040000E947A0360E089E00E947A0360E088E011
:101050000E947A03109236021092350264E670E024
:1010600080E090E00C9419054F925F926F927F920E
:101070008F929F92AF92BF92CF92DF92EF92FF92A8
:101080000F931F93CF93DF936C017C0197FF04C0F4
:10109000EE24FF24E81AF90A1C141D040CF063C0A6
:1010A00081E090E09093DE028093DD02C4E0D0E026
:1010B0000AE010E0E114F10409F472C00E94F404A3
:1010C0008090F3029090F402A090F502B090F602A6
:1010D0002B013C01481859086A087B088090DF0200
:1010E0009090E002A090E102B090E202481459040E
:1010F0006A047B04F8F26093F3027093F402809325
:10110000F5029093F6028091E7029091E802209117
:10111000DD023091DE022130310571F501969093A8
:10112000E8028093E7022091E3023091E402821703
:10113000930721F41092E8021092E70221E0E21AEC
:10114000F1088091E7029091E8022091E502309148
:10115000E602B8012530310509F0BE010E94E822FF
:101160000E94A803A7CFC114D10409F49FCF109205
:10117000DE021092DD029ACF892B41F48091E302C6
:101180009091E4029093E8028093E7028091E70255
:101190009091E80201979093E8028093E702CECF06
:1011A0000D2C000CEE08FF08D701C601F7FE07C0A2
:1011B00088279927DC018C199D09AE09BF09209168
:1011C000680230916902BC01CD01620F731F811D5D
:1011D000911D26EF422E27E0522E612C712CA30187
:1011E00092010E94A7228090640290906502A090D4
:1011F0006602B0906702820E931EA41EB51E8092F6
:10120000640290926502A0926602B09267027093A7
:101210006902609368028091370290913802A701B9
:101220009601280F391F411D511DCA01B901A301A3
:1012300092010E94752297FF04C06A50784F8F4F29
:101240009F4F709338026093370280916A029091A9
:101250006B02A0916C02B0916D0288159905AA05E8
:10126000BB0531F1F8948091640290916502A091E0
:101270006602B091670280936A0290936B02A0931A
:101280006C02B0936D02789480911E02811110C09F
:1012900080911602909117028F3F910519F010F07E
:1012A0008FEF90E0809304011092170210921602C3
:1012B000DF91CF911F910F91FF90EF90DF90CF9032
:1012C000BF90AF909F908F907F906F905F904F9066
:1012D00008954F925F926F927F929F92AF92BF92CA
:1012E000CF92DF92EF92FF920F931F93CF93DF93F2
:1012F0006C0187E00E945103BB24B394892B09F051
:10130000B12CD0E0C0E0A12C99249394CC15DD053C
:101310000CF092C0A89520E039EE43E95EE36091BD
:101320001A0270911B0280911C0290911D020E9472
:101330001E232B013C0120E030E040E85FE30E94E7
:10134000DB2318164CF140921A0250921B02609255
:101350001C0270921D029DE2E92EF12C10E000E0CB
:1013600081E090E00E94340887E00E945103892BBD
:1013700009F05FC021E02A1508F0A39482E0A812CA
:1013800004C0BB20E9F0BB24B3940F5F1F4FE016ED
:10139000F10631F72196BACF20E030E040E85FE374
:1013A000C301B2010E941D2360931A0270931B02B5
:1013B00080931C0290931D028EE2E82EF12CCECF7A
:1013C00080911602909117028F3F980729F001969D
:1013D0009093170280931602B090390280913702E1
:1013E000909138028C3F23E0920710F0865F97407F
:1013F000109238021092370290923902BB2019F2F3
:101400009C0197FF04C022273327281B390B283162
:1014100031050CF4B8CF20913A022F3F19F02F5F1D
:1014200020933A0290933C0280933B0290923D02BB
:10143000ACCFA12CB12CA9CFDF91CF911F910F91EF
:10144000FF90EF90DF90CF90BF90AF909F907F90F4
:101450006F905F904F9008958F929F92AF92BF923E
:10146000CF92DF92EF92FF920F931F93CF93DF9370
:10147000CDB7DEB76D970FB6F894DEBF0FBECDBF08
:101480008091050210920502209152013091530182
:101490002F5F3F4F30935301209352018130B9F5B4
:1014A0004DE251E0FE013196CF01BF01DA012D91ED
:1014B000AD01DC012D93CD01B1E045335B07B1F700
:1014C00081E089879F01275F3F4F80E091918927C5
:1014D0002E173F07D9F79BE489278A874AE050E017
:1014E00081ED92E00E94D0056D960FB6F894DEBFB4
:1014F0000FBECDBFDF91CF911F910F91FF90EF9065
:10150000DF90CF90BF90AF909F908F9008958230E2
:1015100081F420919A0230919B0229833A838DE1D4
:10152000822783278B8343E050E0BE016F5F7F4FAC
:10153000D7CF843081F420914F028091780290912E
:101540007902211102C08FEF90E0898380958A8310
:1015500042E050E0EACF853001F540916A025091B7
:101560006B0260916C0270916D024983852E962EFC
:10157000A72EBB248A826B01EE24FF24CB82872F07
:101580009927AA27BB278C8325EA242728252C25E1
:1015900082278D8345E050E0C8CF46E050E063E607
:1015A00071E0863009F49CCF49E050E06AE571E0D3
:1015B000873009F495CF48E050E069E671E0883063
:1015C00009F48ECF8930E1F5FE01319690E080E09C
:1015D000DC01AF58BE4F2C91219301968B309105C1
:1015E000B9F78091560290915702A0915802B0919C
:1015F0005902409150015091510120915201309176
:101600005301609114028C879D87AE87BF87488BFA
:10161000598B2A8B3B8B6C8BFE013C9621E030E092
:101620002C0F3D1F2C5E3F4F80E0919189272E1794
:101630003F07D9F796EC89278D8B45E150E075CFB0
:101640004FE050E061E471E08A3009F449CF4BE0AB
:1016500050E066E371E08B3009F442CF833009F04B
:1016600061C0209135023091360281E0232B09F4CC
:1016700080E090911902911182609091180291116D
:1016800084609091F2019111806190914F029111CB
:10169000806220915401309155018E8B8091F90127
:1016A0008F8B8091F801888F8091F701898F8091CD
:1016B0005002909151029A8F809150029091510264
:1016C0008B8F809170028C8F84E0369527958A9558
:1016D000E1F72F3F310519F010F02FEF30E02D8F9B
:1016E0008E010A5E1F4FFE0131969E01225E3F4F22
:1016F000CF01BF01D8014D918D01DC014D93CD018A
:1017000002171307B9F79F01285F3F4F80E09191BF
:1017100089272E173F07D9F79EE78927898749E050
:1017200050E0DECE609135027091360281ED92E09C
:101730000E94DB05D9CE9F92AF92BF92CF92DF92EB
:10174000EF92FF920F931F93CF93DF9300D000D0BF
:10175000CDB7DEB7109205022091500130915101B2
:101760002F5F3F4F309351012093500118161906F7
:101770000CF084C16C0181E080934D020E9415033E
:101780007C018601015011098D3291050CF44DC187
:10179000B82E809189028470A82E82E9E81641F063
:1017A0008E1568F190E8E91619F0E0E9EE122BC009
:1017B0000F3F110511F00CF04CC0902E01151105D2
:1017C00039F00E941503860102501109911044C09E
:1017D000AA20C9F0F0E8BF16B1F0809170028F3FE7
:1017E00029F0809170028F5F8093700210161106AD
:1017F0000CF044C10E94150301501109F7CF8BE68C
:101800008E0D8430A8F28E2D8058990BFC014B97D9
:1018100008F077C0E25FF34F0C94FC22350C410CCA
:10182000450C470C490C4B0C4D0C4F0C510C530CF8
:10183000550C570C810C810C810C810CBE0C940C46
:10184000350C5D0CC20CD70CDB0CDF0C590CE30C17
:10185000FC0C99249A94B5CF41E09412BECF9E2DF2
:101860009095891709F4CFCFB8CF81E080939F027C
:10187000101611060CF002C10E9415030150110947
:10188000F7CF81E080930502F3CF82E0FBCF83E0C6
:10189000F9CF84E0F7CF85E0F5CF86E0F3CF87E09E
:1018A000F1CF88E0EFCF89E0EDCF8AE0EBCF8BE09E
:1018B000E9CF81E080935F02DBCF043011050CF1AA
:1018C000FE0131967F016E01F5E0CF0ED11C0E9422
:1018D0001503F70181937F01CE16DF06C1F704508F
:1018E000110989819A819C01209530954B815C81F9
:1018F0004217530731F49C012A50384F2D3E3F4088
:1019000058F0809170028F3F09F4B2CF809170023D
:101910008F5F80937002ACCF90939D0280939C0266
:1019200081E080939E02A4CF802F0F3F110511F01C
:101930000CF08FEFF82E80E0E12C1016110654F415
:101940000E941503E82E0130110561F00E94150375
:101950000250110941E0F41209C0A110D2CFE09267
:10196000770286CF80E010E000E0F4CF92E0F91239
:10197000C8CF9E2D90958913C4CFF1CF81E080937D
:10198000810276CF023011050CF4BBCF0E94150303
:10199000F82E0E941503025011099F2D909598135F
:1019A000B0CFF092710281E08093720261CF81E04A
:1019B00080936F025DCF81E080935E0259CF81E01A
:1019C00080936E0255CF023011050CF49ACF0E941D
:1019D0001503F82E0E941503025011099F2D9095B2
:1019E00098138FCF8F2D8A7F09F08BCFF0929402BE
:1019F00081E0809395023CCF023011050CF481CF39
:101A00000E941503F82E0E941503025011098F251C
:101A10008F3F09F076CF8F0D823008F072CFF092B1
:101A2000820281E08093830223CFE2E0CE16D104CC
:101A300089F04CF0809170028F3F29F08091700204
:101A40008F5F8093700241E0C41AD108B9F00E9400
:101A50001503F9CF90937B0280937A020E941503BD
:101A60008D30910514F08CE090E01816190614F0F2
:101A700081E090E090930801809307010F900F9010
:101A80000F900F90DF91CF911F910F91FF90EF90EA
:101A9000DF90CF90BF90AF909F9008950F931F93CA
:101AA000CF93DF9300D000D0CDB7DEB7DC01F9993A
:101AB000FECFF894F999FECF89E0E1E0F0E0809361
:101AC00057003491F0E0E0E0809357002491E3E088
:101AD000F0E0809357009491E2E0F0E080935700AB
:101AE00084917894AE014F5F5F4F10E000E0F80101
:101AF0006491FA016193AF010F5F1F4F043011052C
:101B0000B1F7498124132BC04A81341328C04B817B
:101B1000841325C04C81941322C014961C921497F0
:101B2000F999FECFF894F999FECF81E2F0E0E0E078
:101B300080935700E4911596EC931597E2E0F0E05E
:101B400080935700E4911696EC931697E4E0F0E04A
:101B500080935700849117968C9378940DC041E040
:101B600014964C9314973C9311962C9311971296BC
:101B70009C93129713968C930F900F900F900F9049
:101B8000DF91CF911F910F9108950F931F93CF93E2
:101B9000DF93CDB7DEB72F970FB6F894DEBF0FBE39
:101BA000CDBF109188029091890280913E02B09140
:101BB0008A02A0918B02F0918C02E0918D027091CB
:101BC0008E0260918F02509190024091910230916B
:101BD00092022091930201E009831A839B8387FD7F
:101BE00037C090E0833008F090E8892B8C83BD8368
:101BF000AE83FF83E88779876A875B874C873D8759
:101C00002E87FE0131969E01215F3F4FDF0180E06C
:101C10009D918927A217B307D9F79EE689278F8759
:101C2000F89490E080E02191DC01AF5BBE4F2C93F3
:101C300001968F309105B9F778942F960FB6F894E6
:101C4000DEBF0FBECDBFDF91CF911F910F910895E1
:101C50008FE7CACFBF92CF92DF92EF92FF920F939E
:101C60001F93CF93DF93C82FD0E0C850DF4FD69596
:101C7000DC2FCC27D795C79550E040E063E0CE013C
:101C8000E0ECFFE309958E0108591B4790E4B92E5B
:101C900080E09CE79C0128563040690120ECE22E50
:101CA0002FE3F22EF80144913196E4915E2F61E02A
:101CB000C601800F911FF7010995BA940E5F1F4F5F
:101CC000B110F0CF50E040E065E0CE01F70109959A
:101CD00050E040E061E1CE01F701DF91CF911F912B
:101CE0000F91FF90EF90DF90CF90BF900994E0E0CC
:101CF000FCE7859194918C30944939F4E2E0FCE75B
:101D00002591349181E0232B09F080E00895FF9222
:101D10000F931F93CF93DF9383E0F82EC0ECDFE3A4
:101D200050E040E063E080E09CE7FE0109954CE074
:101D300054E961E080E09CE7FE01099550E040E055
:101D400061E082E09CE7FE01099504E01CE74FEFAB
:101D50005FEF61E0C801FE0109950E5F1F4F00387B
:101D6000FCE71F07A1F750E040E065E080E09CE75A
:101D7000FE01099550E040E061E180E09CE7FE0152
:101D800009950E94770E811103C0FA94F110C8CF13
:101D9000DF91CF911F910F91FF90089520E8829FCE
:101DA000C0011124AC0140585F4F8417950761F0C2
:101DB000FC01F4582491FC01E859FF4FE49101968D
:101DC0002E1799F380E0089581E008958F929F92F5
:101DD000AF92BF92CF92DF92EF92FF92C12CD12CA3
:101DE000760130E020E04FEF5FEFBA01F901F458DF
:101DF000E4914E27E8E04A015B01B694A7949794DA
:101E00008794417055276627772770956095509580
:101E100041955F4F6F4F7F4F40725378687B7D7E57
:101E2000482559256A257B25E15029F72F37E3E01E
:101E30003E0731F46A017B01C094D094E094F094A1
:101E40002F5F3F4F2115F4E03F0781F6FC01C4826C
:101E5000D582E682F78240955095609570954083D3
:101E6000518362837383E0E0FCE725913491FC01A8
:101E700031872087E2E0FCE725913491FC0133872C
:101E80002287FF90EF90DF90CF90BF90AF909F9010
:101E90008F9008950F931F93CF93DF93CDB7DEB745
:101EA000A5970FB6F894DEBF0FBECDBFCE010F963B
:101EB0000E94E60E8EE0EDE0F1E0DE011196019069
:101EC0000D928A95E1F7CE0101960E944E0D4F8545
:101ED000588969897A8949875A876B877C8784E022
:101EE0004F3B2DE352072EE5620726EC7207C9F13E
:101EF000483686EA580782E2680784EE780709F4D4
:101F000072C0443599E259079CE1690798E0790766
:101F100009F469C081E04D3D2AE3520727E16207D9
:101F200028E17207F1F04F3E89EB580788EF680708
:101F300082EB780709F459C08F89988D8C309449C9
:101F400029F4898D9A8D892B09F451C081E00B8980
:101F50001C892D893E890434194E2442354209F0EA
:101F600080E08D87909115029E872D81222309F4B0
:101F700040C039813B8F3A813C8F3B813D8F3C8112
:101F80003E8F4F8F58A369A37AA38BA380E02111C2
:101F900001C080E8982B9CA3FE017B969E012B5DDF
:101FA0003F4FDF0180E09D9189272A173B07D9F732
:101FB0009AE589278DA3F89490E080E02191DC01D7
:101FC000AA5CBE4F2C9301968B309105B9F778949B
:101FD000A5960FB6F894DEBF0FBECDBFDF91CF91AF
:101FE0001F910F91089585E0BCCF82E0BACF83E0C6
:101FF000B8CF3FEF3B8F3E813C8F3F813D8F38858F
:10200000BFCFCF93DF93CDB7DEB72C970FB6F89441
:10201000DEBF0FBECDBFCE0101960E94E60E8981C4
:102020009A81AB81BC818F3B2DE392072EE5A207FD
:1020300026ECB207D9F1883626EA920722E2A207F7
:1020400024EEB207B1F1843529E292072CE1A20710
:1020500028E0B20771F18D3D2AE3920727E1A2073C
:1020600028E1B20741F18F3E994BA84FB24B29F1BD
:1020700089859A858C30944921F48B859C85892BA0
:10208000F1F081E090E04D815E816F81788544348C
:10209000594E6442754209F080E02C960FB6F894D0
:1020A000DEBF0FBECDBFDF91CF91089584E090E0F9
:1020B000F4CF85E0FCCF81E0FACF82E0F8CF83E077
:1020C000F6CFCF93DF93DFB7F894F999FECF80E88E
:1020D0008093BC000E94770E811102C00E94870E7F
:1020E000C1E0811106C086E090E0DFBFDF91CF91B3
:1020F0000895C730A1F08C2F0E94CE0E811106C02A
:102100008C2F0E942A0E8C2F0E94CE0ECF5FE9CF1B
:102110000E940110049739F782E090E0E6CF80E05A
:102120000E942A0E80E00E94CE0E8111F1CF0E9403
:10213000870ED9CF282FFC0180E0919189279E2F0F
:10214000921B9617D0F384270895CF93DF93FC0159
:10215000EB01808188838181898382818A83838165
:102160008B8384818C8385818D8386818E83878117
:102170008F83808588878185898782858A87838503
:102180008B8784858C8785858D8741E76EE0CE01BE
:102190000E949A108E87DF91CF9108950C945F2250
:1021A000CF93DF9385ED8093BC0080918401909163
:1021B0008501A0918601B09187010796A11DB11DEF
:1021C00023E0B695A795979587952A95D1F7209105
:1021D000BC0024FD03C01092CC0136C040918401A4
:1021E000509185016091860170918701452B462BA6
:1021F000472B69F30097A105B10541F02AE22A9522
:10220000F1F700C00197A109B109E1CF80918301E5
:1022100091E0909382018823B9F0C091B800D091E9
:10222000BA008091BC008A7B8093BC0060E082E1B0
:102230000E947A0360E083E10E947A030E947E0597
:10224000D093BA00C093B800DF91CF9108951F9347
:10225000CF93DF93EC01162F0E945F22181739F0FD
:10226000612FCE01DF91CF911F910C946722DF91F6
:10227000CF911F9108951F93CF93DF9300D0CDB7D7
:10228000DEB710E0811115EA198346E961E0CE015D
:1022900001960E949A108A83612F8AE190E00E9441
:1022A00027116A818BE190E00E942711F999FECFF6
:1022B0000F900F90DF91CF911F910895EF92FF92B1
:1022C0000F931F93CF93DF93CDB7DEB72F970FB642
:1022D000F894DEBF0FBECDBFBE016F5F7F4F86E8B3
:1022E00092E00E94A5108E010F5F1F4F88E0E82E3C
:1022F000F12CF80161918F01C7010E942711FFEFB6
:10230000EF1AFF0A87E1E816F10499F70E94C50D5C
:102310002F960FB6F894DEBF0FBECDBFDF91CF91E1
:102320001F910F91FF90EF900895DF92EF92FF922F
:102330000F931F93CF93DF93082F81E090E090934A
:1023400036028093350280934E02D0904F02D11016
:10235000D0903902E0903702F09038022091E302E9
:102360003091E402032E000C440B550B60E077E83B
:1023700083E993E00E947522CA01B9012AE030E0A6
:1023800040E050E00E9475222093DF023093E0028B
:102390004093E1025093E202D0E0C0E010E0A89543
:1023A00087E00E945103009709F4F1C0019709F4F6
:1023B000A4C02091390280913702909138028C3F5D
:1023C00033E0930710F0865F974010923802109226
:1023D000370231E0309339022223A9F09C0197FFA4
:1023E00004C022273327281B390B283131055CF024
:1023F00020913A022F3F19F02F5F20933A029093D9
:102400003C0280933B0210923D0280911602909113
:1024100017028F3F980729F0019690931702809337
:102420001602DD2041F186EF97E08E199F09C8174B
:10243000D90708F4A9C09E01281B390BC901909344
:1024400081018093800120917E0130917F012817C6
:10245000390720F490937F0180937E0120918A02B6
:1024600030918B022817390730F490938B028093B8
:102470008A020E945E1180919A0290919B020E94B2
:102480003408109279021092780210921A02109277
:102490001B0210921C0210921D02F8941092190255
:1024A00081E0182710931802D0935501C09354016E
:1024B00080934F0278940E944B0510927C02011188
:1024C0000E94F607CE01DF91CF911F910F91FF90EF
:1024D000EF90DF90089587E00E945103892B09F067
:1024E0005BC0A89581E090E00E9434082196C33E2D
:1024F00027E1D20781F711E012C0209741F482E36F
:1025000090E00E943408C2E3D0E0219648CF81E0F9
:1025100090E00E943408C33E37E1D307B4F3109231
:102520007902109278021092390210923D02F894CA
:1025300081E080931902182710931802D093550157
:10254000C093540110924F027894809188028F3F7B
:1025500019F08F5F809388020E945E110E94F60737
:102560000E944B0520917C022F3F19F02F5F209392
:102570007C0260937D0270937E0280937F02909331
:102580008002CFEFDFEF9ECF90E080E058CF209722
:1025900009F4A1CF11E00DCF82E390E00E9434084E
:1025A000E29611E0B8CF9F92AF92BF92CF92DF92A6
:1025B000EF92FF920F931F93CF93DF935C017B0108
:1025C0008B01D0E0C0E0F80191908F016501CC0E45
:1025D000DD1EC6010E945F22981621F0692DC601FA
:1025E0000E9467222196C430D10569F7C701DF91A7
:1025F000CF911F910F91FF90EF90DF90CF90BF9000
:10260000AF909F9008951F920F920FB60F921124D2
:102610002F933F938F939F93AF93BF938091A1028A
:102620009091A202A091A302B091A4023091A002C5
:1026300023E0230F2D3758F50196A11DB11D2093DE
:10264000A0028093A1029093A202A093A302B09350
:10265000A4028091A5029091A602A091A702B09138
:10266000A8020196A11DB11D8093A5029093A60218
:10267000A093A702B093A802BF91AF919F918F91B1
:102680003F912F910F900FBE0F901F90189526E845
:10269000230F0296A11DB11DD2CF1F920F920FB62C
:1026A0000F9211242F933F934F935F936F937F93D8
:1026B0008F939F93AF93BF93EF93FF938091B90054
:1026C000887F803609F44AC0F0F5883209F4A7C043
:1026D00018F5803109F49BC0B8F4882309F4F9C0D7
:1026E000883009F494C0FF91EF91BF91AF919F9111
:1026F0008F917F916F915F914F913F912F910F90AB
:102700000FBE0F901F901895883109F488C0803251
:1027100051F78093CB0114C0803409F49DC040F47C
:102720008033B9F38833F9F68093CB0185ECB0C0E0
:10273000803509F485C0883509F496C0883499F647
:102740000E94D010D0CF883909F48CC038F5883772
:1027500029F050F4883611F0803729F683E0809311
:10276000CC011092CA0157C0883809F47BC0803967
:1027700019F0803809F0B7CF8091CA01803208F093
:1027800071C0E091CA0181E08E0F8093CA018091EF
:10279000BB00F0E0E655FE4F80833DC0803B39F042
:1027A000E0F4803A09F479C0883A09F09CCF84E0DB
:1027B0008093CC011092A9011092A801E091C90266
:1027C000F091CA0209958091A80181110FC081E0A2
:1027D0008093A8011092880109C0803C09F4A6CF1B
:1027E000883C09F4A3CF883B09F07DCFE091A90193
:1027F00081E08E0F8093A901F0E0E857FE4F8081C1
:102800008093BB009091A9018091A80129C080917B
:10281000F1018093BB0085EC8093BC0064CF909164
:10282000F0018091EF01981758F5E091F00181E0F7
:102830008E0F8093F001F0E0E153FE4F8081E9CFED
:10284000E091F00181E08E0F8093F0018091BB0058
:10285000F0E0E153FE4F80839091F0018091EF0111
:102860009817C8F285E8D8CFE091F00181E08E0F8B
:102870008093F0018091BB00F0E0E153FE4F808334
:102880008091CE0181115CCF81E08093CD0184EAFB
:102890008093BC001092CC0126CF85EC8093BC00C5
:1028A0001092CC018091CA01803230F4E091CA01CB
:1028B000F0E0E655FE4F10826091CA0170E0E091B1
:1028C000CB02F091CC028AEA91E009951092CA01FC
:1028D0000ACF1092CB0134CFCF93DF93E1EDF2E03A
:1028E0001382128288EE93E0A0E0B0E084839583A7
:1028F000A683B7838FE191E091838083CDEDD2E011
:102900001B861A86198218821E8A1F8A188E198EB3
:1029100086EF97E09F838E838BE090E09D878C8786
:1029200089E090E09F878E878AE090E0998B888B82
:1029300088E090E09B8B8A8B61E08BE00E94B8047A
:1029400061E08E850E94B80461E088890E94B80425
:1029500061E08A890E94B8041D8A1C8A84E090E0A4
:1029600099878887DF91CF910895CF93DF93CDB773
:10297000DEB7A5970FB6F894DEBF0FBECDBF789433
:1029800084B5826084BD84B5816084BD85B5826074
:1029900085BD85B5816085BD80916E008160809325
:1029A0006E0010928100809181008260809381008E
:1029B000809181008160809381008091800081609E
:1029C000809380008091B10084608093B1008091F9
:1029D000B00081608093B00080917A008460809321
:1029E0007A0080917A00826080937A0080917A00E8
:1029F000816080937A0080917A00806880937A0069
:102A00001092C10014B78EB3182B14BE1EBA0FB6A5
:102A1000F894A8958091600088618093600010927E
:102A200060000FBE0E940110039709F0C3C087E049
:102A30000E94CE0E882309F4BFC00E9461108093CB
:102A4000150290E080E00E94CE10813009F456C05B
:102A500019821A824DE262E0CE0101960E949A101C
:102A60008B8360E084E090E00E9427116A8185E01A
:102A700090E00E9427116B8186E090E00E94271170
:102A8000CE0140962EE0DC011D922A95E9F7BE01A9
:102A90006F5F7F4F0E94A510FE0131966F01E8E045
:102AA000EE2EF12CD6016D916D01C7010E94271108
:102AB000BFEFEB1AFB0AE7E1EE16F10499F781E0AC
:102AC00089831A821B824AE563E0CE0101960E9447
:102AD0009A108C83682F83E090E00E9427116B810D
:102AE00082E090E00E9427116A8181E090E00E94DC
:102AF0002711698190E080E00E9427119E012F5FDD
:102B00003F4F690178E0E72EF12CC7010E94CE10FB
:102B1000D6018D936D01BFEFEB1AFB0AE7E1EE16CC
:102B2000F10499F70F8541E76EE0CE0101960E940E
:102B30009A10081709F442C08EE0E6E8F2E0DF01DF
:102B40001D928A95E9F700E08AE190E00E94CE109C
:102B5000F82E888B8BE190E00E94CE10E82E898BB6
:102B600046E961E0CE0140960E949A108E1152C053
:102B7000B5EA80E0FB1203C00E943B1181E0912F77
:102B80009F7010FD51C012FD51C013FF45C081114F
:102B900048C083E09093F901823011F00C948D21AC
:102BA000809186028F3F19F08F5F809386020E948A
:102BB0005E1141C080E043CF83E041CF89818093A3
:102BC00086028A81809387028B81809388028C8120
:102BD000809389028D819E8190938B0280938A02DB
:102BE0008F81988590938D0280938C0289859A8538
:102BF00090938F0280938E028B859C859093910297
:102C0000809390028D859E8590939302809392028B
:102C100001E09ACF80E0B3CF80E011FFBBCF85E029
:102C2000B9CF906884E0B6CF81E0B4CF82E0B2CF74
:102C3000002309F4BCCF809186028093F801809133
:102C400087028093F70188E190E00E94CE10182F50
:102C5000898389E190E00E94CE10082F8A834BE49B
:102C600061E0CE0101960E949A10801302C01230DA
:102C7000F9F000E410E060E0C8010E9427110F5F46
:102C80001F4F003CE2E01E07B1F782E089834BE46E
:102C900061E0CE0101960E949A108A83682F89E133
:102CA00090E00E942711698188E190E00E9427113D
:102CB00004E410E0C12CD12C76016CE3762E48019F
:102CC000F4E08F1A91089E012F5F3F4F5901C40114
:102CD0000E945F22D5018D935D01BFEF8B1A9B0A85
:102CE00008151905A1F7C8010E94CE1049815A8123
:102CF0006B817C814F3FEFEF5E076E077E0771F0BF
:102D0000942F9725952796279727891307C0C416D0
:102D1000D506E606F70610F46A017B010B5F1F4F2C
:102D20000439110561F6C0926402D0926502E09206
:102D30006602F0926702C0926002D0926102E09255
:102D40006202F0926302C0926A02D0926B02E09239
:102D50006C02F0926D0262E086E00E94B80462E0CC
:102D600085E00E94B80462E084E00E94B80462E05A
:102D700083E00E94B80460E087E00E94B80461E04C
:102D80008DE00E94B80460E08DE00E947A038E011D
:102D90000F5F1F4F780110E000E0C8010E945F2222
:102DA000D7018D937D010F5F1F4F04301105A9F7E7
:102DB0001981113009F0D4C00C814AE563E0CE01DD
:102DC00001960E949A100813CBC08B8180FFC8C067
:102DD0000A818FEF800F8E3708F0C2C01093F20186
:102DE00010E010934C0200934B0284E090E00E94AC
:102DF000CE10E82E898385E090E00E94CE10F82E58
:102E00008A8386E090E00E94CE10D82E8B834DE21C
:102E100062E0CE0101960E949A108D11D1C09701F7
:102E20002A50384F2D3E3F4010F0F12CE12CF0920B
:102E30009B02E0929A020E94160780E00E949B0685
:102E40000E944B060E94EF050E94C50D0E944A0F8A
:102E5000802F0E949C058091BA0081608093BA0007
:102E60008BE99BE09093F4018093F3018CE29AE06C
:102E70009093F6018093F50188E199E20FB6F894FA
:102E8000A895809360000FBE9093600080E48093CB
:102E90007C0080917A00806480937A0080917A002F
:102EA00086FDFCCFC0907800D09079000D2C000CEE
:102EB000EE08FF087601DD24CC240E94F404C61637
:102EC000D706E806F90631F06C257D258E259F256D
:102ED0000E9456220E9407222BEF30E040E050E093
:102EE0000E94752270934A0260934902812C37E850
:102EF000932E33E9A32E33E0B32E212C312C210164
:102F00002394A8950E944B056B017C0186B18073C8
:102F1000803309F058C01092FA010E944B056B01F2
:102F20007C0196B12091BA008091BC0085748534F3
:102F300039F480914B02880F8160281709F4ACC0E6
:102F4000809106028111C9C081E080930602C0927F
:102F50000702D0920802E0920902F0920A02D3C05E
:102F600083E00E94510301E010E0892B11F010E092
:102F700000E084E00E945103892BC9F482E090E0D4
:102F8000080F191F85E00E945103892B99F484E0F2
:102F900090E0080F191F86E00E945103892B69F405
:102FA00088E090E0080F191F0F5F1F4F1ACF90E0C5
:102FB00080E0E6CF90E080E0ECCF90E080E0F2CFE0
:102FC000F12CE12C2CCF8091FA0181110BC081E012
:102FD0008093FA01C092FB01D092FC01E092FD01C6
:102FE000F092FE018091FB019091FC01A091FD0106
:102FF000B091FE0197018601081B190B2A0B3B0BB0
:10300000D901C801C297A105B10508F486CF809106
:10301000FF018823B1F08091000290910102A091FC
:103020000202B0910302A7019601281B390B4A0B3B
:103030005B0BDA01C901883E9340A105B10508F494
:103040006CCF80E88093BC00109205028BE490E086
:103050000197F1F716B180914B020E949C05809177
:10306000BA0081608093BA0081E08093FF01C09232
:103070000002D0920102E0920202F0920302107369
:10308000103309F04ACF809104028F3F09F445CFF5
:103090008F5F8093040241CF109206020E941607B0
:1030A0000E944B060E94EF0500919F02002309F445
:1030B0008AC06AE070E080E090E00E94190581E03B
:1030C0000E943B1188E198E00FB6F894A895809390
:1030D00060000FBE90936000FFCF40910B025091B3
:1030E0000C0260910D0270910E0297018601041B83
:1030F000150B260B370BB901A8014B3051056105A3
:10310000710508F021CFC0920B02D0920C02E09220
:103110000D02F0920E024091070250910802609158
:10312000090270910A0297018601041B150B260BF8
:10313000370BB901A801423351056105710508F447
:10314000ADCF9073903309F0A9CF80910F028823FF
:10315000B1F08091100290911102A0911202B091F1
:103160001302A7019601281B390B4A0B5B0BDA01EE
:10317000C901883E9340A105B10508F48FCF80E8CE
:103180008093BC001092050280914B020E949C0526
:103190008091BA0081608093BA0081E080930F0231
:1031A000C0921002D0921102E0921202F092130229
:1031B00010920602809114028F3F09F46FCF8F5F47
:1031C000809314026BCF80919E02882371F1F89452
:1031D000E0909C02F0909D0210929E02F0929B0261
:1031E000E0929A027894E982FA824DE262E0CE019E
:1031F00001960E949A108B836E2D84E090E00E94CD
:1032000027116A8185E090E00E9427116B8186E09A
:1032100090E00E9427110E944B05609396027093E4
:103220009702809398029093990280919502882347
:10323000C1F0F89480919402109295027894809352
:1032400089020E945E1110928402109285020E94EF
:103250004B05609396027093970280939802909327
:10326000990280918302882309F4A9C0F894F09010
:10327000820210928302789480914F02882309F48D
:10328000B7C28091350290913602892B09F0B0C205
:10329000A8958EE0EDE0F1E0DE01119601900D922F
:1032A0008A95E1F7CE0101960E944E0D41E0F4129D
:1032B00003C081E00E943B1119818D81811101C001
:1032C0001FEF0E94011051E0F51238C0019711F074
:1032D0000C949C2114FD02C00C94A321F894F9993C
:1032E000FECF80E88093BC00ADE1B1E0FD01E55B7D
:1032F000FC4FE491ED93AD3961E0B607B9F7A895BD
:1033000088E19CE00FB6F894A895809360000FBE0A
:10331000909360001124AA24BB2423E0922E21E084
:10332000022F25E0D22E21E1C22E2DE9E22E21E04E
:10333000F22E10E080E89FE70C942D3FA2E0FA16F1
:1033400009F436C28091150223E0E22EF12C82307E
:1033500009F047C28091BC0082FD25C080E88093BF
:10336000BC0010914B021092D0021092CF0210922A
:10337000CE021092CD020E947E05ECECF2E0F093BA
:10338000CA02E093C90288EDC82E82E0D82ED092FE
:10339000CC02C092CB02110F1093BA008091BA00F8
:1033A00081608093BA000E944A0F0E944B0560938F
:1033B000960270939702809398029093990280915D
:1033C0008102882381F1F8941092810278940E94FE
:1033D0004B0520917C02222389F0C0907D02D09081
:1033E0007E02E0907F02F09080026C197D098E09C8
:1033F0009F09603375478105910558F081E00E946F
:10340000951110927B0210927A021092790210921A
:1034100078020E944B056093960270939702809306
:1034200098029093990280917702882309F457C0FB
:10343000F894109177021092770278940E94DC073A
:10344000C0900701D09008012091E3023091E4027E
:10345000032E000C440B550BC501B4010E947522CC
:103460000D2C000CEE08FF08CA01B901A701960156
:103470000E9475222093DF023093E0024093E10224
:103480005093E202812F110F990B0E94340862E3DE
:1034900070E080E090E00E9419050E94F6070E940B
:1034A0004B0560937302709374028093750290933E
:1034B0007602672B682B692B41F4209273023092BD
:1034C000740240927502509276020E944B056093FE
:1034D000960270939702809398029093990280913C
:1034E0007202882361F1F894909171021092720235
:1034F00078948FEF890F8E3708F07EC181E0898341
:103500009A838B834AE563E0CE0101960E949A106C
:103510008C839E012F5F3F4F6901F12CE12CD60176
:103520006D916D01C7010E942711BFEFEB1AFB0AD5
:10353000E4E0EE16F10499F781E080939F02809118
:103540006F02882329F1F89410926F02789481E039
:1035500089831A821B824AE563E0CE0101960E94AC
:103560009A108C839E012F5F3F4F6901F12CE12C53
:10357000D6016D916D01C7010E942711BFEFEB1AB3
:10358000FB0AE4E0EE16F10499F781E080939F02D4
:1035900080916E02882309F444C0F89410926E0260
:1035A00010926A0210926B0210926C0210926D02DD
:1035B0007894109264021092650210926602109242
:1035C00067021092690210926802109260021092D3
:1035D0006102109262021092630219821A821B82A7
:1035E0001C8210E4E12EF12CA895BE016F5F7F4F85
:1035F000C7010E94D3126CE3C70104960E942711F1
:10360000F5E0EF0EF11C10E9E116F10469F70E94F4
:103610004B05609396027093970280939802909363
:1036200099028091640290916502A0916602B09126
:103630006702409160025091610260916202709154
:103640006302481759076A077B0759F189839A83F0
:10365000AB83BC838F7025E0829F70011124BE0173
:103660006F5F7F4FC701805C9F4F0E94D3126981BB
:103670002A819B818C813CE3632762276927682725
:10368000C7018C5B9F4F0E94271189819A81AB8172
:10369000BC818093600290936102A0936202B09318
:1036A0006302C0905F02CE8ECC2009F4A3C1F894CF
:1036B00010925F02789481E080931F0280934E0203
:1036C00010922602109221021092200210922302E0
:1036D00010922202109225021092240280931E0260
:1036E0000E9416070E94DC072091E3023091E40259
:1036F000032E000C440B550BC501B4010E9475222A
:10370000CA01B9012AE030E040E050E00E94752291
:103710002093DF023093E0024093E1025093E202F3
:1037200087E00E945103C12CD12C7601892B09F02E
:1037300078C087E00E945103892B09F069C0A895E1
:1037400081E090E00E9434081FEFC11AD10AE10A1B
:10375000F10A23EEC21627E1D206E104F10449F78B
:1037600081E08093260283E080931F021092790209
:103770001092780210927B0210927A021092390213
:1037800010923D02F89410924F0278940E944B05DB
:1037900020917C022F3F19F02F5F20937C026093D1
:1037A0007D0270937E0280937F0290938002C9C055
:1037B0009C01225031092230310518F0059709F09B
:1037C000C1CD14FF11C087E00E94CE0E882309F4FA
:1037D000B9CD0E9461107C01B3E0EB16F10409F44D
:1037E000B1CDE0921502B6CD94E0E92EF12CF9CFDF
:1037F00085E080931502D7CDF894809170028F3FB9
:1038000029F0809170028F5F80937002789497CE38
:1038100082E390E00E94340832E3C30ED11CE11C25
:10382000F11C87E00E945103892B09F490C5A895EB
:1038300081E090E00E9434084FEFC41AD40AE40AF1
:10384000F40A53EEC51657E1D506E104F1044CF332
:1038500082E087CF11E06301A89581E090E00E94AB
:10386000340836016FEF661A760A8DEE68168FE01F
:10387000780641F483E080932602F0922302E092DE
:10388000220271CF87E00E94510301110BC0892BE6
:1038900029F49FEFE91AF90A10E0DDCF1130D1F6D3
:1038A0000E8DFACF892BC1F71130A1F60E944B057E
:1038B000DC01CB010AA11BA12CA13DA1801B910B16
:1038C000A20BB30B009711E0A107B10520F08FEF19
:1038D0009FEFA0E0B0E09093250280932402D09265
:1038E0002102C0922002F0922302E092220282E0A2
:1038F00080931F02109238021092370211E0109349
:10390000390280919A0290919B020E943408109291
:1039100079021092780210921A0210921B021092F1
:103920001C0210921D0210923D02F894109219028E
:103930001092180210934F0278940E944B05109237
:103940007C0280911F02823059F580912002909173
:10395000210220912202309123022115310571F0BC
:1039600040918C0250918D02452B21F430938D02B1
:1039700020938C023093910220939002009771F073
:1039800020918E0230918F02232B21F490938F028D
:1039900080938E0290939302809392020E945E1114
:1039A0000E944B05611571058105910509F495C0CB
:1039B0006093730270937402809375029093760201
:1039C00064E670E080E090E00E9419050E94F6072E
:1039D000109217021092160210921E020E941607F1
:1039E0000E944B0560939602709397028093980211
:1039F0009093990280915E028823D1F0F8941092FE
:103A00005E0278940E944B0560935A0270935B02A9
:103A100080935C0290935D02672B682B692B41F4C5
:103A200020925A0230925B0240925C0250925D02F8
:103A30000E944B056B017C0180915A0290915B02C0
:103A4000A0915C02B0915D020097A105B10511F152
:103A5000C0929602D0929702E0929802F092990258
:103A6000A7019601281B390B4A0B5B0BCA01B90150
:103A7000683B3BE0730781059105C0F160E08DE094
:103A80000E947A0310925A0210925B0210925C021A
:103A900010925D028091560290915702A0915802B7
:103AA000B0915902409152025091530260915402D8
:103AB0007091550297018601041B150B260B370BDD
:103AC000083E13402105310528F148515C4F6F4FE6
:103AD0007F4F0196A11DB11DEDCF20927302309250
:103AE000740240927502509276026ACF2DE730E060
:103AF00040E050E00E94A722CA01B901609570958C
:103B00008095909561707727882799278DE00E948E
:103B10007A03C0CF409352025093530260935402F1
:103B200070935502AC010097F1E0AF07B10520F0AA
:103B30004FEF5FEF60E070E0F8948093560290934F
:103B40005702A0935802B0935902509351024093E8
:103B50005002789480914F0281111CC080914E02D6
:103B6000811118C090914F0280914D02911112C0A5
:103B700020914B02E0914902F0914A02882309F416
:103B800017C100ECC01604EDD00601E0E006F10418
:103B900008F027C18091450290914602A09147020A
:103BA000B0914802A7019601281B390B4A0B5B0B09
:103BB000DA01C901883E9340A105B10558F0C092D1
:103BC0004502D0924602E0924702F092480280E01D
:103BD0000E949B068091410290914202A091430273
:103BE000B091440297018601081B190B2A0B3B0B6D
:103BF000D901C80180369A4EA105B105C8F0C0921E
:103C00004102D0924202E0924302F092440280913B
:103C10003F02909140028230910508F4FAC09C0165
:103C200036952795821B930B9093400280933F0219
:103C30008091890280FF3EC080913E028330D0F5A2
:103C400080914F028823B1F180913902882391F14C
:103C500080913D0281112EC08091350290913602F3
:103C6000892B41F5209178023091790280917A0276
:103C700090917B0228173907E9F480915A029091BC
:103C80005B02A0915C02B0915D02892B8A2B8B2B89
:103C900089F480915F0281110DC0809181028111B0
:103CA00009C080919F02811105C08091770288230D
:103CB00009F4B2C0109284021092850280913D02F4
:103CC00081111AC18091350290913602892B51F5EC
:103CD000209178023091790280917A0290917B0252
:103CE00028173907F9F48091280290912902A091B0
:103CF0002A02B0912B0297018601081B190B2A0B8F
:103D00003B0BD901C801803C9742A940B10550F056
:103D1000C0922802D0922902E0922A02F0922B024D
:103D20000E944A0F8091960290919702A09198026A
:103D3000B0919902A7019601281B390B4A0B5B0B26
:103D4000DA01C901803D9740A105B10590F083B724
:103D5000817F83BF83B7816083BF889583B78E7F60
:103D600083BFC0929602D0929702E0929802F0929E
:103D70009902209178023091790280917A02909193
:103D80007B022817390709F036C180917C02811126
:103D900032C18091350290913602892B09F0B8C268
:103DA00080E090E0892B09F4ACC80E940000A9C80B
:103DB000215030E0A8E5B2E00E94C922AB01BC016D
:103DC000CF01B0E0A0E0805D9A48AF4FBF4F840FB5
:103DD000951FA61FB71FC816D906EA06FB0608F4EA
:103DE000D9CE81E080934E020E94951110927B0201
:103DF00010927A0210927902109278020E944B057A
:103E00006093960270939702809398029093990220
:103E1000C1CE90E080E008CF8091310290913202D3
:103E2000A0913302B0913402A7019601281B390BEF
:103E30004A0B5B0BDA01C9018A3F9105A105B10567
:103E400008F440CFC0923102D0923202E0923302A5
:103E5000F09234022091900230919102C90147976B
:103E60004CE050E08936910520F048E150E02EE228
:103E700030E08091370290913802863F67E09607E4
:103E8000C0F44217530750F48417950738F0BC016B
:103E9000640F751F11E06217730760F0240F351F60
:103EA0008217930730F0840F951F12E0863F9740EA
:103EB00008F010E087E00E945103113009F08CC037
:103EC000892B09F4F7CE80918502181721F0109301
:103ED000850210928402809184028F5F8093840215
:103EE000863008F4EBCE109284021092850281E0B5
:103EF00080933D02809330022091780230917902C4
:103F000080917A0290917B022817390709F0DACE66
:103F10008091960290919702A0919802B091990297
:103F200097018601081B190B2A0B3B0BD901C8010D
:103F3000803D9740A105B10508F4C4CE80912C02C4
:103F400090912D02A0912E02B0912F020097A10511
:103F5000B10571F0A7019601281B390B4A0B5B0BC9
:103F6000DA01C90180369A4EA105B10508F4AACE3E
:103F7000C114D104E104F104B1F13C2D2D2D9E2D8D
:103F80008F2D30932C0220932D0290932E0280933C
:103F90002F0210913A02009130021092300281E01B
:103FA0000E949511002369F080913A02181320C0F5
:103FB00080913E028F3F19F08F5F80933E020E94F6
:103FC000C50D0E944B0560939602709397028093F3
:103FD00098029093990276CE123009F06BCE892B1D
:103FE00009F471CF67CE31E020E090E080E0C9CFE6
:103FF00010923E02E4CF00917A0210917B020D32C2
:10400000110508F0CDCE80914F02882309F4A8C095
:10401000C0907302D0907402E0907502F090760226
:10402000C114D104E104F10409F0CAC00E944B0597
:10403000609373027093740280937502909376027A
:10404000672B682B692B09F4CEC08FEF9FEF9093FD
:1040500006018093050180913F02909140028F3FBD
:10406000980729F001969093400280933F020E94A6
:104070004B056E8F7F8F88A399A3C0907802D09054
:10408000790280914F02882321F00C151D050CF058
:10409000B3C080E00E9495113C0197FD81CEC09095
:1040A0000701D09008012091E3023091E402032E31
:1040B000000C440B550BC501B4010E9475220D2C58
:1040C000000CEE08FF08CA01B901A70196010E9481
:1040D00075222093DF023093E0024093E102509377
:1040E000E202A0910701B09108011A161B0614F014
:1040F000A1E0B0E026EF37E00E9402239B01AC0173
:10410000C501B4010E94A72269017A0126EF37E0B8
:10411000D8010E9402232DE230E040E050E00E94EE
:10412000A722CA01B901A70196010E94D82228EE50
:1041300033E040E050E00E94A72269017A0120E8C4
:104140003BE0D3010E94022328EE33E040E050E040
:104150000E94A722C20ED31EE41EF51EC801A0C0F5
:104160000E944B0520917C02222309F451CFC0907C
:104170007D02D0907E02E0907F02F0908002AB0141
:10418000BC014C195D096E097F098FEF820F8630E3
:1041900008F085E0A0E3CA2EA5E7DA2EE12CF12C89
:1041A00004C0CC0CDD1CEE1CFF1C8A95D2F7D70195
:1041B000C601481759076A077B0708F029CFF0CDD9
:1041C0000E944B056C197D098E099F09613D77405E
:1041D0008105910508F02ACF81E090E090933602A6
:1041E00080933502DDCD20927302309274024092AA
:1041F00075025092760229CF0E94DC07E0900701F9
:10420000F09008012091E3023091E402032E000CAB
:10421000440B550BC501B4010E947522CA01B901B6
:104220009701FF0C440B550B0E9475222093DF026F
:104230003093E0024093E1025093E20238016C189F
:104240007D08A0910701B09108011A161B0614F011
:10425000A1E0B0E026EF37E00E9402239B01AC0111
:10426000C501B4010E94A72269017A0126EF37E057
:10427000D3010E9402232DE230E040E050E00E9492
:10428000A722CA01B901A70196010E94D82228EEEF
:1042900033E040E050E00E94A72269017A01C301A7
:1042A0000E94690910937902009378020E944B05DD
:1042B000E0912702AB01BC010E8D1F8D28A139A111
:1042C000401B510B620B730B97018601F2E0369590
:1042D000279517950795FA95D1F7C00ED11EE21EC6
:1042E000F31E8E2FC416D506E606F70678F4816015
:1042F0008093270281E00E949B0664E670E080E0E4
:1043000090E00E9419050E94F6074ACD8E7FF0CFFB
:10431000109236021092350243CD833011F00C9486
:104320001816809187028F3F11F40C94D7158F5F78
:10433000809387020C94D71523E0E22EF12C80E0C5
:104340000E943B1149CA94E0E92EF12CF8CF10925B
:1043500038021092370281E0809339020E944B05A7
:104360006AA37BA38CA39DA310E0EE24E394F12C1D
:10437000D12CC12C71CA8F929F92AF92BF92CF92D3
:10438000DF92EF92FF92CF93DF93EC016881798106
:104390008A819B81611571058105910521F464E293
:1043A00079ED8BE597E02DE133EF41E050E00E949D
:1043B000752249015A019B01AC01A7EAB1E40E94B0
:1043C00094226B017C01ACEEB4EFA50194010E9434
:1043D000A222C60ED71EE81EF91EF7FE06C081E017
:1043E000C81AD108E10880E8F80AC882D982EA82AE
:1043F000FB82C701B6019F77DF91CF91FF90EF90CD
:10440000DF90CF90BF90AF909F908F9008958F9244
:104410009F92AF92BF92CF92DF92EF92FF92609104
:10442000090170910A0180910B0190910C016115B5
:1044300071058105910521F464E279ED8BE597E042
:104440002DE133EF41E050E00E94752249015A010D
:104450009B01AC01A7EAB1E40E9494226B017C01AC
:10446000ACEEB4EFA50194010E94A222C60ED71EA5
:10447000E81EF91EF7FE06C081E0C81AD108E1085F
:1044800080E8F80AC0920901D0920A01E0920B017B
:10449000F0920C01C701B6019F77FF90EF90DF907B
:1044A000CF90BF90AF909F908F9008956093090137
:1044B00070930A0180930B0190930C010895F99970
:1044C000FECF92BD81BDF89A992780B50895262F19
:1044D000F999FECF1FBA92BD81BD20BD0FB6F894E9
:1044E000FA9AF99A0FBE01960895052E97FB1EF4CD
:1044F00000940E948C2257FD07D00E94A72207FC3F
:1045000003D04EF40C948C22509540953095219513
:104510003F4F4F4F5F4F08959095809570956195EF
:104520007F4F8F4F9F4F08950E94C922A59F900DE6
:10453000B49F900DA49F800D911D11240895B7FF85
:104540000C9494220E949422821B930B0895A1E262
:104550001A2EAA1BBB1BFD010DC0AA1FBB1FEE1FFD
:10456000FF1FA217B307E407F50720F0A21BB30B48
:10457000E40BF50B661F771F881F991F1A9469F7C4
:1045800060957095809590959B01AC01BD01CF0120
:104590000895A29FB001B39FC001A39F700D811D1C
:1045A0001124911DB29F700D811D1124911D08953C
:1045B000DB018F939F930E949422BF91AF91A29FA2
:1045C000800D911DA39F900DB29F900D1124089511
:1045D00097FB072E16F4009407D077FD09D00E94B0
:1045E000092307FC05D03EF4909581959F4F0895CF
:1045F000709561957F4F0895EE0FFF1F0590F49120
:10460000E02D09940E94C922B7FF0895821B930BE5
:104610000895AA1BBB1B51E107C0AA1FBB1FA61709
:10462000B70710F0A61BB70B881F991F5A95A9F75B
:1046300080959095BC01CD0108955058BB27AA27BD
:104640000E9435230C94A1230E94932338F00E94EA
:104650009A2320F039F49F3F19F426F40C94902308
:104660000EF4E095E7FB0C948A23E92F0E94B22315
:1046700058F3BA17620773078407950720F079F497
:10468000A6F50C94D4230EF4E0950B2EBA2FA02D92
:104690000B01B90190010C01CA01A0011124FF27EF
:1046A000591B99F0593F50F4503E68F11A16F040EA
:1046B000A22F232F342F4427585FF3CF46953795E9
:1046C0002795A795F0405395C9F77EF41F16BA0BAE
:1046D000620B730B840BBAF09150A1F0FF0FBB1F5C
:1046E000661F771F881FC2F70EC0BA0F621F731FA5
:1046F000841F48F4879577956795B795F7959E3F02
:1047000008F0B0CF9395880F08F09927EE0F979592
:104710008795089597F99F6780E870E060E00895B5
:104720009FEF80EC089500240A94161617061806C9
:104730000906089500240A941216130614060506A5
:104740000895092E0394000C11F4882352F0BB0F36
:1047500040F4BF2B11F460FF04C06F5F7F4F8F4F99
:104760009F4F089557FD9058440F551F59F05F3FD4
:1047700071F04795880F97FB991F61F09F3F79F083
:1047800087950895121613061406551FF2CF469505
:10479000F1DF08C0161617061806991FF1CF869587
:1047A0007105610508940895E894BB27662777276B
:1047B000CB0197F908950E94E02308F48FEF089544
:1047C000990F0008550FAA0BE0E8FEEF1616170622
:1047D000E807F907C0F012161306E407F50798F08A
:1047E000621B730B840B950B39F40A2661F0232BA3
:1047F000242B252B21F408950A2609F4A140A6951F
:0C4800008FEF811D811D0895F894FFCFFB
:10480C00FFFFFFFF01FFFF0A0001000000FFFFFF99
:10481C00FF01FFFFFF00000000000000000000DBB4
:10482C0005D005EC05B905C9050203BA0533356495
:06483C003635373500009F
:00000001FF
