:100000000C9462000C948A000C948A000C948A0070
:100010000C948A000C948A000C948A000C948A0038
:100020000C948A000C948A000C948A000C948A0028
:100030000C948A000C948A000C948A000C948A0018
:100040000C94F00C0C948A000C948A000C948A0096
:100050000C948A000C948A000C948A000C948A00F8
:100060000C943A0D0C948A00000000002400270034
:100070002A0000000000250028002B0000000000DE
:1000800023002600290004040404040404040202DA
:100090000202020203030303030301020408102007
:1000A0004080010204081020010204081020000012
:1000B0000008000201000003040700000000000027
:1000C0000000590E11241FBECFEFD8E0DEBFCDBF18
:1000D00011E0A0E0B1E0E0EFF5E302C005900D9281
:1000E000A832B107D9F722E0A8E2B1E001C01D9221
:1000F000AD3BB207E1F710E0C2E6D0E004C02197C3
:10010000FE010E94EE19C136D107C9F70E94A20E66
:100110000C94F61A0C940000833081F028F481309E
:1001200099F08230A9F008958730A9F08830C9F09D
:100130008430B1F4809180008F7D03C08091800075
:100140008F7780938000089584B58F7784BD08955C
:1001500084B58F7DFBCF8091B0008F778093B00006
:1001600008958091B0008F7DF9CFCF93DF93282F32
:1001700030E0F901E255FF4F8491F901E656FF4F57
:10018000D491F901EA57FF4FC491CC23A1F081111A
:100190000E948C00EC2FF0E0EE0FFF1FE458FF4FA1
:1001A000A591B491EC91ED2381E090E009F480E019
:1001B000DF91CF91089580E090E0FACF1F93CF9325
:1001C000DF93282F30E0F901E255FF4F8491F901C8
:1001D000E656FF4FD491F901EA57FF4FC491CC2363
:1001E000A9F0162F81110E948C00EC2FF0E0EE0F89
:1001F000FF1FEE58FF4FA591B4918FB7F894EC9183
:10020000111108C0D095DE23DC938FBFDF91CF9111
:100210001F910895DE2BF8CFCF93DF93EC018091EF
:10022000A7029091A802029749F4C130D10509F4C0
:100230003BC06CF560E0209709F437C08091A702BD
:100240009091A802049749F4C130D10509F45CC02B
:100250000CF037C0209709F442C08091A70290911A
:10026000A802059709F0E5C0CA30D10508F0E1C041
:10027000FE01E35CFE4F0C94EE199C01A801B9014C
:10028000CF01EA01EC01F301FF0110021702C230B5
:10029000D105A9F060E0C330D10581F68091AB02B1
:1002A0000E94DE0060E006C061E08091AB020E9427
:1002B000DE0061E08091AD020E94DE00BFCF61E010
:1002C000EDCFC230D10539F1C330D10509F0C5CF2A
:1002D00061E08091AB020E94DE0060E022C061E03C
:1002E0008091AB020E94DE0060E08091AD020E942E
:1002F000DE0061E08091AF020E94DE0060E080914C
:10030000B1020E94DE00A9CF60E08091AB020E94A2
:10031000DE0061E0EACF60E08091AB020E94DE0087
:1003200061E08091AD020E94DE0060E08091AF024A
:100330000E94DE0061E0E3CF60E08091AB020E94AA
:10034000DE0061E08091AD020E94DE0061E00BC042
:1003500060E08091AB020E94DE0061E08091AD021E
:100360000E94DE0060E08091AF020E94DE0060E04B
:1003700010C060E08091AB020E94DE0061E08091DD
:10038000AD020E94DE0060E08091AF020E94DE00BC
:1003900061E08091B1020E94DE0061E015C060E082
:1003A0008091AB020E94DE0061E08091AD020E946C
:1003B000DE0060E08091AF020E94DE0061E080918B
:1003C000B1020E94DE0060E08091B302DF91CF9124
:1003D0000C94DE0061E0E4CF61E08091AB020E940A
:1003E000DE0060E0E2CF61E08091AB020E94DE00BF
:1003F00060E08091AD020E94DE0061E0DBCF61E051
:100400008091AB020E94DE0060E08091AD020E940C
:10041000DE0061E08091AF020E94DE0060E0CFCF9D
:1004200061E08091AB020E94DE0060E08BCF60E073
:10043000F8CFDF91CF910895CF93DF9390E0FC0147
:10044000E656FF4F24918A579F4FFC0184918823E1
:10045000C9F090E0880F991FFC01E859FF4FA59162
:10046000B491FC01EE58FF4FC591D49161110DC0BC
:100470009FB7F8948C91209582238C9388812823B0
:1004800028839FBFDF91CF910895623051F49FB7C9
:10049000F8943C91822F809583238C93E8812E2BB6
:1004A000EFCF8FB7F894EC912E2B2C938FBFEACF20
:1004B0003FB7F89480918F0290919002A0919102A1
:1004C000B091920226B5A89B05C02F3F19F0019666
:1004D000A11DB11D3FBFBA2FA92F982F8827BC019E
:1004E000CD01620F711D811D911D42E0660F771FC6
:1004F000881F991F4A95D1F708958F929F92AF92C6
:10050000BF92CF92DF92EF92FF924B015C010E946B
:1005100058026B017C010E9458026C197D098E09FA
:100520009F09683E734081059105A8F321E0821A76
:100530009108A108B10888EEC80E83E0D81EE11C1E
:10054000F11C81149104A104B10429F7FF90EF90EC
:10055000DF90CF90BF90AF909F908F9008952FB76E
:10056000F89460918B0270918C0280918D02909131
:100570008E022FBF0895E0910C02F0910D0230978A
:1005800029F0109207021092060209940895CF9361
:10059000DF93AC01E0910A02F0910B023097F1F089
:1005A00090910902809108029817C0F090E0292FDD
:1005B00030E02617370754F4D901AF58BE4F240F47
:1005C000351FE90128812C939F5FF1CF109209021A
:1005D00060930802CB01DF91CF910994DF91CF9115
:1005E00008952091B701260F3327331F213231059B
:1005F000ECF42091DB01FC0190E080E0243069F014
:1006000082E00895A091B7012191AC0149565E4F57
:10061000A40FB52FB11D2C930196861798F38091E6
:10062000B701680F6093B70180E0089581E00895F5
:100630001092DB0181E08093DD011092DC0161E02A
:1006400082E10E94DE0061E083E10E94DE00E9EBCE
:10065000F0E080818E7F808380818D7F808388E43D
:100660008093B80085E48093BC0008950895E091DC
:10067000090280910802E81730F4F0E0EF58FE4FCD
:10068000808190E008958FEF9FEF08959091090287
:10069000809108022FEF3FEF981748F4E92FF0E020
:1006A000EF58FE4F208130E09F5F90930902C9010F
:1006B00008958091080290910902891B990B089571
:1006C000CF93DF93CB01EA01642F0E94F102CE01A8
:1006D000DF91CF910895CF93DF931F92CDB7DEB70F
:1006E000698361E0CE0101960E94F10281E090E011
:1006F0000F90DF91CF91089590E080E00895CF931F
:10070000DF93CDB7DEB72B970FB6F894DEBF0FBEE1
:10071000CDBFF0916F01E091700170916D0160911A
:100720006E0180910501909106018F3F980721F499
:1007300080916B0190916C015091040140913802BD
:100740003091390220912002F983EA837B836C8304
:100750008D839E835F83488739872A87FE01319680
:100760009E01255F3F4FDF0180E09D918927A21701
:10077000B307D9F793E989278B87F89490E080E055
:100780002191DC01A05ABE4F2C9301968B3091052C
:10079000B9F778942B960FB6F894DEBF0FBECDBF95
:1007A000DF91CF910895CF93DF93CDB7DEB7289730
:1007B0000FB6F894DEBF0FBECDBF50916B014091D4
:1007C0006C0180910201909103018F3F980711F411
:1007D000852F942F60916B0270916C022091000123
:1007E000309101012F3F320711F430E020E05983AE
:1007F0004A838B839C836D832E833F83FE013196D6
:100800009E01285F3F4FDF0180E09D918927A2175D
:10081000B307D9F79CE389278887F89490E080E0B4
:100820002191DC01A85ABE4F2C9301968830910586
:10083000B9F7789428960FB6F894DEBF0FBECDBFF7
:10084000DF91CF9108951F93CF93DF9300D0CDB761
:10085000DEB7182F8EE480937C0062E070E080E0C9
:1008600090E00E947D0280917A00806480937A00FB
:1008700080917A0086FDFCCF20917800309179003C
:100880002115310531F510926C0110926B01209108
:10089000B9023091BA022115310511F42DEB32E085
:1008A000CE010196821B930B97FF02C090E080E07F
:1008B00020910001309101018217930720F4909359
:1008C0000101809300010F900F90DF91CF911F9154
:1008D000089550E040E064EB7BE281E190E00E940B
:1008E00099192115310581E04807510508F18FEF6D
:1008F0009FEF90936C0180936B01209102013091E6
:1009000003018217930720F490930301809302015F
:10091000112309F4BCCF2091050130910601821703
:10092000930708F0B4CF9093060180930501AFCFF1
:10093000C90130936C0120936B01DFCF8F929F929E
:10094000AF92BF92EF92FF920F931F93CF93DF93DB
:10095000CDB7DEB72F970FB6F894DEBF0FBECDBF71
:1009600000913602809132028111026080908402EF
:1009700090908502E0903402F0903502109133029D
:100980002FEF882399F1609130027091310290E04D
:1009900080E0092C000CAA08BB08681979098A09AB
:1009A0009B0926EF37E040E050E00E9467199B0169
:1009B000AC0157FF04C02A50384F4F4F5F4FADE294
:1009C000B0E00E94861965507C4F8F4F9F4F26EFF5
:1009D00037E040E050E00E949919CA01B9012DE2C8
:1009E00030E040E050E00E949919262F2A870B87BB
:1009F0001C87C70131E8E3163FEFF30614F481E8E2
:100A00009FEF8038910514F08FE790E08D871E8668
:100A100067EB61276827602762276F87809118023C
:100A200089839091190280911A029A838B83909105
:100A30001B0280911C029C838D8390911D028091EA
:100A40001E029E838F8380911F028887FE0131964C
:100A50009E01275F3F4FDF0180E09D918927A2170C
:100A6000B307D9F79CE589278987F894BE01665FAB
:100A70007F4F90E080E0DB014D91BD019C012E5A3B
:100A80003E4FD9014C93019686309105A1F790E035
:100A900080E02191DC01A75BBE4F2C930196893049
:100AA0009105B9F778942F960FB6F894DEBF0FBE74
:100AB000CDBFDF91CF911F910F91FF90EF90BF902D
:100AC000AF909F908F90089581E090E090932F02D7
:100AD00080932E02609148018BE00E94DE006091BD
:100AE00047018AE00E94DE006091460189E00E9491
:100AF000DE006091450188E00C94DE008BE00E94EE
:100B0000B50021E0892B09F420E0209348018AE018
:100B10000E94B50021E0892B09F420E020934701D1
:100B200089E00E94B50021E0892B09F420E02093A0
:100B3000460188E00E94B50021E0892B09F420E0FD
:100B40002093450160E08BE00E94DE0060E08AE0D7
:100B50000E94DE0060E089E00E94DE0060E088E044
:100B60000E94DE0010922F0210922E0264E670E0C6
:100B700080E090E00C947D024F925F926F927F92A2
:100B80008F929F92AF92BF92CF92DF92EF92FF929D
:100B90000F931F93CF93DF936C017C0197FF04C0E9
:100BA000EE24FF24E81AF90A1C141D040CF063C09B
:100BB00081E090E09093A00280939F02C4E0D0E097
:100BC0000AE010E0E114F10409F472C00E94580236
:100BD0008090B5029090B602A090B702B090B80293
:100BE0002B013C01481859086A087B088090A10233
:100BF0009090A202A090A302B090A40248145904BD
:100C00006A047B04F8F26093B5027093B602809395
:100C1000B7029093B8028091A9029091AA02209104
:100C20009F023091A0022130310571F50196909319
:100C3000AA028093A9022091A5023091A6028217F0
:100C4000930721F41092AA021092A90221E0E21A5D
:100C5000F1088091A9029091AA022091A7023091F7
:100C6000A802B8012530310509F0BE010E94DA1949
:100C70000E940C01A7CFC114D10409F49FCF109298
:100C8000A00210929F029ACF892B41F48091A50275
:100C90009091A6029093AA028093A9028091A90242
:100CA0009091AA0201979093AA028093A902CECFB5
:100CB0000D2C000CEE08FF08D701C601F7FE07C097
:100CC00088279927DC018C199D09AE09BF0920915D
:100CD000590230915A02BC01CD01620F731F811D70
:100CE000911D26EF422E27E0522E612C712CA3017C
:100CF00092010E9499198090550290905602A090FE
:100D00005702B0905802820E931EA41EB51E809208
:100D1000550290925602A0925702B09258027093D8
:100D20005A02609359028091300290913102A701DA
:100D30009601280F391F411D511DCA01B901A30198
:100D400092010E94671997FF04C06A50784F8F4F35
:100D50009F4F709331026093300280915B029091BB
:100D60005C02A0915D02B0915E0288159905AA050A
:100D7000BB0531F1F8948091550290915602A091F3
:100D80005702B091580280935B0290935C02A0934B
:100D90005D02B0935E02789480911702811110C0B9
:100DA00080911102909112028F3F910519F010F07D
:100DB0008FEF90E0809304011092120210921102C2
:100DC000DF91CF911F910F91FF90EF90DF90CF9027
:100DD000BF90AF909F908F907F906F905F904F905B
:100DE00008954F925F926F927F929F92AF92BF92BF
:100DF000CF92DF92EF92FF920F931F93CF93DF93E7
:100E00006C0187E00E94B500BB24B394892B09F0E4
:100E1000B12CD0E0C0E0A12C99249394CC15DD0531
:100E20000CF092C0A89520E039EE43E95EE36091B2
:100E300013027091140280911502909116020E9483
:100E4000101A2B013C0120E030E040E85FE30E94F3
:100E5000CD1A18164CF1409213025092140260926F
:100E60001502709216029DE2E92EF12C10E000E0CE
:100E700081E090E00E94BC0587E00E94B500892BCC
:100E800009F05FC021E02A1508F0A39482E0A812BF
:100E900004C0BB20E9F0BB24B3940F5F1F4FE016E2
:100EA000F10631F72196BACF20E030E040E85FE369
:100EB000C301B2010E940F1A6093130270931402CF
:100EC00080931502909316028EE2E82EF12CCECF7D
:100ED00080911102909112028F3F980729F001969C
:100EE0009093120280931102B090320280913002EE
:100EF000909131028C3F23E0920710F0865F97407B
:100F0000109231021092300290923202BB2019F2FC
:100F10009C0197FF04C022273327281B390B283157
:100F200031050CF4B8CF209133022F3F19F02F5F19
:100F300020933302909335028093340290923602CC
:100F4000ACCFA12CB12CA9CFDF91CF911F910F91E4
:100F5000FF90EF90DF90CF90BF90AF909F907F90E9
:100F60006F905F904F9008958F929F92AF92BF9233
:100F7000CF92DF92EF92FF920F931F93CF93DF9365
:100F8000CDB7DEB762970FB6F894DEBF0FBECDBF08
:100F9000809140018823C9F14FE151E0FE01319673
:100FA000CF01BF01DA012D91AD01DC012D93CD01FF
:100FB000B1E047325B07B1F781E089879F01275F86
:100FC0003F4F80E0919189272E173F07D9F79BE487
:100FD00089278A874AE050E083E992E00E94600313
:100FE0001092400162960FB6F894DEBF0FBECDBFDF
:100FF000DF91CF911F910F91FF90EF90DF90CF90F5
:10100000BF90AF909F908F90089580913F0188236B
:10101000B1F0209184023091850229833A838DE1D9
:10102000822783278B8343E050E0BE016F5F7F4FB1
:1010300083E992E00E94600310923F01D3CF809138
:101040003E01882399F08091690290916A02898318
:1010500080958A8342E050E0BE016F5F7F4F83E955
:1010600092E00E94600310923E01BCCF80913D014E
:10107000882349F140915B0250915C0260915D02CE
:1010800070915E024983852E962EA72EBB248A82FC
:101090006B01EE24FF24CB82872F9927AA27BB2739
:1010A0008C8325EA242728252C2582278D8345E05B
:1010B00050E0BE016F5F7F4F83E992E00E946003C2
:1010C00010923D018FCF80913C01882359F046E07A
:1010D00050E062E571E083E992E00E9460031092C3
:1010E0003C0180CF80913B01882359F049E050E0DA
:1010F00069E471E083E992E00E94600310923B0191
:1011000071CF80913A01882359F048E050E068E5BA
:1011100071E083E992E00E94600310923A0162CF8D
:1011200080913901882359F04BE050E060E671E08E
:1011300083E992E00E9460031092390153CF8091BD
:101140003801882359F04FE050E069E271E083E90B
:1011500092E00E9460031092380144CF80912801F0
:10116000882309F467C020912E0230912F0281E07C
:10117000232B09F480E090914401911182609091B9
:1011800043019111846090910102911180619091CD
:1011900048029111806220914101309142018B8778
:1011A000809110028C8780910F028D8780910E02B2
:1011B0008E878091490290914A029F8780914902CF
:1011C00090914A02888B80916102898B84E03695E8
:1011D00027958A95E1F72F3F310519F010F02FEF91
:1011E00030E02A8B8E01055F1F4FFE0131969E0174
:1011F0002D5E3F4FCF01BF01D8014D918D01DC0124
:101200004D93CD0102171307B9F79F01285F3F4F98
:1012100080E091918927E217F307D9F79EE78927A4
:10122000898749E050E083E992E00E9460031092D0
:101230002801D8CE60912E0270912F0283E992E0AE
:101240000E946B03CFCECF92DF92EF92FF920F936B
:101250001F93CF93DF9300D000D0CDB7DEB7181621
:1012600019060CF0BEC08C0181E08093460283E930
:1012700092E00E9446039801215031098D32910578
:101280000CF404C18058990B8A31910508F07BC099
:10129000FC01E35BF64F0C94EE19670976097A09B5
:1012A0007E09820986098A098E09920996099A0996
:1012B000C309C309C309C309C309FE09DC096709D6
:1012C000A209020A1C0A200A240A9E09280A81E0AF
:1012D000809389028901101611060CF082C083E9FF
:1012E00092E00E94460301501109F5CF81E08093FE
:1012F0004001F0CF81E080933F01ECCF81E080930B
:101300002801E8CF81E080933E01E4CF81E0809323
:101310003D01E0CF81E080933C01DCCF81E0809310
:101320003B01D8CF81E080933A01D4CF81E0809314
:101330003901D0CF81E080933801CCCF81E0809318
:101340005002C8CF24303105F4F0CE0101967C0163
:101350006E0195E0C90ED11C83E992E00E9446031C
:10136000F70181937F01EC15FD05B1F79801255038
:10137000310989819A81AC01409550956B817C81BE
:101380006417750759F0809161028F3F09F4A2CF6D
:10139000809161028F5F809361029CCFAC014A50C3
:1013A000584F4D3E5F4078F79093870280938602B6
:1013B00081E0809388028ECF232B51F083E992E065
:1013C0000E9446038093680298012250310982CF1F
:1013D000809161028F3F29F0809161028F5F80933D
:1013E00061020F900F900F900F90DF91CF911F919E
:1013F0000F91FF90EF90DF90CF90089581E0809360
:101400006D0268CF223031050CF4BDCF83E992E044
:101410000E944603F82E83E992E00E944603980159
:10142000235031099F2D90959813ADCFF092620211
:1014300081E0809363024ECF81E0809360024ACFC7
:1014400081E080934F0246CF81E080935F0242CFDC
:10145000223031050CF497CF83E992E00E944603D5
:10146000F82E83E992E00E94460398012350310947
:101470009F2D9095981387CF8F2D8C7F09F083CF68
:10148000F0927E0281E080937F0224CF023011052A
:1014900099F04CF0809161028F3F29F080916102B8
:1014A0008F5F809361020150110909F49ACF83E99B
:1014B00092E00E944603F7CF90936C0280936B02F8
:1014C00083E992E00E9446031816190614F081E0A1
:1014D00090E0909308018093070183CF1F93CF93EF
:1014E000DF93CDB7DEB72F970FB6F894DEBF0FBEF0
:1014F000CDBFB0917202A0917302F0917402E0919D
:101500007502709176026091770250917802409155
:10151000790230917A0220917B0290917C02809135
:101520007D0211E01983BA83AB831C82FD83EE83B5
:101530007F83688759874A873B872C879D878E875B
:10154000FE0131969E01215F3F4FDF0180E09D91BA
:101550008927A217B307D9F79EE689278F87F894C2
:1015600090E080E02191DC01A75DBE4F2C930196B5
:101570008F309105B9F778942F960FB6F894DEBFA7
:101580000FBECDBFDF91CF911F910895282FFC0191
:1015900080E0919189279E2F921B9617D0F3842784
:1015A0000895CF93DF93FC01EB01808188838181D3
:1015B000898382818A8383818B8384818C838581E3
:1015C0008D8386818E8387818F83808588878185BF
:1015D000898782858A8783858B8784858C878585A3
:1015E0008D8741E76EE0CE010E94C60A8E87DF91AB
:1015F000CF910895CF93DF9385ED8093BC008091C8
:10160000930190919401A0919501B0919601079654
:10161000A11DB11D23E0B695A795979587952A95AD
:10162000D1F72091BC0024FD03C01092DB0136C02D
:1016300040919301509194016091950170919601B0
:10164000452B462B472B69F30097A105B10541F0C7
:101650002AE22A95F1F700C00197A109B109E1CF6B
:101660008091920191E0909391018823B9F0C0910B
:10167000B800D091BA008091BC008A7B8093BC00F6
:1016800060E082E10E94DE0060E083E10E94DE0013
:101690000E941803D093BA00C093B800DF91CF9195
:1016A00008951F93CF93DF93EC01162F0E945119D9
:1016B000181739F0612FCE01DF91CF911F910C9453
:1016C0005919DF91CF911F910895EF92FF920F93D7
:1016D0001F93CF93DF93CDB7DEB72F970FB6F89454
:1016E000DEBF0FBECDBFBE016F5F7F4F80E792E0D0
:1016F0000E94D10A8E010F5F1F4F88E0E82EF12C67
:10170000F80161918F01C7010E94510BFFEFEF1AA1
:10171000FF0A87E1E816F10499F70E946E0A2F96F6
:101720000FB6F894DEBF0FBECDBFDF91CF911F91F2
:101730000F91FF90EF900895DF92EF92FF920F9339
:101740001F93CF93DF93082F81E090E090932F02B7
:1017500080932E02D0904802D110D0903202E090B7
:101760003002F09031022091A5023091A602032EA2
:10177000000C440B550B60E077E883E993E00E948E
:101780006719CA01B9012AE030E040E050E00E9448
:1017900067192093A1023093A2024093A3025093B1
:1017A000A402D0E0C0E010E0A89587E00E94B50058
:1017B000009709F44CC0019709F04DC02097D1F46F
:1017C00082E390E00E94BC05C2E3D0E02196ECCF1A
:1017D00087E00E94B500892B09F0CBC0A89581E075
:1017E00090E00E94BC052196C33E27E1D20781F715
:1017F00011E008C081E090E00E94BC05C33E37E1E3
:10180000D30724F310926A021092690210923202F6
:1018100010923602F89481E08093440118271093C7
:101820004301D0934201C0934101789480917202A8
:101830008F3F19F08F5F809372020E94650B0E94A8
:101840007E05CFEFDFEF8CC090E080E04AC02097AC
:1018500009F4BECF11E020913202809130029091C4
:1018600031028C3F33E0930710F0865F974010926F
:1018700031021092300231E0309332022223A9F07B
:101880009C0197FF04C022273327281B390B2831DE
:1018900031055CF0209133022F3F19F02F5F209328
:1018A0003302909335028093340210923602809175
:1018B0001102909112028F3F980729F001969093A0
:1018C000120280931102DD2041F186EF97E08E191C
:1018D0009F09C817D90708F4B7CF9E01281B390BF9
:1018E000C9019093700180936F0120916D01309137
:1018F0006E012817390720F490936E0180936D01D3
:1019000020917402309175022817390730F49093B2
:101910007502809374020E94650B809184029091FD
:1019200085020E94BC0510926A0210926902109210
:101930001302109214021092150210921602F894DB
:101940001092440181E0182710934301D093420183
:10195000C093410180934802789401110E947E0552
:10196000CE01DF91CF911F910F91FF90EF90DF900B
:10197000089582E390E00E94BC05E29611E03ECF1C
:101980009F92AF92BF92CF92DF92EF92FF920F930E
:101990001F93CF93DF935C017B018B01D0E0C0E00C
:1019A000F80191908F016501CC0EDD1EC6010E94E9
:1019B0005119981621F0692DC6010E9459192196D6
:1019C000C430D10569F7C701DF91CF911F910F9105
:1019D000FF90EF90DF90CF90BF90AF909F900895D1
:1019E0001F920F920FB60F9211242F933F938F9354
:1019F0009F93AF93BF9380918B0290918C02A091A3
:101A00008D02B0918E0230918A0223E0230F2D3790
:101A100058F50196A11DB11D20938A0280938B0277
:101A200090938C02A0938D02B0938E0280918F02CE
:101A300090919002A0919102B09192020196A11D05
:101A4000B11D80938F0290939002A0939102B09366
:101A50009202BF91AF919F918F913F912F910F90E3
:101A60000FBE0F901F90189526E8230F0296A11D18
:101A7000B11DD2CF1F920F920FB60F9211242F9348
:101A80003F934F935F936F937F938F939F93AF9306
:101A9000BF93EF93FF938091B900887F803609F45C
:101AA0004AC0F0F5883209F4A7C018F5803109F46E
:101AB0009BC0B8F4882309F4F9C0883009F494C0B5
:101AC000FF91EF91BF91AF919F918F917F916F9116
:101AD0005F914F913F912F910F900FBE0F901F90EC
:101AE0001895883109F488C0803251F78093DA0163
:101AF00014C0803409F49DC040F48033B9F38833B6
:101B0000F9F68093DA0185ECB0C0803509F485C020
:101B1000883509F496C0883499F60E94FA0AD0CF25
:101B2000883909F48CC038F5883729F050F48836A4
:101B300011F0803729F683E08093DB011092D90100
:101B400057C0883809F47BC0803919F0803809F013
:101B5000B7CF8091D901803208F071C0E091D901EE
:101B600081E08E0F8093D9018091BB00F0E0E754B3
:101B7000FE4F80833DC0803B39F0E0F4803A09F4A9
:101B800079C0883A09F09CCF84E08093DB01109201
:101B9000B8011092B701E0910402F0910502099595
:101BA0008091B70181110FC081E08093B70110923D
:101BB000970109C0803C09F4A6CF883C09F4A3CF63
:101BC000883B09F07DCFE091B80181E08E0F8093D2
:101BD000B801F0E0E956FE4F80818093BB00909100
:101BE000B8018091B70129C0809100028093BB00A9
:101BF00085EC8093BC0064CF9091FF018091FE0141
:101C0000981758F5E091FF0181E08E0F8093FF0156
:101C1000F0E0E252FE4F8081E9CFE091FF0181E0E8
:101C20008E0F8093FF018091BB00F0E0E252FE4FE7
:101C300080839091FF018091FE019817C8F285E89A
:101C4000D8CFE091FF0181E08E0F8093FF0180915A
:101C5000BB00F0E0E252FE4F80838091DD018111F4
:101C60005CCF81E08093DC0184EA8093BC00109219
:101C7000DB0126CF85EC8093BC001092DB018091C4
:101C8000D901803230F4E091D901F0E0E754FE4F01
:101C900010826091D90170E0E0910202F09103029C
:101CA00089EB91E009951092D9010ACF1092DA01DF
:101CB00034CFCF93DF93E3E9F2E01382128288EE10
:101CC00093E0A0E0B0E084839583A683B78381E1AD
:101CD00091E091838083CFE9D2E01B861A86198236
:101CE00018821E8A1F8A188E198E86EF97E09F83AE
:101CF0008E838BE090E09D878C8789E090E09F87C2
:101D00008E878AE090E0998B888B88E090E09B8BAF
:101D10008A8B61E08BE00E941C0261E08E850E944C
:101D20001C0261E088890E941C0261E08A890E948D
:101D30001C021D8A1C8A84E090E099878887DF91C5
:101D4000CF910895CF93DF93CDB7DEB7A1970FB6AC
:101D5000F894DEBF0FBECDBF789484B5826084BD99
:101D600084B5816084BD85B5826085BD85B581609F
:101D700085BD80916E00816080936E00109281001D
:101D800080918100826080938100809181008160D8
:101D90008093810080918000816080938000809199
:101DA000B10084608093B1008091B0008160809325
:101DB000B00080917A00846080937A0080917A00EC
:101DC000826080937A0080917A00816080937A00AB
:101DD00080917A00806880937A001092C10084B765
:101DE0008093100214BE0FB6F894A89580916000FD
:101DF000886180936000109260000FBE90E080E0E8
:101E00000E945119813009F453C019821A824DE29F
:101E100062E0CE0101960E94C60A8B8360E084E0F6
:101E200090E00E94510B6A8185E090E00E94510B86
:101E30006B8186E090E00E94510BCE0140962EE02F
:101E4000DC011D922A95E9F7BE016F5F7F4F0E946A
:101E5000D10AFE0131967F0108E010E0D7016D91B3
:101E60007D01C8010E94510B0F5F1F4F0731110503
:101E7000A9F781E089831A821B824AE563E0CE01DB
:101E800001960E94C60A8C83682F83E090E00E942E
:101E9000510B6B8182E090E00E94510B6A8181E0DE
:101EA00090E00E94510B698190E080E00E94510B0C
:101EB000FE0131967F0108E010E0C8010E9451192F
:101EC000D7018D937D010F5F1F4F07311105A9F7D2
:101ED0001F8541E76EE0CE0101960E94C60A1817E1
:101EE00009F18EE0E0E7F2E0DF011D928A95E9F763
:101EF00090E02091100280E022FF08C080917002E3
:101F00008F3F19F08F5F8093700281E023FF36C00E
:101F1000809171028F3F19F08F5F809371020E9450
:101F2000650B30C08981809370028A818093710231
:101F30008B81809372028C81809373028D819E814C
:101F400090937502809374028F81988590937702A5
:101F50008093760289859A8590937902809378029E
:101F60008B859C8590937B0280937A028D859E85DC
:101F700090937D0280937C0291E0BBCF8111CFCF03
:101F8000992369F28091700280930F02809171020F
:101F900080930E0204E410E0C12CD12C7601ECE316
:101FA0007E2E4801B4E08B1A9108FE0131965F0144
:101FB000C4010E945119D5018D935D01BFEF8B1AA9
:101FC0009B0A08151905A1F7C8010E9451194981FA
:101FD0005A816B817C814F3FEFEF5E076E077E0772
:101FE00071F0942F9725952796279727891307C077
:101FF000C416D506E606F70610F46A017B010B5FEE
:102000001F4F043CF2E01F0761F6C0925502D092C8
:102010005602E0925702F0925802C0925102D092BA
:102020005202E0925302F0925402C0925B02D092AC
:102030005C02E0925D02F0925E0262E086E00E9445
:102040001C0262E085E00E941C0262E084E00E94C3
:102050001C0262E083E00E941C0260E087E00E94B4
:102060001C0261E08DE00E941C0260E08DE00E9495
:10207000DE008E010F5F1F4F780110E000E0C80105
:102080000E945119D7018D937D010F5F1F4F0430BE
:102090001105A9F71981113009F0D4C00C814AE566
:1020A00063E0CE0101960E94C60A0813CBC08B8163
:1020B00080FFC8C00A818FEF800F8E3708F0C2C042
:1020C0001093010210E0109345020093440284E053
:1020D00090E00E945119898385E090E00E94511997
:1020E0008A8386E090E00E945119F82E8B834DE29E
:1020F00062E0CE0101960E94C60AF812D3C089811F
:102100009A819C012A50384F2D3E3F4010F090E0BC
:1021100080E090938502809384020E949E0480E078
:102120000E9423040E94D3030E947F030E946E0A30
:1021300010920902109208021092070210920602F1
:102140000E9418038BEB92E09093050280930402A7
:1021500087EC92E09093030280930202000F0093B9
:10216000BA008091BA0081608093BA0083E299E05E
:1021700090930B0280930A0284EB97E090930D02F8
:1021800080930C0288E199E20FB6F894A8958093A9
:1021900060000FBE9093600080E480937C0080918B
:1021A0007A00806480937A0080917A0086FDFCCF6B
:1021B000C0907800D09079000D2C000CEE08FF083C
:1021C0007601DD24CC240E945802C616D706E80604
:1021D000F90631F06C257D258E259F250E94481932
:1021E0000E94F9182BEF30E040E050E00E946719A0
:1021F0007093430260934202412C67E8562E63E9D4
:10220000662E63E0762E55E0252EA8950E949E044A
:102210000E94D3030E947F0330908902332009F487
:1022200044C06AE070E080E090E00E947D0288E1B6
:1022300098E00FB6F894A895809360000FBE909335
:102240006000FFCF83E00E94B50001E010E0892B21
:1022500011F010E000E084E00E94B500892BC9F481
:1022600082E090E0080F191F85E00E94B500892BDD
:1022700099F484E090E0080F191F86E00E94B500F1
:10228000892B69F488E090E0080F191F0F5F1F4F3A
:102290001ACF90E080E0E6CF90E080E0ECCF90E0D5
:1022A00080E0F2CF90E080E02CCF809188028823FC
:1022B00071F1F894009186021091870210928802C1
:1022C0001093850200938402789409831A834DE267
:1022D00062E0CE0101960E94C60A8B83602F84E0E3
:1022E00090E00E94510B6A8185E090E00E94510BC2
:1022F0006B8186E090E00E94510B0E94AF026093D8
:102300008002709381028093820290938302809175
:102310007F028823C1F0F89480917E0210927F02A0
:102320007894809373020E94650B10926E02109253
:102330006F020E94AF0260938002709381028093CB
:1023400082029093830280916D028823C9F0F894F1
:1023500010926D02789481E00E949C0B10926C02A6
:1023600010926B0210926A02109269020E94AF02F0
:102370006093800270938102809382029093830223
:1023800080916802882309F459C0F894F09068029B
:102390001092680278940E946405009107011091E0
:1023A00008012091A5023091A602032E000C440BD7
:1023B000550BC301B2010E946719CA01B901980106
:1023C000110F440B550B0E9467192093A102309303
:1023D000A2024093A3025093A4028F2DFF0C990BED
:1023E0000E94BC0562E370E080E090E00E947D0204
:1023F0000E947E050E94AF026093640270936502A2
:102400008093660290936702672B682B692B61F4B7
:1024100001E010E020E030E00093640210936502D8
:1024200020936602309367020E94AF02609380029D
:102430007093810280938202909383028091630261
:10244000882351F1F894909162021092630278947B
:102450008FEF890F8E3708F037C181E089839A8327
:102460008B834AE563E0CE0101960E94C60A8C8305
:102470009E012F5F3F4F690110E000E0D6016D9192
:102480006D01C8010E94510B0F5F1F4F04301105F1
:10249000A9F781E08093890280916002882311F17D
:1024A000F89410926002789481E089831A821B82EA
:1024B0004AE563E0CE0101960E94C60A8C83FE01C4
:1024C00031966F0110E000E0D6016D916D01C801F9
:1024D0000E94510B0F5F1F4F04301105A9F781E0D7
:1024E0008093890280915F02882309F442C0F894A6
:1024F00010925F0210925B0210925C0210925D02D9
:1025000010925E0278941092550210925602109228
:1025100057021092580210925A02109259021092C9
:1025200051021092520210925302109254021982D8
:102530001A821B821C8200E410E0A895BE016F5F26
:102540007F4FC8010E94C00C6CE3C80104960E9432
:10255000510B0B5F1F4F003CB2E01B0771F70E944D
:10256000AF02609380027093810280938202909305
:10257000830200915502109156022091570230912A
:1025800058028091510290915202A0915302B09151
:10259000540280179107A207B30751F109831A83E8
:1025A0002B833C830F77029D80011124BE016F5F56
:1025B0007F4FC801805C9F4F0E94C00C69812A81B7
:1025C0009B818C813CE36327622769276827C801C8
:1025D0008C5B9F4F0E94510B89819A81AB81BC819A
:1025E0008093510290935202A0935302B0935402ED
:1025F000F0905002FF2009F459C1F8941092500253
:10260000789481E08093180210921F0210921A02AF
:102610001092190210921C0210921B0210921E02BC
:1026200010921D02809317020E949E040E9464056E
:102630002091A5023091A602032E000C440B550BED
:10264000C301B2010E946719CA01B9012AE030E052
:1026500040E050E00E9467192093A1023093A2024B
:102660004093A3025093A40287E00E94B500812CFE
:10267000912C5401892B09F03CC087E00E94B500E1
:10268000892B71F5A89581E090E00E94BC05EFEFE1
:102690008E1A9E0AAE0ABE0AF3EE8F16F7E19F0667
:1026A000A104B10451F781E080931F0283E080937D
:1026B000180210926A021092690210926C02109233
:1026C0006B021092320297C0F894809161028F3FA2
:1026D00029F0809161028F5F809361027894DCCE53
:1026E00082E390E00E94BC0502E3800E911CA11CD5
:1026F000B11C87E00E94B500892B09F419C5A89583
:1027000081E090E00E94BC051FEF811A910AA10AA6
:10271000B10A23EE821627E19206A104B1044CF31C
:1027200082E0C2CF11E05401A89581E090E00E94C0
:10273000BC0545013FEF831A930A4DEE84164FE026
:10274000940641F483E080931F02D0921C02C09251
:102750001B02ACCF87E00E94B50001110BC0892B92
:1027600029F45FEFC51AD50A10E0DDCF1130D1F69C
:102770000F2DFACF892BC1F71130A1F60E94AF02BD
:10278000DC01CB010E8D1F8D28A139A1801B910B7F
:10279000A20BB30B009711E0A107B10520F08FEF5A
:1027A0009FEFA0E0B0E090931E0280931D02B092D4
:1027B0001A02A0921902D0921C02C0921B0282E05F
:1027C00080931802109231021092300281E08093BF
:1027D000320280918402909185020E94BC05109281
:1027E0006A0210926902109213021092140210925F
:1027F0001502109216021092360280911802823051
:1028000059F58091190290911A0220911B02309182
:102810001C022115310571F040917602509177022A
:10282000452B21F4309377022093760230937B027C
:1028300020937A02009771F020917802309179020A
:10284000232B21F4909379028093780290937D0258
:1028500080937C020E94650B0E94AF026115710596
:102860008105910509F4A8C1609364027093650223
:10287000809366029093670264E670E080E090E0E7
:102880000E947D020E947E05109212021092110297
:10289000109217020E949E040E94AF026093800271
:1028A00070938102809382029093830280914F0201
:1028B0008823F1F0F89410924F0278940E94AF02AE
:1028C00060934B0270934C0280934D0290934E02A2
:1028D000672B682B692B61F481E090E0A0E0B0E009
:1028E00080934B0290934C02A0934D02B0934E0202
:1028F0000E94AF026B017C0180914B0290914C02CF
:10290000A0914D02B0914E020097A105B10519F1B9
:10291000C0928002D0928102E0928202F092830201
:1029200097018601081B190B2A0B3B0BC901B80143
:10293000683B1BE071078105910508F44AC160E01E
:102940008DE00E94DE0010924B0210924C02109219
:102950004D0210924E02C701B60128EE33E040E06E
:1029600050E00E9499192115310561E04607510593
:1029700020F02FEF3FEF40E050E0F89430934A0210
:102980002093490278948091480281111CC0809163
:102990004702811118C0909148028091460291111E
:1029A00012C020914402E0914202F0914302882338
:1029B00009F423C180ECC81684EDD80681E0E8064E
:1029C000F10408F033C180913E0290913F02A09142
:1029D0004002B091410297018601081B190B2A0B96
:1029E0003B0BD901C801883E9340A105B10558F0C1
:1029F000C0923E02D0923F02E0924002F092410229
:102A000080E00E94230480913A0290913B02A091C1
:102A10003C02B0913D02A7019601281B390B4A0BDD
:102A20005B0BDA01C90180369A4EA105B105C8F0E9
:102A3000C0923A02D0923B02E0923C02F0923D02F8
:102A400080913802909139028230910508F406C1D4
:102A50009C0136952795821B930B909339028093A6
:102A600038028091730280FF3EC08091370283302C
:102A7000D0F5809148028823B1F1809132028823F9
:102A800091F18091360281112EC080912E02909199
:102A90002F02892B41F52091690230916A028091C1
:102AA0006B0290916C0228173907E9F480914B0270
:102AB00090914C02A0914D02B0914E02892B8A2B2D
:102AC0008B2B89F48091500281110DC080916D0291
:102AD000811109C080918902811105C0809168022D
:102AE000882309F4BEC010926E0210926F0280918A
:102AF0003602811126C18091800290918102A091BD
:102B00008202B091830297018601081B190B2A0BE0
:102B10003B0BD901C801803D9740A105B10590F05C
:102B200083B7817F83BF83B7816083BF889583B775
:102B30008E7F83BFC0928002D0928102E092820297
:102B4000F09283022091690230916A0280916B02B7
:102B500090916C022817390739F100916B0210919E
:102B60006C020D32110500F5C0906402D090650230
:102B7000E0906602F0906702C114D104E104F10410
:102B800009F45CC10E94AF026C197D098E099F098E
:102B9000613D77408105910508F050C181E090E0EA
:102BA00090932F0280932E0220E030E0232B09F433
:102BB0002CCB0E94000027CB21E030E040E050E029
:102BC000209364023093650240936602509367023B
:102BD00053CE2DE730E040E050E00E949919CA0141
:102BE000B9016095709580959095617077278827D9
:102BF00099278DE00E94DE00AECE215030E0A8E59E
:102C0000B2E00E94BB19AB01BC01CF01B0E0A0E073
:102C1000805D9A48AF4FBF4F840F951FA61FB71F07
:102C2000C816D906EA06FB0608F4CDCE81E08093EB
:102C300047020E949C0B10926C0210926B02109241
:102C40006A02109269020E94AF0260938002709340
:102C500081028093820290938302B5CE90E080E05F
:102C6000FCCE80912A0290912B02A0912C02B0916F
:102C70002D0297018601081B190B2A0B3B0BD9016A
:102C8000C8018A3F9105A105B10508F434CFC0926F
:102C90002A02D0922B02E0922C02F0922D02209177
:102CA0007A0230917B02C90147974CE050E08936A7
:102CB000910520F048E150E02EE230E080913002B2
:102CC00090913102863F17E09107C0F442175307F5
:102CD00050F48417950738F0BC01640F751F11E09C
:102CE0006217730760F0240F351F8217930730F0C7
:102CF000840F951F12E0863F974008F010E087E0B0
:102D00000E94B500113009F08AC0892B09F4EBCE7E
:102D100080916F02181721F010936F0210926E02CB
:102D200080916E028F5F80936E02863008F4DFCE52
:102D300010926E0210926F0281E0809336028093AF
:102D400029022091690230916A0280916B02909170
:102D50006C022817390709F0CECE8091800290913D
:102D60008102A0918202B091830297018601081B23
:102D7000190B2A0B3B0BD901C801803D9740A105D7
:102D8000B10508F4DFCE8091250290912602A09132
:102D90002702B09128020097A105B10571F0A701A3
:102DA0009601281B390B4A0B5B0BDA01C9018036EF
:102DB0009A4EA105B10508F4B3CEC114D104E104C3
:102DC000F104A1F13C2D2D2D9E2D8F2D3093250248
:102DD00020932602909327028093280210913302B9
:102DE000009129021092290281E00E949C0B00238D
:102DF00059F08091330218131EC0809137028F3F23
:102E000019F08F5F809337020E94AF0260938002B7
:102E10007093810280938202909383026CCE123071
:102E200009F061CE892B09F473CF5DCE31E020E04B
:102E300090E080E0CBCF10923702E6CF809148023D
:102E400081111DC0C0902102D0902202E090230287
:102E5000F0902402C114D104E104F10409F079C016
:102E60000E94AF026093210270932202809323029A
:102E700090932402672B682B692B09F477C00E947A
:102E8000AF02609364027093650280936602909330
:102E90006702672B682B692B61F421E030E040E08A
:102EA00050E0209364023093650240936602509391
:102EB00067024FEF5FEF5093060140930501809149
:102EC0003802909139028F3F980729F0019690932C
:102ED0003902809338020E94AF026E8F7F8F88A3E1
:102EE00099A3A0906902B0906A02F0904802FF2076
:102EF00021F00A151B050CF046C080E00E949C0BD7
:102F00005C01C0900701D09008012091A50230918A
:102F1000A602032E000C440B550BC301B2010E9404
:102F200067190D2C000CEE08FF08CA01B901A701B2
:102F300096010E9467192093A1023093A202409348
:102F4000A3025093A402B7FEABC0812C912C540174
:102F5000E8C00E94AF026C197D098E099F09603399
:102F600075478105910508F07BCF1ECE81E090E08A
:102F7000A0E0B0E08093210290932202A09323026C
:102F8000B09324027CCF0E946405C0900701D090CA
:102F900008012091A5023091A602032E000C440BDB
:102FA000550BC301B2010E946719CA01B90196010C
:102FB000DD0C440B550B0E9467192093A10230933E
:102FC000A2024093A3025093A4026801CA18DB082E
:102FD000A0910701B09108011A161B0614F0A1E098
:102FE000B0E026EF37E00E94F4199B01AC01C30169
:102FF000B2010E94991949015A0126EF37E0D60122
:103000000E94F4192DE230E040E050E00E9499194E
:10301000CA01B901A50194010E94CA1928EE33E042
:1030200040E050E00E94991949015A01C6010E94EE
:10303000F10610936A0200936902FF2029F10E94B1
:10304000AF02E0912002AB01BC010E8D1F8D28A1C3
:1030500039A1401B510B620B730B9501840192E067
:1030600036952795179507959A95D1F7800E911E5D
:10307000A21EB31E8E2F84169506A606B70608F06C
:1030800055C081608093200281E00E94230464E6A1
:1030900070E080E090E00E947D020E947E0584CD79
:1030A000A0910701B09108011A161B0614F0A1E0C7
:1030B000B0E026EF37E00E94F4199B01AC01C30198
:1030C000B2010E94991969017A0126EF37E0D8010F
:1030D0000E94F4192DE230E040E050E00E9499197E
:1030E000CA01B901A70196010E94CA1928EE33E06E
:1030F00040E050E00E94991969017A0120E83BE024
:10310000D5010E94F41928EE33E040E050E00E941F
:10311000991946015701820E931EA41EB51E332431
:103120003394C8010E94F106F32C83CF8E7FAACF7F
:10313000109231021092300281E0809332020E949C
:10314000AF026E8F7F8F88A399A300E010E0CC249C
:10315000C394D12CB12CA12CE7CA8F929F92AF922D
:10316000BF92CF92DF92EF92FF92CF93DF93EC0169
:10317000688179818A819B8161157105810591053D
:1031800021F464E279ED8BE597E02DE133EF41E046
:1031900050E00E94671949015A019B01AC01A7EA5E
:1031A000B1E40E9486196B017C01ACEEB4EFA5017D
:1031B00094010E949419C60ED71EE81EF91EF7FE50
:1031C00006C081E0C81AD108E10880E8F80AC88280
:1031D000D982EA82FB82C701B6019F77DF91CF9146
:1031E000FF90EF90DF90CF90BF90AF909F908F9027
:1031F00008958F929F92AF92BF92CF92DF92EF92FB
:10320000FF926091090170910A0180910B019091E8
:103210000C01611571058105910521F464E279EDD8
:103220008BE597E02DE133EF41E050E00E94671914
:1032300049015A019B01AC01A7EAB1E40E94861939
:103240006B017C01ACEEB4EFA50194010E949419CE
:10325000C60ED71EE81EF91EF7FE06C081E0C81A8A
:10326000D108E10880E8F80AC0920901D0920A0169
:10327000E0920B01F0920C01C701B6019F77FF901D
:10328000EF90DF90CF90BF90AF909F908F90089578
:103290006093090170930A0180930B0190930C01D4
:1032A0000895F999FECF92BD81BDF89A992780B50E
:1032B0000895262FF999FECF1FBA92BD81BD20BD7A
:1032C0000FB6F894FA9AF99A0FBE01960895052E52
:1032D00097FB1EF400940E947E1957FD07D00E94B0
:1032E000991907FC03D04EF40C947E195095409523
:1032F000309521953F4F4F4F5F4F089590958095A2
:10330000709561957F4F8F4F9F4F08950E94BB1915
:10331000A59F900DB49F900DA49F800D911D112429
:103320000895B7FF0C9486190E948619821B930B8F
:103330000895A1E21A2EAA1BBB1BFD010DC0AA1FF6
:10334000BB1FEE1FFF1FA217B307E407F50720F00E
:10335000A21BB30BE40BF50B661F771F881F991F89
:103360001A9469F760957095809590959B01AC01D2
:10337000BD01CF010895A29FB001B39FC001A39FDB
:10338000700D811D1124911DB29F700D811D11249E
:10339000911D0895DB018F939F930E948619BF9121
:1033A000AF91A29F800D911DA39F900DB29F900D94
:1033B0001124089597FB072E16F4009407D077FD8B
:1033C00009D00E94FB1907FC05D03EF49095819529
:1033D0009F4F0895709561957F4F0895EE0FFF1FE1
:1033E0000590F491E02D09940E94BB19B7FF089550
:1033F000821B930B0895AA1BBB1B51E107C0AA1F98
:10340000BB1FA617B70710F0A61BB70B881F991F85
:103410005A95A9F780959095BC01CD010895505813
:10342000BB27AA270E94271A0C94931A0E94851A78
:1034300038F00E948C1A20F039F49F3F19F426F4DA
:103440000C94821A0EF4E095E7FB0C947C1AE92F99
:103450000E94A41A58F3BA176207730784079507E6
:1034600020F079F4A6F50C94C61A0EF4E0950B2E14
:10347000BA2FA02D0B01B90190010C01CA01A001C6
:103480001124FF27591B99F0593F50F4503E68F121
:103490001A16F040A22F232F342F4427585FF3CF62
:1034A000469537952795A795F0405395C9F77EF433
:1034B0001F16BA0B620B730B840BBAF09150A1F07C
:1034C000FF0FBB1F661F771F881FC2F70EC0BA0F02
:1034D000621F731F841F48F4879577956795B7958A
:1034E000F7959E3F08F0B0CF9395880F08F0992785
:1034F000EE0F97958795089597F99F6780E870E09C
:1035000060E008959FEF80EC089500240A94161659
:10351000170618060906089500240A9412161306C1
:10352000140605060895092E0394000C11F488234F
:1035300052F0BB0F40F4BF2B11F460FF04C06F5F6B
:103540007F4F8F4F9F4F089557FD9058440F551F41
:1035500059F05F3F71F04795880F97FB991F61F015
:103560009F3F79F087950895121613061406551F8C
:10357000F2CF4695F1DF08C0161617061806991FF8
:10358000F1CF86957105610508940895E894BB27ED
:1035900066277727CB0197F908950E94D21A08F47D
:1035A0008FEF0895990F0008550FAA0BE0E8FEEF82
:1035B00016161706E807F907C0F012161306E407F7
:1035C000F50798F0621B730B840B950B39F40A26F0
:1035D00061F0232B242B252B21F408950A2609F4CE
:1035E000A140A6958FEF811D811D0895F894FFCF0E
:1035F000FFFFFFFF01FFFF0A0001000000000000C5
:10360000006B0360037C033603590346033703371B
:083610003461306663390000EB
:00000001FF
