:100000000C9462000C948A000C948A000C948A0070
:100010000C948A000C948A000C948A000C948A0038
:100020000C948A000C948A000C948A000C948A0028
:100030000C948A000C948A000C948A000C948A0018
:100040000C94CD0A0C948A000C948A000C948A00BB
:100050000C948A000C948A000C948A000C948A00F8
:100060000C94170B0C948A00000000002400270059
:100070002A0000000000250028002B0000000000DE
:1000800023002600290004040404040404040202DA
:100090000202020203030303030301020408102007
:1000A0004080010204081020010204081020000012
:1000B0000008000201000003040700000000000027
:1000C0000000360C11241FBECFEFD8E0DEBFCDBF3D
:1000D00011E0A0E0B1E0ECEDFCE202C005900D9271
:1000E000A432B107D9F722E0A4E2B1E001C01D9229
:1000F000A637B207E1F710E0C2E6D0E004C02197CE
:10010000FE010E946B15C136D107C9F70E947F0C12
:100110000C946C160C940000833081F028F481302C
:1001200099F08230A9F008958730A9F08830C9F09D
:100130008430B1F4809180008F7D03C08091800075
:100140008F7780938000089584B58F7784BD08955C
:1001500084B58F7DFBCF8091B0008F778093B00006
:1001600008958091B0008F7DF9CFCF93DF93282F32
:1001700030E0F901E255FF4F8491F901E656FF4F57
:10018000D491F901EA57FF4FC491CC23A1F081111A
:100190000E948C00EC2FF0E0EE0FFF1FE458FF4FA1
:1001A000A591B491EC91ED2381E090E009F480E019
:1001B000DF91CF91089580E090E0FACF1F93CF9325
:1001C000DF93282F30E0F901E255FF4F8491F901C8
:1001D000E656FF4FD491F901EA57FF4FC491CC2363
:1001E000A9F0162F81110E948C00EC2FF0E0EE0F89
:1001F000FF1FEE58FF4FA591B4918FB7F894EC9183
:10020000111108C0D095DE23DC938FBFDF91CF9111
:100210001F910895DE2BF8CFCF93DF93EC018091EF
:10022000600290916102029749F4C130D10509F44E
:100230003BC06CF560E0209709F437C08091600204
:1002400090916102049749F4C130D10509F45CC072
:100250000CF037C0209709F442C080916002909161
:100260006102059709F0E5C0CA30D10508F0E1C088
:10027000FE01E35CFE4F0C946B159C01A801B901D3
:10028000CF01EA01EC01F301FF0110021702C230B5
:10029000D105A9F060E0C330D10581F680916402F8
:1002A0000E94DE0060E006C061E0809164020E946E
:1002B000DE0061E0809166020E94DE00BFCF61E057
:1002C000EDCFC230D10539F1C330D10509F0C5CF2A
:1002D00061E0809164020E94DE0060E022C061E083
:1002E000809164020E94DE0060E0809166020E94BC
:1002F000DE0061E0809168020E94DE0060E0809193
:100300006A020E94DE00A9CF60E0809164020E9430
:10031000DE0061E0EACF60E0809164020E94DE00CE
:1003200061E0809166020E94DE0060E080916802D8
:100330000E94DE0061E0E3CF60E0809164020E94F1
:10034000DE0061E0809166020E94DE0061E00BC089
:1003500060E0809164020E94DE0061E080916602AC
:100360000E94DE0060E0809168020E94DE0060E092
:1003700010C060E0809164020E94DE0061E0809124
:1003800066020E94DE0060E0809168020E94DE004A
:1003900061E080916A020E94DE0061E015C060E0C9
:1003A000809164020E94DE0061E0809166020E94FA
:1003B000DE0060E0809168020E94DE0061E08091D2
:1003C0006A020E94DE0060E080916C02DF91CF91B2
:1003D0000C94DE0061E0E4CF61E0809164020E9451
:1003E000DE0060E0E2CF61E0809164020E94DE0006
:1003F00060E0809166020E94DE0061E0DBCF61E098
:10040000809164020E94DE0060E0809166020E949A
:10041000DE0061E0809168020E94DE0060E0CFCFE4
:1004200061E0809164020E94DE0060E08BCF60E0BA
:10043000F8CFDF91CF910895CF93DF9390E0FC0147
:10044000E656FF4F24918A579F4FFC0184918823E1
:10045000C9F090E0880F991FFC01E859FF4FA59162
:10046000B491FC01EE58FF4FC591D49161110DC0BC
:100470009FB7F8948C91209582238C9388812823B0
:1004800028839FBFDF91CF910895623051F49FB7C9
:10049000F8943C91822F809583238C93E8812E2BB6
:1004A000EFCF8FB7F894EC912E2B2C938FBFEACF20
:1004B0003FB7F8948091460290914702A09148027C
:1004C000B091490226B5A89B05C02F3F19F00196AF
:1004D000A11DB11D3FBFBA2FA92F982F8827BC019E
:1004E000CD01620F711D811D911D42E0660F771FC6
:1004F000881F991F4A95D1F708958F929F92AF92C6
:10050000BF92CF92DF92EF92FF924B015C010E946B
:1005100058026B017C010E9458026C197D098E09FA
:100520009F09683E734081059105A8F321E0821A76
:100530009108A108B10888EEC80E83E0D81EE11C1E
:10054000F11C81149104A104B10429F7FF90EF90EC
:10055000DF90CF90BF90AF909F908F900895CF93F2
:10056000DF9300D0CDB7DEB78EE480937C0062E0ED
:1005700070E080E090E00E947D0280917A008064CB
:1005800080937A0080917A0086FDFCCF20917800DC
:10059000309179002115310529F510924B02109206
:1005A0004A0220917202309173022115310511F433
:1005B00026E732E0CE010196821B930B97FF02C023
:1005C00090E080E0209102013091030182179307AF
:1005D00020F490930301809302010F900F90DF911C
:1005E000CF91089550E040E064EB7BE281E190E040
:1005F0000E9426152115310581E04807510590F02C
:100600008FEF9FEF90934B0280934A022091040159
:10061000309105018217930720F69093050180938E
:100620000401BFCFC90130934B0220934A02EECFA1
:100630002FB7F89460914202709143028091440276
:10064000909145022FBF0895E091E601F091E701F6
:10065000309729F01092E1011092E0010994089579
:10066000CF93DF93AC01E091E401F091E501309785
:10067000F1F09091E3018091E2019817C0F090E0D1
:10068000292F30E02617370754F4D901A55BBE4F58
:10069000240F351FE90128812C939F5FF1CF109221
:1006A000E3016093E201CB01DF91CF910994DF91E7
:1006B000CF91089520919101260F3327331F2132C6
:1006C0003105ECF42091B501FC0190E080E024308C
:1006D00069F082E00895A09191012191AC014F58F9
:1006E0005E4FA40FB52FB11D2C930196861798F37A
:1006F00080919101680F6093910180E0089581E0FD
:1007000008951092B50181E08093B7011092B6016F
:1007100061E082E10E94DE0061E083E10E94DE0090
:10072000E9EBF0E080818E7F808380818D7F808304
:1007300088E48093B80085E48093BC000895089510
:10074000E091E3018091E201E81730F4F0E0E55B2D
:10075000FE4F808190E008958FEF9FEF0895909174
:10076000E3018091E2012FEF3FEF981748F4E92F62
:10077000F0E0E55BFE4F208130E09F5F9093E30166
:10078000C90108958091E2019091E301891B990BC1
:100790000895CF93DF93CB01EA01642F0E945A039F
:1007A000CE01DF91CF910895CF93DF931F92CDB704
:1007B000DEB7698361E0CE0101960E945A0381E0B1
:1007C00090E00F90DF91CF91089590E080E0089540
:1007D000CF93DF93CDB7DEB728970FB6F894DEBF7F
:1007E0000FBECDBF50914A0240914B02809104014F
:1007F000909105018F3F980711F4852F942F6091F8
:1008000034027091350220910201309103012F3F93
:10081000320711F430E020E059834A838B839C83B4
:100820006D832E833F83FE0131969E01285F3F4FEB
:10083000DF0180E09D918927A217B307D9F79CE3D8
:1008400089278887F89490E080E02191DC01AD5BF6
:10085000BE4F2C93019688309105B9F7789428966D
:100860000FB6F894DEBF0FBECDBFDF91CF910895D4
:100870008F929F92AF92BF92EF92FF920F931F932E
:10088000CF93DF93CDB7DEB72F970FB6F894DEBFC7
:100890000FBECDBF0091060280910202811102605D
:1008A00080903B0290903C02E0900402F0900502A0
:1008B000109103022FEF882399F16091000270914B
:1008C000010290E080E0092C000CAA08BB0868191E
:1008D00079098A099B0926EF37E040E050E00E9441
:1008E000F4149B01AC0157FF04C02A50384F4F4FFE
:1008F0005F4FADE2B0E00E94131565507C4F8F4F03
:100900009F4F26EF37E040E050E00E942615CA01D5
:10091000B9012DE230E040E050E00E942615262F7C
:100920002A870B871C87C70131E8E3163FEFF306E0
:1009300014F481E89FEF8038910514F08FE790E080
:100940008D871E8667EB61276827602762276F8780
:100950008091EF0189839091F0018091F1019A8358
:100960008B839091F2018091F3019C838D83909110
:10097000F4018091F5019E838F831886FE013196E4
:100980009E01275F3F4FDF0180E09D918927A217DD
:10099000B307D9F79CE589278987F894BE01665F7C
:1009A0007F4F90E080E0DB014D91BD019C01235C15
:1009B0003E4FD9014C93019686309105A1F790E006
:1009C00080E02191DC01AC5CBE4F2C930196893014
:1009D0009105B9F778942F960FB6F894DEBF0FBE45
:1009E000CDBFDF91CF911F910F91FF90EF90BF90FE
:1009F000AF909F908F90089581E090E09093FB01DD
:100A00008093FA01609133018BE00E94DE006091D7
:100A100032018AE00E94DE006091310189E00E948B
:100A2000DE006091300188E00C94DE008BE00E94D3
:100A3000B50021E0892B09F420E0209333018AE0FE
:100A40000E94B50021E0892B09F420E020933201B7
:100A500089E00E94B50021E0892B09F420E0209371
:100A6000310188E00E94B50021E0892B09F420E0E3
:100A70002093300160E08BE00E94DE0060E08AE0BD
:100A80000E94DE0060E089E00E94DE0060E088E015
:100A90000E94DE001092FB011092FA0164E670E001
:100AA00080E090E00C947D024F925F926F927F9273
:100AB0008F929F92AF92BF92CF92DF92EF92FF926E
:100AC0000F931F93CF93DF936C017C0197FF04C0BA
:100AD000EE24FF24E81AF90A1C141D040CF063C06C
:100AE00081E090E09093590280935802C4E0D0E0F6
:100AF0000AE010E0E114F10409F472C00E94580207
:100B000080906E0290906F02A0907002B09071027F
:100B10002B013C01481859086A087B0880905A024A
:100B200090905B02A0905C02B0905D024814590462
:100B30006A047B04F8F260936E0270936F028093F4
:100B400070029093710280916202909163022091F1
:100B50005802309159022130310571F50196909378
:100B600063028093620220915E0230915F028217DD
:100B7000930721F4109263021092620221E0E21ABC
:100B8000F10880916202909163022091600230919D
:100B90006102B8012530310509F0BE010E945715E8
:100BA0000E940C01A7CFC114D10409F49FCF109269
:100BB0005902109258029ACF892B41F480915E021B
:100BC00090915F029093630280936202809162022F
:100BD0009091630201979093630280936202CECF5B
:100BE0000D2C000CEE08FF08D701C601F7FE07C068
:100BF00088279927DC018C199D09AE09BF0920912E
:100C0000220230912302BC01CD01620F731F811DAE
:100C1000911D26EF422E27E0522E612C712CA3014C
:100C200092010E94261580901E0290901F02A090B3
:100C30002002B0902102820E931EA41EB51E809247
:100C40001E0290921F02A0922002B0922102709385
:100C50002302609322028091000290910102A70179
:100C60009601280F391F411D511DCA01B901A30169
:100C700092010E94F41497FF04C06A50784F8F4F7E
:100C80009F4F709301026093000280912402909123
:100C90002502A0912602B091270288159905AA0580
:100CA000BB0591F0F89480911E0290911F02A091D3
:100CB0002002B09121028093240290932502A093F8
:100CC0002602B09327027894DF91CF911F910F9164
:100CD000FF90EF90DF90CF90BF90AF909F908F905C
:100CE0007F906F905F904F9008950F931F93CF93D5
:100CF000DF93082F81E090E09093FB018093FA014D
:100D000020915E0230915F02032E000C440B550BC4
:100D100060E077E883E993E00E94F414CA01B90126
:100D20002AE030E040E050E00E94F41420935A02A0
:100D300030935B0240935C0250935D02D0E0C0E0D0
:100D400010E0A89587E00E94B500009709F495C0CF
:100D5000019709F467C020910202809100029091EE
:100D600001028C3F33E0930710F0865F97401092AA
:100D700001021092000231E0309302022223A9F016
:100D80009C0197FF04C022273327281B390B2831E9
:100D900031055CF0209103022F3F19F02F5F209363
:100DA0000302909305028093040210920602809140
:100DB0003B0290913C020E94540510923302109223
:100DC00032021092EB011092EC011092ED011092A0
:100DD000EE01F89410922F0181E0182710932E0154
:100DE000D0932D01C0932C018093110278940111AE
:100DF0000E941605CE01DF91CF911F910F910895AA
:100E000087E00E94B500892B09F03CC0A89581E0DD
:100E100090E00E9454052196C33E37E1D30781F745
:100E200011E012C0209741F482E390E00E94540543
:100E3000C2E3D0E0219685CF81E090E00E94540586
:100E4000C33E87E1D807B4F3109233021092320206
:100E50001092020210920602F89481E080932F0112
:100E6000182710932E01D0932D01C0932C01789454
:100E70000E941605CFEFDFEFBDCF209709F4C0CF5A
:100E800011E069CF82E390E00E945405E29611E000
:100E9000D7CF4F925F926F927F929F92AF92BF9205
:100EA000CF92DF92EF92FF920F931F93CF93DF9336
:100EB0006C0187E00E94B500BB24B394892B09F034
:100EC000B12CD0E0C0E0A12C99249394CC15DD0581
:100ED0000CF085C0A89520E039EE43E95EE360910F
:100EE000EB017091EC018091ED019091EE010E9477
:100EF00086152B013C0120E030E040E85FE30E94D2
:100F0000431618164CF14092EB015092EC0160929E
:100F1000ED017092EE019DE2E92EF12C10E000E06F
:100F200081E090E00E94540587E00E94B500892B83
:100F300009F052C021E02A1508F0A39482E0A8121B
:100F400004C0BB20E9F0BB24B3940F5F1F4FE01631
:100F5000F10631F72196BACF20E030E040E85FE3B8
:100F6000C301B2010E9485156093EB017093EC01FF
:100F70008093ED019093EE018EE2E82EF12CCECF1E
:100F8000B090020280910002909101028C3F23E018
:100F9000920710F0865F97401092010210920002B3
:100FA00090920202BB2079F29C0197FF04C0222795
:100FB0003327281B390B283131052CF220910302ED
:100FC0002F3F19F02F5F2093030290930502809327
:100FD000040290920602B9CFA12CB12CB6CFDF91BA
:100FE000CF911F910F91FF90EF90DF90CF90BF9026
:100FF000AF909F907F906F905F904F9008958F92E9
:101000009F92AF92BF92CF92DF92EF92FF92CF93D7
:10101000DF93CDB7DEB728970FB6F894DEBF0FBECB
:10102000CDBF80912B01882361F1BE016F5F7F4F9F
:1010300088E0FB0111928A95E9F7ECE1F1E0DB0130
:101040008191882329F08D9381E0E432F807C1F77C
:1010500048E050E08CE492E00E94C90310922B011A
:1010600028960FB6F894DEBF0FBECDBFDF91CF91AB
:10107000FF90EF90DF90CF90BF90AF909F908F90B8
:10108000089580912A01882391F080913B029091EC
:101090003C0289839A8342E050E0BE016F5F7F4F3C
:1010A0008CE492E00E94C90310922A01D9CF80916A
:1010B0002901882399F0809132029091330289832B
:1010C00080958A8342E050E0BE016F5F7F4F8CE4E1
:1010D00092E00E94C90310922901C2CF8091280199
:1010E000882349F140912402509125026091260203
:1010F000709127024983852E962EA72EBB248A82C3
:101100006B01EE24FF24CB82872F9927AA27BB27C8
:101110008C8325EA242728252C2582278D8345E0EA
:1011200050E0BE016F5F7F4F8CE492E00E94C903E4
:101130001092280195CF80912701882359F046E02D
:1011400050E06DE371E08CE492E00E94C9031092DC
:10115000270186CF80912601882359F049E050E08D
:1011600064E371E08CE492E00E94C90310922601CE
:1011700077CF80912501882359F048E050E063E45F
:1011800071E08CE492E00E94C9031092250168CFBF
:1011900080912401882309F44BC02091FA013091F9
:1011A000FB0181E0232B09F480E090912F01911144
:1011B000826090912E01911184609091DB019111D8
:1011C0008061909111029111806220912C013091E7
:1011D0002D0189838091EA018A838091E9018B83C3
:1011E0008091E8018C8380911202909113029D837B
:1011F00080911202909113028E8380912A028F8334
:1012000084E0369527958A95E1F72F3F310519F04F
:1012100010F02FEF30E0288748E050E0BE016F5F0C
:101220007F4F8CE492E00E94C9031092240118CFF2
:101230006091FA017091FB018CE492E00E94D4036A
:101240000FCF1F93CF93DF93181619060CF0AFC082
:10125000EC0181E080930F028CE492E00E94AF03E6
:101260009E01215031098D3291050CF4BBC080588C
:10127000990B8931910508F0AAC0FC01EE5BF64F8D
:101280000C946B155B0969096D0971097509790978
:101290007D0981098509E709E709E709E709E70900
:1012A000E709E709BB09AF095B098D09BF09DB093C
:1012B000DF09E309890981E080934002E9011C16F6
:1012C0001D060CF074C08CE492E00E94AF032197DD
:1012D000F6CF81E080932B01F1CF81E080932A014A
:1012E000EDCF81E080932401E9CF81E08093290153
:1012F000E5CF81E080932801E1CF81E08093270151
:10130000DDCF81E080932601D9CF81E08093250154
:10131000D5CF81E080931902D1CF223031050CF472
:1013200056C08CE492E00E94AF03182F8CE492E048
:101330000E94AF039E012350310940E0582F412BFA
:10134000CA018A50984F8D3E9F4008F040C050938C
:101350003E0240933D0281E080933F02AFCF232BBA
:10136000E9F08CE492E00E94AF03809331029E0189
:1013700022503109A3CF81E0809336029FCF232BE7
:1013800069F08CE492E00E94AF0380932B029E01EF
:101390002250310981E080932C0290CF80912A0263
:1013A0008F3F29F080912A028F5F80932A02DF917C
:1013B000CF911F91089581E0809329027FCF81E032
:1013C000809318027BCF81E08093280277CF8091B1
:1013D0002A028F3F09F472CF80912A028F5F809397
:1013E0002A026CCFC230D10589F04CF080912A02DC
:1013F0008F3F29F080912A028F5F80932A022197E4
:10140000B1F28CE492E00E94AF03F9CF90933502E1
:10141000809334028CE492E00E94AF031816190600
:1014200014F081E090E09093010180930001BFCF20
:101430000C94DE14CF93DF9385ED8093BC008091F4
:101440006D0190916E01A0916F01B09170010796AE
:10145000A11DB11D23E0B695A795979587952A956F
:10146000D1F72091BC0024FD03C01092B50136C015
:1014700040916D0150916E0160916F01709170010A
:10148000452B462B472B69F30097A105B10541F089
:101490002AE22A95F1F700C00197A109B109E1CF2D
:1014A00080916C0191E090936B018823B9F0C09119
:1014B000B800D091BA008091BC008A7B8093BC00B8
:1014C00060E082E10E94DE0060E083E10E94DE00D5
:1014D0000E948103D093BA00C093B800DF91CF91EE
:1014E0000895FF920F931F93CF93DF93EC01F62E95
:1014F00008811981C8010E94DE14F81621F06F2DB1
:10150000C8010E94E614CE01DF91CF911F910F9187
:10151000FF900895AF92BF92CF92DF92EF92FF9229
:101520000F931F93CF93DF9300D0CDB7DEB78B011E
:101530006B0124E0C20ED11C7B015C01A61AB70A24
:10154000C5018E0D9F1D9A838983F70161917F01EB
:10155000CE0101960E94710AEC14FD0489F7C801BE
:101560000F900F90DF91CF911F910F91FF90EF900F
:10157000DF90CF90BF90AF900895CF93DF9300D0CE
:10158000CDB7DEB79A838983CE0101960E94710A96
:101590000F900F90DF91CF9108951F920F920FB689
:1015A0000F9211242F933F938F939F93AF93BF93E9
:1015B0008091420290914302A0914402B091450271
:1015C0003091410223E0230F2D3758F50196A11DDC
:1015D000B11D209341028093420290934302A09355
:1015E0004402B09345028091460290914702A09137
:1015F0004802B09149020196A11DB11D8093460297
:1016000090934702A0934802B0934902BF91AF91D3
:101610009F918F913F912F910F900FBE0F901F9030
:10162000189526E8230F0296A11DB11DD2CF1F9257
:101630000F920FB60F9211242F933F934F935F9306
:101640006F937F938F939F93AF93BF93EF93FF938A
:101650008091B900887F803609F44AC0F0F588325D
:1016600009F4A7C018F5803109F49BC0B8F48823A9
:1016700009F4F9C0883009F494C0FF91EF91BF914B
:10168000AF919F918F917F916F915F914F913F911A
:101690002F910F900FBE0F901F901895883109F46D
:1016A00088C0803251F78093B40114C0803409F4AB
:1016B0009DC040F48033B9F38833F9F68093B401C8
:1016C00085ECB0C0803509F485C0883509F496C032
:1016D000883499F60E941A0AD0CF883909F48CC050
:1016E00038F5883729F050F4883611F0803729F61C
:1016F00083E08093B5011092B30157C0883809F494
:101700007BC0803919F0803809F0B7CF8091B301E0
:10171000803208F071C0E091B30181E08E0F8093B8
:10172000B3018091BB00F0E0ED56FE4F80833DC0D9
:10173000803B39F0E0F4803A09F479C0883A09F046
:101740009CCF84E08093B501109292011092910198
:10175000E091DE01F091DF01099580919101811105
:101760000FC081E0809391011092710109C0803C0B
:1017700009F4A6CF883C09F4A3CF883B09F07DCFBC
:10178000E091920181E08E0F80939201F0E0EF589A
:10179000FE4F80818093BB009091920180919101D6
:1017A00029C08091DA018093BB0085EC8093BC0056
:1017B00064CF9091D9018091D801981758F5E091A4
:1017C000D90181E08E0F8093D901F0E0E854FE4FFB
:1017D0008081E9CFE091D90181E08E0F8093D9011A
:1017E0008091BB00F0E0E854FE4F80839091D901D6
:1017F0008091D8019817C8F285E8D8CFE091D90137
:1018000081E08E0F8093D9018091BB00F0E0E85415
:10181000FE4F80838091B70181115CCF81E080937E
:10182000B60184EA8093BC001092B50126CF85EC06
:101830008093BC001092B5018091B301803230F4E6
:10184000E091B301F0E0ED56FE4F10826091B301DC
:1018500070E0E091DC01F091DD0183E991E0099510
:101860001092B3010ACF1092B40134CFCF93DF931B
:10187000ECE4F2E01382128288EE93E0A0E0B0E0A4
:1018800084839583A683B7838EE091E091838083E0
:10189000C8E5D2E01B861A86198218821E8A1F8A22
:1018A000188E198E86EF97E09F838E838BE090E0F1
:1018B0009D878C8789E090E09F878E878AE090E003
:1018C000998B888B88E090E09B8B8A8B61E08BE022
:1018D0000E941C0261E08E850E941C0261E08889E2
:1018E0000E941C0261E08A890E941C021D8A1C8AD7
:1018F00084E090E099878887DF91CF910895CF9316
:10190000DF93CDB7DEB7C555D1090FB6F894DEBF6A
:101910000FBECDBF789484B5826084BD84B58160EC
:1019200084BD85B5826085BD85B5816085BD8091AA
:101930006E00816080936E00109281008091810022
:10194000826080938100809181008160809381001A
:10195000809180008160809380008091B1008460DC
:101960008093B1008091B00081608093B00080913D
:101970007A00846080937A0080917A0082608093FC
:101980007A0080917A00816080937A0080917A0059
:10199000806880937A001092C10084B78093EA0136
:1019A00014BE0FB6F894A89580916000886180936A
:1019B0006000109260000FBE86E090E00E94180A5E
:1019C0008A3509F08EC184E090E00E94180A809365
:1019D000E90185E090E00E94180A8093E801809177
:1019E000EA0182FF0BC06091E9016F3F39F06F5F40
:1019F0006093E90184E090E00E94BD0A8091EA01D1
:101A000083FF0BC06091E8016F3F39F06F5F609317
:101A1000E80185E090E00E94BD0A87E090E00E9426
:101A2000180A782E8DE3870D823008F0B3C19E012D
:101A30002F5F3F4F6901790108E010E0570154E042
:101A4000A50EB11C48018E189F08C4018E0D9F1D64
:101A50000E94DE14F70181937F01EA15FB05A9F7C7
:101A60000C5F1F4F0834110549F7F3EC7F124DC18D
:101A7000EE24E394F12CEC0EFD1E20E4E20EF11CAA
:101A8000FE01319680E090E0DC014191519161913D
:101A900071914F3F3FEF53076307730739F0841786
:101AA0009507A607B70710F4DB01CA01EE16FF067B
:101AB00061F780931E0290931F02A0932002B093BF
:101AC0002102ACE3FA2EF60181919191A191B1919D
:101AD0006F01682F6F2569276A276B27C8010E944D
:101AE000BD0A0F5F1F4F0835110569F764EC87E0E9
:101AF00090E00E94BD0A80911E0290911F02A09169
:101B00002002B091210280931A0290931B02A093AD
:101B10001C02B0931D028093240290932502A0938F
:101B20002602B093270262E086E00E941C0262E077
:101B300085E00E941C0262E084E00E941C0262E0D8
:101B400083E00E941C0260E087E00E941C0261E0CA
:101B50008DE00E941C0260E08DE00E94DE0082E0C9
:101B600090E00E94180A853A09F03DC183E090E0B8
:101B70000E94180A9FEF980F9E3708F034C191E039
:101B80009093DB01082F10E010930E0200930D02DA
:101B900090E080E00E94DE14898381E090E00E9462
:101BA000DE148A8389819A818A50984F8D3E9F40A6
:101BB00010F01A82198289819A8190933C02809355
:101BC0003B020E9438040E94AF020E94E803109278
:101BD000E3011092E2011092E1011092E0010E94F3
:101BE000810384E293E09093DF018093DE0180E340
:101BF00093E09093DD018093DC01000F0093BA0025
:101C00008091BA0081608093BA0081E299E090935C
:101C1000E5018093E4018FEF97E09093E7018093D3
:101C2000E60188E199E20FB6F894A89580936000E8
:101C30000FBE9093600080E480937C0080917A00D6
:101C4000806480937A0080917A0086FDFCCFC090FA
:101C50007800D09079000D2C000CEE08FF0876017A
:101C6000DD24CC240E945802C616D706E806F906E1
:101C700031F06C257D258E259F250E94D5140E946C
:101C800086142BEF30E040E050E00E94F414709393
:101C90000C0260930B02812C67E8962E63E9A62E56
:101CA00063E0B62E412C512C32014394A8950E943A
:101CB00038040E94E80300914002002309F4C3C0E5
:101CC0006AE070E080E090E00E947D0288E198E0A8
:101CD0000FB6F894A895809360000FBE90936000B3
:101CE000FFCF1092E9011092E80160E084E090E0FB
:101CF0000E94BD0A60E085E090E00E94BD0A6AE5AE
:101D000086E090E00E94BD0A6ACE7E01F1E4EF0E0B
:101D1000F11C5701C8010E94180AF50181935F0167
:101D20000F5F1F4F08351105A9F741E050E04C0F38
:101D30005D1F405C5F4F812C912C54013CE3F60108
:101D400081919191A191B1916F018F3FFFEF9F0719
:101D5000AF07BF0781F0282F232729272A272B2702
:101D6000F7016081621307C088169906AA06BB06B0
:101D700010F44C015D01FFEFEF1AFF0A4C155D05F1
:101D8000F1F680921E0290921F02A0922002B09261
:101D90002102B1CE19821A821B821C82F8E4EF2E36
:101DA000F12C08E010E0BE016F5F7F4FC8010E9478
:101DB0008A0A6CE3C7010E94BD0A0C5F1F4F2FEF18
:101DC000E21AF20A0834110571F764EC87E090E03A
:101DD0000E94BD0A10921E0210921F021092200251
:101DE0001092210288CE83E00E94B50001E010E04D
:101DF000892B11F010E000E084E00E94B500892BEF
:101E0000C9F482E090E0080F191F85E00E94B50038
:101E1000892B99F484E090E0080F191F86E00E9456
:101E2000B500892B69F488E090E0080F191F0F5F57
:101E30001F4FAACE90E080E0E6CF90E080E0ECCFAC
:101E400090E080E0F2CF80913F02882331F1F89456
:101E5000E0903D02F0903E0210923F02F0923C0270
:101E6000E0923B0278941A8219826E2DCE0101967F
:101E70000E94710A41E050E05A8349836F2DCE01E0
:101E800001960E94710A0E941803609337027093B2
:101E900038028093390290933A0280913602882367
:101EA000C9F0F89410923602789481E00E94750689
:101EB00010923502109234021092330210923202C4
:101EC0000E9418036093370270933802809339029E
:101ED00090933A0280913102882309F457C0F89414
:101EE000109131021092310278940E94FC04C0904B
:101EF0000001D090010120915E0230915F02032E1B
:101F0000000C440B550BC501B4010E94F4140D2CB8
:101F1000000CEE08FF08CA01B901A70196010E9452
:101F2000F41420935A0230935B0240935C02509366
:101F30005D02812F110F990B0E94540562E370E03E
:101F400080E090E00E947D020E9416050E94180326
:101F500060932D0270932E0280932F029093300293
:101F6000672B682B692B41F440922D0250922E0270
:101F700060922F02709230020E9418036093370221
:101F8000709338028093390290933A0280912C0228
:101F90008823B9F0F89460912B0210922C02789467
:101FA0008FEF860F8E3708F022C183E090E00E9409
:101FB000BD0A65EA82E090E00E94BD0A81E080935C
:101FC000400280912902882361F0F894109229023E
:101FD00078946FEF82E090E00E94BD0A81E08093E8
:101FE000400280912802882309F448C0F894109296
:101FF00028021092240210922502109226021092BA
:102000002702789410921E0210921F021092200252
:1020100010922102109223021092220210921A02B0
:1020200010921B0210921C0210921D0219821A8239
:102030001B821C8248E4C42ED12C58E0E52EF12CE2
:10204000BE016F5F7F4FC7010E948A0A6CE3C60121
:102050000E94BD0A54E0E50EF11C8FEFC81AD80AA1
:1020600098E4E916F10461F70E94180360933702BF
:10207000709338028093390290933A0280911E0245
:1020800090911F02A0912002B091210240911A026A
:1020900050911B0260911C0270911D026C017D0128
:1020A000C41AD50AE60AF70AB701A6014038510555
:1020B0006105710598F189839A83AB83BC8327E01E
:1020C000B695A795979587952A95D1F78F70E82EA5
:1020D000F12CC7010296BE016F5F7F4F880F991FD9
:1020E000880F991F0E948A0A69812A819B818C81AD
:1020F0003CE36327622769276827C701885B9F4FF6
:102100000E94BD0A89819A81AB81BC8180931A02A9
:1021100090931B02A0931C02B0931D02D090190251
:102120006296DFAE6297DD2009F43BC2F89410920C
:102130001902789481E08093EF010E9438040E9494
:10214000FC0420915E0230915F02032E000C440BD0
:10215000550BC501B4010E94F414CA01B9012AE06B
:1021600030E040E050E00E94F41420935A02309393
:102170005B0240935C0250935D0287E00E94B500D1
:10218000C12CD12C7601892B09F078C187E00E94FF
:10219000B500892B09F069C1A89581E090E00E9403
:1021A00054052FEFC21AD20AE20AF20A33EEC3161E
:1021B00037E1D306E104F10449F753E05093EF010E
:1021C0001092F1011092F0011092F3011092F201BD
:1021D0001092F5011092F401109233021092320223
:1021E000109235021092340210920202B4C1F89497
:1021F00080912A028F3F29F080912A028F5F80937D
:102200002A027894DECE113019F562960FAD6297EE
:1022100010E06101A89581E090E00E94540516014C
:102220008FEF281A380A9DEE29169FE0390629F209
:1022300087E00E94B500011106C0892B21F7EFEF5E
:10224000EE1AFE0AE5CF892B19F7113009F444C1C3
:1022500011E0DFCF40922D0250922E0260922F02A9
:10226000709230028AC12DE730E040E050E00E94D9
:102270002615CA01B9016095709580959095617099
:102280007727882799278DE00E94DE00DBC1215047
:1022900030E0A8E5B2E00E944815AB01BC01CF01D7
:1022A000B0E0A0E0805D9A48AF4FBF4F840F951F0C
:1022B000A61FB71FC816D906EA06FB0608F4FAC11E
:1022C00081E0809310020E947506109235021092F0
:1022D000340210923302109232020E94180360936B
:1022E0003702709338028093390290933A02E2C128
:1022F00031E020E090E080E045C280911102811140
:102300001DC0C090F601D090F701E090F801F09068
:10231000F901C114D104E104F10409F068C00E947C
:1023200018036093F6017093F7018093F80190937E
:10233000F901672B682B692B09F466C00E9418030A
:1023400060932D0270932E0280932F02909330029F
:10235000672B682B692B41F440922D0250922E027C
:1023600060922F027092300220903202309033023D
:1023700080911102882321F0021513050CF04DC045
:1023800080E00E947506C0900001D090010120916C
:102390005E0230915F02032E000C440B550BC50109
:1023A000B4010E94F4140D2C000CEE08FF08CA01C1
:1023B000B901A70196010E94F41420935A023093A8
:1023C0005B0240935C0250935D02C8010E94490782
:1023D00010933302009332020E94AF0264E670E071
:1023E00080E090E00E947D020E94160539C20E94A2
:1023F00018036C197D098E099F09603375478105A3
:10240000910508F08CCF2CC24092F6015092F70152
:102410006092F8017092F90191CF0E94FC04C09083
:102420000001D090010120915E0230915F02032EE5
:10243000000C440B550BC501B4010E94F4140D2C83
:10244000000CEE08FF08CA01B901A70196010E941D
:10245000F41420935A0230935B0240935C02509331
:102460005D02C80182199309B1CF82E390E00E9416
:10247000540522E3C20ED11CE11CF11C87E00E942E
:10248000B500892B99F0A89581E090E00E94540551
:102490004FEFC41AD40AE40AF40A53EEC51657E102
:1024A000D506E104F1040CF088CEE8CF10920102C9
:1024B0001092000281E0809302020E941803669647
:1024C0006CAF7DAF8EAF9FAF669710E0EE24E394C4
:1024D000F12CD12CC12C9ECE0E941803DC01CB0123
:1024E00066962CAD3DAD4EAD5FAD6697821B930BEE
:1024F000A40BB50B009731E0A307B10520F08FEFD7
:102500009FEFA0E0B0E09093F5018093F401D092AA
:10251000F101C092F001F092F301E092F20142E089
:102520004093EF01109201021092000281E080932B
:10253000020280913B0290913C020E94540510924D
:102540003302109232021092EB011092EC011092C1
:10255000ED011092EE01109206020E94180361151F
:1025600071058105910509F475CE60932D02709374
:102570002E0280932F029093300264E670E080E098
:1025800090E00E947D020E9416050E9438040E947D
:102590001803609337027093380280933902909346
:1025A0003A02809118028823D1F0F8941092180210
:1025B00078940E941803609314027093150280931C
:1025C000160290931702672B682B692B41F44092F7
:1025D00014025092150260921602709217020E9425
:1025E00018036B017C018091140290911502A09157
:1025F0001602B09117020097A105B10519F1C0921A
:102600003702D0923802E0923902F0923A02A701E2
:102610009601281B390B4A0B5B0BCA01B901683BB9
:102620003BE073078105910508F41DCE60E08DE065
:102630000E94DE00109214021092150210921602EF
:1026400010921702C701B60128EE33E040E050E0D7
:102650000E9426152115310581E04807510520F01B
:102660002FEF3FEF40E050E0F894309313022093B7
:10267000120278948091110281111CC08091100285
:10268000811118C09091110280910F02911112C016
:1026900020910D02E0910B02F0910C02882309F4C5
:1026A000F6CD90ECC91694EDD90691E0E906F10457
:1026B00008F006CE8091070290910802A0910902CD
:1026C000B0910A02A7019601281B390B4A0B5B0B3C
:1026D000DA01C901883E9340A105B10550F0C092CE
:1026E0000702D0920802E0920902F0920A020E94C8
:1026F000AF0280910602882309F459C0209132026A
:1027000030913302809134029091350228173907B5
:1027100009F04DC08091370290913802A0913902A2
:10272000B0913A02A7019601281B390B4A0B5B0BAB
:10273000DA01C901803D9740A105B105C0F1809142
:10274000FC019091FD01A091FE01B091FF01009765
:10275000A105B10569F0A7019601281B390B4A0BA9
:102760005B0BDA01C90180369A4EA105B105F8F07C
:10277000C114D104E104F10409F4BACD3C2D2D2D8E
:102780009E2D8F2D3093FC012093FD019093FE012F
:102790008093FF0181E00E9475060E9418036093F8
:1027A0003702709338028093390290933A028091F5
:1027B000370290913802A0913902B0913A02A701F4
:1027C0009601281B390B4A0B5B0BDA01C901803DCE
:1027D0009740A105B10590F083B7817F83BF83B790
:1027E000816083BF889583B78E7F83BFC092370295
:1027F000D0923802E0923902F0923A0220913202ED
:1028000030913302809134029091350228173907B4
:1028100039F100913402109135020D32110500F5A5
:10282000C0902D02D0902E02E0902F02F090300246
:10283000C114D104E104F10409F45FCD0E9418032E
:102840006C197D098E099F09613D774081059105CD
:1028500008F053CD81E090E09093FB018093FA0162
:1028600090E0C92E90E0D92ECD2809F41FCA0E940D
:1028700000001CCA8F929F92AF92BF92CF92DF92BC
:10288000EF92FF92CF93DF93EC01688179818A8187
:102890009B81611571058105910521F464E279ED53
:1028A0008BE597E02DE133EF41E050E00E94F41416
:1028B00049015A019B01AC01A7EAB1E40E9413153A
:1028C0006B017C01ACEEB4EFA50194010E942115CF
:1028D000C60ED71EE81EF91EF7FE06C081E0C81A14
:1028E000D108E10880E8F80AC882D982EA82FB822E
:1028F000C701B6019F77DF91CF91FF90EF90DF90F6
:10290000CF90BF90AF909F908F9008958F929F929D
:10291000AF92BF92CF92DF92EF92FF926091060149
:10292000709107018091080190910901611571056D
:102930008105910521F464E279ED8BE597E02DE1C5
:1029400033EF41E050E00E94F41449015A019B0129
:10295000AC01A7EAB1E40E9413156B017C01ACEE57
:10296000B4EFA50194010E942115C60ED71EE81EE2
:10297000F91EF7FE06C081E0C81AD108E10880E818
:10298000F80AC0920601D0920701E0920801F09285
:102990000901C701B6019F77FF90EF90DF90CF90BC
:1029A000BF90AF909F908F900895609306017093B1
:1029B000070180930801909309010895F999FECFCA
:1029C00092BD81BDF89A992780B50895262FF9996F
:1029D000FECF1FBA92BD81BD20BD0FB6F894FA9A02
:1029E000F99A0FBE01960895052E97FB1EF40094E8
:1029F0000E940B1557FD07D00E94261507FC03D037
:102A00004EF40C940B1550954095309521953F4F01
:102A10004F4F5F4F089590958095709561957F4FCA
:102A20008F4F9F4F08950E944815A59F900DB49F0A
:102A3000900DA49F800D911D11240895B7FF0C9453
:102A400013150E941315821B930B0895A1E21A2EF1
:102A5000AA1BBB1BFD010DC0AA1FBB1FEE1FFF1F42
:102A6000A217B307E407F50720F0A21BB30BE40B92
:102A7000F50B661F771F881F991F1A9469F76095D9
:102A80007095809590959B01AC01BD01CF01089593
:102A9000A29FB001B39FC001A39F700D811D11249F
:102AA000911DB29F700D811D1124911D089597FBFA
:102AB000072E16F4009407D077FD09D00E947115F7
:102AC00007FC05D03EF4909581959F4F0895709531
:102AD00061957F4F0895EE0FFF1F0590F491E02D53
:102AE0000994AA1BBB1B51E107C0AA1FBB1FA61755
:102AF000B70710F0A61BB70B881F991F5A95A9F7A7
:102B000080959095BC01CD0108955058BB27AA2708
:102B10000E949D150C9409160E94FB1538F00E9426
:102B2000021620F039F49F3F19F426F40C94F8159E
:102B30000EF4E095E7FB0C94F215E92F0E941A16AB
:102B400058F3BA17620773078407950720F079F4E2
:102B5000A6F50C943C160EF4E0950B2EBA2FA02D82
:102B60000B01B90190010C01CA01A0011124FF273A
:102B7000591B99F0593F50F4503E68F11A16F04035
:102B8000A22F232F342F4427585FF3CF4695379534
:102B90002795A795F0405395C9F77EF41F16BA0BF9
:102BA000620B730B840BBAF09150A1F0FF0FBB1FA7
:102BB000661F771F881FC2F70EC0BA0F621F731FF0
:102BC000841F48F4879577956795B795F7959E3F4D
:102BD00008F0B0CF9395880F08F09927EE0F9795DE
:102BE0008795089597F99F6780E870E060E0089501
:102BF0009FEF80EC089500240A9416161706180615
:102C00000906089500240A941216130614060506F0
:102C10000895092E0394000C11F4882352F0BB0F81
:102C200040F4BF2B11F460FF04C06F5F7F4F8F4FE4
:102C30009F4F089557FD9058440F551F59F05F3F1F
:102C400071F04795880F97FB991F61F09F3F79F0CE
:102C500087950895121613061406551FF2CF469550
:102C6000F1DF08C0161617061806991FF1CF8695D2
:102C70007105610508940895E894BB2766277727B6
:102C8000CB0197F908950E94481608F48FEF089534
:102C9000990F0008550FAA0BE0E8FEEF161617066D
:102CA000E807F907C0F012161306E407F50798F0D5
:102CB000621B730B840B950B39F40A2661F0232BEE
:102CC000242B252B21F408950A2609F4A140A6956A
:0C2CD0008FEF811D811D0895F894FFCF47
:102CDC000A00FFFFFFFF0100000000000000D4030A
:102CEC00C903E5039F03C203AF03A0033336663069
:042CFC00633631000A
:00000001FF
