:100000000C9462000C948A000C948A000C948A0070
:100010000C948A000C948A000C948A000C948A0038
:100020000C948A000C948A000C948A000C948A0028
:100030000C948A000C948A000C948A000C948A0018
:100040000C9466070C948A000C948A000C948A0025
:100050000C948A000C948A000C948A000C948A00F8
:100060000C94B0070C948A000000000024002700C4
:100070002A0000000000250028002B0000000000DE
:1000800023002600290004040404040404040202DA
:100090000202020203030303030301020408102007
:1000A0004080010204081020010204081020000012
:1000B0000008000201000003040700000000000027
:1000C0000000CF0811241FBECFEFD8E0DEBFCDBFA8
:1000D00011E0A0E0B1E0ECE2FCE102C005900D927D
:1000E000AC31B107D9F722E0ACE1B1E001C01D921B
:1000F000AE31B207E1F710E0C2E6D0E004C02197CC
:10010000FE010E94130DC136D107C9F70E941809DC
:100110000C94140E0C940000833081F028F481308C
:1001200099F08230A9F008958730A9F08830C9F09D
:100130008430B1F4809180008F7D03C08091800075
:100140008F7780938000089584B58F7784BD08955C
:1001500084B58F7DFBCF8091B0008F778093B00006
:1001600008958091B0008F7DF9CFCF93DF93282F32
:1001700030E0F901E255FF4F8491F901E656FF4F57
:10018000D491F901EA57FF4FC491CC23A1F081111A
:100190000E948C00EC2FF0E0EE0FFF1FE458FF4FA1
:1001A000A591B491EC91ED2381E090E009F480E019
:1001B000DF91CF91089580E090E0FACF1F93CF9325
:1001C000DF93282F30E0F901E255FF4F8491F901C8
:1001D000E656FF4FD491F901EA57FF4FC491CC2363
:1001E000A9F0162F81110E948C00EC2FF0E0EE0F89
:1001F000FF1FEE58FF4FA591B4918FB7F894EC9183
:10020000111108C0D095DE23DC938FBFDF91CF9111
:100210001F910895DE2BF8CFCF93DF93EC018091EF
:100220000C0290910D02029749F4C130D10509F4F6
:100230003BC06CF560E0209709F437C080910C0258
:1002400090910D02049749F4C130D10509F45CC0C6
:100250000CF037C0209709F442C080910C029091B5
:100260000D02059709F0E5C0CA30D10508F0E1C0DC
:10027000FE01E35CFE4F0C94130D9C01A801B90133
:10028000CF01EA01EC01F301FF0110021702C230B5
:10029000D105A9F060E0C330D10581F6809110024C
:1002A0000E94DE0060E006C061E0809110020E94C2
:1002B000DE0061E0809112020E94DE00BFCF61E0AB
:1002C000EDCFC230D10539F1C330D10509F0C5CF2A
:1002D00061E0809110020E94DE0060E022C061E0D7
:1002E000809110020E94DE0060E0809112020E9464
:1002F000DE0061E0809114020E94DE0060E08091E7
:1003000016020E94DE00A9CF60E0809110020E94D8
:10031000DE0061E0EACF60E0809110020E94DE0022
:1003200061E0809112020E94DE0060E08091140280
:100330000E94DE0061E0E3CF60E0809110020E9445
:10034000DE0061E0809112020E94DE0061E00BC0DD
:1003500060E0809110020E94DE0061E08091120254
:100360000E94DE0060E0809114020E94DE0060E0E6
:1003700010C060E0809110020E94DE0061E0809178
:1003800012020E94DE0060E0809114020E94DE00F2
:1003900061E0809116020E94DE0061E015C060E01D
:1003A000809110020E94DE0061E0809112020E94A2
:1003B000DE0060E0809114020E94DE0061E0809126
:1003C00016020E94DE0060E080911802DF91CF915A
:1003D0000C94DE0061E0E4CF61E0809110020E94A5
:1003E000DE0060E0E2CF61E0809110020E94DE005A
:1003F00060E0809112020E94DE0061E0DBCF61E0EC
:10040000809110020E94DE0060E0809112020E9442
:10041000DE0061E0809114020E94DE0060E0CFCF38
:1004200061E0809110020E94DE0060E08BCF60E00E
:10043000F8CFDF91CF910895CF93DF9390E0FC0147
:10044000E656FF4F24918A579F4FFC0184918823E1
:10045000C9F090E0880F991FFC01E859FF4FA59162
:10046000B491FC01EE58FF4FC591D49161110DC0BC
:100470009FB7F8948C91209582238C9388812823B0
:1004800028839FBFDF91CF910895623051F49FB7C9
:10049000F8943C91822F809583238C93E8812E2BB6
:1004A000EFCF8FB7F894EC912E2B2C938FBFEACF20
:1004B0003FB7F8948091F4019091F501A091F60175
:1004C000B091F70126B5A89B05C02F3F19F0019602
:1004D000A11DB11D3FBFBA2FA92F982F8827BC019E
:1004E000CD01620F711D811D911D42E0660F771FC6
:1004F000881F991F4A95D1F708954F925F926F9286
:100500007F928F929F92AF92BF92EF92FF920F9342
:100510001F93CF93DF93EC0197FF04C0CC27DD2717
:10052000C81BD90B181619060CF061C081E090E0C9
:10053000909305028093040204E010E08AE0E82E24
:10054000F12C209709F46FC00E94580280901A0283
:1005500090901B02A0901C02B0901D022B013C0148
:10056000481859086A087B08809006029090070294
:10057000A0900802B0900902481459046A047B0450
:1005800000F360931A0270931B0280931C029093F5
:100590001D0280910E0290910F0220910402309171
:1005A00005022130310559F5019690930F02809391
:1005B0000E0220910A0230910B028217930721F458
:1005C00010920F0210920E02219780910E029091CC
:1005D0000F0220910C0230910D02B7012530310538
:1005E00009F0B8010E94BE0C0E940C01AACF892B11
:1005F00009F4A2CF10920502109204029DCF892B1C
:1006000041F480910A0290910B0290930F02809323
:100610000E0280910E0290910F02019790930F02AB
:1006200080930E02D1CFDF91CF911F910F91FF9058
:10063000EF90BF90AF909F908F907F906F905F9062
:100640004F9008958F929F92AF92BF92CF92DF9278
:10065000EF92FF924B015C010E9458026B017C01FA
:100660000E9458026C197D098E099F09683E7340EB
:1006700081059105A8F321E0821A9108A108B1082B
:1006800088EEC80E83E0D81EE11CF11C8114910491
:10069000A104B10429F7FF90EF90DF90CF90BF90B5
:1006A000AF909F908F9008952FB7F8946091F001CC
:1006B0007091F1018091F2019091F3012FBF0895A3
:1006C000E091C701F091C801309729F01092C20162
:1006D0001092C10109940895CF93DF93AC01E0918A
:1006E000C501F091C6013097F1F09091C40180915D
:1006F000C3019817C0F090E0292F30E02617370784
:1007000054F4D901A45DBE4F240F351FE90128819F
:100710002C939F5FF1CF1092C4016093C301CB0172
:10072000DF91CF910994DF91CF91089520917201CB
:10073000260F3327331F21323105ECF42091960127
:10074000FC0190E080E0243069F082E00895A091FF
:1007500072012191AC014E5A5E4FA40FB52FB11D0D
:100760002C930196861798F380917201680F60931D
:10077000720180E0089581E008951092960181E071
:10078000809398011092970161E082E10E94DE005F
:1007900061E083E10E94DE00E9EBF0E080818E7F82
:1007A000808380818D7F808388E48093B80085E496
:1007B0008093BC0008950895E091C4018091C30125
:1007C000E81730F4F0E0E45DFE4F808190E008959A
:1007D0008FEF9FEF08959091C4018091C3012FEF97
:1007E0003FEF981748F4E92FF0E0E45DFE4F2081D9
:1007F00030E09F5F9093C401C90108958091C301C7
:100800009091C401891B990B0895CF93DF93CB017D
:10081000EA01642F0E949603CE01DF91CF910895E3
:10082000CF93DF931F92CDB7DEB7698361E0CE012E
:1008300001960E94960381E090E00F90DF91CF91A6
:10084000089590E080E0089581E090E09093CF01DA
:100850008093CE0160912B018BE00E94DE006091BD
:100860002A018AE00E94DE006091290189E00E944D
:10087000DE006091280188E00C94DE008BE00E948D
:10088000B50021E0892B09F420E020932B018AE0B8
:100890000E94B50021E0892B09F420E020932A0171
:1008A00089E00E94B50021E0892B09F420E0209323
:1008B000290188E00E94B50021E0892B09F420E09D
:1008C0002093280160E08BE00E94DE0060E08AE077
:1008D0000E94DE0060E089E00E94DE0060E088E0C7
:1008E0000E94DE001092CF011092CE0164E670E00B
:1008F00080E090E00C9422030F931F93CF93DF933B
:10090000082F81E090E09093CF018093CE01209159
:100910000A0230910B02032E000C440B550B60E0D1
:1009200077E883E993E00E94F40CCA01B9012AE058
:1009300030E040E050E00E94F40C20930602309337
:1009400007024093080250930902D0E0C0E010E093
:10095000A89587E00E94B500009709F461C001974F
:10096000C1F18091E9019091EA010E947D0210920B
:10097000E1011092E00110922401109225011092E1
:10098000260110922701F8941092230181E0182784
:1009900010932201D0932101C0932001789401117A
:1009A0000E943E04CE01DF91CF911F910F910895D7
:1009B00087E00E94B500892BB9F5A89581E090E009
:1009C0000E947D022196C33E87E1D80789F711E096
:1009D00012C0209741F482E390E00E947D02C2E3BE
:1009E000D0E02196B5CF81E090E00E947D02C33E29
:1009F00087E1D807B4F31092E1011092E001F89476
:100A000081E080932301182710932201D0932101C4
:100A1000C093200178940E943E04CFEFDFEFC2CF55
:100A2000209731F211E09DCF82E390E00E947D0299
:100A3000E29611E0DCCFCF92DF92EF92FF920F931C
:100A40001F93CF93DF938C01D0E0C0E0C017D10794
:100A5000D4F5A89520E039EE43E95EE360912401E6
:100A60007091250180912601909127010E942E0D01
:100A70006B017C0120E030E040E85FE30E94EB0D79
:100A8000181674F0C0922401D0922501E09226013C
:100A9000F09227018DE290E00E947D022196D6CF50
:100AA00020E030E040E85FE3C701B6010E942D0D71
:100AB0006093240170932501809326019093270170
:100AC0008EE290E0E9CFDF91CF911F910F91FF90DF
:100AD000EF90DF90CF900895CF93DF93CDB7DEB73F
:100AE00028970FB6F894DEBF0FBECDBF80911F01CF
:100AF000882321F1BE016F5F7F4F88E0FB011192D7
:100B00008A95E9F7E4E1F1E0DB018191882329F09E
:100B10008D9381E0EC31F807C1F748E050E088EFB1
:100B200091E00E94050410921F0128960FB6F894D8
:100B3000DEBF0FBECDBFDF91CF91089580911E0122
:100B4000882391F08091E9019091EA0189839A8349
:100B500042E050E0BE016F5F7F4F88EF91E00E945E
:100B6000050410921E01E1CF80911D01882399F0A8
:100B70008091E0019091E101898380958A8342E030
:100B800050E0BE016F5F7F4F88EF91E00E94050447
:100B900010921D01CACF80911C01882309F447C01F
:100BA0002091CE013091CF0181E0232B09F480E028
:100BB00090912301911182609091220191118460A2
:100BC0009091BC019111806120912001309121010F
:100BD00089838091CD018A838091CC018B83809120
:100BE000CB018C838091D0019091D1019D83809124
:100BF000D0019091D1018E838091D8018F8384E0C0
:100C0000369527958A95E1F72F3F310519F010F0B9
:100C10002FEF30E0288748E050E0BE016F5F7F4F44
:100C200088EF91E00E94050410921C017ECF609134
:100C3000CE017091CF0188EF91E00E94100475CF32
:100C40001F93CF93DF93181619060CF095C0EC0193
:100C500088EF91E00E94EB039E01215031098D3213
:100C600091050CF4A0C08058990B8731910508F0CC
:100C70008FC0FC01E25CF94F0C94130D550663061E
:100C800067066B066F06C806C806C806C806C8060B
:100C9000C806C806C806C806C806C806A006940640
:100CA00055067306A406C006C40681E08093EE01D3
:100CB000E9011C161D060CF05FC088EF91E00E9450
:100CC000EB032197F6CF81E080931F01F1CF81E004
:100CD00080931E01EDCF81E080931C01E9CF81E07C
:100CE00080931D01E5CF223031050CF451C088EF0F
:100CF00091E00E94EB03182F88EF91E00E94EB0334
:100D00009E012350310940E0582F412BCA018A50DF
:100D1000984F8D3E9F40E0F55093EC014093EB01DE
:100D200081E08093ED01C4CF232BE9F088EF91E0BF
:100D30000E94EB038093DF019E0122503109B8CF5E
:100D400081E08093E401B4CF232B69F088EF91E038
:100D50000E94EB038093D9019E012250310981E06A
:100D60008093DA01A5CF8091D8018F3F29F080913F
:100D7000D8018F5F8093D801DF91CF911F910895A3
:100D800081E08093D70194CF81E08093D60190CF0A
:100D90008091D8018F3F09F48BCF8091D8018F5F6C
:100DA0008093D80185CFC230D10589F04CF0809175
:100DB000D8018F3F29F08091D8018F5F8093D801AF
:100DC0002197D1F288EF91E00E94EB03F9CF909345
:100DD000E3018093E20188EF91E00E94EB03181693
:100DE000190614F081E090E09093010180930001D6
:100DF000C3CF1F93CF93DF93EC01162F0E94A80C53
:100E0000181739F0612FCE01DF91CF911F910C940B
:100E1000B00CDF91CF911F9108950C94A80CCF9343
:100E2000DF9385ED8093BC0080914E0190914F013E
:100E3000A0915001B09151010796A11DB11D23E071
:100E4000B695A795979587952A95D1F72091BC00DF
:100E500024FD03C01092960136C040914E0150917E
:100E60004F016091500170915101452B462B472B4A
:100E700069F30097A105B10541F02AE22A95F1F73F
:100E800000C00197A109B109E1CF80914D0191E026
:100E900090934C018823B9F0C091B800D091BA006A
:100EA0008091BC008A7B8093BC0060E082E10E945C
:100EB000DE0060E083E10E94DE000E94BD03D0936B
:100EC000BA00C093B800DF91CF9108951F920F929E
:100ED0000FB60F9211242F933F938F939F93AF934D
:100EE000BF938091F0019091F101A091F201B09136
:100EF000F3013091EF0123E0230F2D3758F50196D0
:100F0000A11DB11D2093EF018093F0019093F10199
:100F1000A093F201B093F3018091F4019091F50157
:100F2000A091F601B091F7010196A11DB11D80932A
:100F3000F4019093F501A093F601B093F701BF91EE
:100F4000AF919F918F913F912F910F900FBE0F9076
:100F50001F90189526E8230F0296A11DB11DD2CF30
:100F60001F920F920FB60F9211242F933F934F931E
:100F70005F936F937F938F939F93AF93BF93EF9301
:100F8000FF938091B900887F803609F44AC0F0F55C
:100F9000883209F4A7C018F5803109F49BC0B8F471
:100FA000882309F4F9C0883009F494C0FF91EF91C7
:100FB000BF91AF919F918F917F916F915F914F9171
:100FC0003F912F910F900FBE0F901F901895883171
:100FD00009F488C0803251F78093950114C08034A1
:100FE00009F49DC040F48033B9F38833F9F6809357
:100FF000950185ECB0C0803509F485C0883509F4C9
:1010000096C0883499F60E940F07D0CF883909F42A
:101010008CC038F5883729F050F4883611F08037C5
:1010200029F683E0809396011092940157C0883886
:1010300009F47BC0803919F0803809F0B7CF80916E
:101040009401803208F071C0E091940181E08E0F2C
:10105000809394018091BB00F0E0EC58FE4F8083B8
:101060003DC0803B39F0E0F4803A09F479C0883A19
:1010700009F09CCF84E08093960110927301109246
:101080007201E091BF01F091C00109958091720158
:1010900081110FC081E0809372011092520109C04A
:1010A000803C09F4A6CF883C09F4A3CF883B09F023
:1010B0007DCFE091730181E08E0F80937301F0E0AA
:1010C000EE5AFE4F80818093BB0090917301809116
:1010D000720129C08091BB018093BB0085EC809395
:1010E000BC0064CF9091BA018091B901981758F56E
:1010F000E091BA0181E08E0F8093BA01F0E0E756EB
:10110000FE4F8081E9CFE091BA0181E08E0F80939C
:10111000BA018091BB00F0E0E756FE4F80839091CA
:10112000BA018091B9019817C8F285E8D8CFE0914B
:10113000BA0181E08E0F8093BA018091BB00F0E08C
:10114000E756FE4F80838091980181115CCF81E04A
:101150008093970184EA8093BC001092960126CF79
:1011600085EC8093BC0010929601809194018032AE
:1011700030F4E0919401F0E0EC58FE4F1082609161
:10118000940170E0E091BD01F091BE0184E791E02F
:101190000995109294010ACF1092950134CFCF9304
:1011A000DF93E8EFF1E01382128288EE93E0A0E093
:1011B000B0E084839583A683B78386E091E0918332
:1011C0008083C4E0D2E01B861A86198218821E8AA8
:1011D0001F8A188E198E86EF97E09F838E838BE08F
:1011E00090E09D878C8789E090E09F878E878AE0DA
:1011F00090E0998B888B88E090E09B8B8A8B61E0F4
:101200008BE00E941C0261E08E850E941C0261E05E
:1012100088890E941C0261E08A890E941C021D8A42
:101220001C8A84E090E099878887DF91CF910895A8
:10123000CF93DF9300D0CDB7DEB7789484B58260CA
:1012400084BD84B5816084BD85B5826085BD85B56A
:10125000816085BD80916E00816080936E001092E8
:101260008100809181008260809381008091810063
:1012700081608093810080918000816080938000F4
:101280008091B10084608093B1008091B000816052
:101290008093B00080917A00846080937A0080917E
:1012A0007A00826080937A0080917A0081608093D6
:1012B0007A0080917A00806880937A001092C10051
:1012C00084B78093CD0114BE0FB6F894A895809191
:1012D0006000886180936000109260000FBE86E01D
:1012E00090E00E940D078A3509F0D5C084E090E0B7
:1012F0000E940D078093CC0185E090E00E940D07CD
:101300008093CB018091CD0182FF0BC06091CC0115
:101310006F3F39F06F5F6093CC0184E090E00E94F2
:10132000F9068091CD0183FF0BC06091CB016F3F27
:1013300039F06F5F6093CB0185E090E00E94F90681
:1013400062E086E00E941C0262E085E00E941C02CE
:1013500062E084E00E941C0262E083E00E941C02C2
:1013600060E087E00E941C0261E08DE00E941C02A8
:1013700060E08DE00E94DE0082E090E00E940D07B8
:10138000853A09F09CC083E090E00E940D079FEF32
:10139000980F9E3708F093C091E09093BC01082FFE
:1013A00010E01093CA010093C90190E080E00E9410
:1013B000A80C898381E090E00E94A80C8A8389812F
:1013C0009A818A50984F8D3E9F4010F01A82198260
:1013D00089819A819093EA018093E9011092C40176
:1013E0001092C3011092C2011092C1010E94BD036C
:1013F00080E693E09093C0018093BF018CE693E078
:101400009093BE018093BD01000F0093BA008091BC
:10141000BA0081608093BA0080E296E09093C601A2
:101420008093C5018CE695E09093C8018093C70135
:1014300088E199E20FB6F894A895809360000FBEFA
:101440009093600081E00E947C04C12C87E8D82E34
:1014500083E9E82E83E0F82E90E0292E90E0392EE3
:10146000412C512C32014394A8958091EE018823A0
:1014700009F455C06AE070E080E090E00E94220329
:1014800088E198E00FB6F894A895809360000FBEAD
:1014900090936000FFCF1092CC011092CB0160E0DE
:1014A00084E090E00E94F90660E085E090E00E9410
:1014B000F9066AE586E090E00E94F90623CF83E012
:1014C0000E94B50001E010E0892B11F010E000E06F
:1014D00084E00E94B500892BC9F090E080E0080FFD
:1014E000191F85E00E94B500892B99F090E080E0FB
:1014F000080F191F86E00E94B500892B69F090E063
:1015000080E0080F191F0F5F1F4F4BCF82E090E064
:10151000E6CF84E090E0ECCF88E090E0F2CF8091DD
:10152000ED01882361F1F8940091EB011091EC0139
:101530001092ED011093EA010093E901789490E094
:1015400080E00E94A80C801729F0602F90E080E0D6
:101550000E94B00C81E090E00E94A80C181729F0BE
:10156000612F81E090E00E94B00C0E9454036093D0
:10157000E5017093E6018093E7019093E801809183
:10158000E4018823C9F0F8941092E401789481E092
:101590000E947C041092E3011092E2011092E1019A
:1015A0001092E0010E9454036093E5017093E601FC
:1015B0008093E7019093E8018091DF01882309F48B
:1015C00049C0F894B090DF011092DF0178940E9436
:1015D0002404009100011091010120910A02309130
:1015E0000B02032E000C440B550BC701B6010E94E1
:1015F000F40CCA01B9019801110F440B550B0E945C
:10160000F40C209306023093070240930802509393
:1016100009028B2DBB0C990B0E947D0262E370E0E6
:1016200080E090E00E9422030E943E040E94540346
:101630006093DB017093DC018093DD019093DE0108
:101640000E9454036093E5017093E6018093E701E3
:101650009093E8018091DA018823B9F0F8946091C1
:10166000D9011092DA0178948FEF860F8E3708F047
:10167000E3C083E090E00E94F90665EA82E090E032
:101680000E94F90681E08093EE018091D7018823C2
:1016900061F0F8941092D70178946FEF82E090E0B7
:1016A0000E94F90681E08093EE018091D6018823A3
:1016B000D1F0F8941092D60178940E94540360936C
:1016C000D2017093D3018093D4019093D501672BFD
:1016D000682B692B41F44092D2015092D301609261
:1016E000D4017092D5010E9454034B015C0180919A
:1016F000D2019091D301A091D401B091D50100976E
:10170000A105B10519F18092E5019092E601A09240
:10171000E701B092E801A5019401281B390B4A0B9F
:101720005B0BCA01B901683B3BE07307810591057A
:1017300008F48EC060E08DE00E94DE001092D201BD
:101740001092D3011092D4011092D501C501B401B9
:1017500028EE33E040E050E00E94D20C2115310524
:1017600081E04807510520F02FEF3FEF40E050E0C7
:10177000F8943093D1012093D00178948091E501C1
:101780009091E601A091E701B091E801A5019401D3
:10179000281B390B4A0B5B0BDA01C901803D9740CE
:1017A000A105B10590F083B7817F83BF83B78160C6
:1017B00083BF889583B78E7F83BF8092E501909227
:1017C000E601A092E701B092E8012091E00130919A
:1017D000E1018091E2019091E3012817390729F195
:1017E0000091E2011091E3010D321105F0F48090B7
:1017F000DB019090DC01A090DD01B090DE0181144E
:101800009104A104B104C1F10E945403681979093B
:101810008A099B09613D77408105910568F581E062
:1018200090E09093CF018093CE012114310409F40C
:101830001BCE0E94000018CEF8948091D8018F3FF3
:1018400029F08091D8018F5F8093D80178941DCFC3
:101850002DE730E040E050E00E94D20CCA01B9010F
:101860006095709580959095617077278827992766
:101870008DE00E94DE006ACF0E9454036093DB017A
:101880007093DC018093DD019093DE018090E00194
:101890009090E10108151905A4F10E942404A0907C
:1018A0000001B090010120910A0230910B02032E39
:1018B000000C440B550BC701B6010E94F40CCA0181
:1018C000B9019501BB0C440B550B0E94F40C2093FD
:1018D0000602309307024093080250930902C801A0
:1018E000881999090E941B051093E1010093E001FA
:1018F00064E670E080E090E00E9422030E943E04D3
:1019000094CF80E00E947C048090000190900101BF
:1019100020910A0230910B02032E000C440B550B50
:10192000C701B6010E94F40C092C000CAA08BB08E0
:10193000CA01B901A50194010E94F40C209306028A
:10194000309307024093080250930902C801CACF9E
:10195000F999FECF92BD81BDF89A992780B5089577
:10196000262FF999FECF1FBA92BD81BD20BD0FB6BB
:10197000F894FA9AF99A0FBE0196089597FB072EEC
:1019800016F4009407D077FD09D00E94190D07FCCA
:1019900005D03EF4909581959F4F0895709561957F
:1019A0007F4F0895A1E21A2EAA1BBB1BFD010DC09B
:1019B000AA1FBB1FEE1FFF1FA217B307E407F507FF
:1019C00020F0A21BB30BE40BF50B661F771F881FDB
:1019D000991F1A9469F760957095809590959B0171
:1019E000AC01BD01CF010895052E97FB1EF40094B4
:1019F0000E940B0D57FD07D00E94D20C07FC03D0AC
:101A00004EF40C940B0D50954095309521953F4F19
:101A10004F4F5F4F089590958095709561957F4FDA
:101A20008F4F9F4F0895EE0FFF1F0590F491E02D0B
:101A30000994AA1BBB1B51E107C0AA1FBB1FA61715
:101A4000B70710F0A61BB70B881F991F5A95A9F767
:101A500080959095BC01CD0108955058BB27AA27C9
:101A60000E94450D0C94B10D0E94A30D38F00E9408
:101A7000AA0D20F039F49F3F19F426F40C94A00D20
:101A80000EF4E095E7FB0C949A0DE92F0E94C20D2D
:101A900058F3BA17620773078407950720F079F4A3
:101AA000A6F50C94E40D0EF4E0950B2EBA2FA02DA4
:101AB0000B01B90190010C01CA01A0011124FF27FB
:101AC000591B99F0593F50F4503E68F11A16F040F6
:101AD000A22F232F342F4427585FF3CF46953795F5
:101AE0002795A795F0405395C9F77EF41F16BA0BBA
:101AF000620B730B840BBAF09150A1F0FF0FBB1F68
:101B0000661F771F881FC2F70EC0BA0F621F731FB0
:101B1000841F48F4879577956795B795F7959E3F0D
:101B200008F0B0CF9395880F08F09927EE0F97959E
:101B30008795089597F99F6780E870E060E00895C1
:101B40009FEF80EC089500240A94161617061806D5
:101B50000906089500240A941216130614060506B1
:101B60000895092E0394000C11F4882352F0BB0F42
:101B700040F4BF2B11F460FF04C06F5F7F4F8F4FA5
:101B80009F4F089557FD9058440F551F59F05F3FE0
:101B900071F04795880F97FB991F61F09F3F79F08F
:101BA00087950895121613061406551FF2CF469511
:101BB000F1DF08C0161617061806991FF1CF869593
:101BC0007105610508940895E894BB276627772777
:101BD000CB0197F908950E94F00D08F48FEF089556
:101BE000990F0008550FAA0BE0E8FEEF161617062E
:101BF000E807F907C0F012161306E407F50798F096
:101C0000621B730B840B950B39F40A2661F0232BAE
:101C1000242B252B21F408950A2609F4A140A6952A
:0C1C20008FEF811D811D0895F894FFCF07
:101C2C000A0000000000100405042104DB03FE037D
:0C1C3C00EB03DC03633232383063390004
:00000001FF
