:100000000C94A2020C94CA020C94CA020C94CA0268
:100010000C94CA020C94CA020C94CA020C94CA0230
:100020000C94CA020C94CA020C94CA020C94CA0220
:100030000C94CA020C94CA020C94CA020C94CA0210
:100040000C94DA120C94CA020C94CA020C94CA02E0
:100050000C94CA020C94CA020C94CA020C94CA02F0
:100060000C9424130C94CA02112484B78EBB14BEC2
:10007000E0E6F0E088E18083108211E0A0E0B1E0EA
:10008000EEEFFEE702C005900D92AA31B107D9F755
:1000900021E0AAE1B1E001C01D92AE39B207E1F75B
:1000A00080E384B92D9AF0E0E0E085919491019687
:1000B00011F41092000188E08BBD85E085BD8AB106
:1000C00087788AB98BB188678BB986E9000081503F
:1000D000E9F789B183FB882780F991E089274C9B58
:1000E00082604D9B84604E9B88608F5F880F8093F9
:1000F000BA0084E48093BC0093E0E92E0DE911E09E
:10010000D1E025E0F22E31E1D32E4CE0C42E89E07F
:10011000B82E80919D01813239F41092BC0015BC3B
:1001200015B8F0E0E0E009958091BC0087FF18C0A9
:10013000C091BC008091B900887F803A09F47CC0EE
:1001400040F5803809F447C0883809F46CC080361F
:1001500009F0B6C010921A012C9AC068C093BC0076
:10016000A89BD7CFF6BC85B190E2892785B980914D
:100170000001882361F08AB58F5F8ABD883038F02E
:100180001ABC8BB5823008F49DC081508BBDD5BBA5
:10019000BECF883B49F0803C09F48FC0883A09F013
:1001A0008FC010921A012C9A80911A0191E0980F39
:1001B00090931A0190919D019231D1F0923231F1D8
:1001C000913079F58F70E82FF0E0E75FFE4F808186
:1001D0008093BB00C2CF6091BB0080911A0191E077
:1001E000980F90931A0175D08111B7CFCF7BB5CFFF
:1001F0006C2DADD0E92FF0E0983018F4EF5FFE4F92
:10020000E6CF3897B09257008491E2CFE0911B017E
:10021000F0911C0184913196F0931C01E0931B0135
:10022000D7CF8FEFD5CF6091BB0080911A0191E0BD
:10023000980F90931A014DD080919D01823409F05E
:100240003AC0CF7B8C2F80688093BC0080911B01CB
:1002500090911C018115ECE79E0768F5FC01E09286
:100260005700E89507B600FCFDCFADE1B1E0AC0169
:100270004D5151402C91FA01EA0FFB1F11963C9110
:1002800011970901D0935700E895112412960A1787
:100290001B0781F79C0120583F4F30931C0120938E
:1002A0001B01FC01F0925700E89507B600FCFDCF5A
:1002B000D0925700E89510921A012C98C0644DCF47
:1002C000C0614BCF813009F062CF81E280939D0104
:1002D0005ECF8130C1F058F0843058F580E09091C5
:1002E0001B01862B90931C0180931B0106C0633079
:1002F00030F48AEE8BBD60939D0181E0089591E218
:1003000090939D01089590919D01913021F092303C
:1003100041F080E0089581E26038D9F780939D0133
:10032000F8CF611102C092E1EBCF92E2613089F720
:10033000E7CF90919D01923261F78450E82FF0E071
:10034000E35EFE4F60838F37C0F282E4E7CF991BF4
:1003500079E004C0991F961708F0961B881F7A95BC
:10036000C9F780950895011E950F807C0000005309
:1003700046020BFFFFFFFFFFFFFFFFFFFFFFFF0036
:10038000FFFFFFFFFFFFFFFFFFFFFFFFFFFFFFFF7D
:10039000FFFFFFFFFFFFFFFFFFFFFFFFFFFFFFFF6D
:1003A000FFFFFFFFFFFFFFFFFFFFFFFFFFFFFFFF5D
:1003B000FFFFFFFFFFFFFFFFFFFFFFFFFFFFFFFF4D
:1003C000FFFFFFFFFFFFFFFFFFFFFFFFFFFFFFFF3D
:1003D000FFFFFFFFFFFFFFFFFFFFFFFFFFFFFFFF2D
:1003E000FFFFFFFFFFFFFFFFFC010A0167BFE8956A
:1003F00077B770FDFDCF11240895FFFFFFFFFFFFCA
:10040000FFFFFFFFFFFFFFFFFFFFFFFFFFFFFFFFFC
:10041000FFFFFFFFFFFFFFFFFFFFFFFFFFFFFFFFEC
:10042000FFFFFFFFFFFFFFFFFFFFFFFFFFFFFFFFDC
:10043000FFFFFFFFFFFFFFFFFFFFFFFFFFFFFFFFCC
:10044000FFFFFFFFFFFFFFFFFFFFFFFFFFFFFFFFBC
:10045000FFFFFFFFFFFFFFFFFFFFFFFFFFFFFFFFAC
:10046000FFFFFFFFFFFF01FEFC010A0167BFE895E8
:1004700077B770FDFDCF11240895FFFFFFFFFFFF49
:10048000FFFFFFFFFFFFFFFFFFFFFFFFFFFFFFFF7C
:10049000FFFFFFFFFFFFFFFFFFFFFFFFFFFFFFFF6C
:1004A000FFFFFFFFFFFFFFFFFFFFFFFFFFFFFFFF5C
:1004B000FFFFFFFFFFFFFFFFFFFFFFFFFFFFFFFF4C
:1004C000FFFFFFFFFFFFFFFFFFFFFFFFFFFFFFFF3C
:1004D000FFFFFFFFFFFFFFFFFFFFFFFFFFFFFFFF2C
:1004E000FFFFFFFFFFFF01FE0000000024002700C8
:1004F0002A0000000000250028002B00000000005A
:100500002300260029000404040404040404020255
:100510000202020203030303030301020408102082
:10052000408001020408102001020408102000008D
:1005300000080002010000030407000000000000A2
:100540000000431411241FBECFEFD8E0DEBFCDBFA3
:1005500011E0A0E0B1E0EAEBF7E402C005900D92F3
:10056000A233B107D9F722E0A2E3B1E001C01D92A6
:10057000A73FB207E1F712E0C2EAD2E004C0219738
:10058000FE010E94D322C13AD107C9F70E948C1400
:100590000C94DB230C940000E091F101F091F20146
:1005A000309729F01092CA021092C9020994089556
:1005B000CF93DF93AC01E091EF01F091F001309720
:1005C000F1F09091CC028091CB029817C0F090E0AE
:1005D000292F30E02617370754F4D901AB55BD4F0A
:1005E000240F351FE90128812C939F5FF1CF1092D2
:1005F000CC026093CB02CB01DF91CF910994DF91C4
:10060000CF9108959091CC028091CB022FEF3FEFD4
:10061000981748F4E92FF0E0EB55FD4F208130E0CA
:100620009F5F9093CC02C90108959091CC02809174
:10063000CB022FEF3FEF981748F4E92FF0E0EB558E
:10064000FD4F208130E09F5F9093CC02C901089557
:10065000833081F028F4813099F08230A9F0089538
:100660008730A9F08830C9F08430B1F480918000DF
:100670008F7D03C0809180008F77809380000895E4
:1006800084B58F7784BD089584B58F7DFBCF80912D
:10069000B0008F778093B00008958091B0008F7D77
:1006A000F9CFCF93DF93282F30E0F901E25DFA4FC5
:1006B0008491F901E65EFA4FD491F901EA5FFA4FAD
:1006C000C491CC23A1F081110E942803EC2FF0E00B
:1006D000EE0FFF1FE450FB4FA591B491EC91ED2379
:1006E00081E090E009F480E0DF91CF91089580E00F
:1006F00090E0FACF1F93CF93DF93282F30E0F901DA
:10070000E25DFA4F8491F901E65EFA4FD491F90166
:10071000EA5FFA4FC491CC23A9F0162F81110E94F1
:100720002803EC2FF0E0EE0FFF1FEE50FB4FA591DA
:10073000B4918FB7F894EC91111108C0D095DE23D5
:10074000DC938FBFDF91CF911F910895DE2BF8CFFF
:10075000CF93DF93EC018091E1029091E202029746
:1007600049F4C130D10509F43BC06CF560E0209735
:1007700009F437C08091E1029091E202049749F4B4
:10078000C130D10509F45CC00CF037C0209709F4E2
:1007900042C08091E1029091E202059709F0E5C024
:1007A000CA30D10508F0E1C0FE01E752FC4F0C94BD
:1007B000D3223804440455046B04860488048F044F
:1007C0009B04AC04B304C230D105A9F060E0C3308F
:1007D000D10581F68091E5020E947A0360E006C0AF
:1007E00061E08091E5020E947A0361E08091E70276
:1007F0000E947A03BFCF61E0EDCFC230D10539F15D
:10080000C330D10509F0C5CF61E08091E5020E94B7
:100810007A0360E022C061E08091E5020E947A03E1
:1008200060E08091E7020E947A0361E08091E90232
:100830000E947A0360E08091EB020E947A03A9CFC4
:1008400060E08091E5020E947A0361E0EACF60E017
:100850008091E5020E947A0361E08091E7020E94A4
:100860007A0360E08091E9020E947A0361E0E3CFBD
:1008700060E08091E5020E947A0361E08091E702E6
:100880000E947A0361E00BC060E08091E5020E9463
:100890007A0361E08091E7020E947A0360E0809130
:1008A000E9020E947A0360E010C060E08091E502F6
:1008B0000E947A0361E08091E7020E947A0360E07F
:1008C0008091E9020E947A0361E08091EB020E942C
:1008D0007A0361E015C060E08091E5020E947A032E
:1008E00061E08091E7020E947A0360E08091E90272
:1008F0000E947A0361E08091EB020E947A0360E03B
:100900008091ED02DF91CF910C947A0361E0E4CF06
:1009100061E08091E5020E947A0360E0E2CF61E04D
:100920008091E5020E947A0360E08091E7020E94D4
:100930007A0361E0DBCF61E08091E5020E947A03F7
:1009400060E08091E7020E947A0361E08091E90211
:100950000E947A0360E0CFCF61E08091E5020E94BF
:100960007A0360E08BCF60E0F8CFDF91CF910895FC
:10097000CF93DF9390E0FC01E65EFA4F24918A5F0B
:100980009A4FFC0184918823C9F090E0880F991F49
:10099000FC01E851FB4FA591B491FC01EE50FB4FD7
:1009A000C591D49161110DC09FB7F8948C91209599
:1009B00082238C938881282328839FBFDF91CF9146
:1009C0000895623051F49FB7F8943C91822F80953E
:1009D00083238C93E8812E2BEFCF8FB7F894EC9183
:1009E0002E2B2C938FBFEACF3FB7F8948091A102B2
:1009F0009091A202A091A302B091A40226B5A89B57
:100A000005C02F3F19F00196A11DB11D3FBFBA2FA0
:100A1000A92F982F8827BC01CD01620F711D811D60
:100A2000911D42E0660F771F881F991F4A95D1F7E5
:100A300008958F929F92AF92BF92CF92DF92EF92E2
:100A4000FF924B015C010E94F4046B017C010E9447
:100A5000F4046C197D098E099F09683E7340810575
:100A60009105A8F321E0821A9108A108B10888EE47
:100A7000C80E83E0D81EE11CF11C81149104A1046E
:100A8000B10429F7FF90EF90DF90CF90BF90AF9027
:100A90009F908F9008952FB7F89460919D02709168
:100AA0009E0280919F029091A0022FBF08952091F5
:100AB000A401260F3327331F21323105ECF4209196
:100AC000C801FC0190E080E0243069F082E00895E4
:100AD000A091A4012191AC014C575E4FA40FB52FFA
:100AE000B11D2C930196861798F38091A401680F8D
:100AF0006093A40180E0089581E008951092C801F8
:100B000081E08093CA011092C90161E082E10E94F4
:100B10007A0361E083E10E947A03E9EBF0E08081EF
:100B20008E7F808380818D7F808388E48093B8006E
:100B300085E48093BC000895CF93C82F1092CC0217
:100B40001092CB021092CA021092C9020E947E0536
:100B50008CEC92E09093C6028093C50288ED92E0FF
:100B60009093C8028093C702CC0FC093BA00CF9174
:100B700008950895E091CC028091CB02E81730F4FB
:100B8000F0E0EB55FD4F808190E008958FEF9FEFEF
:100B900008958091CB029091CC02891B990B089506
:100BA000CF93DF93CB01EA01642F0E945705CE015A
:100BB000DF91CF910895CF93DF931F92CDB7DEB72A
:100BC000698361E0CE0101960E94570581E090E0C3
:100BD0000F90DF91CF91089590E080E00895CF933A
:100BE000DF93CDB7DEB72B970FB6F894DEBF0FBEFD
:100BF000CDBFA0917C01F0917D01E0917A017091CF
:100C00007B0120910501309106012F3F320721F42D
:100C100020917801309179016091040150913B025B
:100C200040913C0280910002883008F087E0880FF4
:100C300090912302917F892BA983FA83EB837C8394
:100C40002D833E836F83588749878A87FE013196BB
:100C50009E01255F3F4FDF0180E09D918927A2170C
:100C6000B307D9F793E989278B87F89490E080E060
:100C70002191DC01A359BE4F2C9301968B30910535
:100C8000B9F778942B960FB6F894DEBF0FBECDBFA0
:100C9000DF91CF910895CF93DF93CDB7DEB728973B
:100CA0000FB6F894DEBF0FBECDBF509178014091D2
:100CB000790180910201909103018F3F980711F40F
:100CC000852F942F60917602709177022091000118
:100CD000309101012F3F320711F430E020E05983B9
:100CE0004A838B839C836D832E833F83FE013196E1
:100CF0009E01285F3F4FDF0180E09D918927A21769
:100D0000B307D9F79CE389278887F89490E080E0BF
:100D10002191DC01AB59BE4F2C930196883091058F
:100D2000B9F7789428960FB6F894DEBF0FBECDBF02
:100D3000DF91CF9108951F93CF93DF9300D0CDB76C
:100D4000DEB7182F8EE480937C0062E070E080E0D4
:100D500090E00E94190580917A00806480937A0067
:100D600080917A0086FDFCCF209178003091790047
:100D70002115310531F510927901109278012091F9
:100D8000F3023091F4022115310511F427EF32E01E
:100D9000CE010196821B930B97FF02C090E080E08A
:100DA00020910001309101018217930720F4909364
:100DB0000101809300010F900F90DF91CF911F915F
:100DC000089550E040E064EB7BE281E190E00E9416
:100DD0007E222115310581E04807510508F18FEF8A
:100DE0009FEF9093790180937801209102013091D7
:100DF00003018217930720F490930301809302016B
:100E0000112309F4BCCF209105013091060182170E
:100E1000930708F0B4CF9093060180930501AFCFFC
:100E2000C9013093790120937801DFCF8F929F928F
:100E3000AF92BF92EF92FF920F931F93CF93DF93E6
:100E4000CDB7DEB72F970FB6F894DEBF0FBECDBF7C
:100E500000913902809135028111026080909602E2
:100E600090909702E0903702F0903802109136028D
:100E70002FEF882399F1609133027091340290E052
:100E800080E0092C000CAA08BB08681979098A09B6
:100E90009B0926EF37E040E050E00E944C229B0186
:100EA000AC0157FF04C02A50384F4F4F5F4FADE29F
:100EB000B0E00E946B2265507C4F8F4F9F4F26EF12
:100EC00037E040E050E00E947E22CA01B9012DE2E5
:100ED00030E040E050E00E947E22262F2A870B87D8
:100EE0001C87C70131E8E3163FEFF30614F481E8ED
:100EF0009FEF8038910514F08FE790E08D871E8674
:100F000067EB61276827602762276F8780911B0244
:100F1000898390911C0280911D029A838B8390910A
:100F20001E0280911F029C838D83909120028091EC
:100F300021029E838F83809122028887FE01319651
:100F40009E01275F3F4FDF0180E09D918927A21717
:100F5000B307D9F79CE589278987F894BE01665FB6
:100F60007F4F90E080E0DB014D91BD019C01215A53
:100F70003E4FD9014C93019686309105A1F790E040
:100F800080E02191DC01AA5ABE4F2C930196893052
:100F90009105B9F778942F960FB6F894DEBF0FBE7F
:100FA000CDBFDF91CF911F910F91FF90EF90BF9038
:100FB000AF909F908F90089581E090E090933202DF
:100FC00080933102609155018BE00E947A03609119
:100FD00054018AE00E947A036091530189E00E94E3
:100FE0007A036091520188E00C947A038BE00E94AE
:100FF000510321E0892B09F420E0209355018AE078
:101000000E94510321E0892B09F420E02093540130
:1010100089E00E94510321E0892B09F420E020930C
:10102000530188E00E94510321E0892B09F420E05C
:101030002093520160E08BE00E947A0360E08AE036
:101040000E947A0360E089E00E947A0360E088E011
:101050000E947A03109232021092310264E670E02C
:1010600080E090E00C9419054F925F926F927F920E
:101070008F929F92AF92BF92CF92DF92EF92FF92A8
:101080000F931F93CF93DF936C017C0197FF04C0F4
:10109000EE24FF24E81AF90A1C141D040CF063C0A6
:1010A00081E090E09093DA028093D902C4E0D0E02E
:1010B0000AE010E0E114F10409F472C00E94F404A3
:1010C0008090EF029090F002A090F102B090F202B6
:1010D0002B013C01481859086A087B088090DB0204
:1010E0009090DC02A090DD02B090DE02481459041A
:1010F0006A047B04F8F26093EF027093F00280932D
:10110000F1029093F2028091E3029091E402209127
:10111000D9023091DA022130310571F501969093B0
:10112000E4028093E3022091DF023091E002821713
:10113000930721F41092E4021092E30221E0E21AF4
:10114000F1088091E3029091E4022091E102309154
:10115000E202B8012530310509F0BE010E94BF222C
:101160000E94A803A7CFC114D10409F49FCF109205
:10117000DA021092D9029ACF892B41F48091DF02D2
:101180009091E0029093E4028093E3028091E30265
:101190009091E40201979093E4028093E302CECF12
:1011A0000D2C000CEE08FF08D701C601F7FE07C0A2
:1011B00088279927DC018C199D09AE09BF09209168
:1011C000640230916502BC01CD01620F731F811D65
:1011D000911D26EF422E27E0522E612C712CA30187
:1011E00092010E947E228090600290906102A09005
:1011F0006202B0906302820E931EA41EB51E8092FE
:10120000600290926102A0926202B09263027093B7
:101210006502609364028091330290913402A701C9
:101220009601280F391F411D511DCA01B901A301A3
:1012300092010E944C2297FF04C06A50784F8F4F52
:101240009F4F7093340260933302809166029091B5
:101250006702A0916802B091690288159905AA05F4
:10126000BB0531F1F8948091600290916102A091E8
:101270006202B09163028093660290936702A0932A
:101280006802B0936902789480911A02811110C0AB
:1012900080911202909113028F3F910519F010F086
:1012A0008FEF90E0809304011092130210921202CB
:1012B000DF91CF911F910F91FF90EF90DF90CF9032
:1012C000BF90AF909F908F907F906F905F904F9066
:1012D00008954F925F926F927F929F92AF92BF92CA
:1012E000CF92DF92EF92FF920F931F93CF93DF93F2
:1012F0006C0187E00E945103BB24B394892B09F051
:10130000B12CD0E0C0E0A12C99249394CC15DD053C
:101310000CF092C0A89520E039EE43E95EE36091BD
:1013200016027091170280911802909119020E9482
:10133000F5222B013C0120E030E040E85FE30E9411
:10134000B22318164CF14092160250921702609286
:101350001802709219029DE2E92EF12C10E000E0D3
:1013600081E090E00E94340887E00E945103892BBD
:1013700009F05FC021E02A1508F0A39482E0A812CA
:1013800004C0BB20E9F0BB24B3940F5F1F4FE016ED
:10139000F10631F72196BACF20E030E040E85FE374
:1013A000C301B2010E94F4226093160270931702E7
:1013B00080931802909319028EE2E82EF12CCECF82
:1013C00080911202909113028F3F980729F00196A5
:1013D0009093130280931202B090350280913302F1
:1013E000909134028C3F23E0920710F0865F974083
:1013F000109234021092330290923502BB2019F2FF
:101400009C0197FF04C022273327281B390B283162
:1014100031050CF4B8CF209136022F3F19F02F5F21
:1014200020933602909338028093370290923902CB
:10143000ACCFA12CB12CA9CFDF91CF911F910F91EF
:10144000FF90EF90DF90CF90BF90AF909F907F90F4
:101450006F905F904F9008958F929F92AF92BF923E
:10146000CF92DF92EF92FF920F931F93CF93DF9370
:10147000CDB7DEB76D970FB6F894DEBF0FBECDBF08
:10148000809101021092010220914E0130914F0192
:101490002F5F3F4F30934F0120934E018130B9F5BC
:1014A0004AE251E0FE013196CF01BF01DA012D91F0
:1014B000AD01DC012D93CD01B1E042335B07B1F703
:1014C00081E089879F01275F3F4F80E091918927C5
:1014D0002E173F07D9F79BE489278A874AE050E017
:1014E0008DEC92E00E94D0056D960FB6F894DEBFA9
:1014F0000FBECDBFDF91CF911F910F91FF90EF9065
:10150000DF90CF90BF90AF909F908F9008958230E2
:1015100081F4209196023091970229833A838DE1DC
:10152000822783278B8343E050E0BE016F5F7F4FAC
:10153000D7CF843081F420914B0280917402909136
:101540007502211102C08FEF90E0898380958A8314
:1015500042E050E0EACF853001F5409166025091BB
:10156000670260916802709169024983852E962E08
:10157000A72EBB248A826B01EE24FF24CB82872F07
:101580009927AA27BB278C8325EA242728252C25E1
:1015900082278D8345E050E0C8CF46E050E06FE5FC
:1015A00071E0863009F49CCF49E050E066E571E0D7
:1015B000873009F495CF48E050E065E671E0883067
:1015C00009F48ECF8930E1F5FE01319690E080E09C
:1015D000DC01A359BE4F2C91219301968B309105CC
:1015E000B9F78091520290915302A0915402B091A8
:1015F000550240914C0150914D0120914E01309186
:101600004F01609110028C879D87AE87BF87488B02
:10161000598B2A8B3B8B6C8BFE013C9621E030E092
:101620002C0F3D1F2C5E3F4F80E0919189272E1794
:101630003F07D9F796EC89278D8B45E150E075CFB0
:101640004FE050E06DE371E08A3009F449CF4BE0A0
:1016500050E062E371E08B3009F442CF833009F04F
:1016600061C0209131023091320281E0232B09F4D4
:1016700080E0909115029111826090911402911175
:1016800084609091EE019111806190914B029111D3
:10169000806220915001309151018E8B8091F50133
:1016A0008F8B8091F401888F8091F301898F8091D5
:1016B0004C0290914D029A8F80914C0290914D0274
:1016C0008B8F80916C028C8F84E0369527958A955C
:1016D000E1F72F3F310519F010F02FEF30E02D8F9B
:1016E0008E010A5E1F4FFE0131969E01225E3F4F22
:1016F000CF01BF01D8014D918D01DC014D93CD018A
:1017000002171307B9F79F01285F3F4F80E09191BF
:1017100089272E173F07D9F79EE78927898749E050
:1017200050E0DECE60913102709132028DEC92E099
:101730000E94DB05D9CE9F92AF92BF92CF92DF92EB
:10174000EF92FF920F931F93CF93DF9300D000D0BF
:10175000CDB7DEB71092010220914C0130914D01BE
:101760002F5F3F4F30934D0120934C0118161906FF
:101770000CF084C16C0181E0809349020E94150342
:101780007C018601015011098D3291050CF44DC187
:10179000B82E809185028470A82E82E9E81641F067
:1017A0008E1568F190E8E91619F0E0E9EE122BC009
:1017B0000F3F110511F00CF04CC0902E01151105D2
:1017C00039F00E941503860102501109911044C09E
:1017D000AA20C9F0F0E8BF16B1F080916C028F3FEB
:1017E00029F080916C028F5F80936C0210161106B5
:1017F0000CF044C10E94150301501109F7CF8BE68C
:101800008E0D8430A8F28E2D8058990BFC014B97D9
:1018100008F077C0E25FF34F0C94D322350C410CF3
:10182000450C470C490C4B0C4D0C4F0C510C530CF8
:10183000550C570C810C810C810C810CBE0C940C46
:10184000350C5D0CC20CD70CDB0CDF0C590CE30C17
:10185000FC0C99249A94B5CF41E09412BECF9E2DF2
:101860009095891709F4CFCFB8CF81E080939B0280
:10187000101611060CF002C10E9415030150110947
:10188000F7CF81E080930102F3CF82E0FBCF83E0CA
:10189000F9CF84E0F7CF85E0F5CF86E0F3CF87E09E
:1018A000F1CF88E0EFCF89E0EDCF8AE0EBCF8BE09E
:1018B000E9CF81E080935B02DBCF043011050CF1AE
:1018C000FE0131967F016E01F5E0CF0ED11C0E9422
:1018D0001503F70181937F01CE16DF06C1F704508F
:1018E000110989819A819C01209530954B815C81F9
:1018F0004217530731F49C012A50384F2D3E3F4088
:1019000058F080916C028F3F09F4B2CF80916C0245
:101910008F5F80936C02ACCF909399028093980272
:1019200081E080939A02A4CF802F0F3F110511F020
:101930000CF08FEFF82E80E0E12C1016110654F415
:101940000E941503E82E0130110561F00E94150375
:101950000250110941E0F41209C0A110D2CFE09267
:10196000730286CF80E010E000E0F4CF92E0F9123D
:10197000C8CF9E2D90958913C4CFF1CF81E080937D
:101980007D0276CF023011050CF4BBCF0E94150307
:10199000F82E0E941503025011099F2D909598135F
:1019A000B0CFF0926D0281E080936E0261CF81E052
:1019B00080936B025DCF81E080935A0259CF81E022
:1019C00080936A0255CF023011050CF49ACF0E9421
:1019D0001503F82E0E941503025011099F2D9095B2
:1019E00098138FCF8F2D8A7F09F08BCFF0929002C2
:1019F00081E0809391023CCF023011050CF481CF3D
:101A00000E941503F82E0E941503025011098F251C
:101A10008F3F09F076CF8F0D823008F072CFF092B1
:101A20007E0281E080937F0223CFE2E0CE16D104D4
:101A300089F04CF080916C028F3F29F080916C020C
:101A40008F5F80936C0241E0C41AD108B9F00E9404
:101A50001503F9CF90937702809376020E941503C5
:101A60008D30910514F08CE090E01816190614F0F2
:101A700081E090E090930801809307010F900F9010
:101A80000F900F90DF91CF911F910F91FF90EF90EA
:101A9000DF90CF90BF90AF909F9008950F931F93CA
:101AA000CF93DF9300D000D0CDB7DEB7DC01F9993A
:101AB000FECFF894F999FECF99E0E1E0F0E0909341
:101AC00057003491F0E0E0E0909357002491E3E078
:101AD000F0E0909357008491E2E0F0E0909357009B
:101AE00094917894AE014F5F5F4F10E000E0F801F1
:101AF0006491FA016193AF010F5F1F4F043011052C
:101B0000B1F74981241314C04A81341311C04B81A9
:101B100094130EC04C8184130BC014961C920F902A
:101B20000F900F900F90DF91CF911F910F9108951B
:101B300041E014964C9314973C9311962C93119773
:101B400012968C93129713969C93E9CF0F931F9341
:101B5000CF93DF93CDB7DEB72F970FB6F894DEBFE4
:101B60000FBECDBF109184029091850280913A0200
:101B7000B0918602A0918702F0918802E0918902DB
:101B800070918A0260918B0250918C0240918D027B
:101B900030918E0220918F0201E009831A839B838A
:101BA00087FD37C090E0833008F090E8892B8C8364
:101BB000BD83AE83FF83E88779876A875B874C871D
:101BC0003D872E87FE0131969E01215F3F4FDF0149
:101BD00080E09D918927A217B307D9F79EE6892750
:101BE0008F87F89490E080E02191DC01A35CBE4FE8
:101BF0002C9301968F309105B9F778942F960FB6F4
:101C0000F894DEBF0FBECDBFDF91CF911F910F9132
:101C100008958FE7CACFBF92CF92DF92EF92FF92E3
:101C20000F931F93CF93DF93C82FD0E0C850DF4F9F
:101C3000D695DC2FCC27D795C79550E040E063E0E0
:101C4000CE01E0ECFFE309958E0108591B4790E4B3
:101C5000B92E80E09CE79C0128563040690120ECB9
:101C6000E22E2FE3F22EF80144913196E4915E2F9B
:101C700061E0C601800F911FF7010995BA940E5FCC
:101C80001F4FB110F0CF50E040E065E0CE01F7010A
:101C9000099550E040E061E1CE01F701DF91CF917D
:101CA0001F910F91FF90EF90DF90CF90BF9009941C
:101CB000E0E0FCE7859194918C30944939F4E2E0BE
:101CC000FCE72591349181E0232B09F080E0089511
:101CD000FF920F931F93CF93DF9383E0F82EC0EC16
:101CE000DFE350E040E063E080E09CE7FE0109951F
:101CF0004CE054E961E080E09CE7FE01099550E08A
:101D000040E061E082E09CE7FE01099504E01CE709
:101D10004FEF5FEF61E0C801FE0109950E5F1F4FB5
:101D20000038FCE71F07A1F750E040E065E080E0E5
:101D30009CE7FE01099550E040E061E180E09CE70E
:101D4000FE0109950E94580E811103C0FA94F1100A
:101D5000C8CFDF91CF911F910F91FF90089520E898
:101D6000829FC0011124AC0140585F4F8417950732
:101D700061F0FC01F4582491FC01E859FF4FE49113
:101D800001962E1799F380E0089581E008958F92CF
:101D90009F92AF92BF92CF92DF92EF92FF92C12CAF
:101DA000D12C760130E020E04FEF5FEFBA01F9016E
:101DB000F458E4914E27E8E04A015B01B694A794F9
:101DC000979487944170552766277727709560957B
:101DD000509541955F4F6F4F7F4F40725378687BAE
:101DE0007D7E482559256A257B25E15029F72F3727
:101DF000E3E03E0731F46A017B01C094D094E094A3
:101E0000F0942F5F3F4F2115F4E03F0781F6FC016E
:101E1000C482D582E682F782409550956095709590
:101E20004083518362837383E0E0FCE72591349122
:101E3000FC0131872087E2E0FCE725913491FC0129
:101E400033872287FF90EF90DF90CF90BF90AF90C5
:101E50009F908F9008950F931F93CF93DF93CDB7EB
:101E6000DEB7A2970FB6F894DEBF0FBECDBFCE018E
:101E700001960E94C70E8BE0EDE0F1E0DE011D96B9
:101E800001900D928A95E1F7CE010D960E944E0DBC
:101E900049815A816B817C814A8B5B8B6C8B7D8BFA
:101EA00084E04F3B2DE352072EE5620726EC7207D4
:101EB000C9F1483686EA580782E2680784EE780757
:101EC00009F46EC0443599E259079CE1690798E02E
:101ED000790709F465C081E04D3D2AE3520727E107
:101EE000620728E17207F1F04F3E89EB580788EF4F
:101EF000680782EB780709F455C089859A858C308C
:101F0000944929F48B859C85892B09F44DC081E087
:101F10000D811E812F8138850434194E24423542AB
:101F200009F080E08E8B909111029F8B2D85288F78
:101F30002E85298F2F852A8F28892B8F4C8F5D8F97
:101F40006E8F7F8F88A38989811130C080E8982B9C
:101F500099A3FE0178969E012E5D3F4FDF0180E040
:101F60009D918927A217B307D9F79AE589278AA3F4
:101F7000F89490E080E02191DC01AE5CBE4F2C93A0
:101F800001968B309105B9F77894A2960FB6F89424
:101F9000DEBF0FBECDBFDF91CF911F910F9108958E
:101FA00085E0C0CF82E0BECF83E0BCCF80E0CFCF62
:101FB000CF93DF93CDB7DEB72C970FB6F894DEBF83
:101FC0000FBECDBFCE0101960E94C70E89819A81B6
:101FD000AB81BC818F3B2DE392072EE5A20726EC57
:101FE000B207D9F1883626EA920722E2A20724EE48
:101FF000B207B1F1843529E292072CE1A20728E06B
:10200000B20771F18D3D2AE3920727E1A20728E18B
:10201000B20741F18F3E994BA84FB24B29F1898508
:102020009A858C30944921F48B859C85892BF1F01D
:1020300081E090E04D815E816F8178854434594E16
:102040006442754209F080E02C960FB6F894DEBF2A
:102050000FBECDBFDF91CF91089584E090E0F4CF23
:1020600085E0FCCF81E0FACF82E0F8CF83E0F6CFC5
:10207000CF93DF93DFB7F894F999FECF80E8809390
:10208000BC000E94580E811102C00E94680EC1E07F
:10209000811106C086E090E0DFBFDF91CF91089507
:1020A000C730A1F08C2F0E94AF0E811106C08C2F7B
:1020B0000E940B0E8C2F0E94AF0ECF5FE9CF0E94C3
:1020C000D80F049739F782E090E0E6CF80E00E94D5
:1020D0000B0E80E00E94AF0E8111F1CF0E94680EBE
:1020E000D9CF282FFC0180E0919189279E2F921B48
:1020F0009617D0F384270895CF93DF93FC01EB016B
:10210000808188838181898382818A8383818B8393
:1021100084818C8385818D8386818E8387818F8363
:10212000808588878185898782858A8783858B8753
:1021300084858C8785858D8741E76EE0CE010E947E
:1021400071108E87DF91CF9108950C943622CF9332
:10215000DF9385ED8093BC00809180019091810197
:10216000A0918201B09183010796A11DB11D23E0CA
:10217000B695A795979587952A95D1F72091BC009C
:1021800024FD03C01092C80136C0409180015091D7
:1021900081016091820170918301452B462B472B71
:1021A00069F30097A105B10541F02AE22A95F1F7FC
:1021B00000C00197A109B109E1CF80917F0191E0B1
:1021C00090937E018823B9F0C091B800D091BA00F5
:1021D0008091BC008A7B8093BC0060E082E10E9419
:1021E0007A0360E083E10E947A030E947E05D09327
:1021F000BA00C093B800DF91CF9108951F93CF9399
:10220000DF93EC01162F0E943622181739F0612F48
:10221000CE01DF91CF911F910C943E22DF91CF919F
:102220001F9108951F93CF93DF9300D0CDB7DEB7F2
:1022300010E0811115EA198346E961E0CE010196AB
:102240000E9471108A83612F8AE190E00E94FE1043
:102250006A818BE190E00E94FE10F999FECF0F9009
:102260000F90DF91CF911F910895EF92FF920F93FE
:102270001F93CF93DF93CDB7DEB72F970FB6F894A8
:10228000DEBF0FBECDBFBE016F5F7F4F82E892E021
:102290000E947C108E010F5F1F4F88E0E82EF12C0A
:1022A000F80161918F01C7010E94FE10FFEFEF1A44
:1022B000FF0A87E1E816F10499F70E94A60D2F9610
:1022C0000FB6F894DEBF0FBECDBFDF91CF911F9147
:1022D0000F91FF90EF900895DF92EF92FF920F938E
:1022E0001F93CF93DF93082F81E090E09093320209
:1022F0008093310280934A02D0904B02D110D0904B
:102300003502E0903302F09034022091DF023091E8
:10231000E002032E000C440B550B60E077E883E9E4
:1023200093E00E944C22CA01B9012AE030E040E06B
:1023300050E00E944C222093DB023093DC02409359
:10234000DD025093DE02D0E0C0E010E0A89587E007
:102350000E945103009709F4F1C0019709F4A4C049
:102360002091350280913302909134028C3F33E00A
:10237000930710F0865F9740109234021092330258
:1023800031E0309335022223A9F09C0197FF04C06D
:1023900022273327281B390B283131055CF0209187
:1023A00036022F3F19F02F5F2093360290933802A8
:1023B0008093370210923902809112029091130299
:1023C0008F3F980729F00196909313028093120291
:1023D000DD2041F186EF97E08E199F09C817D907D4
:1023E00008F4A9C09E01281B390BC90190937D01F7
:1023F00080937C0120917A0130917B012817390765
:1024000020F490937B0180937A0120918602309191
:1024100087022817390730F4909387028093860249
:102420000E94351180919602909197020E94340883
:1024300010927502109274021092160210921702F6
:102440001092180210921902F8941092150281E06D
:10245000182710931402D0935101C0935001809318
:102460004B0278940E944B051092780201110E9451
:10247000F607CE01DF91CF911F910F91FF90EF9062
:10248000DF90089587E00E945103892B09F05BC01B
:10249000A89581E090E00E9434082196C33E27E190
:1024A000D20781F711E012C0209741F482E390E057
:1024B0000E943408C2E3D0E0219648CF81E090E04A
:1024C0000E943408C33E37E1D307B4F3109275027B
:1024D000109274021092350210923902F89481E041
:1024E00080931502182710931402D0935101C093C2
:1024F000500110924B027894809184028F3F19F022
:102500008F5F809384020E9435110E94F6070E941B
:102510004B05209178022F3F19F02F5F209378020E
:102520006093790270937A0280937B0290937C028D
:10253000CFEFDFEF9ECF90E080E058CF209709F4F7
:10254000A1CF11E00DCF82E390E00E943408E29623
:1025500011E0B8CF9F92AF92BF92CF92DF92EF92ED
:10256000FF920F931F93CF93DF935C017B018B014D
:10257000D0E0C0E0F80191908F016501CC0EDD1E26
:10258000C6010E943622981621F0692DC6010E94CC
:102590003E222196C430D10569F7C701DF91CF9162
:1025A0001F910F91FF90EF90DF90CF90BF90AF9071
:1025B0009F9008951F920F920FB60F9211242F93A0
:1025C0003F938F939F93AF93BF9380919D02909180
:1025D0009E02A0919F02B091A00230919C0223E044
:1025E000230F2D3758F50196A11DB11D20939C0294
:1025F00080939D0290939E02A0939F02B093A002AD
:102600008091A1029091A202A091A302B091A40294
:102610000196A11DB11D8093A1029093A202A093E7
:10262000A302B093A402BF91AF919F918F913F916C
:102630002F910F900FBE0F901F90189526E8230F33
:102640000296A11DB11DD2CF1F920F920FB60F920D
:1026500011242F933F934F935F936F937F938F93A7
:102660009F93AF93BF93EF93FF938091B900887FBF
:10267000803609F44AC0F0F5883209F4A7C018F58D
:10268000803109F49BC0B8F4882309F4F9C088307C
:1026900009F494C0FF91EF91BF91AF919F918F91F9
:1026A0007F916F915F914F913F912F910F900FBE4E
:1026B0000F901F901895883109F488C0803251F727
:1026C0008093C70114C0803409F49DC040F4803366
:1026D000B9F38833F9F68093C70185ECB0C0803533
:1026E00009F485C0883509F496C0883499F60E94AB
:1026F000A710D0CF883909F48CC038F5883729F075
:1027000050F4883611F0803729F683E08093C801B1
:102710001092C60157C0883809F47BC0803919F07F
:10272000803809F0B7CF8091C601803208F071C0BF
:10273000E091C60181E08E0F8093C6018091BB00BD
:10274000F0E0EA55FE4F80833DC0803B39F0E0F475
:10275000803A09F479C0883A09F09CCF84E08093EC
:10276000C8011092A5011092A401E091C502F09158
:10277000C60209958091A40181110FC081E0809368
:10278000A4011092840109C0803C09F4A6CF883CC2
:1027900009F4A3CF883B09F07DCFE091A50181E04A
:1027A0008E0F8093A501F0E0EC57FE4F808180935F
:1027B000BB009091A5018091A40129C08091ED01F9
:1027C0008093BB0085EC8093BC0064CF9091EC01BA
:1027D0008091EB01981758F5E091EC0181E08E0FA4
:1027E0008093EC01F0E0E553FE4F8081E9CFE0916A
:1027F000EC0181E08E0F8093EC018091BB00F0E052
:10280000E553FE4F80839091EC018091EB01981786
:10281000C8F285E8D8CFE091EC0181E08E0F80937B
:10282000EC018091BB00F0E0E553FE4F8083809186
:10283000CA0181115CCF81E08093C90184EA809351
:10284000BC001092C80126CF85EC8093BC0010928A
:10285000C8018091C601803230F4E091C601F0E0F9
:10286000EA55FE4F10826091C60170E0E091C70208
:10287000F091C80286EA91E009951092C6010ACF4C
:102880001092C70134CFCF93DF93EDECF2E01382C7
:10289000128288EE93E0A0E0B0E084839583A68363
:1028A000B7838CE191E091838083C9EDD2E01B86F0
:1028B0001A86198218821E8A1F8A188E198E86EF30
:1028C00097E09F838E838BE090E09D878C8789E0E3
:1028D00090E09F878E878AE090E0998B888B88E0D4
:1028E00090E09B8B8A8B61E08BE00E94B80461E0F2
:1028F0008E850E94B80461E088890E94B80461E076
:102900008A890E94B8041D8A1C8A84E090E0998715
:102910008887DF91CF910895CF93DF93CDB7DEB74E
:10292000A5970FB6F894DEBF0FBECDBF789484B5DF
:10293000826084BD84B5816084BD85B5826085BDBB
:1029400085B5816085BD80916E00816080936E0049
:10295000109281008091810082608093810080913B
:1029600081008160809381008091800081608093EC
:1029700080008091B10084608093B1008091B000AC
:1029800081608093B00080917A00846080937A00A7
:1029900080917A00826080937A0080917A008160D1
:1029A00080937A0080917A00806880937A001092F8
:1029B000C10014B78EB3182B14BE1EBA0FB6F8940C
:1029C000A8958091600088618093600010926000FB
:1029D0000FBE0E94D80F039709F0C3C087E00E9482
:1029E000AF0E882309F4BFC00E94381080931102F3
:1029F00090E080E00E94A510813009F456C0198251
:102A00001A824DE262E0CE0101960E9471108B8322
:102A100060E084E090E00E94FE106A8185E090E032
:102A20000E94FE106B8186E090E00E94FE10CE01B5
:102A300040962EE0DC011D922A95E9F7BE016F5FFA
:102A40007F4F0E947C10FE0131966F01E8E0EE2E70
:102A5000F12CD6016D916D01C7010E94FE10BFEFF0
:102A6000EB1AFB0AE7E1EE16F10499F781E089839E
:102A70001A821B824AE563E0CE0101960E94711022
:102A80008C83682F83E090E00E94FE106B8182E0CF
:102A900090E00E94FE106A8181E090E00E94FE10AA
:102AA000698190E080E00E94FE109E012F5F3F4F01
:102AB000690178E0E72EF12CC7010E94A510D6012C
:102AC0008D936D01BFEFEB1AFB0AE7E1EE16F104FF
:102AD00099F70F8541E76EE0CE0101960E947110D3
:102AE000081709F442C08EE0E2E8F2E0DF011D922F
:102AF0008A95E9F700E08AE190E00E94A510F82E9F
:102B0000888B8BE190E00E94A510E82E898B46E926
:102B100061E0CE0140960E9471108E1152C0B5EA5C
:102B200080E0FB1203C00E94121181E0912F9F7080
:102B300010FD51C012FD51C013FF45C0811148C0A6
:102B400083E09093F501823011F00C946421809120
:102B500082028F3F19F08F5F809382020E943511AD
:102B600041C080E043CF83E041CF898180938202DE
:102B70008A81809383028B81809384028C818093ED
:102B800085028D819E8190938702809386028F813A
:102B90009885909389028093880289859A8590937D
:102BA0008B0280938A028B859C8590938D02809303
:102BB0008C028D859E8590938F0280938E0201E01A
:102BC0009ACF80E0B3CF80E011FFBBCF85E0B9CFD3
:102BD000906884E0B6CF81E0B4CF82E0B2CF00232A
:102BE00009F4BCCF809182028093F401809183022A
:102BF0008093F30188E190E00E94A510182F89834B
:102C000089E190E00E94A510082F8A834BE461E0DF
:102C1000CE0101960E947110801302C01230F9F0AB
:102C200000E410E060E0C8010E94FE100F5F1F4F3B
:102C3000003CE2E01E07B1F782E089834BE461E0EB
:102C4000CE0101960E9471108A83682F89E190E07D
:102C50000E94FE10698188E190E00E94FE1004E469
:102C600010E0C12CD12C76016CE3762E4801F4E003
:102C70008F1A91089E012F5F3F4F5901C4010E9496
:102C80003622D5018D935D01BFEF8B1A9B0A081583
:102C90001905A1F7C8010E94A51049815A816B81CD
:102CA0007C814F3FEFEF5E076E077E0771F0942F38
:102CB0009725952796279727891307C0C416D50609
:102CC000E606F70610F46A017B010B5F1F4F04391B
:102CD000110561F6C0926002D0926102E092620238
:102CE000F0926302C0925C02D0925D02E0925E02BA
:102CF000F0925F02C0926602D0926702E092680290
:102D0000F092690262E086E00E94B80462E085E029
:102D10000E94B80462E084E00E94B80462E083E0AC
:102D20000E94B80460E087E00E94B80461E08DE092
:102D30000E94B80460E08DE00E947A038E010F5F6C
:102D40001F4F780110E000E0C8010E943622D70131
:102D50008D937D010F5F1F4F04301105A9F7198175
:102D6000113009F0D4C00C814AE563E0CE01019630
:102D70000E9471100813CBC08B8180FFC8C00A81EC
:102D80008FEF800F8E3708F0C2C01093EE0110E075
:102D9000109348020093470284E090E00E94A5103F
:102DA000E82E898385E090E00E94A510F82E8A83A2
:102DB00086E090E00E94A510D82E8B834DE262E061
:102DC000CE0101960E9471108D11D1C097012A5039
:102DD000384F2D3E3F4010F0F12CE12CF09297023D
:102DE000E09296020E94160780E00E949B060E94D5
:102DF0004B060E94EF050E94A60D0E942B0F802F0C
:102E00000E949C058091BA0081608093BA008BE992
:102E10009BE09093F0018093EF018CE29AE0909315
:102E2000F2018093F10188E199E20FB6F894A89538
:102E3000809360000FBE9093600080E480937C00DC
:102E400080917A00806480937A0080917A0086FD78
:102E5000FCCFC0907800D09079000D2C000CEE08CB
:102E6000FF087601DD24CC240E94F404C616D706A0
:102E7000E806F90631F06C257D258E259F250E94F8
:102E80002D220E94DE212BEF30E040E050E00E9436
:102E90004C227093460260934502812C37E8932EB2
:102EA00033E9A32E33E0B32E212C312C21012394BE
:102EB000A8950E944B056B017C0186B1807380331D
:102EC00009F058C01092F6010E944B056B017C017D
:102ED00096B12091BA008091BC008574853439F494
:102EE00080914702880F8160281709F4ACC0809157
:102EF00002028111C9C081E080930202C0920302E4
:102F0000D0920402E0920502F0920602D3C083E060
:102F10000E94510301E010E0892B11F010E000E065
:102F200084E00E945103892BC9F482E090E0080FED
:102F3000191F85E00E945103892B99F484E090E0E9
:102F4000080F191F86E00E945103892B69F488E05D
:102F500090E0080F191F0F5F1F4F1ACF90E080E01D
:102F6000E6CF90E080E0ECCF90E080E0F2CFF12C73
:102F7000E12C2CCF8091F60181110BC081E0809370
:102F8000F601C092F701D092F801E092F901F092B7
:102F9000FA018091F7019091F801A091F901B091A7
:102FA000FA0197018601081B190B2A0B3B0BD9016B
:102FB000C801C297A105B10508F486CF8091FB0135
:102FC0008823B1F08091FC019091FD01A091FE0158
:102FD000B091FF01A7019601281B390B4A0B5B0B2F
:102FE000DA01C901883E9340A105B10508F46CCF10
:102FF00080E88093BC00109201028BE490E001977E
:10300000F1F716B1809147020E949C058091BA00A9
:1030100081608093BA0081E08093FB01C092FC0143
:10302000D092FD01E092FE01F092FF011073103387
:1030300009F04ACF809100028F3F09F445CF8F5F9E
:103040008093000241CF109202020E9416070E9454
:103050004B060E94EF0500919B02002309F48AC0F1
:103060006AE070E080E090E00E94190581E00E9433
:10307000121188E198E00FB6F894A895809360004B
:103080000FBE90936000FFCF40910702509108025D
:103090006091090270910A0297018601041B150BC9
:1030A000260B370BB901A8014B305105610571059D
:1030B00008F021CFC0920702D0920802E0920902E4
:1030C000F0920A02409103025091040260910502BD
:1030D0007091060297018601041B150B260B370B16
:1030E000B901A801423351056105710508F4ADCF5E
:1030F0009073903309F0A9CF80910B028823B1F02F
:1031000080910C0290910D02A0910E02B0910F02DD
:10311000A7019601281B390B4A0B5B0BDA01C90189
:10312000883E9340A105B10508F48FCF80E88093D5
:10313000BC0010920102809147020E949C05809180
:10314000BA0081608093BA0081E080930B02C09244
:103150000C02D0920D02E0920E02F0920F02109239
:103160000202809110028F3F09F46FCF8F5F80932E
:1031700010026BCF80919A02882371F1F894E0904D
:103180009802F090990210929A02F0929702E092BF
:1031900096027894E982FA824DE262E0CE010196CD
:1031A0000E9471108B836E2D84E090E00E94FE10CF
:1031B0006A8185E090E00E94FE106B8186E090E0DD
:1031C0000E94FE100E944B0560939202709393023E
:1031D0008093940290939502809191028823C1F08C
:1031E000F8948091900210929102789480938502D5
:1031F0000E94351110928002109281020E944B05AC
:10320000609392027093930280939402909395023C
:1032100080917F02882309F4A9C0F894F0907E027F
:1032200010927F02789480914B02882309F4B7C2F0
:103230008091310290913202892B09F0B0C2A89599
:103240008BE0EDE0F1E0DE01119601900D928A95A0
:10325000E1F7CE0101960E944E0D41E0F41203C049
:1032600081E00E94121119818D81811101C01FEF2F
:103270000E94D80F51E0F51238C0019711F00C945C
:10328000732114FD02C00C947A21F894F999FECFB1
:1032900080E88093BC00ADE1B1E0FD01E55BFC4F4F
:1032A000E491ED93AD3961E0B607B9F7A89588E1EF
:1032B0009CE00FB6F894A895809360000FBE9093A1
:1032C00060001124AA24BB2423E0922E21E0022FC7
:1032D00025E0D22E21E1C22E2DE9E22E21E0F22EB0
:1032E00010E080E89FE70C942D3FA2E0FA1609F465
:1032F00036C28091110223E0E22EF12C823009F0D7
:1033000047C28091BC0082FD25C080E88093BC004C
:10331000109147021092CC021092CB021092CA0276
:103320001092C9020E947E05ECECF2E0F093C60216
:10333000E093C50288EDC82E82E0D82ED092C80254
:10334000C092C702110F1093BA008091BA00816039
:103350008093BA000E942B0F0E944B05609392024B
:1033600070939302809394029093950280917D02D2
:10337000882381F1F89410927D0278940E944B0585
:1033800020917802222389F0C0907902D0907A02AD
:10339000E0907B02F0907C026C197D098E099F09F8
:1033A000603375478105910558F081E00E946C11EA
:1033B00010927702109276021092750210927402A7
:1033C0000E944B0560939202709393028093940243
:1033D0009093950280917302882309F457C0F89462
:1033E000109173021092730278940E94DC07C090CF
:1033F0000701D09008012091DF023091E002032EF6
:10340000000C440B550BC501B4010E944C220D2C3D
:10341000000CEE08FF08CA01B901A70196010E943D
:103420004C222093DB023093DC024093DD02509368
:10343000DE02812F110F990B0E94340862E370E0C5
:1034400080E090E00E9419050E94F6070E944B055B
:1034500060936F0270937002809371029093720276
:10346000672B682B692B41F420926F023092700217
:1034700040927102509272020E944B056093920238
:1034800070939302809394029093950280916E02C0
:10349000882361F1F89490916D0210926E027894F5
:1034A0008FEF890F8E3708F07EC181E089839A8380
:1034B0008B834AE563E0CE0101960E9471108C83F4
:1034C0009E012F5F3F4F6901F12CE12CD6016D91D8
:1034D0006D01C7010E94FE10BFEFEB1AFB0AE4E08A
:1034E000EE16F10499F781E080939B0280916B02C4
:1034F000882329F1F89410926B02789481E08983F3
:103500001A821B824AE563E0CE0101960E94711087
:103510008C839E012F5F3F4F6901F12CE12CD60176
:103520006D916D01C7010E94FE10BFEFEB1AFB0AFF
:10353000E4E0EE16F10499F781E080939B0280911C
:103540006A02882309F444C0F89410926A02109227
:1035500066021092670210926802109269027894D3
:103560001092600210926102109262021092630245
:10357000109265021092640210925C0210925D0239
:1035800010925E0210925F0219821A821B821C82C4
:1035900010E4E12EF12CA895BE016F5F7F4FC701AB
:1035A0000E94AA126CE3C70104960E94FE10F5E087
:1035B000EF0EF11C10E9E116F10469F70E944B05CA
:1035C0006093920270939302809394029093950279
:1035D0008091600290916102A0916202B0916302B9
:1035E00040915C0250915D0260915E0270915F02B9
:1035F000481759076A077B0759F189839A83AB8378
:10360000BC838F7025E0829F70011124BE016F5F23
:103610007F4FC701805C9F4F0E94AA1269812A8157
:103620009B818C813CE36327622769276827C70158
:103630008C5B9F4F0E94FE1089819A81AB81BC8177
:1036400080935C0290935D02A0935E02B0935F0250
:10365000C0905B02CE8ECC2009F4A3C1F8941092E6
:103660005B02789481E080931B0280934A0210925F
:10367000220210921D0210921C0210921F02109240
:103680001E02109221021092200280931A020E94C0
:1036900016070E94DC072091DF023091E002032E22
:1036A000000C440B550BC501B4010E944C22CA0109
:1036B000B9012AE030E040E050E00E944C22209323
:1036C000DB023093DC024093DD025093DE0287E0A0
:1036D0000E945103C12CD12C7601892B09F078C0AE
:1036E00087E00E945103892B09F069C0A89581E009
:1036F00090E00E9434081FEFC11AD10AE10AF10AD2
:1037000023EEC21627E1D206E104F10449F781E075
:103710008093220283E080931B0210927502109224
:103720007402109277021092760210923502109273
:103730003902F89410924B0278940E944B05209124
:1037400078022F3F19F02F5F20937802609379025F
:1037500070937A0280937B0290937C02C9C09C0193
:10376000225031092230310518F0059709F0C1CDFA
:1037700014FF11C087E00E94AF0E882309F4B9CD71
:103780000E9438107C01B3E0EB16F10409F4B1CDCE
:10379000E0921102B6CD94E0E92EF12CF9CF85E04C
:1037A00080931102D7CDF89480916C028F3F29F05D
:1037B00080916C028F5F80936C02789497CE82E345
:1037C00090E00E94340832E3C30ED11CE11CF11CCE
:1037D00087E00E945103892B09F490C5A89581E0E8
:1037E00090E00E9434084FEFC41AD40AE40AF40AA5
:1037F00053EEC51657E1D506E104F1044CF382E01F
:1038000087CF11E06301A89581E090E00E94340821
:1038100036016FEF661A760A8DEE68168FE078062D
:1038200041F483E080932202F0921F02E0921E0294
:1038300071CF87E00E94510301110BC0892B29F43D
:103840009FEFE91AF90A10E0DDCF1130D1F60E8DA5
:10385000FACF892BC1F71130A1F60E944B05DC018C
:10386000CB010AA11BA12CA13DA1801B910BA20B96
:10387000B30B009711E0A107B10520F08FEF9FEF88
:10388000A0E0B0E09093210280932002D0921D022C
:10389000C0921C02F0921F02E0921E0282E080930E
:1038A0001B02109234021092330211E01093350281
:1038B00080919602909197020E94340810927502AE
:1038C00010927402109216021092170210921802AF
:1038D0001092190210923902F89410921502109267
:1038E000140210934B0278940E944B0510927802B8
:1038F00080911B02823059F580911C0290911D022B
:1039000020911E0230911F022115310571F0409166
:10391000880250918902452B21F43093890220932B
:10392000880230938D0220938C02009771F02091D1
:103930008A0230918B02232B21F490938B02809387
:103940008A0290938F0280938E020E9435110E940A
:103950004B05611571058105910509F495C06093CA
:103960006F0270937002809371029093720264E60A
:1039700070E080E090E00E9419050E94F607109226
:1039800013021092120210921A020E9416070E944D
:103990004B056093920270939302809394029093EC
:1039A000950280915A028823D1F0F89410925A021D
:1039B00078940E944B05609356027093570280934F
:1039C000580290935902672B682B692B41F420927F
:1039D00056023092570240925802509259020E9469
:1039E0004B056B017C018091560290915702A0918A
:1039F0005802B09159020097A105B10511F1C0928A
:103A00009202D0929302E0929402F0929502A70162
:103A10009601281B390B4A0B5B0BCA01B901683BA5
:103A20003BE0730781059105C0F160E08DE00E94E5
:103A30007A03109256021092570210925802109276
:103A400059028091520290915302A0915402B09178
:103A5000550240914E0250914F0260915002709178
:103A6000510297018601041B150B260B370B083EEC
:103A700013402105310528F148515C4F6F4F7F4FAE
:103A80000196A11DB11DEDCF20926F023092700200
:103A900040927102509272026ACF2DE730E040E00E
:103AA00050E00E947E22CA01B90160957095809510
:103AB000909561707727882799278DE00E947A0377
:103AC000C0CF40934E0250934F02609350027093C8
:103AD0005102AC010097F1E0AF07B10520F04FEFC4
:103AE0005FEF60E070E0F89480935202909353028D
:103AF000A0935402B093550250934D0240934C0250
:103B0000789480914B0281111CC080914A028111EE
:103B100018C090914B0280914902911112C02091DE
:103B20004702E0914502F0914602882309F417C14B
:103B300000ECC01604EDD00601E0E006F10408F048
:103B400027C18091410290914202A0914302B0911D
:103B50004402A7019601281B390B4A0B5B0BDA01C3
:103B6000C901883E9340A105B10558F0C0924102B9
:103B7000D0924202E0924302F092440280E00E941E
:103B80009B0680913D0290913E02A0913F02B09130
:103B9000400297018601081B190B2A0B3B0BD90128
:103BA000C80180369A4EA105B105C8F0C0923D0209
:103BB000D0923E02E0923F02F092400280913B029E
:103BC00090913C028230910508F4FAC09C01369530
:103BD0002795821B930B90933C0280933B0280912C
:103BE000850280FF3EC080913A028330D0F58091FB
:103BF0004B028823B1F180913502882391F18091A5
:103C0000390281112EC08091310290913202892BAC
:103C100041F5209174023091750280917602909165
:103C2000770228173907E9F48091560290915702DC
:103C3000A0915802B0915902892B8A2B8B2B89F4C1
:103C400080915B0281110DC080917D02811109C0BC
:103C500080919B02811105C080917302882309F431
:103C6000B2C01092800210928102809139028111BB
:103C70001AC18091310290913202892B51F5209125
:103C80007402309175028091760290917702281724
:103C90003907F9F48091240290912502A09126021F
:103CA000B091270297018601081B190B2A0B3B0BC9
:103CB000D901C801803C9742A940B10550F0C0929B
:103CC0002402D0922502E0922602F09227020E945E
:103CD0002B0F8091920290919302A0919402B09147
:103CE0009502A7019601281B390B4A0B5B0BDA01E1
:103CF000C901803D9740A105B10590F083B7817F50
:103D000083BF83B7816083BF889583B78E7F83BF6E
:103D1000C0929202D0929302E0929402F0929502A5
:103D20002091740230917502809176029091770211
:103D30002817390709F036C180917802811132C104
:103D40008091310290913202892B09F0B8C280E053
:103D500090E0892B09F4ACC80E940000A9C821504A
:103D600030E0A8E5B2E00E94A022AB01BC01CF0187
:103D7000B0E0A0E0805D9A48AF4FBF4F840F951F21
:103D8000A61FB71FC816D906EA06FB0608F4D9CE47
:103D900081E080934A020E946C1110927702109287
:103DA000760210927502109274020E944B05609385
:103DB0009202709393028093940290939502C1CEE5
:103DC00090E080E008CF80912D0290912E02A0918A
:103DD0002F02B0913002A7019601281B390B4A0B24
:103DE0005B0BDA01C9018A3F9105A105B10508F411
:103DF00040CFC0922D02D0922E02E0922F02F0927C
:103E0000300220918C0230918D02C90147974CE01D
:103E100050E08936910520F048E150E02EE230E094
:103E20008091330290913402863F67E09607C0F498
:103E30004217530750F48417950738F0BC01640FFC
:103E4000751F11E06217730760F0240F351F82178A
:103E5000930730F0840F951F12E0863F974008F0DB
:103E600010E087E00E945103113009F08CC0892BCB
:103E700009F4F7CE80918102181721F01093810286
:103E800010928002809180028F5F80938002863042
:103E900008F4EBCE109280021092810281E08093B0
:103EA000390280932C022091740230917502809126
:103EB0007602909177022817390709F0DACE8091BF
:103EC000920290919302A0919402B0919502970171
:103ED0008601081B190B2A0B3B0BD901C801803D39
:103EE0009740A105B10508F4C4CE809128029091B5
:103EF0002902A0912A02B0912B020097A105B105D9
:103F000071F0A7019601281B390B4A0B5B0BDA01F4
:103F1000C90180369A4EA105B10508F4AACEC11494
:103F2000D104E104F104B1F13C2D2D2D9E2D8F2DF6
:103F3000309328022093290290932A0280932B0227
:103F40001091360200912C0210922C0281E00E9406
:103F50006C11002369F080913602181320C0809103
:103F60003A028F3F19F08F5F80933A020E94A60DAC
:103F70000E944B0560939202709393028093940287
:103F80009093950276CE123009F06BCE892B09F40E
:103F900071CF67CE31E020E090E080E0C9CF109291
:103FA0003A02E4CF00917602109177020D321105AA
:103FB00008F0CDCE80914B02882309F4A8C0C090B0
:103FC0006F02D0907002E0907102F0907202C11402
:103FD000D104E104F10409F0CAC00E944B056093CA
:103FE0006F02709370028093710290937202672B3C
:103FF000682B692B09F4CEC08FEF9FEF90930601D9
:104000008093050180913B0290913C028F3F98077D
:1040100029F0019690933C0280933B020E944B054D
:104020006E8F7F8F88A399A3C0907402D090750281
:1040300080914B02882321F00C151D050CF0B3C0B4
:1040400080E00E946C113C0197FD81CEC090070179
:10405000D09008012091DF023091E002032E000C85
:10406000440B550BC501B4010E944C220D2C000CD1
:10407000EE08FF08CA01B901A70196010E944C226F
:104080002093DB023093DC024093DD025093DE028A
:10409000A0910701B09108011A161B0614F0A1E0C7
:1040A000B0E026EF37E00E94D9229B01AC01C501A8
:1040B000B4010E947E2269017A0126EF37E0D8011F
:1040C0000E94D9222DE230E040E050E00E947E22A2
:1040D000CA01B901A70196010E94AF2228EE33E080
:1040E00040E050E00E947E2269017A0120E83BE036
:1040F000D3010E94D92228EE33E040E050E00E9434
:104100007E22C20ED31EE41EF51EC801A0C00E946E
:104110004B0520917802222309F451CFC0907902F7
:10412000D0907A02E0907B02F0907C02AB01BC015F
:104130004C195D096E097F098FEF820F863008F0F8
:1041400085E0A0E3CA2EA5E7DA2EE12CF12C04C00D
:10415000CC0CDD1CEE1CFF1C8A95D2F7D701C601E2
:10416000481759076A077B0708F029CFF0CD0E944E
:104170004B056C197D098E099F09613D77408105CA
:10418000910508F02ACF81E090E09093320280936D
:104190003102DDCD20926F023092700240927102A6
:1041A0005092720229CF0E94DC07E0900701F09044
:1041B00008012091DF023091E002032E000C440B35
:1041C000550BC501B4010E944C22CA01B9019701E7
:1041D000FF0C440B550B0E944C222093DB023093C2
:1041E000DC024093DD025093DE0238016C187D083A
:1041F000A0910701B09108011A161B0614F0A1E066
:10420000B0E026EF37E00E94D9229B01AC01C50146
:10421000B4010E947E2269017A0126EF37E0D301C2
:104220000E94D9222DE230E040E050E00E947E2240
:10423000CA01B901A70196010E94AF2228EE33E01E
:1042400040E050E00E947E2269017A01C3010E9491
:10425000690910937502009374020E944B05E09166
:104260002302AB01BC010E8D1F8D28A139A1401B7B
:10427000510B620B730B97018601F2E0369527957F
:1042800017950795FA95D1F7C00ED11EE21EF31EC1
:104290008E2FC416D506E606F70678F48160809363
:1042A000230281E00E949B0664E670E080E090E0DB
:1042B0000E9419050E94F6074ACD8E7FF0CF10921A
:1042C00032021092310243CD833011F00C94EF157D
:1042D000809183028F3F11F40C94AE158F5F809311
:1042E00083020C94AE1523E0E22EF12C80E00E94B4
:1042F000121149CA94E0E92EF12CF8CF1092340241
:104300001092330281E0809335020E944B056AA32C
:104310007BA38CA39DA310E0EE24E394F12CD12C7D
:10432000C12C71CA8F929F92AF92BF92CF92DF92AF
:10433000EF92FF92CF93DF93EC01688179818A81BC
:104340009B81611571058105910521F464E279ED88
:104350008BE597E02DE133EF41E050E00E944C22E5
:1043600049015A019B01AC01A7EAB1E40E946B220A
:104370006B017C01ACEEB4EFA50194010E9479229F
:10438000C60ED71EE81EF91EF7FE06C081E0C81A49
:10439000D108E10880E8F80AC882D982EA82FB8263
:1043A000C701B6019F77DF91CF91FF90EF90DF902B
:1043B000CF90BF90AF909F908F9008958F929F92D3
:1043C000AF92BF92CF92DF92EF92FF92609109017C
:1043D00070910A0180910B0190910C01611571059A
:1043E0008105910521F464E279ED8BE597E02DE1FB
:1043F00033EF41E050E00E944C2249015A019B01F9
:10440000AC01A7EAB1E40E946B226B017C01ACEE27
:10441000B4EFA50194010E947922C60ED71EE81EB2
:10442000F91EF7FE06C081E0C81AD108E10880E84D
:10443000F80AC0920901D0920A01E0920B01F092B1
:104440000C01C701B6019F77FF90EF90DF90CF90EE
:10445000BF90AF909F908F900895609309017093E3
:104460000A0180930B0190930C010895F999FECFF6
:1044700092BD81BDF89A992780B50895262FF999A4
:10448000FECF1FBA92BD81BD20BD0FB6F894FA9A37
:10449000F99A0FBE01960895052E97FB1EF400941D
:1044A0000E94632257FD07D00E947E2207FC03D0A2
:1044B0004EF40C94632250954095309521953F4FD2
:1044C0004F4F5F4F089590958095709561957F4F00
:1044D0008F4F9F4F08950E94A022A59F900DB49FDB
:1044E000900DA49F800D911D11240895B7FF0C9489
:1044F0006B220E946B22821B930B0895A1E21A2E5D
:10450000AA1BBB1BFD010DC0AA1FBB1FEE1FFF1F77
:10451000A217B307E407F50720F0A21BB30BE40BC7
:10452000F50B661F771F881F991F1A9469F760950E
:104530007095809590959B01AC01BD01CF010895C8
:10454000A29FB001B39FC001A39F700D811D1124D4
:10455000911DB29F700D811D1124911D0895DB01E5
:104560008F939F930E946B22BF91AF91A29F800D6A
:10457000911DA39F900DB29F900D1124089597FB5C
:10458000072E16F4009407D077FD09D00E94E02290
:1045900007FC05D03EF4909581959F4F0895709546
:1045A00061957F4F0895EE0FFF1F0590F491E02D68
:1045B00009940E94A022B7FF0895821B930B0895CF
:1045C000AA1BBB1B51E107C0AA1FBB1FA617B70739
:1045D00010F0A61BB70B881F991F5A95A9F7809555
:1045E0009095BC01CD0108955058BB27AA270E9481
:1045F0000C230C9478230E946A2338F00E947123C4
:1046000020F039F49F3F19F426F40C9467230EF43C
:10461000E095E7FB0C946123E92F0E94892358F36E
:10462000BA17620773078407950720F079F4A6F597
:104630000C94AB230EF4E0950B2EBA2FA02D0B019A
:10464000B90190010C01CA01A0011124FF27591BD7
:1046500099F0593F50F4503E68F11A16F040A22FDD
:10466000232F342F4427585FF3CF4695379527954E
:10467000A795F0405395C9F77EF41F16BA0B620B4D
:10468000730B840BBAF09150A1F0FF0FBB1F661F94
:10469000771F881FC2F70EC0BA0F621F731F841FD7
:1046A00048F4879577956795B795F7959E3F08F0FD
:1046B000B0CF9395880F08F09927EE0F97958795BF
:1046C000089597F99F6780E870E060E008959FEF94
:1046D00080EC089500240A94161617061806090699
:1046E000089500240A941216130614060506089568
:1046F000092E0394000C11F4882352F0BB0F40F4F0
:10470000BF2B11F460FF04C06F5F7F4F8F4F9F4F2F
:10471000089557FD9058440F551F59F05F3F71F0B1
:104720004795880F97FB991F61F09F3F79F0879518
:104730000895121613061406551FF2CF4695F1DFA1
:1047400008C0161617061806991FF1CF8695710531
:10475000610508940895E894BB2766277727CB0165
:1047600097F908950E94B72308F48FEF0895990FE1
:104770000008550FAA0BE0E8FEEF16161706E8072B
:10478000F907C0F012161306E407F50798F0621B4C
:10479000730B840B950B39F40A2661F0232B242B21
:1047A000252B21F408950A2609F4A140A6958FEF40
:0A47B000811D811D0895F894FFCFCC
:1047BA00FFFFFFFF01FFFF0A0001000000FFFFFFEC
:1047CA00FF0100000000000000000000DB05D0052A
:1047DA00EC05B905C9050203BA05306163633735CB
:0247EA00650068
:00000001FF
