:100000000C94A2020C94CA020C94CA020C94CA0268
:100010000C94CA020C94CA020C94CA020C94CA0230
:100020000C94CA020C94CA020C94CA020C94CA0220
:100030000C94CA020C94CA020C94CA020C94CA0210
:100040000C9416130C94CA020C94CA020C94CA02A3
:100050000C94CA020C94CA020C94CA020C94CA02F0
:100060000C9460130C94CA0211248DEF98E09EBF8B
:100070008DBF84B78EBB14BEE0E6F0E088E18083DC
:10008000108211E0A0E0B1E0E4E6FFE702C00590D5
:100090000D92AA31B107D9F721E0AAE1B1E001C080
:1000A0001D92AE39B207E1F780E384B92D9AF0E0F2
:1000B000E0E085919491019611F410920001F39B78
:1000C00010C08091FE089091FF0898279F3F59F437
:1000D000982F907F903A39F48F708F3029F08F5F8E
:1000E00003C080E001C081E0982F906A9093FE08E1
:1000F00090959093FF08833010F01092000188E0F3
:100100008BBD85E085BD8AB187788AB98BB1886758
:100110008BB986E900008150E9F789B183FB882714
:1001200080F991E089274C9B82604D9B84604E9BB7
:1001300088608F5F880F8093BA0084E48093BC004E
:1001400093E0E92ECDE9D1E001E025E0F22E31E1A6
:10015000D32E4DE0C42EDCC08091BC0087FFBBC015
:100160001091BC008091B900887F803A09F46BC07F
:1001700048F48038A1F0883809F45CC0803609F072
:10018000A6C009C0883BD9F0803C09F49DC0883ADC
:1001900009F09DC011C010921A012C9A99C060916B
:1001A000BB0080911A0191E0980F90931A01BED084
:1001B00081118EC01F7B8CC010921A012C9A8091E5
:1001C0001A0191E0980F90931A0190919D0192313C
:1001D00051F0923201F1913049F58F70E82FF0E043
:1001E000E75FFE4F08C06C2DE5D0983030F4E92F62
:1001F000F0E0EF5FFE4F90811AC09C3041F0292F54
:100200002850330BF901B0925700949110C090918F
:10021000FE089F700CC0E0911B01F0911C019491AD
:100220003196F0931C01E0931B0101C09FEF909366
:10023000BB004EC06091BB0080911A0191E0980F05
:1002400090931A0173D080919D01823409F03AC0D5
:100250001F7B812F80688093BC0080911B0190914F
:100260001C0181153CE7930768F5FC01E0925700FB
:10027000E89507B600FCFDCFADE1B1E0AC014D5112
:1002800051402C91FA01EA0FFB1F11963C911197F6
:10029000090100935700E89511241296CA17DB074D
:1002A00081F79C0120583F4F30931C0120931B0184
:1002B000FC01F0925700E89507B600FCFDCFD09204
:1002C0005700E89510921A012C98106401C0106133
:1002D00010681093BC00A89B1DC0F6BC85B190E2CD
:1002E000892785B980910001882389F08AB58F5FBD
:1002F0008ABD883060F01ABC8BB5823018F081500E
:100300008BBD05C0813019F481E280939D0105BB4E
:1003100089E0B82E80919D01813209F01DCF1092A5
:10032000BC0015BC15B8F0E0E0E00995813069F03B
:1003300018F0843060F522C0633028F48AEE8BBD5B
:1003400060939D0135C091E212C090919D01913062
:1003500019F0923049F02AC0603841F581E280936B
:100360009D011092FE0822C0611104C092E1909399
:100370009D01089592E26130D1F318C080E0909120
:100380001B01862B90931C0180931B0111C090913F
:100390009D01923259F48450E82FF0E0E35EFE4F65
:1003A00060838F3728F082E480939D0180E0089578
:1003B00081E00895991B79E004C0991F961708F011
:1003C000961B881F7A95C9F780950895011E950F91
:1003D000807C0000005346030FFFFFFFFFFFFFFF7D
:1003E000FFFFFFFFFF00FFFFFC010A0167BFE89569
:1003F00077B770FDFDCF11240895FFFFFFFFFFFFCA
:10040000FFFFFFFFFFFFFFFFFFFFFFFFFFFFFFFFFC
:10041000FFFFFFFFFFFFFFFFFFFFFFFFFFFFFFFFEC
:10042000FFFFFFFFFFFFFFFFFFFFFFFFFFFFFFFFDC
:10043000FFFFFFFFFFFFFFFFFFFFFFFFFFFFFFFFCC
:10044000FFFFFFFFFFFFFFFFFFFFFFFFFFFFFFFFBC
:10045000FFFFFFFFFFFFFFFFFFFFFFFFFFFFFFFFAC
:10046000FFFFFFFFFFFF01FEFC010A0167BFE895E8
:1004700077B770FDFDCF11240895FFFFFFFFFFFF49
:10048000FFFFFFFFFFFFFFFFFFFFFFFFFFFFFFFF7C
:10049000FFFFFFFFFFFFFFFFFFFFFFFFFFFFFFFF6C
:1004A000FFFFFFFFFFFFFFFFFFFFFFFFFFFFFFFF5C
:1004B000FFFFFFFFFFFFFFFFFFFFFFFFFFFFFFFF4C
:1004C000FFFFFFFFFFFFFFFFFFFFFFFFFFFFFFFF3C
:1004D000FFFFFFFFFFFFFFFFFFFFFFFFFFFFFFFF2C
:1004E000FFFFFFFFFFFF01FE0000000024002700C8
:1004F0002A0000000000250028002B00000000005A
:100500002300260029000404040404040404020255
:100510000202020203030303030301020408102082
:10052000408001020408102001020408102000008D
:1005300000080002010000030407000000000000A2
:1005400000007F1411241FBECDEFD8E0DEBFCDBF69
:1005500011E0A0E0B1E0E4E4F9E402C005900D92FE
:10056000A633B107D9F723E0A6E3B1E001C01D929D
:10057000A230B207E1F712E0C2EAD2E004C021974C
:10058000FE010E949823C13AD107C9F70E94C814FE
:100590000C94A0240C940000E091F301F091F4017C
:1005A000309729F01092D5021092D4020994089540
:1005B000CF93DF93AC01E091F101F091F20130971C
:1005C000F1F09091D7028091D6029817C0F090E098
:1005D000292F30E02617370754F4D901A055BD4F15
:1005E000240F351FE90128812C939F5FF1CF1092D2
:1005F000D7026093D602CB01DF91CF910994DF91AE
:10060000CF9108959091D7028091D6022FEF3FEFBE
:10061000981748F4E92FF0E0E055FD4F208130E0D5
:100620009F5F9093D702C90108959091D70280915E
:10063000D6022FEF3FEF981748F4E92FF0E0E0558E
:10064000FD4F208130E09F5F9093D702C90108954C
:10065000833081F028F4813099F08230A9F0089538
:100660008730A9F08830C9F08430B1F480918000DF
:100670008F7D03C0809180008F77809380000895E4
:1006800084B58F7784BD089584B58F7DFBCF80912D
:10069000B0008F778093B00008958091B0008F7D77
:1006A000F9CFCF93DF93282F30E0F901E25DFA4FC5
:1006B0008491F901E65EFA4FD491F901EA5FFA4FAD
:1006C000C491CC23A1F081110E942803EC2FF0E00B
:1006D000EE0FFF1FE450FB4FA591B491EC91ED2379
:1006E00081E090E009F480E0DF91CF91089580E00F
:1006F00090E0FACF1F93CF93DF93282F30E0F901DA
:10070000E25DFA4F8491F901E65EFA4FD491F90166
:10071000EA5FFA4FC491CC23A9F0162F81110E94F1
:100720002803EC2FF0E0EE0FFF1FEE50FB4FA591DA
:10073000B4918FB7F894EC91111108C0D095DE23D5
:10074000DC938FBFDF91CF911F910895DE2BF8CFFF
:10075000CF93DF93EC018091EC029091ED02029730
:1007600049F4C130D10509F43BC06CF560E0209735
:1007700009F437C08091EC029091ED02049749F49E
:10078000C130D10509F45CC00CF037C0209709F4E2
:1007900042C08091EC029091ED02059709F0E5C00E
:1007A000CA30D10508F0E1C0FE01E752FC4F0C94BD
:1007B00098233804440455046B04860488048F0489
:1007C0009B04AC04B304C230D105A9F060E0C3308F
:1007D000D10581F68091F0020E947A0360E006C0A4
:1007E00061E08091F0020E947A0361E08091F20260
:1007F0000E947A03BFCF61E0EDCFC230D10539F15D
:10080000C330D10509F0C5CF61E08091F0020E94AC
:100810007A0360E022C061E08091F0020E947A03D6
:1008200060E08091F2020E947A0361E08091F4021C
:100830000E947A0360E08091F6020E947A03A9CFB9
:1008400060E08091F0020E947A0361E0EACF60E00C
:100850008091F0020E947A0361E08091F2020E948E
:100860007A0360E08091F4020E947A0361E0E3CFB2
:1008700060E08091F0020E947A0361E08091F202D0
:100880000E947A0361E00BC060E08091F0020E9458
:100890007A0361E08091F2020E947A0360E0809125
:1008A000F4020E947A0360E010C060E08091F002E0
:1008B0000E947A0361E08091F2020E947A0360E074
:1008C0008091F4020E947A0361E08091F6020E9416
:1008D0007A0361E015C060E08091F0020E947A0323
:1008E00061E08091F2020E947A0360E08091F4025C
:1008F0000E947A0361E08091F6020E947A0360E030
:100900008091F802DF91CF910C947A0361E0E4CFFB
:1009100061E08091F0020E947A0360E0E2CF61E042
:100920008091F0020E947A0360E08091F2020E94BE
:100930007A0361E0DBCF61E08091F0020E947A03EC
:1009400060E08091F2020E947A0361E08091F402FB
:100950000E947A0360E0CFCF61E08091F0020E94B4
:100960007A0360E08BCF60E0F8CFDF91CF910895FC
:10097000CF93DF9390E0FC01E65EFA4F24918A5F0B
:100980009A4FFC0184918823C9F090E0880F991F49
:10099000FC01E851FB4FA591B491FC01EE50FB4FD7
:1009A000C591D49161110DC09FB7F8948C91209599
:1009B00082238C938881282328839FBFDF91CF9146
:1009C0000895623051F49FB7F8943C91822F80953E
:1009D00083238C93E8812E2BEFCF8FB7F894EC9183
:1009E0002E2B2C938FBFEACF3FB7F8948091AC02A7
:1009F0009091AD02A091AE02B091AF0226B5A89B36
:100A000005C02F3F19F00196A11DB11D3FBFBA2FA0
:100A1000A92F982F8827BC01CD01620F711D811D60
:100A2000911D42E0660F771F881F991F4A95D1F7E5
:100A300008958F929F92AF92BF92CF92DF92EF92E2
:100A4000FF924B015C010E94F4046B017C010E9447
:100A5000F4046C197D098E099F09683E7340810575
:100A60009105A8F321E0821A9108A108B10888EE47
:100A7000C80E83E0D81EE11CF11C81149104A1046E
:100A8000B10429F7FF90EF90DF90CF90BF90AF9027
:100A90009F908F9008952FB7F8946091A80270915D
:100AA000A9028091AA029091AB022FBF08952091D4
:100AB000A601260F3327331F21323105ECF4209194
:100AC000CA01FC0190E080E0243069F082E00895E2
:100AD000A091A6012191AC014A575E4FA40FB52FFA
:100AE000B11D2C930196861798F38091A601680F8B
:100AF0006093A60180E0089581E008951092CA01F4
:100B000081E08093CC011092CB0161E082E10E94F0
:100B10007A0361E083E10E947A03E9EBF0E08081EF
:100B20008E7F808380818D7F808388E48093B8006E
:100B300085E48093BC000895CF93C82F1092D7020C
:100B40001092D6021092D5021092D4020E947E0515
:100B50008CEC92E09093D1028093D00288ED92E0E9
:100B60009093D3028093D202CC0FC093BA00CF915E
:100B700008950895E091D7028091D602E81730F4E5
:100B8000F0E0E055FD4F808190E008958FEF9FEFFA
:100B900008958091D6029091D702891B990B0895F0
:100BA000CF93DF93CB01EA01642F0E945705CE015A
:100BB000DF91CF910895CF93DF931F92CDB7DEB72A
:100BC000698361E0CE0101960E94570581E090E0C3
:100BD0000F90DF91CF91089590E080E00895CF933A
:100BE000DF93CDB7DEB72B970FB6F894DEBF0FBEFD
:100BF000CDBFA0917E01F0917F01E0917C017091C9
:100C00007D0120910501309106012F3F320721F42B
:100C100020912602309127026091040150914502F3
:100C20004091460280910202883008F087E0880FE8
:100C300090912502917F892BA983FA83EB837C8392
:100C40002D833E836F83588749878A87FE013196BB
:100C50009E01255F3F4FDF0180E09D918927A2170C
:100C6000B307D9F793E989278B87F89490E080E060
:100C70002191DC01AF58BE4F2C9301968B3091052A
:100C8000B9F778942B960FB6F894DEBF0FBECDBFA0
:100C9000DF91CF910895CF93DF93CDB7DEB728973B
:100CA0000FB6F894DEBF0FBECDBF50912602409123
:100CB000270280910201909103018F3F980711F460
:100CC000852F942F60918002709181022091000104
:100CD000309101012F3F320711F430E020E05983B9
:100CE0004A838B839C836D832E833F83FE013196E1
:100CF0009E01285F3F4FDF0180E09D918927A21769
:100D0000B307D9F79CE389278887F89490E080E0BF
:100D10002191DC01A759BE4F2C9301968830910593
:100D2000B9F7789428960FB6F894DEBF0FBECDBF02
:100D3000DF91CF9108951F93CF93DF9300D0CDB76C
:100D4000DEB7182F8EE480937C0062E070E080E0D4
:100D500090E00E94190580917A00806480937A0067
:100D600080917A0086FDFCCF209178003091790047
:100D70002115310531F5109227021092260220919B
:100D8000FE023091FF022115310511F422E033E01B
:100D9000CE010196821B930B97FF02C090E080E08A
:100DA00020910001309101018217930720F4909364
:100DB0000101809300010F900F90DF91CF911F915F
:100DC000089550E040E064EB7BE281E190E00E9416
:100DD00043232115310581E04807510508F18FEFC4
:100DE0009FEF909327028093260220910201309179
:100DF00003018217930720F490930301809302016B
:100E0000112309F4BCCF209105013091060182170E
:100E1000930708F0B4CF9093060180930501AFCFFC
:100E2000C9013093270220932602DFCF8F929F9231
:100E3000AF92BF92EF92FF920F931F93CF93DF93E6
:100E4000CDB7DEB72F970FB6F894DEBF0FBECDBF7C
:100E50000091430280913F02811102608090A002C4
:100E60009090A102E0904102F09042021091400265
:100E70002FEF882399F160913D0270913E0290E03E
:100E800080E0092C000CAA08BB08681979098A09B6
:100E90009B0926EF37E040E050E00E9411239B01C0
:100EA000AC0157FF04C02A50384F4F4F5F4FADE29F
:100EB000B0E00E94302365507C4F8F4F9F4F26EF4C
:100EC00037E040E050E00E944323CA01B9012DE21F
:100ED00030E040E050E00E944323262F2A870B8712
:100EE0001C87C70131E8E3163FEFF30614F481E8ED
:100EF0009FEF8038910514F08FE790E08D871E8674
:100F000067EB61276827602762276F8780911D0242
:100F1000898390911E0280911F029A838B83909106
:100F20002002809121029C838D83909122028091E6
:100F300023029E838F83809124028887FE0131964D
:100F40009E01275F3F4FDF0180E09D918927A21717
:100F5000B307D9F79CE589278987F894BE01665FB6
:100F60007F4F90E080E0DB014D91BD019C012D5948
:100F70003E4FD9014C93019686309105A1F790E040
:100F800080E02191DC01A65ABE4F2C930196893056
:100F90009105B9F778942F960FB6F894DEBF0FBE7F
:100FA000CDBFDF91CF911F910F91FF90EF90BF9038
:100FB000AF909F908F90089581E090E090933C02D5
:100FC00080933B02609159018BE00E947A0360910B
:100FD00058018AE00E947A036091570189E00E94DB
:100FE0007A036091560188E00C947A038BE00E94AA
:100FF000510321E0892B09F420E0209359018AE074
:101000000E94510321E0892B09F420E0209358012C
:1010100089E00E94510321E0892B09F420E020930C
:10102000570188E00E94510321E0892B09F420E058
:101030002093560160E08BE00E947A0360E08AE032
:101040000E947A0360E089E00E947A0360E088E011
:101050000E947A0310923C0210923B0264E670E018
:1010600080E090E00C9419054F925F926F927F920E
:101070008F929F92AF92BF92CF92DF92EF92FF92A8
:101080000F931F93CF93DF936C017C0197FF04C0F4
:10109000EE24FF24E81AF90A1C141D040CF063C0A6
:1010A00081E090E09093E5028093E402C4E0D0E018
:1010B0000AE010E0E114F10409F472C00E94F404A3
:1010C0008090FA029090FB02A090FC02B090FD028A
:1010D0002B013C01481859086A087B088090E602F9
:1010E0009090E702A090E802B090E90248145904F9
:1010F0006A047B04F8F26093FA027093FB02809317
:10110000FC029093FD028091EE029091EF022091FB
:10111000E4023091E5022130310571F5019690939A
:10112000EF028093EE022091EA023091EB028217E7
:10113000930721F41092EF021092EE0221E0E21ADE
:10114000F1088091EE029091EF022091EC02309133
:10115000ED02B8012530310509F0BE010E9484235B
:101160000E94A803A7CFC114D10409F49FCF109205
:10117000E5021092E4029ACF892B41F48091EA02B1
:101180009091EB029093EF028093EE028091EE0239
:101190009091EF0201979093EF028093EE02CECFF1
:1011A0000D2C000CEE08FF08D701C601F7FE07C0A2
:1011B00088279927DC018C199D09AE09BF09209168
:1011C0006E0230916F02BC01CD01620F731F811D51
:1011D000911D26EF422E27E0522E612C712CA30187
:1011E00092010E94432380906A0290906B02A0902B
:1011F0006C02B0906D02820E931EA41EB51E8092EA
:101200006A0290926B02A0926C02B0926D0270938F
:101210006F0260936E0280913D0290913E02A701A1
:101220009601280F391F411D511DCA01B901A301A3
:1012300092010E94112397FF04C06A50784F8F4F8C
:101240009F4F70933E0260933D0280917002909197
:101250007102A0917202B091730288159905AA05D6
:10126000BB0531F1F89480916A0290916B02A091D4
:101270006C02B0916D028093700290937102A09302
:101280007202B0937302789480911C02811110C095
:1012900080911402909115028F3F910519F010F082
:1012A0008FEF90E0809304011092150210921402C7
:1012B000DF91CF911F910F91FF90EF90DF90CF9032
:1012C000BF90AF909F908F907F906F905F904F9066
:1012D00008954F925F926F927F929F92AF92BF92CA
:1012E000CF92DF92EF92FF920F931F93CF93DF93F2
:1012F0006C0187E00E945103BB24B394892B09F051
:10130000B12CD0E0C0E0A12C99249394CC15DD053C
:101310000CF092C0A89520E039EE43E95EE36091BD
:1013200018027091190280911A0290911B020E947A
:10133000BA232B013C0120E030E040E85FE30E944B
:10134000772418164CF140921802509219026092BC
:101350001A0270921B029DE2E92EF12C10E000E0CF
:1013600081E090E00E94340887E00E945103892BBD
:1013700009F05FC021E02A1508F0A39482E0A812CA
:1013800004C0BB20E9F0BB24B3940F5F1F4FE016ED
:10139000F10631F72196BACF20E030E040E85FE374
:1013A000C301B2010E94B92360931802709319021D
:1013B00080931A0290931B028EE2E82EF12CCECF7E
:1013C00080911402909115028F3F980729F00196A1
:1013D0009093150280931402B0903F0280913D02D9
:1013E00090913E028C3F23E0920710F0865F974079
:1013F00010923E0210923D0290923F02BB2019F2E1
:101400009C0197FF04C022273327281B390B283162
:1014100031050CF4B8CF209140022F3F19F02F5F17
:1014200020934002909342028093410290924302A3
:10143000ACCFA12CB12CA9CFDF91CF911F910F91EF
:10144000FF90EF90DF90CF90BF90AF909F907F90F4
:101450006F905F904F9008958F929F92AF92BF923E
:10146000CF92DF92EF92FF920F931F93CF93DF9370
:10147000CDB7DEB76D970FB6F894DEBF0FBECDBF08
:101480008091030210920302209152013091530186
:101490002F5F3F4F30935301209352018130B9F5B4
:1014A0004DE251E0FE013196CF01BF01DA012D91ED
:1014B000AD01DC012D93CD01B1E045335B07B1F700
:1014C00081E089879F01275F3F4F80E091918927C5
:1014D0002E173F07D9F79BE489278A874AE050E017
:1014E00088ED92E00E94D0056D960FB6F894DEBFAD
:1014F0000FBECDBFDF91CF911F910F91FF90EF9065
:10150000DF90CF90BF90AF909F908F9008958230E2
:1015100081F42091A0023091A10229833A838DE1C8
:10152000822783278B8343E050E0BE016F5F7F4FAC
:10153000D7CF843081F42091550280917E02909122
:101540007F02211102C08FEF90E0898380958A830A
:1015500042E050E0EACF853001F5409170025091B1
:10156000710260917202709173024983852E962EEA
:10157000A72EBB248A826B01EE24FF24CB82872F07
:101580009927AA27BB278C8325EA242728252C25E1
:1015900082278D8345E050E0C8CF46E050E063E607
:1015A00071E0863009F49CCF49E050E06AE571E0D3
:1015B000873009F495CF48E050E069E671E0883063
:1015C00009F48ECF8930E1F5FE01319690E080E09C
:1015D000DC01AF58BE4F2C91219301968B309105C1
:1015E000B9F780915C0290915D02A0915E02B0918A
:1015F0005F02409150015091510120915201309170
:101600005301609112028C879D87AE87BF87488BFC
:10161000598B2A8B3B8B6C8BFE013C9621E030E092
:101620002C0F3D1F2C5E3F4F80E0919189272E1794
:101630003F07D9F796EC89278D8B45E150E075CFB0
:101640004FE050E061E471E08A3009F449CF4BE0AB
:1016500050E066E371E08B3009F442CF833009F04B
:1016600061C020913B0230913C0281E0232B09F4C0
:1016700080E0909117029111826090911602911171
:1016800084609091F00191118061909155029111C7
:10169000806220915401309155018E8B8091F70129
:1016A0008F8B8091F601888F8091F501898F8091D1
:1016B0005602909157029A8F80915602909157024C
:1016C0008B8F809176028C8F84E0369527958A9552
:1016D000E1F72F3F310519F010F02FEF30E02D8F9B
:1016E0008E010A5E1F4FFE0131969E01225E3F4F22
:1016F000CF01BF01D8014D918D01DC014D93CD018A
:1017000002171307B9F79F01285F3F4F80E09191BF
:1017100089272E173F07D9F79EE78927898749E050
:1017200050E0DECE60913B0270913C0288ED92E089
:101730000E94DB05D9CE9F92AF92BF92CF92DF92EB
:10174000EF92FF920F931F93CF93DF9300D000D0BF
:10175000CDB7DEB7109203022091500130915101B4
:101760002F5F3F4F309351012093500118161906F7
:101770000CF084C16C0181E0809353020E94150338
:101780007C018601015011098D3291050CF44DC187
:10179000B82E80918F028470A82E82E9E81641F05D
:1017A0008E1568F190E8E91619F0E0E9EE122BC009
:1017B0000F3F110511F00CF04CC0902E01151105D2
:1017C00039F00E941503860102501109911044C09E
:1017D000AA20C9F0F0E8BF16B1F0809176028F3FE1
:1017E00029F0809176028F5F8093760210161106A1
:1017F0000CF044C10E94150301501109F7CF8BE68C
:101800008E0D8430A8F28E2D8058990BFC014B97D9
:1018100008F077C0E25FF34F0C949823350C410C2D
:10182000450C470C490C4B0C4D0C4F0C510C530CF8
:10183000550C570C810C810C810C810CBE0C940C46
:10184000350C5D0CC20CD70CDB0CDF0C590CE30C17
:10185000FC0C99249A94B5CF41E09412BECF9E2DF2
:101860009095891709F4CFCFB8CF81E08093A50276
:10187000101611060CF002C10E9415030150110947
:10188000F7CF81E080930302F3CF82E0FBCF83E0C8
:10189000F9CF84E0F7CF85E0F5CF86E0F3CF87E09E
:1018A000F1CF88E0EFCF89E0EDCF8AE0EBCF8BE09E
:1018B000E9CF81E080936502DBCF043011050CF1A4
:1018C000FE0131967F016E01F5E0CF0ED11C0E9422
:1018D0001503F70181937F01CE16DF06C1F704508F
:1018E000110989819A819C01209530954B815C81F9
:1018F0004217530731F49C012A50384F2D3E3F4088
:1019000058F0809176028F3F09F4B2CF8091760231
:101910008F5F80937602ACCF9093A3028093A20254
:1019200081E08093A402A4CF802F0F3F110511F016
:101930000CF08FEFF82E80E0E12C1016110654F415
:101940000E941503E82E0130110561F00E94150375
:101950000250110941E0F41209C0A110D2CFE09267
:101960007D0286CF80E010E000E0F4CF92E0F91233
:10197000C8CF9E2D90958913C4CFF1CF81E080937D
:10198000870276CF023011050CF4BBCF0E941503FD
:10199000F82E0E941503025011099F2D909598135F
:1019A000B0CFF092770281E08093780261CF81E03E
:1019B000809375025DCF81E08093640259CF81E00E
:1019C0008093740255CF023011050CF49ACF0E9417
:1019D0001503F82E0E941503025011099F2D9095B2
:1019E00098138FCF8F2D827F09F08BCFF0929A02C0
:1019F00081E080939B023CCF023011050CF481CF33
:101A00000E941503F82E0E941503025011098F251C
:101A10008F3F09F076CF8F0D823008F072CFF092B1
:101A2000880281E08093890223CFE2E0CE16D104C0
:101A300089F04CF0809176028F3F29F080917602F8
:101A40008F5F8093760241E0C41AD108B9F00E94FA
:101A50001503F9CF90938102809380020E941503B1
:101A60008D30910514F08CE090E01816190614F0F2
:101A700081E090E090930801809307010F900F9010
:101A80000F900F90DF91CF911F910F91FF90EF90EA
:101A9000DF90CF90BF90AF909F9008950F931F93CA
:101AA000CF93DF9300D000D0CDB7DEB7DC01F9993A
:101AB000FECFF894F999FECF89E0E1E0F0E0809361
:101AC00057003491F0E0E0E0809357002491E3E088
:101AD000F0E0809357009491E2E0F0E080935700AB
:101AE00084917894AE014F5F5F4F10E000E0F80101
:101AF0006491FA016193AF010F5F1F4F043011052C
:101B0000B1F7498124132BC04A81341328C04B817B
:101B1000841325C04C81941322C014961C921497F0
:101B2000F999FECFF894F999FECF81E2F0E0E0E078
:101B300080935700E4911596EC931597E2E0F0E05E
:101B400080935700E4911696EC931697E4E0F0E04A
:101B500080935700849117968C9378940DC041E040
:101B600014964C9314973C9311962C9311971296BC
:101B70009C93129713968C930F900F900F900F9049
:101B8000DF91CF911F910F9108950F931F93CF93E2
:101B9000DF93CDB7DEB72F970FB6F894DEBF0FBE39
:101BA000CDBF10918E0290918F0280914402B0912E
:101BB0009002A0919102F0919202E09193027091B3
:101BC0009402609195025091960240919702309153
:101BD00098022091990201E009831A839B8387FD73
:101BE00037C090E0833008F090E8892B8C83BD8368
:101BF000AE83FF83E88779876A875B874C873D8759
:101C00002E87FE0131969E01215F3F4FDF0180E06C
:101C10009D918927A217B307D9F79EE689278F8759
:101C2000F89490E080E02191DC01AF5BBE4F2C93F3
:101C300001968F309105B9F778942F960FB6F894E6
:101C4000DEBF0FBECDBFDF91CF911F910F910895E1
:101C50008FE7CACFBF92CF92DF92EF92FF920F939E
:101C60001F93CF93DF93C82FD0E0C850DF4FD69596
:101C7000DC2FCC27D795C79550E040E063E0CE013C
:101C8000E0ECFFE309958E0108591B4790E4B92E5B
:101C900080E09CE79C0128563040690120ECE22E50
:101CA0002FE3F22EF80144913196E4915E2F61E02A
:101CB000C601800F911FF7010995BA940E5F1F4F5F
:101CC000B110F0CF50E040E065E0CE01F70109959A
:101CD00050E040E061E1CE01F701DF91CF911F912B
:101CE0000F91FF90EF90DF90CF90BF900994E0E0CC
:101CF000FCE7859194918C30944939F4E2E0FCE75B
:101D00002591349181E0232B09F080E00895FF9222
:101D10000F931F93CF93DF9383E0F82EC0ECDFE3A4
:101D200050E040E063E080E09CE7FE0109954CE074
:101D300054E961E080E09CE7FE01099550E040E055
:101D400061E082E09CE7FE01099504E01CE74FEFAB
:101D50005FEF61E0C801FE0109950E5F1F4F00387B
:101D6000FCE71F07A1F750E040E065E080E09CE75A
:101D7000FE01099550E040E061E180E09CE7FE0152
:101D800009950E94770E811103C0FA94F110C8CF13
:101D9000DF91CF911F910F91FF90089520E8829FCE
:101DA000C0011124AC0140585F4F8417950761F0C2
:101DB000FC01F4582491FC01E859FF4FE49101968D
:101DC0002E1799F380E0089581E008958F929F92F5
:101DD000AF92BF92CF92DF92EF92FF92C12CD12CA3
:101DE000760130E020E04FEF5FEFBA01F901F458DF
:101DF000E4914E27E8E04A015B01B694A7949794DA
:101E00008794417055276627772770956095509580
:101E100041955F4F6F4F7F4F40725378687B7D7E57
:101E2000482559256A257B25E15029F72F37E3E01E
:101E30003E0731F46A017B01C094D094E094F094A1
:101E40002F5F3F4F2115F4E03F0781F6FC01C4826C
:101E5000D582E682F78240955095609570954083D3
:101E6000518362837383E0E0FCE725913491FC01A8
:101E700031872087E2E0FCE725913491FC0133872C
:101E80002287FF90EF90DF90CF90BF90AF909F9010
:101E90008F9008950F931F93CF93DF93CDB7DEB745
:101EA000A5970FB6F894DEBF0FBECDBFCE010F963B
:101EB0000E94E60E8EE0EDE0F1E0DE011196019069
:101EC0000D928A95E1F7CE0101960E944E0D4F8545
:101ED000588969897A8949875A876B877C8784E022
:101EE000403729E352072BE6620720E5720709F421
:101EF00042C0483686EA580782E2680784EE7807CF
:101F000009F47BC0443599E259079CE1690798E0E0
:101F1000790709F472C04F3B2DE352072EE56207A3
:101F200026EC720709F469C04D3D8AE3580787E142
:101F3000680788E1780709F462C082E04F3E99EBB8
:101F4000590798EF690792EB7907A9F08F89988D67
:101F50008C30944929F4898D9A8D892B09F451C0CC
:101F600081E00B891C892D893E890434194E244255
:101F7000354209F080E08D87909113029E872D8174
:101F8000222309F440C039813B8F3A813C8F3B8149
:101F90003D8F3C813E8F4F8F58A369A37AA38BA3BB
:101FA00080E0211101C080E8982B9CA3FE017B9664
:101FB0009E012B5D3F4FDF0180E09D9189272A170D
:101FC0003B07D9F79AE589278DA3F89490E080E044
:101FD0002191DC01AA5CBE4F2C9301968B309105B8
:101FE000B9F77894A5960FB6F894DEBF0FBECDBFB3
:101FF000DF91CF911F910F91089585E0BCCF81E0D3
:10200000BACF83E0B8CF3FEF3B8F3E813C8F3F811B
:102010003D8F3885BFCFCF93DF93CDB7DEB72C97F9
:102020000FB6F894DEBF0FBECDBFCE0101960E9461
:10203000E60E89819A81AB81BC81803729E39207C2
:102040002BE6A20720E5B20709F443C0883626EA4A
:10205000920722E2A20724EEB207F1F1843529E2C9
:1020600092072CE1A20728E0B207B1F18F3B2DE3E4
:1020700092072EE5A20726ECB20771F18D3D2AE307
:10208000920727E1A20728E1B20741F18F3E994B61
:10209000A84FB24B29F189859A858C30944921F457
:1020A0008B859C85892BF1F081E090E04D815E81EC
:1020B0006F8178854434594E6442754209F080E05E
:1020C0002C960FB6F894DEBF0FBECDBFDF91CF9137
:1020D000089584E090E0F4CF85E0FCCF81E0FACF72
:1020E00082E0F8CF83E0F6CFCF93DF93DFB7F894A9
:1020F000F999FECF80E88093BC000E94770E811191
:1021000002C00E94870EC1E0811106C086E090E007
:10211000DFBFDF91CF910895C730A1F08C2F0E94CF
:10212000CE0E811106C08C2F0E942A0E8C2F0E9489
:10213000CE0ECF5FE9CF0E940B10049739F782E0F3
:1021400090E0E6CF80E00E942A0E80E00E94CE0E52
:102150008111F1CF0E94870ED9CF282FFC0180E09A
:10216000919189279E2F921B9617D0F3842708956B
:10217000CF93DF93FC01EB01808188838181898388
:1021800082818A8383818B8384818C8385818D8303
:1021900086818E8387818F838085888781858987E3
:1021A00082858A8783858B8784858C8785858D87C3
:1021B00041E76EE0CE010E94AD108E87DF91CF9196
:1021C00008950C94FB22CF93DF9385ED8093BC00A0
:1021D0008091820190918301A0918401B091850149
:1021E0000796A11DB11D23E0B695A79597958795F4
:1021F0002A95D1F72091BC0024FD03C01092CA019A
:1022000036C04091820150918301609184017091A8
:102210008501452B462B472B69F30097A105B10596
:1022200041F02AE22A95F1F700C00197A109B1090E
:10223000E1CF8091810191E0909380018823B9F0F2
:10224000C091B800D091BA008091BC008A7B809385
:10225000BC0060E082E10E947A0360E083E10E94BA
:102260007A030E947E05D093BA00C093B800DF9134
:10227000CF9108951F93CF93DF93EC01162F0E9407
:10228000FB22181739F0612FCE01DF91CF911F91FA
:102290000C940323DF91CF911F9108951F93CF9347
:1022A000DF9300D0CDB7DEB710E0811115EA1983B6
:1022B00046E961E0CE0101960E94AD108A83612F4C
:1022C0008AE190E00E943A116A818BE190E00E94DD
:1022D0003A11F999FECF0F900F90DF91CF911F9196
:1022E0000895EF92FF920F931F93CF93DF93CDB793
:1022F000DEB72F970FB6F894DEBF0FBECDBFBE017D
:102300006F5F7F4F8CE892E00E94B8108E010F5FE4
:102310001F4F88E0E82EF12CF80161918F01C70171
:102320000E943A11FFEFEF1AFF0A87E1E816F10465
:1023300099F70E94C50D2F960FB6F894DEBF0FBE19
:10234000CDBFDF91CF911F910F91FF90EF90089536
:10235000DF92EF92FF920F931F93CF93DF93082F9B
:1023600081E090E090933C0280933B028093540282
:10237000D0905502D110D0903F02E0903D02F090F5
:102380003E022091EA023091EB02032E000C440B36
:10239000550B60E077E883E993E00E941123CA01BE
:1023A000B9012AE030E040E050E00E941123209380
:1023B000E6023093E7024093E8025093E902D0E04E
:1023C000C0E010E0A89587E00E945103009709F44F
:1023D000F1C0019709F4A4C020913F0280913D0211
:1023E00090913E028C3F33E0930710F0865F974058
:1023F00010923E0210923D0231E030933F022223C0
:10240000A9F09C0197FF04C022273327281B390B12
:10241000283131055CF0209140022F3F19F02F5FE9
:102420002093400290934202809341021092430213
:1024300080911402909115028F3F980729F0019620
:102440009093150280931402DD2041F186EF97E00E
:102450008E199F09C817D90708F4A9C09E01281B27
:10246000390BC90190937F0180937E0120917C01FB
:1024700030917D012817390720F490937D018093D6
:102480007C0120919002309191022817390730F495
:1024900090939102809390020E9471118091A0020A
:1024A0009091A1020E94340810927F0210927E0245
:1024B000109218021092190210921A0210921B0226
:1024C000F8941092170281E0182710931602D09307
:1024D0005501C09354018093550278940E944B0596
:1024E0001092820201110E94F607CE01DF91CF9176
:1024F0001F910F91FF90EF90DF90089587E00E9469
:102500005103892B09F05BC0A89581E090E00E94FF
:1025100034082196C33E27E1D20781F711E012C0AB
:10252000209741F482E390E00E943408C2E3D0E0B7
:10253000219648CF81E090E00E943408C33E37E105
:10254000D307B4F310927F0210927E0210923F02E2
:1025500010924302F89481E0809317021827109399
:102560001602D0935501C0935401109255027894ED
:1025700080918E028F3F19F08F5F80938E020E94B0
:1025800071110E94F6070E944B05209182022F3F95
:1025900019F02F5F2093820260938302709384026C
:1025A0008093850290938602CFEFDFEF9ECF90E07D
:1025B00080E058CF209709F4A1CF11E00DCF82E33E
:1025C00090E00E943408E29611E0B8CF9F92AF925B
:1025D000BF92CF92DF92EF92FF920F931F93CF9310
:1025E000DF935C017B018B01D0E0C0E0F8019190AA
:1025F0008F016501CC0EDD1EC6010E94FB229816DC
:1026000021F0692DC6010E9403232196C430D10513
:1026100069F7C701DF91CF911F910F91FF90EF9064
:10262000DF90CF90BF90AF909F9008951F920F9230
:102630000FB60F9211242F933F938F939F93AF93D5
:10264000BF938091A8029091A902A091AA02B09193
:10265000AB023091A70223E0230F2D3758F50196E6
:10266000A11DB11D2093A7028093A8029093A902F7
:10267000A093AA02B093AB028091AC029091AD02FC
:10268000A091AE02B091AF020196A11DB11D809341
:10269000AC029093AD02A093AE02B093AF02BF9193
:1026A000AF919F918F913F912F910F900FBE0F90FF
:1026B0001F90189526E8230F0296A11DB11DD2CFB9
:1026C0001F920F920FB60F9211242F933F934F93A7
:1026D0005F936F937F938F939F93AF93BF93EF938A
:1026E000FF938091B900887F803609F44AC0F0F5E5
:1026F000883209F4A7C018F5803109F49BC0B8F4FA
:10270000882309F4F9C0883009F494C0FF91EF914F
:10271000BF91AF919F918F917F916F915F914F91F9
:102720003F912F910F900FBE0F901F9018958831F9
:1027300009F488C0803251F78093C90114C08034F5
:1027400009F49DC040F48033B9F38833F9F68093DF
:10275000C90185ECB0C0803509F485C0883509F41D
:1027600096C0883499F60E94E310D0CF883909F4D6
:102770008CC038F5883729F050F4883611F080374E
:1027800029F683E08093CA011092C80157C08838A7
:1027900009F47BC0803919F0803809F0B7CF8091F7
:1027A000C801803208F071C0E091C80181E08E0F4D
:1027B0008093C8018091BB00F0E0E855FE4F808314
:1027C0003DC0803B39F0E0F4803A09F479C0883AA2
:1027D00009F09CCF84E08093CA011092A701109267
:1027E000A601E091D002F091D10209958091A60155
:1027F00081110FC081E08093A6011092860109C06B
:10280000803C09F4A6CF883C09F4A3CF883B09F0AB
:102810007DCFE091A70181E08E0F8093A701F0E0CA
:10282000EA57FE4F80818093BB009091A701809171
:10283000A60129C08091EF018093BB0085EC8093B5
:10284000BC0064CF9091EE018091ED01981758F58E
:10285000E091EE0181E08E0F8093EE01F0E0E35312
:10286000FE4F8081E9CFE091EE0181E08E0F8093F1
:10287000EE018091BB00F0E0E353FE4F8083909126
:10288000EE018091ED019817C8F285E8D8CFE0916C
:10289000EE0181E08E0F8093EE018091BB00F0E0AD
:1028A000E353FE4F80838091CC0181115CCF81E0A6
:1028B0008093CB0184EA8093BC001092CA0126CF9A
:1028C00085EC8093BC001092CA018091C8018032CF
:1028D00030F4E091C801F0E0E855FE4F10826091BD
:1028E000C80170E0E091D202F091D30288EA91E051
:1028F00009951092C8010ACF1092C90134CFCF9325
:10290000DF93E8EDF2E01382128288EE93E0A0E01C
:10291000B0E084839583A683B7838FE191E09183B0
:102920008083C4EED2E01B861A86198218821E8A22
:102930001F8A188E198E86EF97E09F838E838BE017
:1029400090E09D878C8789E090E09F878E878AE062
:1029500090E0998B888B88E090E09B8B8A8B61E07C
:102960008BE00E94B80461E08E850E94B80461E0AB
:1029700088890E94B80461E08A890E94B8041D8A8F
:102980001C8A84E090E099878887DF91CF91089531
:10299000CF93DF93CDB7DEB7A5970FB6F894DEBF20
:1029A0000FBECDBF789484B5826084BD84B581604C
:1029B00084BD85B5826085BD85B5816085BD80910A
:1029C0006E00816080936E00109281008091810082
:1029D000826080938100809181008160809381007A
:1029E000809180008160809380008091B10084603C
:1029F0008093B1008091B00081608093B00080919D
:102A00007A00846080937A0080917A00826080935B
:102A10007A0080917A00816080937A0080917A00B8
:102A2000806880937A001092C10014B78EB3182B7F
:102A300014BE1EBA0FB6F894A89580916000886104
:102A400080936000109260000FBE0E940B100397ED
:102A500009F0C3C087E00E94CE0E882309F4BFC0EE
:102A60000E9474108093130290E080E00E94E110B5
:102A7000813009F456C019821A824DE262E0CE011B
:102A800001960E94AD108B8360E084E090E00E948C
:102A90003A116A8185E090E00E943A116B8186E0EC
:102AA00090E00E943A11CE0140962EE0DC011D928A
:102AB0002A95E9F7BE016F5F7F4F0E94B810FE01B3
:102AC00031966F0158E0E52EF12CD6016D916D0124
:102AD000C7010E943A11BFEFEB1AFB0AE7E1EE16BD
:102AE000F10499F781E089831A821B824AE563E049
:102AF000CE0101960E94AD108C83682F83E090E098
:102B00000E943A116B8182E090E00E943A116A8142
:102B100081E090E00E943A11698190E080E00E949B
:102B20003A119E012F5F3F4F690148E0E42EF12CDE
:102B3000C7010E94E110D6018D936D01BFEFEB1A22
:102B4000FB0AE7E1EE16F10499F70F8541E76EE025
:102B5000CE0101960E94AD10081709F442C08EE024
:102B6000ECE8F2E0DF011D928A95E9F700E08AE1E6
:102B700090E00E94E110F82E888B8BE190E00E949B
:102B8000E110E82E898B46E961E0CE0140960E9473
:102B9000AD108E1152C0B5EA80E0FB1203C00E9456
:102BA0004E1181E0912F9F7010FD51C012FD51C058
:102BB00013FF45C0811148C083E09093F701823034
:102BC00011F00C942B2280918C028F3F19F08F5FB3
:102BD00080938C020E94711141C080E043CF83E05A
:102BE00041CF898180938C028A8180938D028B8171
:102BF00080938E028C8180938F028D819E81909331
:102C00009102809390028F81988590939302809394
:102C1000920289859A8590939502809394028B8580
:102C20009C8590939702809396028D859E859093C4
:102C300099028093980201E09ACF80E0B3CF80E0C0
:102C400011FFBBCF85E0B9CF906884E0B6CF81E0BB
:102C5000B4CF82E0B2CF002309F4BCCF80918C02C4
:102C60008093F60180918D028093F50188E190E0D8
:102C70000E94E110182F898389E190E00E94E11001
:102C8000082F8A834BE461E0CE0101960E94AD10CB
:102C9000801302C01230F9F000E410E060E0C801D7
:102CA0000E943A110F5F1F4F003CE2E01E07B1F790
:102CB00082E089834BE461E0CE0101960E94AD1071
:102CC0008A83682F89E190E00E943A11698188E146
:102CD00090E00E943A1104E410E0C12CD12C76015E
:102CE0003CE3732E4801F4E08F1A91089E012F5F98
:102CF0003F4F5901C4010E94FB22D5018D935D0114
:102D0000BFEF8B1A9B0A08151905A1F7C8010E948D
:102D1000E11049815A816B817C814F3FEFEF5E0763
:102D20006E077E0771F0942F972595279627972792
:102D3000891307C0C416D506E606F70610F46A0123
:102D40007B010B5F1F4F0439110561F6C0926A02C7
:102D5000D0926B02E0926C02F0926D02C092660219
:102D6000D0926702E0926802F0926902C09270020B
:102D7000D0927102E0927202F092730262E086E0F9
:102D80000E94B80462E085E00E94B80462E084E03A
:102D90000E94B80462E083E00E94B80460E087E02B
:102DA0000E94B80461E08DE00E94B80460E08DE00C
:102DB0000E947A038E010F5F1F4F780110E000E040
:102DC000C8010E94FB22D7018D937D010F5F1F4F29
:102DD00004301105A9F71981113009F0D0C00C8118
:102DE0004AE563E0CE0101960E94AD100813C7C00A
:102DF0008B8180FFC4C00A818FEF800F8E3708F06F
:102E0000BEC01093F00110E01093520200935102E3
:102E100084E090E00E94E110E82E898385E090E054
:102E20000E94E110F82E8A8386E090E00E94E11073
:102E3000D82E8B834DE262E0CE0101960E94AD1048
:102E40008D11CDC097012A50384F2D3E3F4010F0D4
:102E5000F12CE12CF092A102E092A0020E94160750
:102E600080E00E949B060E944B060E94EF050E9494
:102E7000C50D0E944A0F802F0E949C058091BA00C8
:102E800081608093BA008BE99BE09093F20180937C
:102E9000F1018CE29AE09093F4018093F30188E1D0
:102EA00099E20FB6F894A895809360000FBE9093B6
:102EB000600080E480937C0080917A00806480933D
:102EC0007A0080917A0086FDFCCFC0907800D09087
:102ED00079000D2C000CEE08FF087601DD24CC24CF
:102EE0000E94F404C616D706E806F90631F06C25F0
:102EF0007D258E259F250E94F2220E94A3222BEF82
:102F000030E040E050E00E94112370935002609343
:102F10004F02812C97E8992E93E9A92E93E0B92EC0
:102F2000A8950E944B056B017C0186B180738033AC
:102F300009F058C01092F8010E944B056B017C010A
:102F400096B12091BA008091BC008574853439F423
:102F500080915102880F8160281709F4ACC08091DC
:102F600004028111E3C081E080930402C092050253
:102F7000D0920602E0920702F0920802EDC083E0D0
:102F80000E94510301E010E0892B11F010E000E0F5
:102F900084E00E945103892BC9F482E090E0080F7D
:102FA000191F85E00E945103892B99F484E090E079
:102FB000080F191F86E00E945103892B69F488E0ED
:102FC00090E0080F191F0F5F1F4F1ECF90E080E0A9
:102FD000E6CF90E080E0ECCF90E080E0F2CFF12C03
:102FE000E12C30CF8091F80181110BC081E08093FA
:102FF000F801C092F901D092FA01E092FB01F0923F
:10300000FC018091F9019091FA01A091FB01B0912E
:10301000FC0197018601081B190B2A0B3B0BD901F8
:10302000C801C297A105B10508F486CF8091FD01C2
:103030008823B1F08091FE019091FF01A0910002E0
:10304000B0910102A7019601281B390B4A0B5B0BBB
:10305000DA01C901883E9340A105B10508F46CCF9F
:1030600080E88093BC00109203028BE490E001970B
:10307000F1F716B1809151020E949C058091BA002F
:1030800081608093BA0081E08093FD01C092FE01CF
:10309000D092FF01E0920002F0920102107310330F
:1030A00009F04ACF809102028F3F09F445CF8F5F2C
:1030B0008093020241CF109204020E9416070E94E0
:1030C0004B060E94EF058091A602811110C00E945C
:1030D0004B0560327E448105910548F080EA80937B
:1030E000FE088FE58093FF0881E08093A60200919F
:1030F000A502002309F490C06AE070E080E090E04F
:103100000E94190581E00E944E1180EA8093FE081A
:103110008FE58093FF0888E198E00FB6F894A895B2
:10312000809360000FBE90936000FFCF4091090232
:1031300050910A0260910B0270910C029701860176
:10314000041B150B260B370BB901A8014B30510599
:103150006105710508F007CFC0920902D0920A02FA
:10316000E0920B02F0920C0240910502509106028F
:10317000609107027091080297018601041B150BEC
:10318000260B370BB901A8014233510561057105C2
:1031900008F493CF9073903309F08FCF80910D0294
:1031A0008823B1F080910E0290910F02A09110023D
:1031B000B0911102A7019601281B390B4A0B5B0B3A
:1031C000DA01C901883E9340A105B10508F475CF25
:1031D00080E88093BC0010920302809151020E940B
:1031E0009C058091BA0081608093BA0081E0809351
:1031F0000D02C0920E02D0920F02E0921002F092E5
:10320000110210920402809112028F3F09F455CFEF
:103210008F5F8093120251CF8091A402882371F1B5
:10322000F894E090A202F090A3021092A402F0920F
:10323000A102E092A0027894E982FA824DE262E073
:10324000CE0101960E94AD108B836E2D84E090E03C
:103250000E943A116A8185E090E00E943A116B81E8
:1032600086E090E00E943A110E944B0560939C0218
:1032700070939D0280939E0290939F0280919B0287
:103280008823C1F0F89480919A0210929B0278945E
:1032900080938F020E94711110928A0210928B0209
:1032A0000E944B0560939C0270939D0280939E0246
:1032B00090939F0280918902882309F4AAC0F89410
:1032C000F0908802109289027894809155028823A8
:1032D00009F4BFC280913B0290913C02892B09F016
:1032E000B8C2A8958EE0EDE0F1E0DE011196019004
:1032F0000D928A95E1F7CE0101960E944E0D51E0A4
:10330000F51203C081E00E944E1119818D81811157
:1033100001C01FEF0E940B1061E0F6123EC0019742
:1033200011F00C943A2214FD02C00C944122F8943E
:10333000F999FECF80E88093BC00ADE1B1E0FD01DA
:10334000E55BFC4FE491ED93AD3981E0B807B9F747
:1033500080EA8093FE088FE58093FF08A89588E1B6
:103360009CE00FB6F894A895809360000FBE9093F0
:1033700060001124AA24BB2423E0922E21E0022F16
:1033800025E0D22E21E1C22E2DE9E22E21E0F22EFF
:1033900010E080E89FE70C942D3FA2E0FA1609F4B4
:1033A00034C280911302823009F04BC28091BC007C
:1033B00082FD23C080E88093BC00109151021092DE
:1033C000D7021092D6021092D5021092D4020E9417
:1033D0007E05ECECF2E0F093D102E093D00228ED10
:1033E00032E03093D3022093D202110F1093BA002F
:1033F0008091BA0081608093BA000E944A0F0E94B7
:103400004B0560939C0270939D0280939E02909363
:103410009F0280918702882381F1F894109287029D
:1034200078940E944B0520918202222389F0C0905B
:103430008302D0908402E0908502F09086026C199D
:103440007D098E099F09603375478105910558F004
:1034500081E00E94A81110928102109280021092C5
:103460007F0210927E020E944B0560939C02709333
:103470009D0280939E0290939F0280917D028823FB
:1034800009F45BC0F89410917D0210927D0278944B
:103490000E94DC07C0900701D09008012091EA0249
:1034A0003091EB02032E000C440B550BC501B40107
:1034B0000E9411230D2C000CEE08FF08CA01B9016F
:1034C000A70196010E9411232093E6023093E702A0
:1034D0004093E8025093E902812F110F990B0E944B
:1034E000340862E370E080E090E00E9419050E94D9
:1034F000F6070E944B056093790270937A028093DD
:103500007B0290937C02672B682B692B61F481E02E
:1035100090E0A0E0B0E08093790290937A02A093CB
:103520007B02B0937C020E944B0560939C027093D7
:103530009D0280939E0290939F028091780288233F
:1035400059F1F894909177021092780278948FEF65
:10355000890F8E3708F081C181E089839A838B833C
:103560004AE563E0CE0101960E94AD108C83DE0136
:1035700011966D01F12CE12CF60161916F01C701EB
:103580000E943A11FFEFEF1AFF0A14E0E116F1046E
:1035900099F781E08093A50280917502882329F133
:1035A000F89410927502789481E089831A821B82C4
:1035B0004AE563E0CE0101960E94AD108C839E0126
:1035C0002F5F3F4F6901F12CE12CD6016D916D0108
:1035D000C7010E943A11BFEFEB1AFB0AE4E0EE16B6
:1035E000F10499F781E08093A50280917402882309
:1035F00009F444C0F8941092740210927002109270
:1036000071021092720210927302789410926A0200
:1036100010926B0210926C0210926D0210926F0267
:1036200010926E0210926602109267021092680267
:103630001092690219821A821B821C82B0E4EB2E5E
:10364000F12CA895BE016F5F7F4FC7010E94E61263
:103650006CE3C70104960E943A11F5E0EF0EF11CED
:1036600010E9E116F10469F70E944B0560939C0292
:1036700070939D0280939E0290939F0280916A02B4
:1036800090916B02A0916C02B0916D024091660224
:10369000509167026091680270916902481759075A
:1036A0006A077B0759F189839A83AB83BC838F7048
:1036B00025E0829F70011124BE016F5F7F4FC7011B
:1036C000805C9F4F0E94E61269812A819B818C81D8
:1036D0003CE36327622769276827C7018C5B9F4FFC
:1036E0000E943A1189819A81AB81BC8180936602E4
:1036F00090936702A0936802B093690210916502EB
:103700001E8F112309F4A3C1F894109265027894D6
:1037100081E080931D028093540210922402109243
:103720001F0210921E02109221021092200210928B
:1037300023021092220280931C020E9416070E940C
:10374000DC072091EA023091EB02032E000C440BBF
:10375000550BC501B4010E941123CA01B9012AE029
:1037600030E040E050E00E9411232093E6023093C5
:10377000E7024093E8025093E90287E00E94510378
:10378000C12CD12C7601892B09F07CC087E00E94E6
:103790005103892B09F06DC0A89581E090E00E944B
:1037A00034082FEFC21AD20AE20AF20A33EEC31625
:1037B00037E1D306E104F10449F781E08093240264
:1037C00083E080931D0210927F0210927E0210927D
:1037D00081021092800210923F0210924302F894EC
:1037E0001092550278940E944B05209182022F3F3F
:1037F00019F02F5F209382026093830270938402FA
:103800008093850290938602C9C09C0122503109A1
:103810002230310518F0059709F0C3CD14FF15C00B
:1038200087E00E94CE0E882309F4BBCD0E9474105D
:103830007C01B3E0EB16F10409F4B3CDE09213027E
:10384000B5CD83E0E82EF12CF9CF14E0E12EF12C78
:10385000F5CF85E080931302D0CDF8948091760265
:103860008F3F29F0809176028F5F80937602789463
:1038700093CE82E390E00E94340842E3C40ED11C50
:10388000E11CF11C87E00E945103892B09F4FDC55E
:10389000A89581E090E00E9434085FEFC51AD50A30
:1038A000E50AF50A63EEC61667E1D606E104F104FF
:1038B0004CF382E083CF11E06101A89581E090E0B4
:1038C0000E94340816018FEF281A380A9DEE291637
:1038D0009FE0390641F483E080932402F0922102B4
:1038E000E09220026DCF87E00E94510301110BC0CE
:1038F000892B29F4AFEFEA1AFA0A10E0DDCF113074
:10390000D1F60E8DFACF892BC1F71130A1F60E94A6
:103910004B05DC01CB0184199509A609B70900976D
:10392000E1E0AE07B10520F08FEF9FEFA0E0B0E03F
:103930009093230280932202D0921F02C0921E0213
:10394000F0922102E092200282E080931D02109208
:103950003E0210923D0211E010933F028091A002BE
:103960009091A1020E94340810927F0210927E0270
:10397000109218021092190210921A0210921B0251
:1039800010924302F89410921702109216021093AC
:10399000550278940E944B051092820280911D027C
:1039A000823059F580911E0290911F0220912002D1
:1039B000309121022115310571F040919202509110
:1039C0009302452B21F4309393022093920230937B
:1039D000970220939602009771F020919402309103
:1039E0009502232B21F49093950280939402909357
:1039F0009902809398020E9471110E944B056115F3
:103A000071058105910509F499C06093790270935D
:103A10007A0280937B0290937C0264E670E080E0FF
:103A200090E00E9419050E94F6071092150210926C
:103A3000140210921C020E9416070E944B0560930C
:103A40009C0270939D0280939E0290939F028091AE
:103A500064028823F1F0F8941092640278940E9432
:103A60004B056093600270936102809362029093B1
:103A70006302672B682B692B61F421E030E040E0A2
:103A800050E02093600230936102409362025093B1
:103A900063020E944B056B017C0180916002909152
:103AA0006102A0916202B09163020097A105B10585
:103AB00011F1C0929C02D0929D02E0929E02F0927F
:103AC0009F0297018601081B190B2A0B3B0BC901AA
:103AD000B801683B1BE0710781059105E0F160E0EA
:103AE0008DE00E947A03109260021092610210929F
:103AF00062021092630280915C0290915D02A0913B
:103B00005E02B0915F02409158025091590260915B
:103B10005A0270915B0297018601041B150B260B5C
:103B2000370B083E13402105310548F148515C4FE1
:103B30006F4F7F4F0196A11DB11DEDCF01E010E049
:103B400020E030E00093790210937A0220937B0208
:103B500030937C0262CF2DE730E040E050E00E94DD
:103B60004323CA01B9016095709580959095617065
:103B70007727882799278DE00E947A03BCCF40934E
:103B800058025093590260935A0270935B02AC0141
:103B90000097F1E0AF07B10520F04FEF5FEF60E075
:103BA00070E0F89480935C0290935D02A0935E02B3
:103BB000B0935F02509357024093560278948091DD
:103BC000550281111CC080915402811118C090913E
:103BD000550280915302911112C020915102E0913F
:103BE0004F02F0915002882309F417C100ECC0166F
:103BF00004EDD00601E0E006F10408F027C1809151
:103C00004B0290914C02A0914D02B0914E02A7013F
:103C10009601281B390B4A0B5B0BDA01C901883E60
:103C20009340A105B10558F0C0924B02D0924C02CE
:103C3000E0924D02F0924E0280E00E949B0680913D
:103C4000470290914802A0914902B0914A0297011F
:103C50008601081B190B2A0B3B0BD901C8018036C2
:103C60009A4EA105B105C8F0C0924702D092480211
:103C7000E0924902F0924A028091450290914602F8
:103C80008230910508F4FAC09C0136952795821B75
:103C9000930B909346028093450280918F0280FFA0
:103CA0003EC0809144028330D0F580915502882334
:103CB000B1F180913F02882391F1809143028111FB
:103CC0002EC080913B0290913C02892B41F52091BE
:103CD0007E0230917F0280918002909181022817AC
:103CE0003907E9F48091600290916102A09162022B
:103CF000B0916302892B8A2B8B2B89F4809165020A
:103D000081110DC080918702811109C08091A502A7
:103D1000811105C080917D02882309F4B2C0109200
:103D20008A0210928B028091430281111AC1809104
:103D30003B0290913C02892B51F520917E023091FB
:103D40007F02809180029091810228173907F9F44F
:103D500080912E0290912F02A0913002B0913102F9
:103D600097018601081B190B2A0B3B0BD901C801CF
:103D7000803C9742A940B10550F0C0922E02D092EB
:103D80002F02E0923002F09231020E944A0F80919D
:103D90009C0290919D02A0919E02B0919F02A7016A
:103DA0009601281B390B4A0B5B0BDA01C901803DD8
:103DB0009740A105B10590F083B7817F83BF83B79A
:103DC000816083BF889583B78E7F83BFC0929C023A
:103DD000D0929D02E0929E02F0929F0220917E027C
:103DE00030917F02809180029091810228173907DB
:103DF00009F036C180918202811132C180913B026B
:103E000090913C02892B09F01DC380E090E0892B42
:103E100009F486C80E94000083C8215030E0A8E55C
:103E2000B2E00E946523AB01BC01CF01B0E0A0E08D
:103E3000805D9A48AF4FBF4F840F951FA61FB71FD5
:103E4000C816D906EA06FB0608F4D9CE81E08093AD
:103E500054020E94A81110928102109280021092C6
:103E60007F0210927E020E944B0560939C02709329
:103E70009D0280939E0290939F02C1CE90E080E0CD
:103E800008CF8091370290913802A0913902B09109
:103E90003A02A7019601281B390B4A0B5B0BDA018A
:103EA000C9018A3F9105A105B10508F440CFC09230
:103EB0003702D0923802E0923902F0923A02209111
:103EC000960230919702C90147974CE050E089363D
:103ED000910520F048E150E02EE230E080913D0273
:103EE00090913E02863F67E09607C0F44217530761
:103EF00050F48417950738F0BC01640F751F11E06A
:103F00006217730760F0240F351F8217930730F094
:103F1000840F951F12E0863F974008F010E087E07D
:103F20000E945103113009F08CC0892B09F4F7CE9F
:103F300080918B02181721F010938B0210928A0245
:103F400080918A028F5F80938A02863008F4EBCEDC
:103F500010928A0210928B0281E080934302809338
:103F6000360220917E0230917F02809180029091F2
:103F700081022817390709F0DACE80919C029091CE
:103F80009D02A0919E02B0919F0297018601081B9D
:103F9000190B2A0B3B0BD901C801803D9740A105A5
:103FA000B10508F4C4CE8091320290913302A09101
:103FB0003402B09135020097A105B10571F0A70157
:103FC0009601281B390B4A0B5B0BDA01C9018036BD
:103FD0009A4EA105B10508F4AACEC114D104E1049A
:103FE000F104B1F13C2D2D2D9E2D8F2D30933202F9
:103FF0002093330290933402809335021091400253
:10400000009136021092360281E00E94A81100232E
:1040100069F080914002181320C0809144028F3FC4
:1040200019F08F5F809344020E94C50D0E944B05DA
:1040300060939C0270939D0280939E0290939F02D6
:1040400076CE123009F06BCE892B09F471CF67CE92
:1040500031E020E090E080E0C9CF10924402E4CF4C
:1040600020908002309081024DE22416310408F045
:10407000CCCE80915502882301F1C0907902D09076
:104080007A02E0907B02F0907C02C114D104E1043A
:10409000F10409F43FC00E944B056C197D098E099B
:1040A0009F09613D774081059105A0F581E090E091
:1040B00090933C0280933B02A8CE0E944B05E09176
:1040C0008202EE23D1F200918302109184022091AA
:1040D000850230918602AB01BC01401B510B620B83
:1040E000730B8FEF8E0F863008F085E000E315E745
:1040F00020E030E004C0000F111F221F331F8A95FB
:10410000D2F7D901C801481759076A077B0708F099
:10411000B4CF7BCE80918F0283FF11C080E00E94DC
:104120009B060E944B0520912602309127022150C8
:1041300031092B35324108F4D2C0109228029091F7
:1041400029021092290280912502992309F4ECC0DA
:104150008061809325020E944B05609379027093E1
:104160007A0280937B0290937C02672B682B692BE9
:1041700061F481E090E0A0E0B0E080937902909358
:104180007A02A0937B02B0937C028FEF9FEF909313
:1041900006018093050180914502909146028F3F70
:1041A000980729F0019690934602809345020E9459
:1041B0004B056E8F7F8F88A399A3E0907E02F090CD
:1041C0007F0280915502882321F02E143F040CF0C9
:1041D000ADC080E00E94A8116C0197FD16CE009141
:1041E0000701109108012091EA023091EB02032EA1
:1041F000000C440B550BC501B4010E941123CA01E8
:10420000B9019801110F440B550B0E941123209303
:10421000E6023093E7024093E8025093E9020091EE
:1042200007011091080126EF37E0D1010E949E237B
:104230002DE230E040E050E00E94432329013A01A2
:104240008091A0029091A1029601DD0C440B550BC8
:104250002AA33BA34CA35DA36C01092E000CEE081E
:10426000FF0897FF08C0F094E094D094C094C11C5C
:10427000D11CE11CF11CD8011A161B0614F0A1E098
:10428000B0E026EF37E00E949E239B01AC01C50100
:10429000B4010E944323C301B2010E94742328EE9B
:1042A00033E040E050E00E94432329013A012AA173
:1042B0003BA14CA15DA12C0D3D1D4E1D5F1DA0E835
:1042C000BBE00E94302328EE33E040E050E00E9443
:1042D0004323420E531E641E751EC1017BC02091F4
:1042E000280221110EC021E02093280220932902E8
:1042F00060932A0270932B0280932C0290932D02DC
:10430000D5CE00912A0210912B0220912C023091DF
:104310002D02601B710B820B930B603D7740810572
:10432000910508F00ACFC2CE8F7E13CF0E94DC0722
:1043300000910701109108012091EA023091EB02EF
:10434000032E000C440B550BC501B4010E94112330
:10435000CA01B9019801110F440B550B0E9411239A
:104360002093E6023093E7024093E8025093E9027B
:1043700081010E191F09A0910701B09108011A16B9
:104380001B0614F0A1E0B0E026EF37E00E949E2368
:104390009B01AC01C501B4010E94432369017A016C
:1043A00026EF37E0D8010E949E232DE230E040E066
:1043B00050E00E944323CA01B901A70196010E945F
:1043C000742328EE33E040E050E00E9443232901AB
:1043D0003A01C8010E94690930927F0220927E0250
:1043E0000E944B05E0912502AB01BC010E8D1F8D93
:1043F00028A139A1401B510B620B730B9301820161
:10440000F2E03695279517950795FA95D1F7400E66
:10441000511E621E731E8E2F4416550666067706C1
:1044200078F481608093250281E00E949B0664E617
:1044300070E080E090E00E9419050E94F607E5CC4C
:104440008E7FF0CF10923C0210923B021092280215
:1044500010922902DACC833011F00C942B16809143
:104460008D028F3F11F40C94EA158F5F80938D02BB
:104470000C94EA1523E0E22EF12C80E00E944E110C
:10448000D8C994E0E92EF12CF8CF10923E02109298
:104490003D0281E080933F020E944B052B013C01CD
:1044A00010E0EE24E394F12CD12CC12C06CA8F929B
:1044B0009F92AF92BF92CF92DF92EF92FF92CF93F3
:1044C000DF93EC01688179818A819B816115710597
:1044D0008105910521F464E279ED8BE597E02DE10A
:1044E00033EF41E050E00E94112349015A019B0142
:1044F000AC01A7EAB1E40E9430236B017C01ACEE71
:10450000B4EFA50194010E943E23C60ED71EE81EFB
:10451000F91EF7FE06C081E0C81AD108E10880E85C
:10452000F80AC882D982EA82FB82C701B6019F7766
:10453000DF91CF91FF90EF90DF90CF90BF90AF9041
:104540009F908F9008958F929F92AF92BF92CF923B
:10455000DF92EF92FF926091090170910A018091C0
:104560000B0190910C01611571058105910521F4F4
:1045700064E279ED8BE597E02DE133EF41E050E027
:104580000E94112349015A019B01AC01A7EAB1E441
:104590000E9430236B017C01ACEEB4EFA5019401C5
:1045A0000E943E23C60ED71EE81EF91EF7FE06C067
:1045B00081E0C81AD108E10880E8F80AC092090130
:1045C000D0920A01E0920B01F0920C01C701B601F2
:1045D0009F77FF90EF90DF90CF90BF90AF909F902C
:1045E0008F9008956093090170930A0180930B01E5
:1045F00090930C010895F999FECF92BD81BDF89A70
:10460000992780B50895262FF999FECF1FBA92BD3C
:1046100081BD20BD0FB6F894FA9AF99A0FBE0196A3
:104620000895052E97FB1EF400940E94282357FD41
:1046300007D00E94432307FC03D04EF40C94282398
:1046400050954095309521953F4F4F4F5F4F0895BE
:1046500090958095709561957F4F8F4F9F4F0895EE
:104660000E946523A59F900DB49F900DA49F800D7F
:10467000911D11240895B7FF0C9430230E9430231C
:10468000821B930B0895A1E21A2EAA1BBB1BFD01EE
:104690000DC0AA1FBB1FEE1FFF1FA217B307E40721
:1046A000F50720F0A21BB30BE40BF50B661F771F79
:1046B000881F991F1A9469F7609570958095909559
:1046C0009B01AC01BD01CF010895A29FB001B39F32
:1046D000C001A39F700D811D1124911DB29F700D0B
:1046E000811D1124911D0895DB018F939F930E94DA
:1046F0003023BF91AF91A29F800D911DA39F900D7C
:10470000B29F900D1124089597FB072E16F4009484
:1047100007D077FD09D00E94A52307FC05D03EF401
:10472000909581959F4F0895709561957F4F08955D
:10473000EE0FFF1F0590F491E02D09940E94652370
:10474000B7FF0895821B930B0895AA1BBB1B51E171
:1047500007C0AA1FBB1FA617B70710F0A61BB70BF1
:10476000881F991F5A95A9F780959095BC01CD0196
:1047700008955058BB27AA270E94D1230C943D24AA
:104780000E942F2438F00E94362420F039F49F3FF5
:1047900019F426F40C942C240EF4E095E7FB0C9409
:1047A0002624E92F0E944E2458F3BA176207730794
:1047B0008407950720F079F4A6F50C9470240EF484
:1047C000E0950B2EBA2FA02D0B01B90190010C0121
:1047D000CA01A0011124FF27591B99F0593F50F439
:1047E000503E68F11A16F040A22F232F342F442791
:1047F000585FF3CF469537952795A795F040539589
:10480000C9F77EF41F16BA0B620B730B840BBAF058
:104810009150A1F0FF0FBB1F661F771F881FC2F7C3
:104820000EC0BA0F621F731F841F48F487957795D7
:104830006795B795F7959E3F08F0B0CF9395880F91
:1048400008F09927EE0F97958795089597F99F6738
:1048500080E870E060E008959FEF80EC0895002408
:104860000A941616170618060906089500240A94D5
:1048700012161306140605060895092E0394000C5B
:1048800011F4882352F0BB0F40F4BF2B11F460FFEA
:1048900004C06F5F7F4F8F4F9F4F089557FD905813
:1048A000440F551F59F05F3F71F04795880F97FBF4
:1048B000991F61F09F3F79F08795089512161306AE
:1048C0001406551FF2CF4695F1DF08C016161706DD
:1048D0001806991FF1CF8695710561050894089512
:1048E000E894BB2766277727CB0197F908950E94A4
:1048F0007C2408F48FEF0895990F0008550FAA0B38
:10490000E0E8FEEF16161706E807F907C0F01216E2
:104910001306E407F50798F0621B730B840B950BE5
:1049200039F40A2661F0232B242B252B21F408953A
:104930000A2609F4A140A6958FEF811D811D0895D7
:04494000F894FFCF19
:10494400FFFFFFFF01FFFF0A0001000000FFFFFF60
:10495400FF01FFFFFF00000000000000000000DB7B
:1049640005D005EC05B905C9050203BA053364325F
:0649740037373537000063
:00000001FF
