:100000000C9462000C948A000C948A000C948A0070
:100010000C948A000C948A000C948A000C948A0038
:100020000C948A000C948A000C948A000C948A0028
:100030000C948A000C948A000C948A000C948A0018
:100040000C94F8090C948A000C948A000C948A0091
:100050000C948A000C948A000C948A000C948A00F8
:100060000C94420A0C948A0000000000240027002F
:100070002A0000000000250028002B0000000000DE
:1000800023002600290004040404040404040202DA
:100090000202020203030303030301020408102007
:1000A0004080010204081020010204081020000012
:1000B0000008000201000003040700000000000027
:1000C0000000610B11241FBECFEFD8E0DEBFCDBF13
:1000D00011E0A0E0B1E0E4EAF6E202C005900D9282
:1000E000AC31B107D9F722E0ACE1B1E001C01D921B
:1000F000A235B207E1F710E0C2E6D0E004C02197D4
:10010000FE010E943512C136D107C9F70E94AA0B21
:100110000C9450130C940000833081F028F481304B
:1001200099F08230A9F008958730A9F08830C9F09D
:100130008430B1F4809180008F7D03C08091800075
:100140008F7780938000089584B58F7784BD08955C
:1001500084B58F7DFBCF8091B0008F778093B00006
:1001600008958091B0008F7DF9CFCF93DF93282F32
:1001700030E0F901E255FF4F8491F901E656FF4F57
:10018000D491F901EA57FF4FC491CC23A1F081111A
:100190000E948C00EC2FF0E0EE0FFF1FE458FF4FA1
:1001A000A591B491EC91ED2381E090E009F480E019
:1001B000DF91CF91089580E090E0FACF1F93CF9325
:1001C000DF93282F30E0F901E255FF4F8491F901C8
:1001D000E656FF4FD491F901EA57FF4FC491CC2363
:1001E000A9F0162F81110E948C00EC2FF0E0EE0F89
:1001F000FF1FEE58FF4FA591B4918FB7F894EC9183
:10020000111108C0D095DE23DC938FBFDF91CF9111
:100210001F910895DE2BF8CFCF93DF93EC018091EF
:10022000400290914102029749F4C130D10509F48E
:100230003BC06CF560E0209709F437C08091400224
:1002400090914102049749F4C130D10509F45CC092
:100250000CF037C0209709F442C080914002909181
:100260004102059709F0E5C0CA30D10508F0E1C0A8
:10027000FE01E35CFE4F0C9435129C01A801B9010C
:10028000CF01EA01EC01F301FF0110021702C230B5
:10029000D105A9F060E0C330D10581F68091440218
:1002A0000E94DE0060E006C061E0809144020E948E
:1002B000DE0061E0809146020E94DE00BFCF61E077
:1002C000EDCFC230D10539F1C330D10509F0C5CF2A
:1002D00061E0809144020E94DE0060E022C061E0A3
:1002E000809144020E94DE0060E0809146020E94FC
:1002F000DE0061E0809148020E94DE0060E08091B3
:100300004A020E94DE00A9CF60E0809144020E9470
:10031000DE0061E0EACF60E0809144020E94DE00EE
:1003200061E0809146020E94DE0060E08091480218
:100330000E94DE0061E0E3CF60E0809144020E9411
:10034000DE0061E0809146020E94DE0061E00BC0A9
:1003500060E0809144020E94DE0061E080914602EC
:100360000E94DE0060E0809148020E94DE0060E0B2
:1003700010C060E0809144020E94DE0061E0809144
:1003800046020E94DE0060E0809148020E94DE008A
:1003900061E080914A020E94DE0061E015C060E0E9
:1003A000809144020E94DE0061E0809146020E943A
:1003B000DE0060E0809148020E94DE0061E08091F2
:1003C0004A020E94DE0060E080914C02DF91CF91F2
:1003D0000C94DE0061E0E4CF61E0809144020E9471
:1003E000DE0060E0E2CF61E0809144020E94DE0026
:1003F00060E0809146020E94DE0061E0DBCF61E0B8
:10040000809144020E94DE0060E0809146020E94DA
:10041000DE0061E0809148020E94DE0060E0CFCF04
:1004200061E0809144020E94DE0060E08BCF60E0DA
:10043000F8CFDF91CF910895CF93DF9390E0FC0147
:10044000E656FF4F24918A579F4FFC0184918823E1
:10045000C9F090E0880F991FFC01E859FF4FA59162
:10046000B491FC01EE58FF4FC591D49161110DC0BC
:100470009FB7F8948C91209582238C9388812823B0
:1004800028839FBFDF91CF910895623051F49FB7C9
:10049000F8943C91822F809583238C93E8812E2BB6
:1004A000EFCF8FB7F894EC912E2B2C938FBFEACF20
:1004B0003FB7F8948091280290912902A0912A02D6
:1004C000B0912B0226B5A89B05C02F3F19F00196CD
:1004D000A11DB11D3FBFBA2FA92F982F8827BC019E
:1004E000CD01620F711D811D911D42E0660F771FC6
:1004F000881F991F4A95D1F708958F929F92AF92C6
:10050000BF92CF92DF92EF92FF924B015C010E946B
:1005100058026B017C010E9458026C197D098E09FA
:100520009F09683E734081059105A8F321E0821A76
:100530009108A108B10888EEC80E83E0D81EE11C1E
:10054000F11C81149104A104B10429F7FF90EF90EC
:10055000DF90CF90BF90AF909F908F9008952FB76E
:10056000F894609124027091250280912602909166
:1005700027022FBF0895E091D501F091D601309761
:1005800029F01092D0011092CF0109940895CF93D1
:10059000DF93AC01E091D301F091D4013097F1F0F9
:1005A0009091D2018091D1019817C0F090E0292F4D
:1005B00030E02617370754F4D901A65CBE4F240F4C
:1005C000351FE90128812C939F5FF1CF1092D20152
:1005D0006093D101CB01DF91CF910994DF91CF914D
:1005E000089520918001260F3327331F21323105D2
:1005F000ECF42091A401FC0190E080E0243069F04B
:1006000082E00895A09180012191AC01405A5E4F93
:10061000A40FB52FB11D2C930196861798F38091E6
:100620008001680F6093800180E0089581E0089563
:100630001092A40181E08093A6011092A50161E0CF
:1006400082E10E94DE0061E083E10E94DE00E9EBCE
:10065000F0E080818E7F808380818D7F808388E43D
:100660008093B80085E48093BC0008950895E091DC
:10067000D2018091D101E81730F4F0E0E65CFE4F42
:10068000808190E008958FEF9FEF08959091D201BF
:100690008091D1012FEF3FEF981748F4E92FF0E058
:1006A000E65CFE4F208130E09F5F9093D201C9014C
:1006B00008958091D1019091D201891B990B0895E1
:1006C000CF93DF93CB01EA01642F0E94F102CE01A8
:1006D000DF91CF910895CF93DF931F92CDB7DEB70F
:1006E000698361E0CE0101960E94F10281E090E011
:1006F0000F90DF91CF91089590E080E008958F9260
:100700009F92AF92BF92EF92FF920F931F93CF935E
:10071000DF93CDB7DEB72F970FB6F894DEBF0FBECD
:10072000CDBF0091F3018091EF01811102608090B3
:100730001D0290901E02E090F101F090F2011091E4
:10074000F0012FEF882399F16091ED017091EE0196
:1007500090E080E0092C000CAA08BB086819790910
:100760008A099B0926EF37E040E050E00E9416120C
:100770009B01AC0157FF04C02A50384F4F4F5F4FC9
:10078000ADE2B0E00E943B1265507C4F8F4F9F4F0F
:1007900026EF37E040E050E00E94F411CA01B901B1
:1007A0002DE230E040E050E00E94F411262F2A872D
:1007B0000B871C87C70131E8E3163FEFF30614F4FB
:1007C00081E89FEF8038910514F08FE790E08D87E6
:1007D0001E8667EB61276827602762276F878091F5
:1007E000E00189839091E1018091E2019A838B83FA
:1007F0009091E3018091E4019C838D839091E501C8
:100800008091E6019E838F831886FE0131969E01BA
:10081000275F3F4FDF0180E09D918927A217B30733
:10082000D9F79CE589278987F894BE01665F7F4FD9
:1008300090E080E0DB014D91BD019C012C5C3E4FBE
:10084000D9014C93019686309105A1F790E080E0A4
:100850002191DC01A55DBE4F2C9301968930910555
:10086000B9F778942F960FB6F894DEBF0FBECDBFC0
:10087000DF91CF911F910F91FF90EF90BF90AF90BC
:100880009F908F90089581E090E09093E80180938D
:10089000E70160912A018BE00E94DE00609129014E
:1008A0008AE00E94DE006091280189E00E94DE005B
:1008B0006091270188E00C94DE008BE00E94B50077
:1008C00021E0892B09F420E020932A018AE00E948C
:1008D000B50021E0892B09F420E02093290189E06B
:1008E0000E94B50021E0892B09F420E02093280123
:1008F00088E00E94B50021E0892B09F420E02093D4
:10090000270160E08BE00E94DE0060E08AE00E9448
:10091000DE0060E089E00E94DE0060E088E00E9486
:10092000DE001092E8011092E70164E670E080E0DA
:1009300090E00C947D024F925F926F927F928F9223
:100940009F92AF92BF92CF92DF92EF92FF920F935E
:100950001F93CF93DF936C017C0197FF04C0EE24BB
:10096000FF24E81AF90A1C141D040CF063C081E08E
:1009700090E09093390280933802C4E0D0E00AE01E
:1009800010E0E114F10409F472C00E945802809052
:100990004E0290904F02A0905002B09051022B0155
:1009A0003C01481859086A087B0880903A029090E8
:1009B0003B02A0903C02B0903D02481459046A04E6
:1009C0007B04F8F260934E0270934F0280935002C2
:1009D00090935102809142029091430220913802FB
:1009E000309139022130310571F50196909343021F
:1009F0008093420220913E0230913F02821793077A
:100A000021F4109243021092420221E0E21AF1080E
:100A10008091420290914302209140023091410224
:100A2000B8012530310509F0BE010E94E0110E9495
:100A30000C01A7CFC114D10409F49FCF1092390241
:100A4000109238029ACF892B41F480913E02909106
:100A50003F02909343028093420280914202909120
:100A6000430201979093430280934202CECF0D2C14
:100A7000000CEE08FF08D701C601F7FE07C0882763
:100A80009927DC018C199D09AE09BF092091040248
:100A900030910502BC01CD01620F731F811D911DB4
:100AA00026EF422E27E0522E612C712CA3019201D9
:100AB0000E94F4118090000290900102A090020226
:100AC000B0900302820E931EA41EB51E80920002F7
:100AD00090920102A0920202B0920302709305026A
:100AE000609304028091ED019091EE01A7019601BF
:100AF000280F391F411D511DCA01B901A3019201DF
:100B00000E94161297FF04C06A50784F8F4F9F4F74
:100B10007093EE016093ED018091060290910702BF
:100B2000A0910802B091090288159905AA05BB0594
:100B300091F0F8948091000290910102A09102023C
:100B4000B09103028093060290930702A0930802DB
:100B5000B09309027894DF91CF911F910F91FF908C
:100B6000EF90DF90CF90BF90AF909F908F907F904D
:100B70006F905F904F9008950F931F93CF93DF93E3
:100B8000082F81E090E09093E8018093E7012091A5
:100B90003E0230913F02032E000C440B550B60E0E7
:100BA00077E883E993E00E941612CA01B9012AE0AE
:100BB00030E040E050E00E94161220933A02309359
:100BC0003B0240933C0250933D02D0E0C0E010E075
:100BD000A89587E00E94B500009709F493C001979B
:100BE00009F465C02091EF018091ED019091EE0133
:100BF0008C3F33E0930710F0865F97401092EE0130
:100C00001092ED0131E03093EF012223A9F09C0115
:100C100097FF04C022273327281B390B28313105C1
:100C20005CF02091F0012F3F19F02F5F2093F0012D
:100C30009093F2018093F1011092F30180911D02D3
:100C400090911E020E949B041092150210921402B1
:100C50001092DC011092DD011092DE011092DF0192
:100C6000F8941092260181E0182710932501D09363
:100C70002401C0932301789401110E945D04CE01E8
:100C8000DF91CF911F910F91089587E00E94B500E9
:100C9000892B09F03CC0A89581E090E00E949B045C
:100CA0002196C33E37E1D30781F711E012C02097A8
:100CB00041F482E390E00E949B04C2E3D0E02196DD
:100CC00087CF81E090E00E949B04C33E87E1D80774
:100CD000B4F310921502109214021092EF011092C8
:100CE000F301F89481E080932601182710932501E1
:100CF000D0932401C093230178940E945D04CFEF28
:100D0000DFEFBDCF209709F4C0CF11E06BCF82E3B6
:100D100090E00E949B04E29611E0D7CF4F925F9241
:100D20006F927F929F92AF92BF92CF92DF92EF929B
:100D3000FF920F931F93CF93DF936C0187E00E9484
:100D4000B500BB24B394892B09F0B12CD0E0C0E0EE
:100D5000A12C99249394CC15DD050CF085C0A895A1
:100D600020E039EE43E95EE36091DC017091DD0142
:100D70008091DE019091DF010E946A122B013C01FB
:100D800020E030E040E85FE30E94271318164CF1A2
:100D90004092DC015092DD016092DE017092DF0131
:100DA0009DE2E92EF12C10E000E081E090E00E944D
:100DB0009B0487E00E94B500892B09F052C021E016
:100DC0002A1508F0A39482E0A81204C0BB20E9F021
:100DD000BB24B3940F5F1F4FE016F10631F7219645
:100DE000BACF20E030E040E85FE3C301B2010E94E7
:100DF00069126093DC017093DD018093DE019093B2
:100E0000DF018EE2E82EF12CCECFB090EF01809181
:100E1000ED019091EE018C3F23E0920710F0865F88
:100E200097401092EE011092ED019092EF01BB20DD
:100E300079F29C0197FF04C022273327281B390B26
:100E4000283131052CF22091F0012F3F19F02F5F4E
:100E50002093F0019093F2018093F1019092F301BD
:100E6000B9CFA12CB12CB6CFDF91CF911F910F91AB
:100E7000FF90EF90DF90CF90BF90AF909F907F90CA
:100E80006F905F904F9008958F929F92AF92BF9214
:100E9000CF92DF92EF92FF92CF93DF93CDB7DEB781
:100EA00028970FB6F894DEBF0FBECDBF8091220108
:100EB000882361F1BE016F5F7F4F88E0FB011192D3
:100EC0008A95E9F7E4E1F1E0DB018191882329F0DB
:100ED0008D9381E0EC31F807C1F748E050E08CE2F7
:100EE00092E00E9460031092220128960FB6F894B7
:100EF000DEBF0FBECDBFDF91CF91FF90EF90DF90AF
:100F0000CF90BF90AF909F908F90089580912101D6
:100F1000882391F080911D0290911E0289839A830B
:100F200042E050E0BE016F5F7F4F8CE292E00E9492
:100F3000600310922101D9CF80912001882399F07C
:100F40008091140290911502898380958A8342E0F2
:100F500050E0BE016F5F7F4F8CE292E00E94600321
:100F600010922001C2CF80911F01882349F1409146
:100F700006025091070260910802709109024983AC
:100F8000852E962EA72EBB248A826B01EE24FF2489
:100F9000CB82872F9927AA27BB278C8325EA242772
:100FA00028252C2582278D8345E050E0BE016F5F08
:100FB0007F4F8CE292E00E94600310921F0195CF58
:100FC00080911E01882359F046E050E064E371E00F
:100FD0008CE292E00E94600310921E0186CF809105
:100FE0001D01882359F049E050E06BE271E08CE28A
:100FF00092E00E94600310921D0177CF80911C0146
:10100000882309F447C02091E7013091E80181E08D
:10101000232B09F480E09091260191118260909138
:101020002501911184609091CA01911180612091F4
:1010300023013091240189838091DB018A8380918F
:10104000DA018B838091D9018C838091F401909196
:10105000F5019D838091F4019091F5018E8380913B
:101060000C028F8384E0369527958A95E1F72F3F10
:10107000310519F010F02FEF30E0288748E050E0FC
:10108000BE016F5F7F4F8CE292E00E94600310927E
:101090001C012BCF6091E7017091E8018CE292E096
:1010A0000E946B0322CF1F93CF93DF93181619066C
:1010B0000CF0A8C0EC018CE292E00E9446039E0175
:1010C000215031098D3291050CF4B7C08058990B2D
:1010D0008931910508F0A6C0FC01EF58F74F0C9438
:1010E00035128A0898089C08A008A408A808AC082B
:1010F000B00812091209120912091209120912097B
:101100001209E608DA088A08B808EA0806090A098E
:101110000E09B40881E080932202E9011C161D0625
:101120000CF070C08CE292E00E9446032197F6CF4B
:1011300081E080932201F1CF81E080932101EDCF06
:1011400081E080931C01E9CF81E080932001E5CF0D
:1011500081E080931F01E1CF81E080931E01DDCF0C
:1011600081E080931D01D9CF81E08093FB01D5CF31
:10117000223031050CF456C08CE292E00E94460306
:10118000182F8CE292E00E9446039E012350310901
:1011900040E0582F412BCA018A50984F8D3E9F4006
:1011A00008F040C05093200240931F0281E08093DA
:1011B0002102B3CF232BE9F08CE292E00E94460398
:1011C000809313029E0122503109A7CF81E08093C2
:1011D0001802A3CF232B69F08CE292E00E94460311
:1011E00080930D029E012250310981E080930E020E
:1011F00094CF80910C028F3F29F080910C028F5F79
:1012000080930C02DF91CF911F91089581E080932C
:101210000B0283CF81E08093FA017FCF81E080933E
:101220000A027BCF80910C028F3F09F476CF809128
:101230000C028F5F80930C0270CFC230D10589F011
:101240004CF080910C028F3F29F080910C028F5F4F
:1012500080930C022197B1F28CE292E00E94460347
:10126000F9CF90931702809316028CE292E00E94CD
:1012700046031816190614F081E090E090930101DE
:1012800080930001BFCF0C94CA11CF93DF9385EDFB
:101290008093BC0080915C0190915D01A0915E0102
:1012A000B0915F010796A11DB11D23E0B695A795EA
:1012B000979587952A95D1F72091BC0024FD03C00E
:1012C0001092A40136C040915C0150915D01609183
:1012D0005E0170915F01452B462B472B69F3009708
:1012E000A105B10541F02AE22A95F1F700C0019766
:1012F000A109B109E1CF80915B0191E090935A017E
:101300008823B9F0C091B800D091BA008091BC0098
:101310008A7B8093BC0060E082E10E94DE0060E096
:1013200083E10E94DE000E941803D093BA00C093AC
:10133000B800DF91CF910895FF920F931F93CF9341
:10134000DF93EC01F62E08811981C8010E94CA11B1
:10135000F81621F06F2DC8010E94D211CE01DF9145
:10136000CF911F910F91FF900895AF92BF92CF92AE
:10137000DF92EF92FF920F931F93CF93DF9300D0F2
:10138000CDB7DEB78B016B0124E0C20ED11C7B010F
:101390005C01A61AB70AC5018E0D9F1D9A83898329
:1013A000F70161917F01CE0101960E949C09EC1426
:1013B000FD0489F7C8010F900F90DF91CF911F9125
:1013C0000F91FF90EF90DF90CF90BF90AF90089576
:1013D000CF93DF9300D0CDB7DEB79A838983CE0158
:1013E00001960E949C090F900F90DF91CF91089574
:1013F0001F920F920FB60F9211242F933F938F934A
:101400009F93AF93BF938091240290912502A09166
:101410002602B09127023091230223E0230F2D37BB
:1014200058F50196A11DB11D20932302809324023B
:1014300090932502A0932602B09327028091280260
:1014400090912902A0912A02B0912B020196A11D30
:10145000B11D8093280290932902A0932A02B09391
:101460002B02BF91AF919F918F913F912F910F9040
:101470000FBE0F901F90189526E8230F0296A11D0E
:10148000B11DD2CF1F920F920FB60F9211242F933E
:101490003F934F935F936F937F938F939F93AF93FC
:1014A000BF93EF93FF938091B900887F803609F452
:1014B0004AC0F0F5883209F4A7C018F5803109F464
:1014C0009BC0B8F4882309F4F9C0883009F494C0AB
:1014D000FF91EF91BF91AF919F918F917F916F910C
:1014E0005F914F913F912F910F900FBE0F901F90E2
:1014F0001895883109F488C0803251F78093A30190
:1015000014C0803409F49DC040F48033B9F38833AB
:10151000F9F68093A30185ECB0C0803509F485C04D
:10152000883509F496C0883499F60E944509D0CFD1
:10153000883909F48CC038F5883729F050F488369A
:1015400011F0803729F683E08093A4011092A20164
:1015500057C0883809F47BC0803919F0803809F009
:10156000B7CF8091A201803208F071C0E091A20152
:1015700081E08E0F8093A2018091BB00F0E0EE57D6
:10158000FE4F80833DC0803B39F0E0F4803A09F49F
:1015900079C0883A09F09CCF84E08093A40110922E
:1015A000810110928001E091CD01F091CE01099569
:1015B0008091800181110FC081E0809380011092A1
:1015C000600109C0803C09F4A6CF883C09F4A3CF90
:1015D000883B09F07DCFE091810181E08E0F8093FF
:1015E0008101F0E0E05AFE4F80818093BB00909132
:1015F00081018091800129C08091C9018093BB0045
:1016000085EC8093BC0064CF9091C8018091C701A4
:10161000981758F5E091C80181E08E0F8093C801BA
:10162000F0E0E955FE4F8081E9CFE091C80181E00B
:101630008E0F8093C8018091BB00F0E0E955FE4F0A
:1016400080839091C8018091C7019817C8F285E8FE
:10165000D8CFE091C80181E08E0F8093C8018091BE
:10166000BB00F0E0E955FE4F80838091A601811117
:101670005CCF81E08093A50184EA8093BC00109246
:10168000A40126CF85EC8093BC001092A401809128
:10169000A201803230F4E091A201F0E0EE57FE4F5B
:1016A00010826091A20170E0E091CB01F091CC0139
:1016B00082E891E009951092A2010ACF1092A3014D
:1016C00034CFCF93DF93ECE2F2E01382128288EE04
:1016D00093E0A0E0B0E084839583A683B78386E09F
:1016E00091E091838083C8E3D2E01B861A86198239
:1016F00018821E8A1F8A188E198E86EF97E09F83A4
:101700008E838BE090E09D878C8789E090E09F87B7
:101710008E878AE090E0998B888B88E090E09B8BA5
:101720008A8B61E08BE00E941C0261E08E850E9442
:101730001C0261E088890E941C0261E08A890E9483
:101740001C021D8A1C8A84E090E099878887DF91BB
:10175000CF910895CF93DF93CDB7DEB7C154D109B0
:101760000FB6F894DEBF0FBECDBF789484B582600B
:1017700084BD84B5816084BD85B5826085BD85B535
:10178000816085BD80916E00816080936E001092B3
:10179000810080918100826080938100809181002E
:1017A00081608093810080918000816080938000BF
:1017B0008091B10084608093B1008091B00081601D
:1017C0008093B00080917A00846080937A00809149
:1017D0007A00826080937A0080917A0081608093A1
:1017E0007A0080917A00806880937A001092C1001C
:1017F00084B78093DB0114BE0FB6F894A89580914E
:101800006000886180936000109260000FBE86E0E7
:1018100090E00E9443098A3509F038C184E090E0E5
:101820000E9443098093DA0185E090E00E94430919
:101830008093D9018091DB0182FF0BC06091DA01B6
:101840006F3F39F06F5F6093DA0184E090E00E94AF
:10185000E8098091DB0183FF0BC06091D9016F3FE4
:1018600039F06F5F6093D90185E090E00E94E8094C
:1018700087E090E00E944309833C09F01BC19E0170
:101880002F5F3F4F6901890178E0E72EF12C580165
:1018900034E0A30EB11C4701801A910AC401800FE5
:1018A000911F0E94CA11D8018D938D01AA15BB0505
:1018B000A9F7B4E0EB0EF11CE8E4EE16F10439F7F9
:1018C00021E030E02C0F3D1F205C3F4F80E090E096
:1018D000DC01F60141915191619171916F014F3F8E
:1018E000FFEF5F076F077F0739F084179507A6079B
:1018F000B70710F4DB01CA012C153D0551F78093A1
:10190000000290930102A0930202B093030280911F
:10191000000290910102A0910202B0910302809313
:10192000FC019093FD01A093FE01B093FF01809311
:10193000060290930702A0930802B093090262E0A6
:1019400086E00E941C0262E085E00E941C0262E0C8
:1019500084E00E941C0262E083E00E941C0260E0BE
:1019600087E00E941C0261E08DE00E941C0260E0A2
:101970008DE00E94DE0082E090E00E944309853AFB
:1019800009F0B7C083E090E00E9443099FEF980FF1
:101990009E3708F0AEC091E09093CA01082F10E086
:1019A0001093D8010093D70190E080E00E94CA1103
:1019B000898381E090E00E94CA118A8389819A819B
:1019C0008A50984F8D3E9F4010F01A82198289816B
:1019D0009A8190931E0280931D020E947F031092B1
:1019E000D2011092D1011092D0011092CF010E9429
:1019F00018038BEB92E09093CE018093CD0187EC9E
:101A000092E09093CC018093CB01000F0093BA0039
:101A10008091BA0081608093BA0083E598E090934A
:101A2000D4018093D30184E497E09093D60180930E
:101A3000D50188E199E20FB6F894A89580936000EB
:101A40000FBE9093600081E00E94BC05812C67E886
:101A5000962E63E9A62E63E0B62EA8950E947F031A
:101A600000912202002309F474C06AE070E080E073
:101A700090E00E947D0288E198E00FB6F894A89566
:101A8000809360000FBE90936000FFCF1092DA0148
:101A90001092D90160E084E090E00E94E80960E0E3
:101AA00085E090E00E94E8096AE586E090E00E9407
:101AB000E809C0CE19821A821B821C8208E010E05D
:101AC000BE016F5F7F4FC8010E94B5090C5F1F4FB9
:101AD00008341105A9F763EC87E090E00E94E8095B
:101AE0001092000210920102109202021092030260
:101AF0000ECF83E00E94B50001E010E0892B11F0C9
:101B000010E000E084E00E94B500892BC9F482E077
:101B100090E0080F191F85E00E94B500892B99F409
:101B200084E090E0080F191F86E00E94B500892B21
:101B300069F488E090E0080F191F0F5F1F4F30CF46
:101B400090E080E0E6CF90E080E0ECCF90E080E0B5
:101B5000F2CF80912102882331F1F894E0901F02A6
:101B6000F090200210922102F0921E02E0921D02DB
:101B700078941A8219826E2DCE0101960E949C09DA
:101B800041E050E05A8349836F2DCE0101960E94B7
:101B90009C090E94AF026093190270931A0280930D
:101BA0001B0290931C02809118028823C9F0F894BC
:101BB00010921802789481E00E94BC0510921702DE
:101BC0001092160210921502109214020E94AF0297
:101BD0006093190270931A0280931B0290931C0267
:101BE00080911302882309F44BC0F89410911302DA
:101BF0001092130278940E944304C0900001D09088
:101C0000010120913E0230913F02032E000C440B53
:101C1000550BC501B4010E9416120D2C000CEE08E4
:101C2000FF08CA01B901A70196010E94161220936C
:101C30003A0230933B0240933C0250933D02812F85
:101C4000110F990B0E949B0462E370E080E090E02A
:101C50000E947D020E945D040E94AF0260930F0209
:101C60007093100280931102909312020E94AF02AF
:101C70006093190270931A0280931B0290931C02C6
:101C800080910E028823B9F0F89460910D021092B1
:101C90000E0278948FEF860F8E3708F009C183E02B
:101CA00090E00E94E80965EA82E090E00E94E8097D
:101CB00081E08093220280910B02882361F0F894E6
:101CC00010920B0278946FEF82E090E00E94E80996
:101CD00081E08093220280910A02882309F43EC0A9
:101CE000F89410920A0210920602109207021092C3
:101CF00008021092090278941092000210920102D8
:101D00001092020210920302109205021092040235
:101D10001092FC011092FD011092FE011092FF0141
:101D200019821A821B821C8258E0E52EF12CBE011A
:101D30006F5F7F4FC7010E94B50954E0E50EF11CAB
:101D400088E4E816F10499F70E94AF026093190243
:101D500070931A0280931B0290931C0280910002E0
:101D600090910102A0910202B09103024091FC0106
:101D70005091FD016091FE017091FF016C017D01A8
:101D8000C41AD50AE60AF70AB701A6014038510578
:101D90006105710518F189839A83AB83BC8337E0B1
:101DA000B695A795979587953A95D1F78F7090E05E
:101DB0000296BE016F5F7F4F880F991F880F991F92
:101DC0000E94B50989819A81AB81BC818093FC0115
:101DD0009093FD01A093FE01B093FF01D090FB0111
:101DE0002296DFAE2297DD2009F4A8C1F894109264
:101DF000FB01789481E08093E0010E947F030E94C0
:101E0000430420913E0230913F02032E000C440B0C
:101E1000550BC501B4010E941612CA01B9012AE08E
:101E200030E040E050E00E94161220933A023093D6
:101E30003B0240933C0250933D0287E00E94B50074
:101E4000C12CD12C7601892B09F0F5C087E00E94C6
:101E5000B500892B09F0E6C0A89581E090E00E94CA
:101E60009B042FEFC21AD20AE20AF20A33EEC3161B
:101E700037E1D306E104F10449F783E0C82EC092AC
:101E8000E0011092E2011092E1011092E40110923F
:101E9000E3011092E6011092E501109215021092F2
:101EA000140210921702109216021092EF0126C12E
:101EB000F89480910C028F3F29F080910C028F5F83
:101EC00080930C027894F7CE113019F522960FAD5D
:101ED000229710E06101A89581E090E00E949B04A8
:101EE00016018FEF281A380A9DEE29169FE0390651
:101EF00021F287E00E94B500011106C0892B21F76D
:101F0000AFEFEA1AFA0AE5CF892B19F7113009F475
:101F1000BCC011E0DFCF2DE730E040E050E00E9490
:101F2000F411CA01B9016095709580959095617022
:101F30007727882799278DE00E94DE0054C131E081
:101F400020E090E080E0B0C10E94AF0260930F02F9
:101F5000709310028093110290931202C0901402A9
:101F6000D09015020C151D05B4F10E944304409059
:101F700000015090010120913E0230913F02032E5A
:101F8000000C440B550BC501B4010E941612052C20
:101F9000000C66087708CA01B901A30192010E94EA
:101FA000161220933A0230933B0240933C02509326
:101FB0003D02C8018C199D090E948E0610931502DE
:101FC0000093140264E670E080E090E00E947D02DD
:101FD0000E945D04D7C180E00E94BC05C090000152
:101FE000D090010120913E0230913F02032E000C5F
:101FF000440B550BC501B4010E9416120D2C000CA8
:10200000EE08FF08CA01B901A70196010E94161245
:1020100020933A0230933B0240933C0250933D029E
:10202000C801CACF82E390E00E949B04B2E3CB0ECA
:10203000D11CE11CF11C87E00E94B500892B99F0AE
:10204000A89581E090E00E949B044FEFC41AD40A47
:10205000E40AF40A53EEC51657E1D506E104F1048B
:102060000CF00BCFE8CF1092EE011092ED0181E061
:102070008093EF010E94AF022B013C0110E0EE249F
:10208000E394F12CD12CC12C26CF0E94AF02DC01AD
:10209000CB0184199509A609B7090097E1E0AE07BD
:1020A000B10520F08FEF9FEFA0E0B0E09093E60144
:1020B0008093E501D092E201C092E101F092E40147
:1020C000E092E301F2E0F093E0011092EE01109251
:1020D000ED0181E08093EF0180911D0290911E023D
:1020E0000E949B0410921502109214021092DC01BF
:1020F0001092DD011092DE011092DF011092F301C7
:102100000E94AF0260930F0270931002809311023D
:102110009093120264E670E080E090E00E947D02FD
:102120000E945D040E947F030E94AF026093190227
:1021300070931A0280931B0290931C028091FA0103
:102140008823F1F0F8941092FA0178940E94AF027B
:102150006093F6017093F7018093F8019093F90171
:10216000672B682B692B61F4C12CD12C7601C394A9
:10217000C092F601D092F701E092F801F092F901D5
:102180000E94AF026B017C018091F6019091F701F2
:10219000A091F801B091F9010097A105B10519F1DD
:1021A000C0921902D0921A02E0921B02F0921C0215
:1021B000A7019601281B390B4A0B5B0BCA01B90119
:1021C000683B3BE073078105910508F4A4CE60E00D
:1021D0008DE00E94DE001092F6011092F70110923D
:1021E000F8011092F901C701B60128EE33E040E092
:1021F00050E00E94F4112115310581E04807510596
:1022000020F02FEF3FEF40E050E0F8943093F501DD
:102210002093F40178948091F301882309F459C044
:1022200020911402309115028091160290911702AC
:102230002817390709F04DC08091190290911A02B0
:10224000A0911B02B0911C02A7019601281B390B1B
:102250004A0B5B0BDA01C901803D9740A105B1052E
:10226000C0F18091E9019091EA01A091EB01B09158
:10227000EC010097A105B10569F0A7019601281BA3
:10228000390B4A0B5B0BDA01C90180369A4EA10566
:10229000B105F8F0C114D104E104F10409F44FCE02
:1022A0003C2D2D2D9E2D8F2D3093E9012093EA0199
:1022B0009093EB018093EC0181E00E94BC050E94A9
:1022C000AF026093190270931A0280931B029093DD
:1022D0001C028091190290911A02A0911B02B091E8
:1022E0001C02A7019601281B390B4A0B5B0BDA0174
:1022F000C901803D9740A105B10590F083B7817F6A
:1023000083BF83B7816083BF889583B78E7F83BF88
:10231000C0921902D0921A02E0921B02F0921C02A3
:1023200020911402309115028091160290911702AB
:102330002817390739F100911602109117020D3252
:10234000110500F5C0900F02D0901002E09011022C
:10235000F0901202C114D104E104F10409F4F4CDA7
:102360000E94AF026C197D098E099F09613D77407B
:102370008105910508F0E8CD81E090E09093E801B7
:102380008093E701A0E0B0E0AB2B09F466CB0E949C
:10239000000063CBF999FECF92BD81BDF89A9927D1
:1023A00080B50895262FF999FECF1FBA92BD81BD41
:1023B00020BD0FB6F894FA9AF99A0FBE01960895C7
:1023C00097FB072E16F4009407D077FD09D00E94E2
:1023D000461207FC05D03EF4909581959F4F0895D5
:1023E000709561957F4F0895A1E21A2EAA1BBB1B21
:1023F000FD010DC0AA1FBB1FEE1FFF1FA217B307D1
:10240000E407F50720F0A21BB30BE40BF50B661FE6
:10241000771F881F991F1A9469F7609570958095AA
:1024200090959B01AC01BD01CF010895052E97FB4E
:102430001EF400940E942D1257FD07D00E94F41143
:1024400007FC03D04EF40C942D1250954095309516
:1024500021953F4F4F4F5F4F089590958095709510
:1024600061957F4F8F4F9F4F0895EE0FFF1F05908F
:10247000F491E02D09940E945A12A59F900DB49FEB
:10248000900DA49F800D911D11240895AA1BBB1BC4
:1024900051E107C0AA1FBB1FA617B70710F0A61B64
:1024A000B70B881F991F5A95A9F780959095BC0185
:1024B000CD010895A29FB001B39FC001A39F700DED
:1024C000811D1124911DB29F700D811D1124911D3C
:1024D00008955058BB27AA270E9481120C94ED1230
:1024E0000E94DF1238F00E94E61220F039F49F3F7C
:1024F00019F426F40C94DC120EF4E095E7FB0C942E
:10250000D612E92F0E94FE1258F3BA17620773071A
:102510008407950720F079F4A6F50C9420130EF4A7
:10252000E0950B2EBA2FA02D0B01B90190010C01E3
:10253000CA01A0011124FF27591B99F0593F50F4FB
:10254000503E68F11A16F040A22F232F342F442753
:10255000585FF3CF469537952795A795F04053954B
:10256000C9F77EF41F16BA0B620B730B840BBAF01B
:102570009150A1F0FF0FBB1F661F771F881FC2F786
:102580000EC0BA0F621F731F841F48F4879577959A
:102590006795B795F7959E3F08F0B0CF9395880F54
:1025A00008F09927EE0F97958795089597F99F67FB
:1025B00080E870E060E008959FEF80EC08950024CB
:1025C0000A941616170618060906089500240A9498
:1025D00012161306140605060895092E0394000C1E
:1025E00011F4882352F0BB0F40F4BF2B11F460FFAD
:1025F00004C06F5F7F4F8F4F9F4F089557FD9058D6
:10260000440F551F59F05F3F71F04795880F97FBB6
:10261000991F61F09F3F79F0879508951216130670
:102620001406551FF2CF4695F1DF08C0161617069F
:102630001806991FF1CF86957105610508940895D4
:10264000E894BB2766277727CB0197F908950E9466
:102650002C1308F48FEF0895990F0008550FAA0B5B
:10266000E0E8FEEF16161706E807F907C0F01216A5
:102670001306E407F50798F0621B730B840B950BA8
:1026800039F40A2661F0232B242B252B21F40895FD
:102690000A2609F4A140A6958FEF811D811D08959A
:0426A000F894FFCFDC
:1026A4000A00000000006B0360037C033603590337
:0C26B400460337033331373735623500F9
:00000001FF
