:100000000C9462000C948A000C948A000C948A0070
:100010000C948A000C948A000C948A000C948A0038
:100020000C948A000C948A000C948A000C948A0028
:100030000C948A000C948A000C948A000C948A0018
:100040000C9450070C948A000C948A000C948A003B
:100050000C948A000C948A000C948A000C948A00F8
:100060000C949A070C948A000000000024002700DA
:100070002A0000000000250028002B0000000000DE
:1000800023002600290004040404040404040202DA
:100090000202020203030303030301020408102007
:1000A0004080010204081020010204081020000012
:1000B0000008000201000003040700000000000027
:1000C0000000B90811241FBECFEFD8E0DEBFCDBFBE
:1000D00011E0A0E0B1E0EEEAFBE102C005900D9274
:1000E000AC31B107D9F722E0ACE1B1E001C01D921B
:1000F000AB31B207E1F710E0C2E6D0E004C02197CF
:10010000FE010E94D40CC136D107C9F70E94020932
:100110000C94D50D0C940000833081F028F48130CC
:1001200099F08230A9F008958730A9F08830C9F09D
:100130008430B1F4809180008F7D03C08091800075
:100140008F7780938000089584B58F7784BD08955C
:1001500084B58F7DFBCF8091B0008F778093B00006
:1001600008958091B0008F7DF9CFCF93DF93282F32
:1001700030E0F901E255FF4F8491F901E656FF4F57
:10018000D491F901EA57FF4FC491CC23A1F081111A
:100190000E948C00EC2FF0E0EE0FFF1FE458FF4FA1
:1001A000A591B491EC91ED2381E090E009F480E019
:1001B000DF91CF91089580E090E0FACF1F93CF9325
:1001C000DF93282F30E0F901E255FF4F8491F901C8
:1001D000E656FF4FD491F901EA57FF4FC491CC2363
:1001E000A9F0162F81110E948C00EC2FF0E0EE0F89
:1001F000FF1FEE58FF4FA591B4918FB7F894EC9183
:10020000111108C0D095DE23DC938FBFDF91CF9111
:100210001F910895DE2BF8CFCF93DF93EC018091EF
:10022000090290910A02029749F4C130D10509F4FC
:100230003BC06CF560E0209709F437C0809109025B
:1002400090910A02049749F4C130D10509F45CC0C9
:100250000CF037C0209709F442C0809109029091B8
:100260000A02059709F0E5C0CA30D10508F0E1C0DF
:10027000FE01E35CFE4F0C94D40C9C01A801B90173
:10028000CF01EA01EC01F301FF0110021702C230B5
:10029000D105A9F060E0C330D10581F680910D024F
:1002A0000E94DE0060E006C061E080910D020E94C5
:1002B000DE0061E080910F020E94DE00BFCF61E0AE
:1002C000EDCFC230D10539F1C330D10509F0C5CF2A
:1002D00061E080910D020E94DE0060E022C061E0DA
:1002E00080910D020E94DE0060E080910F020E946A
:1002F000DE0061E0809111020E94DE0060E08091EA
:1003000013020E94DE00A9CF60E080910D020E94DE
:10031000DE0061E0EACF60E080910D020E94DE0025
:1003200061E080910F020E94DE0060E08091110286
:100330000E94DE0061E0E3CF60E080910D020E9448
:10034000DE0061E080910F020E94DE0061E00BC0E0
:1003500060E080910D020E94DE0061E080910F025A
:100360000E94DE0060E0809111020E94DE0060E0E9
:1003700010C060E080910D020E94DE0061E080917B
:100380000F020E94DE0060E0809111020E94DE00F8
:1003900061E0809113020E94DE0061E015C060E020
:1003A00080910D020E94DE0061E080910F020E94A8
:1003B000DE0060E0809111020E94DE0061E0809129
:1003C00013020E94DE0060E080911502DF91CF9160
:1003D0000C94DE0061E0E4CF61E080910D020E94A8
:1003E000DE0060E0E2CF61E080910D020E94DE005D
:1003F00060E080910F020E94DE0061E0DBCF61E0EF
:1004000080910D020E94DE0060E080910F020E9448
:10041000DE0061E0809111020E94DE0060E0CFCF3B
:1004200061E080910D020E94DE0060E08BCF60E011
:10043000F8CFDF91CF910895CF93DF9390E0FC0147
:10044000E656FF4F24918A579F4FFC0184918823E1
:10045000C9F090E0880F991FFC01E859FF4FA59162
:10046000B491FC01EE58FF4FC591D49161110DC0BC
:100470009FB7F8948C91209582238C9388812823B0
:1004800028839FBFDF91CF910895623051F49FB7C9
:10049000F8943C91822F809583238C93E8812E2BB6
:1004A000EFCF8FB7F894EC912E2B2C938FBFEACF20
:1004B0003FB7F8948091F1019091F201A091F3017E
:1004C000B091F40126B5A89B05C02F3F19F0019605
:1004D000A11DB11D3FBFBA2FA92F982F8827BC019E
:1004E000CD01620F711D811D911D42E0660F771FC6
:1004F000881F991F4A95D1F708954F925F926F9286
:100500007F928F929F92AF92BF92EF92FF920F9342
:100510001F93CF93DF93EC0197FF04C0CC27DD2717
:10052000C81BD90B181619060CF061C081E090E0C9
:10053000909302028093010204E010E08AE0E82E2A
:10054000F12C209709F46FC00E9458028090170286
:1005500090901802A0901902B0901A022B013C0151
:10056000481859086A087B0880900302909004029A
:10057000A0900502B0900602481459046A047B0456
:1005800000F36093170270931802809319029093FE
:100590001A0280910B0290910C022091010230917D
:1005A00002022130310559F5019690930C02809397
:1005B0000B0220910702309108028217930721F461
:1005C00010920C0210920B02219780910B029091D5
:1005D0000C022091090230910A02B7012530310541
:1005E00009F0B8010E947F0C0E940C01AACF892B50
:1005F00009F4A2CF10920202109201029DCF892B22
:1006000041F4809107029091080290930C0280932C
:100610000B0280910B0290910C02019790930C02B7
:1006200080930B02D1CFDF91CF911F910F91FF905B
:10063000EF90BF90AF909F908F907F906F905F9062
:100640004F9008958F929F92AF92BF92CF92DF9278
:10065000EF92FF924B015C010E9458026B017C01FA
:100660000E9458026C197D098E099F09683E7340EB
:1006700081059105A8F321E0821A9108A108B1082B
:1006800088EEC80E83E0D81EE11CF11C8114910491
:10069000A104B10429F7FF90EF90DF90CF90BF90B5
:1006A000AF909F908F9008952FB7F8946091ED01CF
:1006B0007091EE018091EF019091F0012FBF0895AC
:1006C000E091C601F091C701309729F01092C10165
:1006D0001092C00109940895CF93DF93AC01E0918B
:1006E000C401F091C5013097F1F09091C301809160
:1006F000C2019817C0F090E0292F30E02617370785
:1007000054F4D901A45DBE4F240F351FE90128819F
:100710002C939F5FF1CF1092C3016093C201CB0174
:10072000DF91CF910994DF91CF91089520917201CB
:10073000260F3327331F21323105ECF42091960127
:10074000FC0190E080E0243069F082E00895A091FF
:1007500072012191AC014E5A5E4FA40FB52FB11D0D
:100760002C930196861798F380917201680F60931D
:10077000720180E0089581E008951092960181E071
:10078000809398011092970161E082E10E94DE005F
:1007900061E083E10E94DE00E9EBF0E080818E7F82
:1007A000808380818D7F808388E48093B80085E496
:1007B0008093BC0008950895E091C3018091C20127
:1007C000E81730F4F0E0E45DFE4F808190E008959A
:1007D0008FEF9FEF08959091C3018091C2012FEF99
:1007E0003FEF981748F4E92FF0E0E45DFE4F2081D9
:1007F00030E09F5F9093C301C90108958091C201C9
:100800009091C301891B990B0895CF93DF93CB017E
:10081000EA01642F0E949603CE01DF91CF910895E3
:10082000CF93DF931F92CDB7DEB7698361E0CE012E
:1008300001960E94960381E090E00F90DF91CF91A6
:10084000089590E080E0089581E090E09093CC01DD
:100850008093CB0160912B018BE00E94DE006091C0
:100860002A018AE00E94DE006091290189E00E944D
:10087000DE006091280188E00C94DE008BE00E948D
:10088000B50021E0892B09F420E020932B018AE0B8
:100890000E94B50021E0892B09F420E020932A0171
:1008A00089E00E94B50021E0892B09F420E0209323
:1008B000290188E00E94B50021E0892B09F420E09D
:1008C0002093280160E08BE00E94DE0060E08AE077
:1008D0000E94DE0060E089E00E94DE0060E088E0C7
:1008E0000E94DE001092CC011092CB0164E670E011
:1008F00080E090E00C9422030F931F93CF93DF933B
:10090000082F81E090E09093CC018093CB0120915F
:10091000070230910802032E000C440B550B60E0D7
:1009200077E883E993E00E94B50CCA01B9012AE097
:1009300030E040E050E00E94B50C20930302309379
:1009400004024093050250930602D0E0C0E010E09C
:10095000A89587E00E94B500009709F461C001974F
:10096000C1F18091E6019091E7010E947D02109211
:10097000DE011092DD0110922401109225011092E7
:10098000260110922701F8941092230181E0182784
:1009900010932201D0932101C0932001789401117A
:1009A0000E943E04CE01DF91CF911F910F910895D7
:1009B00087E00E94B500892BB9F5A89581E090E009
:1009C0000E947D022196C33E87E1D80789F711E096
:1009D00012C0209741F482E390E00E947D02C2E3BE
:1009E000D0E02196B5CF81E090E00E947D02C33E29
:1009F00087E1D807B4F31092DE011092DD01F8947C
:100A000081E080932301182710932201D0932101C4
:100A1000C093200178940E943E04CFEFDFEFC2CF55
:100A2000209731F211E09DCF82E390E00E947D0299
:100A3000E29611E0DCCFCF93DF93CDB7DEB72897F6
:100A40000FB6F894DEBF0FBECDBF80911F01882383
:100A500021F1BE016F5F7F4F88E0FB0111928A9503
:100A6000E9F7E4E1F1E0DB018191882329F08D933E
:100A700081E0EC31F807C1F748E050E085EF91E004
:100A80000E94050410921F0128960FB6F894DEBF4D
:100A90000FBECDBFDF91CF91089580911E018823B5
:100AA00091F09091E6018091E70199838A8342E079
:100AB00050E0BE016F5F7F4F85EF91E00E9405041B
:100AC00010921E01E1CF80911D01882399F0809141
:100AD000DD019091DE01898380958A8342E050E0B8
:100AE000BE016F5F7F4F85EF91E00E940504109279
:100AF0001D01CACF80911C016091CB017091CC0186
:100B0000882309F43FC081E0672B09F480E09091CD
:100B100023019111826090912201911184602091B2
:100B200020013091210189838091CA018A838091BB
:100B3000C9018B838091C8018C838091CD019091F4
:100B4000CE019D838091CD019091CE018E838091C5
:100B5000D5018F8384E0369527958A95E1F72F3F5D
:100B6000310519F010F02FEF30E0288748E050E011
:100B7000BE016F5F7F4F85EF91E00E9405041092E8
:100B80001C0182CF85EF91E00E9410047DCF1F935E
:100B9000CF93DF93181619060CF08DC0EC0185EF8A
:100BA00091E00E94EB039E01215031098D329105A5
:100BB0000CF496C08058990B8731910508F087C0D6
:100BC000FC01EB51FA4F0C94D40CFC050A060E06FE
:100BD0001206160667066706670667066706670653
:100BE0006706670667066706670641063506FC0561
:100BF0001A0645065F06630681E08093EB01E90172
:100C00001C161D060CF057C085EF91E00E94EB0307
:100C10002197F6CF81E080931F01F1CF81E080938F
:100C20001E01EDCF81E080931C01E9CF81E080932C
:100C30001D01E5CF223031050CF449C085EF91E06C
:100C40000E94EB03182F85EF91E00E94EB039E01B9
:100C50002350310940E0582F412B5093E901409334
:100C6000E80181E08093EA01CACF232BE9F085EF08
:100C700091E00E94EB038093DC019E012250310938
:100C8000BECF81E08093E101BACF232B69F085EFDD
:100C900091E00E94EB038093D6019E01225031091E
:100CA00081E08093D701ABCF8091D5018F3F19F0C0
:100CB0008F5F8093D501DF91CF911F91089581E0DF
:100CC0008093D4019CCF81E08093D30198CF809111
:100CD000D5018F3F09F493CF8F5F8093D5018FCFDC
:100CE000C230D10579F03CF08091D5018F3F19F0E9
:100CF0008F5F8093D5012197F1F285EF91E00E94FB
:100D0000EB03F9CF9093E0018093DF0185EF91E051
:100D10000E94EB031816190614F081E090E09093FE
:100D2000010180930001C7CFCF92DF92EF92FF9233
:100D30000F931F93CF93DF938C01D0E0C0E0C017D7
:100D4000D107D4F5A89520E039EE43E95EE3609140
:100D500024017091250180912601909127010E9424
:100D6000EF0C6B017C0120E030E040E85FE30E9483
:100D7000AC0D181674F0C0922401D0922501E092B7
:100D80002601F09227018DE290E00E947D022196DB
:100D9000D6CF20E030E040E85FE3C701B6010E9413
:100DA000EE0C6093240170932501809326019093AB
:100DB00027018EE290E0E9CFDF91CF911F910F9153
:100DC000FF90EF90DF90CF9008951F93CF93DF9324
:100DD000EC01162F0E94690C181739F0612FCE0113
:100DE000DF91CF911F910C94710CDF91CF911F91E6
:100DF0000895CF93DF9385ED8093BC0080914E01E1
:100E000090914F01A0915001B09151010796A11D01
:100E1000B11D23E0B695A795979587952A95D1F7AB
:100E20002091BC0024FD03C01092960136C0409171
:100E30004E0150914F016091500170915101452B2D
:100E4000462B472B69F30097A105B10541F02AE233
:100E50002A95F1F700C00197A109B109E1CF80916E
:100E60004D0191E090934C018823B9F0C091B800F6
:100E7000D091BA008091BC008A7B8093BC0060E076
:100E800082E10E94DE0060E083E10E94DE000E94B9
:100E9000BD03D093BA00C093B800DF91CF910895FD
:100EA0001F920F920FB60F9211242F933F938F939F
:100EB0009F93AF93BF938091ED019091EE01A0912C
:100EC000EF01B091F0013091EC0123E0230F2D37B9
:100ED00058F50196A11DB11D2093EC018093ED0101
:100EE0009093EE01A093EF01B093F0018091F10196
:100EF0009091F201A091F301B091F4010196A11D2E
:100F0000B11D8093F1019093F201A093F301B0938E
:100F1000F401BF91AF919F918F913F912F910F90CD
:100F20000FBE0F901F90189526E8230F0296A11D63
:100F3000B11DD2CF1F920F920FB60F9211242F9393
:100F40003F934F935F936F937F938F939F93AF9351
:100F5000BF93EF93FF938091B900887F803609F4A7
:100F60004AC0F0F5883209F4A7C018F5803109F4B9
:100F70009BC0B8F4882309F4F9C0883009F494C000
:100F8000FF91EF91BF91AF919F918F917F916F9161
:100F90005F914F913F912F910F900FBE0F901F9037
:100FA0001895883109F488C0803251F780939501F3
:100FB00014C0803409F49DC040F48033B9F3883301
:100FC000F9F68093950185ECB0C0803509F485C0B1
:100FD000883509F496C0883499F60E94F906D0CF76
:100FE000883909F48CC038F5883729F050F48836F0
:100FF00011F0803729F683E08093960110929401D6
:1010000057C0883809F47BC0803919F0803809F05E
:10101000B7CF80919401803208F071C0E0919401C3
:1010200081E08E0F809394018091BB00F0E0EC583A
:10103000FE4F80833DC0803B39F0E0F4803A09F4F4
:1010400079C0883A09F09CCF84E080939601109291
:10105000730110927201E091BE01F091BF010995F8
:101060008091720181110FC081E080937201109212
:10107000520109C0803C09F4A6CF883C09F4A3CFF3
:10108000883B09F07DCFE091730181E08E0F809362
:101090007301F0E0EE5AFE4F80818093BB00909187
:1010A00073018091720129C08091BB018093BB00C4
:1010B00085EC8093BC0064CF9091BA018091B90116
:1010C000981758F5E091BA0181E08E0F8093BA012C
:1010D000F0E0E756FE4F8081E9CFE091BA0181E070
:1010E0008E0F8093BA018091BB00F0E0E756FE4F6F
:1010F00080839091BA018091B9019817C8F285E870
:10110000D8CFE091BA0181E08E0F8093BA0180912F
:10111000BB00F0E0E756FE4F80838091980181117B
:101120005CCF81E08093970184EA8093BC001092A9
:10113000960126CF85EC8093BC0010929601809199
:101140009401803230F4E0919401F0E0EC58FE4FCD
:1011500010826091940170E0E091BC01F091BD01BA
:1011600084E791E00995109294010ACF10929501BD
:1011700034CFCF93DF93E5EFF1E01382128288EE54
:1011800093E0A0E0B0E084839583A683B78386E0F4
:1011900091E091838083C1E0D2E01B861A86198298
:1011A00018821E8A1F8A188E198E86EF97E09F83F9
:1011B0008E838BE090E09D878C8789E090E09F870D
:1011C0008E878AE090E0998B888B88E090E09B8BFB
:1011D0008A8B61E08BE00E941C0261E08E850E9498
:1011E0001C0261E088890E941C0261E08A890E94D9
:1011F0001C021D8A1C8A84E090E099878887DF9111
:10120000CF910895789484B5826084BD84B581605F
:1012100084BD85B5826085BD85B5816085BD8091C1
:101220006E00816080936E00109281008091810039
:101230008260809381008091810081608093810031
:10124000809180008160809380008091B1008460F3
:101250008093B1008091B00081608093B000809154
:101260007A00846080937A0080917A008260809313
:101270007A0080917A00816080937A0080917A0070
:10128000806880937A001092C10084B78093CA016D
:1012900014BE0FB6F894A895809160008861809381
:1012A0006000109260000FBE84E090E00E94690C24
:1012B000C82F8093C90185E090E00E94690C80935B
:1012C000C8018091CA0182FF0AC0CF3F41F061E0AE
:1012D0006C0F6093C90184E090E00E94E506809164
:1012E000CA0183FF0BC06091C8016F3F39F06F5F87
:1012F0006093C80185E090E00E94E50662E086E028
:101300000E941C0262E085E00E941C0262E084E010
:101310000E941C0262E083E00E941C0260E087E001
:101320000E941C0261E08DE00E941C0260E08DE0E2
:101330000E94DE0082E090E00E94690C853A49F448
:1013400083E090E00E94690C9FEF980FC82F9E37B2
:1013500040F183E00E94B500C1E0D0E0892B11F09C
:10136000D0E0C0E084E00E94B500892B09F48EC073
:1013700090E080E0C80FD91F85E00E94B500892B5E
:1013800009F487C090E080E0C80FD91F86E00E9472
:10139000B500892B09F480C090E080E0C80FD91F08
:1013A00021961092C3011092C2011092C1011092B5
:1013B000C0010E94BD0380E693E09093BF0180933B
:1013C000BE018CE693E09093BD018093BC01CC0FED
:1013D000C093BA008091BA0081608093BA0087EC14
:1013E00095E09093C5018093C4018BE195E09093C3
:1013F000C7018093C60188E199E20FB6F894A895D9
:10140000809360000FBE9093600090E080E00E94A7
:10141000690C8093E60181E090E00E94690C809362
:10142000E7018091E6019091E7018A50984F8D3E47
:101430009F4020F01092E7011092E60181E00E94A7
:101440007C04C12C87E8D82E83E9E82E83E0F82EAF
:1014500090E0292E90E0392E412C512C32014394FA
:10146000A8958091EB018823D1F06AE070E080E0DC
:1014700090E00E94220388E198E00FB6F894A895C6
:10148000809360000FBE90936000FFCF82E090E0F9
:1014900071CF84E090E078CF88E090E07FCF8091BA
:1014A000EA01882381F1F8948091E8019091E901A3
:1014B0001092EA019093E7018093E6017894C0913D
:1014C000E60190E080E00E94690C8C1729F06C2FF7
:1014D00090E080E00E94710CC091E70181E090E013
:1014E0000E94690C8C1729F06C2F81E090E00E941B
:1014F000710C0E9454036093E2017093E3018093A6
:10150000E4019093E5018091E1018823C9F0F8940A
:101510001092E101789481E00E947C041092E00135
:101520001092DF011092DE011092DD010E9454033F
:101530006093E2017093E3018093E4019093E501ED
:101540008091DC01882309F44BC0F8941091DC01F0
:101550001092DC0178940E94240480900001909005
:1015600001012091070230910802032E000C440B68
:10157000550BC701B6010E94B50C092C000CAA0836
:10158000BB08CA01B901A50194010E94B50C2093C2
:101590000302309304024093050250930602812F08
:1015A000110F990B0E947D0262E370E080E090E0F1
:1015B0000E9422030E943E040E9454036093D801BB
:1015C0007093D9018093DA019093DB010E94540358
:1015D0006093E2017093E3018093E4019093E5014D
:1015E0008091D7018823B9F0F8946091D6011092C8
:1015F000D70178948FEF860F8E3708F0E3C083E031
:1016000090E00E94E50665EA82E090E00E94E5062F
:1016100081E08093EB018091D401882361F0F894FC
:101620001092D40178946FEF82E090E00E94E5067A
:1016300081E08093EB018091D3018823D1F0F8946D
:101640001092D30178940E9454036093CF01709359
:10165000D0018093D1019093D201672B682B692B25
:1016600041F44092CF015092D0016092D10170922A
:10167000D2010E9454034B015C018091CF019091F3
:10168000D001A091D101B091D2010097A105B1057F
:1016900019F18092E2019092E301A092E401B092EC
:1016A000E501A5019401281B390B4A0B5B0BCA010C
:1016B000B901683B3BE073078105910508F48BC0D5
:1016C00060E08DE00E94DE001092CF011092D00108
:1016D0001092D1011092D201C501B40128EE33E07D
:1016E00040E050E00E94930C2115310581E048074D
:1016F000510520F02FEF3FEF40E050E0F894309399
:10170000CE012093CD0178948091E2019091E30184
:10171000A091E401B091E501A5019401281B390BCA
:101720004A0B5B0BDA01C901803D9740A105B10569
:1017300090F083B7817F83BF83B7816083BF889533
:1017400083B78E7F83BF8092E2019092E301A092E3
:10175000E401B092E5012091DD013091DE0180913C
:10176000DF019091E0012817390729F1C091DF01CD
:10177000D091E001CD32D105F0F48090D801909065
:10178000D901A090DA01B090DB0181149104A10489
:10179000B104A9F10E945403681979098A099B09C7
:1017A000613D77408105910550F581E090E090938F
:1017B000CC018093CB012114310409F451CE0E9455
:1017C00000004ECE8091D5018F3F09F424CF8F5F6A
:1017D0008093D50120CF2DE730E040E050E00E941B
:1017E000930CCA01B90160957095809590956170D0
:1017F0007727882799278DE00E94DE006DCF0E9411
:1018000054036093D8017093D9018093DA019093C7
:10181000DB01A090DD01B090DE01CA15DB05A4F16B
:101820000E942404009100011091010120910702FF
:1018300030910802032E000C440B550BC701B60172
:101840000E94B50CCA01B9019801110F440B550B48
:101850000E94B50C209303023093040240930502CA
:1018600050930602CE018A199B090E949406D093D8
:10187000DE01C093DD0164E670E080E090E00E944C
:1018800022030E943E0497CF80E00E947C040091D6
:101890000001109101012091070230910802032EEE
:1018A000000C440B550BC701B6010E94B50CCA01D0
:1018B000B9019801110F440B550B0E94B50C2093F0
:1018C0000302309304024093050250930602CE01B6
:1018D000CCCFF999FECF92BD81BDF89A992780B5FA
:1018E0000895262FF999FECF1FBA92BD81BD20BD64
:1018F0000FB6F894FA9AF99A0FBE0196089597FBDD
:10190000072E16F4009407D077FD09D00E94DA0C58
:1019100007FC05D03EF4909581959F4F08957095F2
:1019200061957F4F0895A1E21A2EAA1BBB1BFD01F2
:101930000DC0AA1FBB1FEE1FFF1FA217B307E407AE
:10194000F50720F0A21BB30BE40BF50B661F771F06
:10195000881F991F1A9469F76095709580959095E6
:101960009B01AC01BD01CF010895052E97FB1EF42C
:1019700000940E94CC0C57FD07D00E94930C07FCEA
:1019800003D04EF40C94CC0C509540953095219595
:101990003F4F4F4F5F4F089590958095709561959B
:1019A0007F4F8F4F9F4F0895EE0FFF1F0590F491CB
:1019B000E02D0994AA1BBB1B51E107C0AA1FBB1F46
:1019C000A617B70710F0A61BB70B881F991F5A95CB
:1019D000A9F780959095BC01CD0108955058BB277B
:1019E000AA270E94060D0C94720D0E94640D38F017
:1019F0000E946B0D20F039F49F3F19F426F40C94EB
:101A0000610D0EF4E095E7FB0C945B0DE92F0E944D
:101A1000830D58F3BA17620773078407950720F000
:101A200079F4A6F50C94A50D0EF4E0950B2EBA2FC3
:101A3000A02D0B01B90190010C01CA01A0011124D4
:101A4000FF27591B99F0593F50F4503E68F11A1680
:101A5000F040A22F232F342F4427585FF3CF469511
:101A600037952795A795F0405395C9F77EF41F1633
:101A7000BA0B620B730B840BBAF09150A1F0FF0FFD
:101A8000BB1F661F771F881FC2F70EC0BA0F621FE9
:101A9000731F841F48F4879577956795B795F795D9
:101AA0009E3F08F0B0CF9395880F08F09927EE0F6E
:101AB00097958795089597F99F6780E870E060E0B3
:101AC00008959FEF80EC089500240A9416161706D7
:101AD00018060906089500240A941216130614061F
:101AE00005060895092E0394000C11F4882352F082
:101AF000BB0F40F4BF2B11F460FF04C06F5F7F4F3A
:101B00008F4F9F4F089557FD9058440F551F59F020
:101B10005F3F71F04795880F97FB991F61F09F3FDA
:101B200079F087950895121613061406551FF2CF03
:101B30004695F1DF08C0161617061806991FF1CF53
:101B400086957105610508940895E894BB2766277A
:101B50007727CB0197F908950E94B10D08F48FEF14
:101B60000895990F0008550FAA0BE0E8FEEF16162E
:101B70001706E807F907C0F012161306E407F50781
:101B800098F0621B730B840B950B39F40A2661F0F5
:101B9000232B242B252B21F408950A2609F4A14098
:0E1BA000A6958FEF811D811D0895F894FFCF4B
:101BAE000A0000000000100405042104DB03FE03FC
:0C1BBE00EB03DC036664376431656600ED
:00000001FF
