:100000000C9462000C948A000C948A000C948A0070
:100010000C948A000C948A000C948A000C948A0038
:100020000C948A000C948A000C948A000C948A0028
:100030000C948A000C948A000C948A000C948A0018
:100040000C94FF060C948A000C948A000C948A008D
:100050000C948A000C948A000C948A000C948A00F8
:100060000C9449070C948A0000000000240027002B
:100070002A0000000000250028002B0000000000DE
:1000800023002600290004040404040404040202DA
:100090000202020203030303030301020408102007
:1000A0004080010204081020010204081020000012
:1000B0000008000201000003040700000000000027
:1000C0000000680811241FBECFEFD8E0DEBFCDBF0F
:1000D00011E0A0E0B1E0E6E0FCE102C005900D9285
:1000E000AE31B107D9F722E0AEE1B1E001C01D9217
:1000F000AD31B207E1F710E0C2E6D0E004C02197CD
:10010000FE010E94000DC136D107C9F70E94B10857
:100110000C94010E0C940000833081F028F481309F
:1001200099F08230A9F008958730A9F08830C9F09D
:100130008430B1F4809180008F7D03C08091800075
:100140008F7780938000089584B58F7784BD08955C
:1001500084B58F7DFBCF8091B0008F778093B00006
:1001600008958091B0008F7DF9CFCF93DF93282F32
:1001700030E0F901E255FF4F8491F901E656FF4F57
:10018000D491F901EA57FF4FC491CC23A1F081111A
:100190000E948C00EC2FF0E0EE0FFF1FE458FF4FA1
:1001A000A591B491EC91ED2381E090E009F480E019
:1001B000DF91CF91089580E090E0FACF1F93CF9325
:1001C000DF93282F30E0F901E255FF4F8491F901C8
:1001D000E656FF4FD491F901EA57FF4FC491CC2363
:1001E000A9F0162F81110E948C00EC2FF0E0EE0F89
:1001F000FF1FEE58FF4FA591B4918FB7F894EC9183
:10020000111108C0D095DE23DC938FBFDF91CF9111
:100210001F910895DE2BF8CFCF93DF93EC018091EF
:100220000B0290910C02029749F4C130D10509F4F8
:100230003BC06CF560E0209709F437C080910B0259
:1002400090910C02049749F4C130D10509F45CC0C7
:100250000CF037C0209709F442C080910B029091B6
:100260000C02059709F0E5C0CA30D10508F0E1C0DD
:10027000FE01E35CFE4F0C94000D9C01A801B90146
:10028000CF01EA01EC01F301FF0110021702C230B5
:10029000D105A9F060E0C330D10581F680910F024D
:1002A0000E94DE0060E006C061E080910F020E94C3
:1002B000DE0061E0809111020E94DE00BFCF61E0AC
:1002C000EDCFC230D10539F1C330D10509F0C5CF2A
:1002D00061E080910F020E94DE0060E022C061E0D8
:1002E00080910F020E94DE0060E0809111020E9466
:1002F000DE0061E0809113020E94DE0060E08091E8
:1003000015020E94DE00A9CF60E080910F020E94DA
:10031000DE0061E0EACF60E080910F020E94DE0023
:1003200061E0809111020E94DE0060E08091130282
:100330000E94DE0061E0E3CF60E080910F020E9446
:10034000DE0061E0809111020E94DE0061E00BC0DE
:1003500060E080910F020E94DE0061E08091110256
:100360000E94DE0060E0809113020E94DE0060E0E7
:1003700010C060E080910F020E94DE0061E0809179
:1003800011020E94DE0060E0809113020E94DE00F4
:1003900061E0809115020E94DE0061E015C060E01E
:1003A00080910F020E94DE0061E0809111020E94A4
:1003B000DE0060E0809113020E94DE0061E0809127
:1003C00015020E94DE0060E080911702DF91CF915C
:1003D0000C94DE0061E0E4CF61E080910F020E94A6
:1003E000DE0060E0E2CF61E080910F020E94DE005B
:1003F00060E0809111020E94DE0061E0DBCF61E0ED
:1004000080910F020E94DE0060E0809111020E9444
:10041000DE0061E0809113020E94DE0060E0CFCF39
:1004200061E080910F020E94DE0060E08BCF60E00F
:10043000F8CFDF91CF910895CF93DF9390E0FC0147
:10044000E656FF4F24918A579F4FFC0184918823E1
:10045000C9F090E0880F991FFC01E859FF4FA59162
:10046000B491FC01EE58FF4FC591D49161110DC0BC
:100470009FB7F8948C91209582238C9388812823B0
:1004800028839FBFDF91CF910895623051F49FB7C9
:10049000F8943C91822F809583238C93E8812E2BB6
:1004A000EFCF8FB7F894EC912E2B2C938FBFEACF20
:1004B0003FB7F8948091F3019091F401A091F50178
:1004C000B091F60126B5A89B05C02F3F19F0019603
:1004D000A11DB11D3FBFBA2FA92F982F8827BC019E
:1004E000CD01620F711D811D911D42E0660F771FC6
:1004F000881F991F4A95D1F708954F925F926F9286
:100500007F928F929F92AF92BF92EF92FF920F9342
:100510001F93CF93DF93EC0197FF04C0CC27DD2717
:10052000C81BD90B181619060CF061C081E090E0C9
:10053000909304028093030204E010E08AE0E82E26
:10054000F12C209709F46FC00E9458028090190284
:1005500090901A02A0901B02B0901C022B013C014B
:10056000481859086A087B08809005029090060296
:10057000A0900702B0900802481459046A047B0452
:1005800000F36093190270931A0280931B029093F8
:100590001C0280910D0290910E0220910302309175
:1005A00004022130310559F5019690930E02809393
:1005B0000D022091090230910A028217930721F45B
:1005C00010920E0210920D02219780910D029091CF
:1005D0000E0220910B0230910C02B701253031053B
:1005E00009F0B8010E94AB0C0E940C01AACF892B24
:1005F00009F4A2CF10920402109203029DCF892B1E
:1006000041F48091090290910A0290930E02809326
:100610000D0280910D0290910E02019790930E02AF
:1006200080930D02D1CFDF91CF911F910F91FF9059
:10063000EF90BF90AF909F908F907F906F905F9062
:100640004F9008958F929F92AF92BF92CF92DF9278
:10065000EF92FF924B015C010E9458026B017C01FA
:100660000E9458026C197D098E099F09683E7340EB
:1006700081059105A8F321E0821A9108A108B1082B
:1006800088EEC80E83E0D81EE11CF11C8114910491
:10069000A104B10429F7FF90EF90DF90CF90BF90B5
:1006A000AF909F908F9008952FB7F8946091EF01CD
:1006B0007091F0018091F1019091F2012FBF0895A6
:1006C000E091C601F091C701309729F01092C10165
:1006D0001092C00109940895CF93DF93AC01E0918B
:1006E000C401F091C5013097F1F09091C301809160
:1006F000C2019817C0F090E0292F30E02617370785
:1007000054F4D901A45DBE4F240F351FE90128819F
:100710002C939F5FF1CF1092C3016093C201CB0174
:10072000DF91CF910994DF91CF91089520917201CB
:10073000260F3327331F21323105ECF42091960127
:10074000FC0190E080E0243069F082E00895A091FF
:1007500072012191AC014E5A5E4FA40FB52FB11D0D
:100760002C930196861798F380917201680F60931D
:10077000720180E0089581E008951092960181E071
:10078000809398011092970161E082E10E94DE005F
:1007900061E083E10E94DE00E9EBF0E080818E7F82
:1007A000808380818D7F808388E48093B80085E496
:1007B0008093BC0008950895E091C3018091C20127
:1007C000E81730F4F0E0E45DFE4F808190E008959A
:1007D0008FEF9FEF08959091C3018091C2012FEF99
:1007E0003FEF981748F4E92FF0E0E45DFE4F2081D9
:1007F00030E09F5F9093C301C90108958091C201C9
:100800009091C301891B990B0895CF93DF93CB017E
:10081000EA01642F0E949603CE01DF91CF910895E3
:10082000CF93DF931F92CDB7DEB7698361E0CE012E
:1008300001960E94960381E090E00F90DF91CF91A6
:10084000089590E080E0089581E090E090932B017E
:1008500080932A01609129018BE00E94DE00609163
:1008600028018AE00E94DE006091270189E00E9451
:10087000DE006091260188E00C94DE008BE00E948F
:10088000B50021E0892B09F420E0209329018AE0BA
:100890000E94B50021E0892B09F420E02093280173
:1008A00089E00E94B50021E0892B09F420E0209323
:1008B000270188E00E94B50021E0892B09F420E09F
:1008C0002093260160E08BE00E94DE0060E08AE079
:1008D0000E94DE0060E089E00E94DE0060E088E0C7
:1008E0000E94DE0010922B0110922A0164E670E053
:1008F00080E090E00C9422030F931F93CF93DF933B
:10090000082F81E090E090932B0180932A012091A1
:10091000090230910A02032E000C440B550B60E0D3
:1009200077E883E993E00E94E10CCA01B9012AE06B
:1009300030E040E050E00E94E10C2093050230934B
:1009400006024093070250930802D0E0C0E010E096
:10095000A89587E00E94B500009709F461C001974F
:10096000C1F18091E8019091E9010E947D0210920D
:10097000E0011092DF011092CB011092CC01109295
:10098000CD011092CE01F8941092250181E0182734
:1009900010932401D0932301C09322017894011174
:1009A0000E943E04CE01DF91CF911F910F910895D7
:1009B00087E00E94B500892BB9F5A89581E090E009
:1009C0000E947D022196C33E87E1D80789F711E096
:1009D00012C0209741F482E390E00E947D02C2E3BE
:1009E000D0E02196B5CF81E090E00E947D02C33E29
:1009F00087E1D807B4F31092E0011092DF01F89478
:100A000081E080932501182710932401D0932301BE
:100A1000C093220178940E943E04CFEFDFEFC2CF53
:100A2000209731F211E09DCF82E390E00E947D0299
:100A3000E29611E0DCCFCF93DF93CDB7DEB72897F6
:100A40000FB6F894DEBF0FBECDBF80912101882381
:100A500021F1BE016F5F7F4F88E0FB0111928A9503
:100A6000E9F7E4E1F1E0DB018191882329F08D933E
:100A700081E0EC31F807C1F748E050E087EF91E002
:100A80000E9405041092210128960FB6F894DEBF4B
:100A90000FBECDBFDF91CF910895809120018823B3
:100AA00091F09091E8018091E90199838A8342E075
:100AB00050E0BE016F5F7F4F87EF91E00E94050419
:100AC00010922001E1CF80911F01882399F080913D
:100AD000DF019091E001898380958A8342E050E0B4
:100AE000BE016F5F7F4F87EF91E00E940504109277
:100AF0001F01CACF80911E0160912A0170912B01C4
:100B0000882309F43FC081E0672B09F480E09091CD
:100B100025019111826090912401911184602091AE
:100B200022013091230189838091CA018A838091B7
:100B3000C9018B838091C8018C838091CF019091F2
:100B4000D0019D838091CF019091D0018E838091BF
:100B5000D7018F8384E0369527958A95E1F72F3F5B
:100B6000310519F010F02FEF30E0288748E050E011
:100B7000BE016F5F7F4F87EF91E00E9405041092E6
:100B80001E0182CF87EF91E00E9410047DCF1F935A
:100B9000CF93DF93181619060CF08DC0EC0187EF88
:100BA00091E00E94EB039E01215031098D329105A5
:100BB0000CF496C08058990B8731910508F087C0D6
:100BC000FC01EB51FA4F0C94000DFC050A060E06D1
:100BD0001206160667066706670667066706670653
:100BE0006706670667066706670641063506FC0561
:100BF0001A0645065F06630681E08093ED01E90170
:100C00001C161D060CF057C087EF91E00E94EB0305
:100C10002197F6CF81E080932101F1CF81E080938D
:100C20002001EDCF81E080931E01E9CF81E0809328
:100C30001F01E5CF223031050CF449C087EF91E068
:100C40000E94EB03182F87EF91E00E94EB039E01B7
:100C50002350310940E0582F412B5093EB01409332
:100C6000EA0181E08093EC01CACF232BE9F087EF02
:100C700091E00E94EB038093DE019E012250310936
:100C8000BECF81E08093E301BACF232B69F087EFD9
:100C900091E00E94EB038093D8019E01225031091C
:100CA00081E08093D901ABCF8091D7018F3F19F0BC
:100CB0008F5F8093D701DF91CF911F91089581E0DD
:100CC0008093D6019CCF81E08093D50198CF80910D
:100CD000D7018F3F09F493CF8F5F8093D7018FCFD8
:100CE000C230D10579F03CF08091D7018F3F19F0E7
:100CF0008F5F8093D7012197F1F287EF91E00E94F7
:100D0000EB03F9CF9093E2018093E10187EF91E04B
:100D10000E94EB031816190614F081E090E09093FE
:100D2000010180930001C7CF1F93CF93DF93EC01A4
:100D3000162F0E94950C181739F0612FCE01DF9104
:100D4000CF911F910C949D0CDF91CF911F9108952D
:100D5000CF93DF9385ED8093BC0080914E019091FD
:100D60004F01A0915001B09151010796A11DB11DF5
:100D700023E0B695A795979587952A95D1F7209169
:100D8000BC0024FD03C01092960136C040914E0174
:100D900050914F016091500170915101452B462BAC
:100DA000472B69F30097A105B10541F02AE22A9586
:100DB000F1F700C00197A109B109E1CF80914D0180
:100DC00091E090934C018823B9F0C091B800D09184
:100DD000BA008091BC008A7B8093BC0060E082E115
:100DE0000E94DE0060E083E10E94DE000E94BD03FD
:100DF000D093BA00C093B800DF91CF9108951F92AD
:100E00000F920FB60F9211242F933F938F939F93BE
:100E1000AF93BF938091EF019091F001A091F10108
:100E2000B091F2013091EE0123E0230F2D3758F5F8
:100E30000196A11DB11D2093EE018093EF019093C7
:100E4000F001A093F101B093F2018091F301909130
:100E5000F401A091F501B091F6010196A11DB11D1B
:100E60008093F3019093F401A093F501B093F60100
:100E7000BF91AF919F918F913F912F910F900FBE96
:100E80000F901F90189526E8230F0296A11DB11D03
:100E9000D2CF1F920F920FB60F9211242F933F9330
:100EA0004F935F936F937F938F939F93AF93BF9372
:100EB000EF93FF938091B900887F803609F44AC090
:100EC000F0F5883209F4A7C018F5803109F49BC009
:100ED000B8F4882309F4F9C0883009F494C0FF916C
:100EE000EF91BF91AF919F918F917F916F915F91A2
:100EF0004F913F912F910F900FBE0F901F9018951B
:100F0000883109F488C0803251F78093950114C06C
:100F1000803409F49DC040F48033B9F38833F9F686
:100F20008093950185ECB0C0803509F485C0883583
:100F300009F496C0883499F60E94A806D0CF883963
:100F400009F48CC038F5883729F050F4883611F050
:100F5000803729F683E0809396011092940157C060
:100F6000883809F47BC0803919F0803809F0B7CF90
:100F700080919401803208F071C0E091940181E089
:100F80008E0F809394018091BB00F0E0EC58FE4FEF
:100F900080833DC0803B39F0E0F4803A09F479C0A9
:100FA000883A09F09CCF84E08093960110927301F7
:100FB00010927201E091BE01F091BF0109958091FC
:100FC000720181110FC081E0809372011092520171
:100FD00009C0803C09F4A6CF883C09F4A3CF883B24
:100FE00009F07DCFE091730181E08E0F8093730152
:100FF000F0E0EE5AFE4F80818093BB009091730128
:101000008091720129C08091BB018093BB0085EC67
:101010008093BC0064CF9091BA018091B901981778
:1010200058F5E091BA0181E08E0F8093BA01F0E0AB
:10103000E756FE4F8081E9CFE091BA0181E08E0F43
:101040008093BA018091BB00F0E0E756FE4F8083A9
:101050009091BA018091B9019817C8F285E8D8CF6C
:10106000E091BA0181E08E0F8093BA018091BB00BC
:10107000F0E0E756FE4F80838091980181115CCFAC
:1010800081E08093970184EA8093BC0010929601DE
:1010900026CF85EC8093BC0010929601809194013C
:1010A000803230F4E0919401F0E0EC58FE4F108271
:1010B0006091940170E0E091BC01F091BD0184E782
:1010C00091E00995109294010ACF1092950134CFC6
:1010D000CF93DF93E7EFF1E01382128288EE93E083
:1010E000A0E0B0E084839583A683B78386E091E097
:1010F00091838083C3E0D2E01B861A86198218820E
:101100001E8A1F8A188E198E86EF97E09F838E8322
:101110008BE090E09D878C8789E090E09F878E87A9
:101120008AE090E0998B888B88E090E09B8B8A8B9B
:1011300061E08BE00E941C0261E08E850E941C022F
:1011400061E088890E941C0261E08A890E941C0279
:101150001D8A1C8A84E090E099878887DF91CF916F
:101160000895789484B5826084BD84B5816084BD1F
:1011700085B5826085BD85B5816085BD80916E0035
:10118000816080936E001092810080918100826066
:1011900080938100809181008160809381008091A3
:1011A00080008160809380008091B1008460809392
:1011B000B1008091B00081608093B00080917A008E
:1011C000846080937A0080917A00826080937A00B4
:1011D00080917A00816080937A0080917A008068A3
:1011E00080937A001092C10084B78093CA0114BE24
:1011F0000FB6F894A8958091600088618093600094
:10120000109260000FBE84E090E00E94950CC82F01
:101210008093C90185E090E00E94950C8093C801FD
:101220008091CA0182FF0AC0CF3F41F061E06C0F9C
:101230006093C90184E090E00E9494068091CA0105
:1012400083FF0BC06091C8016F3F39F06F5F6093FF
:10125000C80185E090E00E94940662E086E00E946A
:101260001C0262E085E00E941C0262E084E00E94B1
:101270001C0262E083E00E941C0260E087E00E94A2
:101280001C0261E08DE00E941C0260E08DE00E9483
:10129000DE0082E090E00E94950C853A49F483E0FC
:1012A00090E00E94950C9FEF980FC82F9E3740F159
:1012B00083E00E94B500C1E0D0E0892B11F0D0E0BE
:1012C000C0E084E00E94B500892B09F48AC090E058
:1012D00080E0C80FD91F85E00E94B500892B09F472
:1012E00083C090E080E0C80FD91F86E00E94B5005F
:1012F000892B09F47CC090E080E0C80FD91F2196AB
:101300001092C3011092C2011092C1011092C0014B
:101310000E94BD0380E693E09093BF018093BE01DD
:101320008CE693E09093BD018093BC01CC0FC093F9
:10133000BA008091BA0081608093BA0087EC95E092
:101340009093C5018093C4018BE195E09093C70110
:101350008093C60188E199E20FB6F894A89580932E
:1013600060000FBE9093600090E080E00E94950CBA
:101370008093E80181E090E00E94950C8093E90160
:101380008091E8019091E9018A50984F8D3E9F40ED
:1013900020F01092E9011092E80181E00E947C04A3
:1013A000C12C87E8D82E83E9E82E83E0F82E412C63
:1013B000512C32014394A8958091ED018823D1F0FE
:1013C0006AE070E080E090E00E94220388E198E00B
:1013D0000FB6F894A895809360000FBE90936000BC
:1013E000FFCF82E090E075CF84E090E07CCF88E092
:1013F00090E083CF8091EC01882381F1F894809173
:10140000EA019091EB011092EC019093E901809335
:10141000E8017894C091E80190E080E00E94950C8A
:101420008C1729F06C2F90E080E00E949D0CC091F9
:10143000E90181E090E00E94950C8C1729F06C2F57
:1014400081E090E00E949D0C0E9454036093E401AF
:101450007093E5018093E6019093E7018091E301A9
:101460008823C9F0F8941092E301789481E00E94F7
:101470007C041092E2011092E1011092E0011092BE
:10148000DF010E9454036093E4017093E5018093AF
:10149000E6019093E7018091DE01882309F44BC0B7
:1014A000F8941091DE011092DE0178940E942404D9
:1014B00080900001909001012091090230910A0270
:1014C000032E000C440B550BC701B6010E94E10C22
:1014D000092C000CAA08BB08CA01B901A501940196
:1014E0000E94E10C2093050230930602409307020C
:1014F00050930802812F110F990B0E947D0262E325
:1015000070E080E090E00E9422030E943E040E946E
:1015100054036093DA017093DB018093DC019093B4
:10152000DD010E9454036093E4017093E501809310
:10153000E6019093E7018091D9018823B9F0F894EE
:101540006091D8011092D90178948FEF860F8E3771
:1015500008F0E0C083E090E00E94940665EA82E033
:1015600090E00E94940681E08093ED018091D60185
:10157000882361F0F8941092D60178946FEF82E09E
:1015800090E00E94940681E08093ED018091D50166
:101590008823D1F0F8941092D50178940E945403D6
:1015A0006093D1017093D2018093D3019093D401C1
:1015B000672B682B692B41F44092D1015092D201E4
:1015C0006092D3017092D4010E9454034B015C01DC
:1015D0008091D1019091D201A091D301B091D40119
:1015E0000097A105B10519F18092E4019092E501FF
:1015F000A092E601B092E701A5019401281B390BE6
:101600004A0B5B0BCA01B901683B3BE073078105DC
:10161000910508F488C060E08DE00E94DE00109221
:10162000D1011092D2011092D3011092D401C501C0
:10163000B40128EE33E040E050E00E94BF0C2115D9
:10164000310581E04807510520F02FEF3FEF40E0E2
:1016500050E0F8943093D0012093CF01789480919A
:10166000E4019091E501A091E601B091E701A501A7
:101670009401281B390B4A0B5B0BDA01C901803D31
:101680009740A105B10590F083B7817F83BF83B7F1
:10169000816083BF889583B78E7F83BF8092E4018A
:1016A0009092E501A092E601B092E7012091DF015E
:1016B0003091E0018091E1019091E2012817390712
:1016C00009F1C091E101D091E2018090DA0190909E
:1016D000DB01A090DC01B090DD0181149104A10434
:1016E000B104A9F50E9454036093DA017093DB0101
:1016F0008093DC019093DD018091DF019091E00106
:10170000D7FF32C080E090E0892B09F454CE0E94CC
:10171000000051CE8091D7018F3F09F427CF8F5F12
:101720008093D70123CF2DE730E040E050E00E94C6
:10173000BF0CCA01B9016095709580959095617054
:101740007727882799278DE00E94DE0070CF0E94BE
:101750005403681979098A099B09613D774081051D
:10176000910508F0BFCFCECFC817D9070CF466C0DB
:101770001E01281A390A0E942404009100011091C8
:1017800001012091090230910A02032E000C440B42
:10179000550BC701B6010E94E10CCA01B9019801BD
:1017A000110F440B550B0E94E10C2093050230935E
:1017B0000602409307025093080210E000E0201652
:1017C000310609F4A5C0A89520E039EE43E95EE3AF
:1017D0006091CB017091CC018091CD019091CE01AF
:1017E0000E941B0D4B015C0120E030E040E85FE30C
:1017F0000E94D80D18167CF08092CB019092CC01FB
:10180000A092CD01B092CE018DE290E00E947D02C7
:101810000F5F1F4FD4CF20E030E040E85FE3C50109
:10182000B4010E941A0D6093CB017093CC01809398
:10183000CD019093CE018EE290E0E8CF80E00E944F
:101840007C04009100011091010120910902309166
:101850000A02032E000C440B550BC701B6010E946F
:10186000E10CCA01B9019801110F440B550B0E94FC
:10187000E10C209305023093060240930702509337
:10188000080210E000E0C017D10709F441C0A89594
:1018900022ED37E245E352E46091CB017091CC0137
:1018A0008091CD019091CE010E941B0D20E030E08F
:1018B00044E352E40E941A0D4B015C0120E030E049
:1018C00040E85FE30E94D80D18167CF08092CB01AF
:1018D0009092CC01A092CD01B092CE018DE290E029
:1018E0000E947D020F5F1F4FCECF20E030E040E826
:1018F0005FE3C501B4010E941A0D6093CB017093A0
:10190000CC018093CD019093CE018EE290E0E8CFA0
:10191000D093E001C093DF0164E670E080E090E0E6
:101920000E9422030E943E04EDCEF999FECF92BDA3
:1019300081BDF89A992780B50895262FF999FECF91
:101940001FBA92BD81BD20BD0FB6F894FA9AF99ADC
:101950000FBE0196089597FB072E16F4009407D04A
:1019600077FD09D00E94060D07FC05D03EF4909546
:1019700081959F4F0895709561957F4F0895A1E2DD
:101980001A2EAA1BBB1BFD010DC0AA1FBB1FEE1FF9
:10199000FF1FA217B307E407F50720F0A21BB30B44
:1019A000E40BF50B661F771F881F991F1A9469F7C0
:1019B00060957095809590959B01AC01BD01CF011C
:1019C0000895052E97FB1EF400940E94F80C57FD15
:1019D00007D00E94BF0C07FC03D04EF40C94F80C07
:1019E00050954095309521953F4F4F4F5F4F08954B
:1019F00090958095709561957F4F8F4F9F4F08957B
:101A0000EE0FFF1F0590F491E02D0994AA1BBB1B5C
:101A100051E107C0AA1FBB1FA617B70710F0A61BEE
:101A2000B70B881F991F5A95A9F780959095BC010F
:101A3000CD0108955058BB27AA270E94320D0C945F
:101A40009E0D0E94900D38F00E94970D20F039F401
:101A50009F3F19F426F40C948D0D0EF4E095E7FBEE
:101A60000C94870DE92F0E94AF0D58F3BA17620747
:101A700073078407950720F079F4A6F50C94D10D2F
:101A80000EF4E0950B2EBA2FA02D0B01B901900199
:101A90000C01CA01A0011124FF27591B99F0593FDD
:101AA00050F4503E68F11A16F040A22F232F342F25
:101AB0004427585FF3CF469537952795A795F04073
:101AC0005395C9F77EF41F16BA0B620B730B840B88
:101AD000BAF09150A1F0FF0FBB1F661F771F881F40
:101AE000C2F70EC0BA0F621F731F841F48F4879598
:101AF00077956795B795F7959E3F08F0B0CF93958A
:101B0000880F08F09927EE0F97958795089597F914
:101B10009F6780E870E060E008959FEF80EC089593
:101B200000240A94161617061806090608950024BC
:101B30000A9412161306140605060895092E039436
:101B4000000C11F4882352F0BB0F40F4BF2B11F4AA
:101B500060FF04C06F5F7F4F8F4F9F4F089557FD09
:101B60009058440F551F59F05F3F71F04795880F0B
:101B700097FB991F61F09F3F79F0879508951216A2
:101B800013061406551FF2CF4695F1DF08C016164E
:101B900017061806991FF1CF8695710561050894FF
:101BA0000895E894BB2766277727CB0197F9089516
:101BB0000E94DD0D08F48FEF0895990F0008550F6E
:101BC000AA0BE0E8FEEF16161706E807F907C0F0C3
:101BD00012161306E407F50798F0621B730B840BCB
:101BE000950B39F40A2661F0232B242B252B21F4A5
:101BF00008950A2609F4A140A6958FEF811D811D45
:061C00000895F894FFCFE7
:101C06000A0000000000100405042104DB03FE03A3
:0E1C1600EB03DC03643336643466322A0000CC
:00000001FF
