:100000000C9462000C948A000C948A000C948A0070
:100010000C948A000C948A000C948A000C948A0038
:100020000C948A000C948A000C948A000C948A0028
:100030000C948A000C948A000C948A000C948A0018
:100040000C9451080C948A000C948A000C948A0039
:100050000C948A000C948A000C948A000C948A00F8
:100060000C949B080C948A000000000024002700D8
:100070002A0000000000250028002B0000000000DE
:1000800023002600290004040404040404040202DA
:100090000202020203030303030301020408102007
:1000A0004080010204081020010204081020000012
:1000B0000008000201000003040700000000000027
:1000C0000000BA0911241FBECFEFD8E0DEBFCDBFBC
:1000D00011E0A0E0B1E0E4E0F0E202C005900D9292
:1000E000AC31B107D9F722E0ACE1B1E001C01D921B
:1000F000AE32B207E1F710E0C2E6D0E004C02197CB
:10010000FE010E94FF0EC136D107C9F70E94030A03
:100110000C9400100C940000833081F028F481309E
:1001200099F08230A9F008958730A9F08830C9F09D
:100130008430B1F4809180008F7D03C08091800075
:100140008F7780938000089584B58F7784BD08955C
:1001500084B58F7DFBCF8091B0008F778093B00006
:1001600008958091B0008F7DF9CFCF93DF93282F32
:1001700030E0F901E255FF4F8491F901E656FF4F57
:10018000D491F901EA57FF4FC491CC23A1F081111A
:100190000E948C00EC2FF0E0EE0FFF1FE458FF4FA1
:1001A000A591B491EC91ED2381E090E009F480E019
:1001B000DF91CF91089580E090E0FACF1F93CF9325
:1001C000DF93282F30E0F901E255FF4F8491F901C8
:1001D000E656FF4FD491F901EA57FF4FC491CC2363
:1001E000A9F0162F81110E948C00EC2FF0E0EE0F89
:1001F000FF1FEE58FF4FA591B4918FB7F894EC9183
:10020000111108C0D095DE23DC938FBFDF91CF9111
:100210001F910895DE2BF8CFCF93DF93EC018091EF
:100220001C0290911D02029749F4C130D10509F4D6
:100230003BC06CF560E0209709F437C080911C0248
:1002400090911D02049749F4C130D10509F45CC0B6
:100250000CF037C0209709F442C080911C029091A5
:100260001D02059709F0E5C0CA30D10508F0E1C0CC
:10027000FE01E35CFE4F0C94FF0E9C01A801B90146
:10028000CF01EA01EC01F301FF0110021702C230B5
:10029000D105A9F060E0C330D10581F6809120023C
:1002A0000E94DE0060E006C061E0809120020E94B2
:1002B000DE0061E0809122020E94DE00BFCF61E09B
:1002C000EDCFC230D10539F1C330D10509F0C5CF2A
:1002D00061E0809120020E94DE0060E022C061E0C7
:1002E000809120020E94DE0060E0809122020E9444
:1002F000DE0061E0809124020E94DE0060E08091D7
:1003000026020E94DE00A9CF60E0809120020E94B8
:10031000DE0061E0EACF60E0809120020E94DE0012
:1003200061E0809122020E94DE0060E08091240260
:100330000E94DE0061E0E3CF60E0809120020E9435
:10034000DE0061E0809122020E94DE0061E00BC0CD
:1003500060E0809120020E94DE0061E08091220234
:100360000E94DE0060E0809124020E94DE0060E0D6
:1003700010C060E0809120020E94DE0061E0809168
:1003800022020E94DE0060E0809124020E94DE00D2
:1003900061E0809126020E94DE0061E015C060E00D
:1003A000809120020E94DE0061E0809122020E9482
:1003B000DE0060E0809124020E94DE0061E0809116
:1003C00026020E94DE0060E080912802DF91CF913A
:1003D0000C94DE0061E0E4CF61E0809120020E9495
:1003E000DE0060E0E2CF61E0809120020E94DE004A
:1003F00060E0809122020E94DE0061E0DBCF61E0DC
:10040000809120020E94DE0060E0809122020E9422
:10041000DE0061E0809124020E94DE0060E0CFCF28
:1004200061E0809120020E94DE0060E08BCF60E0FE
:10043000F8CFDF91CF910895CF93DF9390E0FC0147
:10044000E656FF4F24918A579F4FFC0184918823E1
:10045000C9F090E0880F991FFC01E859FF4FA59162
:10046000B491FC01EE58FF4FC591D49161110DC0BC
:100470009FB7F8948C91209582238C9388812823B0
:1004800028839FBFDF91CF910895623051F49FB7C9
:10049000F8943C91822F809583238C93E8812E2BB6
:1004A000EFCF8FB7F894EC912E2B2C938FBFEACF20
:1004B0003FB7F8948091040290910502A091060242
:1004C000B091070226B5A89B05C02F3F19F00196F1
:1004D000A11DB11D3FBFBA2FA92F982F8827BC019E
:1004E000CD01620F711D811D911D42E0660F771FC6
:1004F000881F991F4A95D1F708958F929F92AF92C6
:10050000BF92CF92DF92EF92FF924B015C010E946B
:1005100058026B017C010E9458026C197D098E09FA
:100520009F09683E734081059105A8F321E0821A76
:100530009108A108B10888EEC80E83E0D81EE11C1E
:10054000F11C81149104A104B10429F7FF90EF90EC
:10055000DF90CF90BF90AF909F908F9008952FB76E
:10056000F8946091000270910102809102029091D2
:1005700003022FBF0895E091C801F091C90130979F
:1005800029F01092C3011092C20109940895CF93EB
:10059000DF93AC01E091C601F091C7013097F1F013
:1005A0009091C5018091C4019817C0F090E0292F67
:1005B00030E02617370754F4D901A35DBE4F240F4E
:1005C000351FE90128812C939F5FF1CF1092C5015F
:1005D0006093C401CB01DF91CF910994DF91CF915A
:1005E000089520917301260F3327331F21323105DF
:1005F000ECF420919701FC0190E080E0243069F058
:1006000082E00895A09173012191AC014D5A5E4F93
:10061000A40FB52FB11D2C930196861798F38091E6
:100620007301680F6093730180E0089581E008957D
:100630001092970181E0809399011092980161E0F6
:1006400082E10E94DE0061E083E10E94DE00E9EBCE
:10065000F0E080818E7F808380818D7F808388E43D
:100660008093B80085E48093BC0008950895E091DC
:10067000C5018091C401E81730F4F0E0E35DFE4F5E
:10068000808190E008958FEF9FEF08959091C501CC
:100690008091C4012FEF3FEF981748F4E92FF0E065
:1006A000E35DFE4F208130E09F5F9093C501C9015B
:1006B00008958091C4019091C501891B990B0895FB
:1006C000CF93DF93CB01EA01642F0E94F102CE01A8
:1006D000DF91CF910895CF93DF931F92CDB7DEB70F
:1006E000698361E0CE0101960E94F10281E090E011
:1006F0000F90DF91CF91089590E080E0089581E020
:1007000090E09093D0018093CF0160912C018BE019
:100710000E94DE0060912B018AE00E94DE00609161
:100720002A0189E00E94DE006091290188E00C9492
:10073000DE008BE00E94B50021E0892B09F420E067
:1007400020932C018AE00E94B50021E0892B09F456
:1007500020E020932B0189E00E94B50021E0892B45
:1007600009F420E020932A0188E00E94B50021E0EE
:10077000892B09F420E02093290160E08BE00E949E
:10078000DE0060E08AE00E94DE0060E089E00E9416
:10079000DE0060E088E00E94DE001092D00110923E
:1007A000CF0164E670E080E090E00C947D024F920F
:1007B0005F926F927F928F929F92AF92BF92CF92F1
:1007C000DF92EF92FF920F931F93CF93DF93EC0191
:1007D0008C0197FF04C000271127081B190B1C165A
:1007E0001D060CF064C081E090E0909315028093A8
:1007F000140284E0E82EF12C9AE0C92ED12C0115C8
:10080000110509F470C00E94580280902A0290904D
:100810002B02A0902C02B0902D022B013C01481815
:1008200059086A087B088090160290901702A090E1
:100830001802B0901902481459046A047B04F8F2B3
:1008400060932A0270932B0280932C0290932D02C6
:1008500080911E0290911F02209114023091150286
:100860002130310561F5019690931F0280931E029D
:1008700020911A0230911B028217930721F41092E3
:100880001F0210921E020150110980911E029091C8
:100890001F0220911C0230911D02B6012530310546
:1008A00009F0B7010E94AA0E0E940C01A8CF209760
:1008B00009F49FCF10921502109214029ACF892B3F
:1008C00041F480911A0290911B0290931F02809331
:1008D0001E0280911E0290911F02019790931F02A9
:1008E00080931E02D0CFCE01DD0FAA0BBB0BB7FF4A
:1008F00007C0B095A095909581959F4FAF4FBF4F82
:100900002091E0013091E101BC01CD01620F731F24
:10091000811D911D26EF37E040E050E00E94BE0EA1
:10092000C090DC01D090DD01E090DE01F090DF01AD
:10093000C20ED31EE41EF51EC092DC01D092DD0172
:10094000E092DE01F092DF017093E1016093E0013B
:100950008091E2019091E301A091E401B091E50161
:100960008C159D05AE05BF0591F0F8948091DC01D2
:100970009091DD01A091DE01B091DF018093E20151
:100980009093E301A093E401B093E5017894DF91A3
:10099000CF911F910F91FF90EF90DF90CF90BF907C
:1009A000AF909F908F907F906F905F904F90089541
:1009B0000F931F93CF93DF93082F81E090E09093E4
:1009C000D0018093CF0120911A0230911B02032E97
:1009D000000C440B550B60E077E883E993E00E943C
:1009E000E00ECA01B9012AE030E040E050E00E9488
:1009F000E00E209316023093170240931802509392
:100A00001902D0E0C0E010E0A89587E00E94B50090
:100A1000009709F461C00197C1F18091F9019091AB
:100A2000FA010E94D7031092F1011092F001109286
:100A30002501109226011092270110922801F894A6
:100A40001092240181E0182710932301D0932201F2
:100A5000C0932101789401110E949903CE01DF9186
:100A6000CF911F910F91089587E00E94B500892BC7
:100A7000B9F5A89581E090E00E94D7032196C33E86
:100A800087E1D80789F711E012C0209741F482E38B
:100A900090E00E94D703C2E3D0E02196B5CF81E079
:100AA00090E00E94D703C33E87E1D807B4F31092C9
:100AB000F1011092F001F89481E08093240118274D
:100AC00010932301D0932201C093210178940E94B6
:100AD0009903CFEFDFEFC2CF209731F211E09DCF26
:100AE00082E390E00E94D703E29611E0DCCFCF9240
:100AF000DF92EF92FF920F931F93CF93DF938C01BE
:100B0000D0E0C0E0C017D107D4F5A89520E039EEB9
:100B100043E95EE3609125017091260180912701F0
:100B2000909128010E941A0F6B017C0120E030E0B7
:100B300040E85FE30E94D70F181674F0C0922501B9
:100B4000D0922601E0922701F09228018DE290E0F8
:100B50000E94D7032196D6CF20E030E040E85FE343
:100B6000C701B6010E94190F6093250170932601F9
:100B700080932701909328018EE290E0E9CFDF91E6
:100B8000CF911F910F91FF90EF90DF90CF9008953C
:100B90008F929F92AF92BF92CF92DF92EF92FF928D
:100BA000CF93DF93CDB7DEB728970FB6F894DEBFAB
:100BB0000FBECDBF80912001882361F1BE016F5F20
:100BC0007F4F88E0FB0111928A95E9F7E4E1F1E0BB
:100BD000DB018191882329F08D9381E0EC31F807C6
:100BE000C1F748E050E088E092E00E946003109274
:100BF000200128960FB6F894DEBF0FBECDBFDF915F
:100C0000CF91FF90EF90DF90CF90BF90AF909F90EB
:100C10008F90089580911F01882391F08091F901B0
:100C20009091FA0189839A8342E050E0BE016F5FA0
:100C30007F4F88E092E00E94600310921F01D9CF9D
:100C400080911E01882399F08091F0019091F1012B
:100C5000898380958A8342E050E0BE016F5F7F4FB9
:100C600088E092E00E94600310921E01C2CF809142
:100C70001D01882349F14091E2015091E301609107
:100C8000E4017091E5014983852E962EA72EBB24A1
:100C90008A826B01EE24FF24CB82872F9927AA2713
:100CA000BB278C8325EA242728252C2582278D83A2
:100CB00045E050E0BE016F5F7F4F88E092E00E9408
:100CC000600310921D0195CF80911C01882309F4C7
:100CD00047C02091CF013091D00181E0232B09F44E
:100CE00080E09091240191118260909123019111F3
:100CF00084609091BD01911180612091210130911A
:100D0000220189838091CE018A838091CD018B83DA
:100D10008091CC018C838091D1019091D2019D83EF
:100D20008091D1019091D2018E838091E8018F83CF
:100D300084E0369527958A95E1F72F3F310519F024
:100D400010F02FEF30E0288748E050E0BE016F5FE1
:100D50007F4F88E092E00E94600310921C0149CF0F
:100D60006091CF017091D00188E092E00E946B0306
:100D700040CF1F93CF93DF93181619060CF09BC03A
:100D8000EC0188E092E00E9446039E012150310967
:100D90008D3291050CF4AAC08058990B88319105C9
:100DA00008F099C0FC01E952F94F0C94FF0EEF06D0
:100DB000FD060107050709070D076B076B076B07A2
:100DC0006B076B076B076B076B076B076B073F07BF
:100DD0003307EF06110743075F076307670781E0E3
:100DE0008093FE01E9011C161D060CF064C088E02A
:100DF00092E00E9446032197F6CF81E08093200184
:100E0000F1CF81E080931F01EDCF81E080931C0141
:100E1000E9CF81E080931E01E5CF81E080931D0141
:100E2000E1CF223031050CF456C088E092E00E94F8
:100E30004603182F88E092E00E9446039E0123504B
:100E4000310940E0582F412BCA018A50984F8D3EFE
:100E50009F4008F040C05093FC014093FB0181E0AB
:100E60008093FD01BFCF232BE9F088E092E00E9440
:100E700046038093EF019E0122503109B3CF81E0F8
:100E80008093F401AFCF232B69F088E092E00E94B9
:100E900046038093E9019E012250310981E080934D
:100EA000EA01A0CF8091E8018F3F29F08091E8010D
:100EB0008F5F8093E801DF91CF911F91089581E0CA
:100EC0008093E7018FCF81E08093D7018BCF81E0C2
:100ED0008093E60187CF8091E8018F3F09F482CFAC
:100EE0008091E8018F5F8093E8017CCFC230D1050B
:100EF00089F04CF08091E8018F3F29F08091E80162
:100F00008F5F8093E8012197B1F288E092E00E9420
:100F10004603F9CF9093F3018093F20188E092E0C9
:100F20000E9446031816190614F081E090E0909391
:100F3000010180930001BFCF0C94940ECF93DF93F7
:100F400085ED8093BC0080914F0190915001A0915C
:100F50005101B09152010796A11DB11D23E0B69534
:100F6000A795979587952A95D1F72091BC0024FDE8
:100F700003C01092970136C040914F01509150012B
:100F80006091510170915201452B462B472B69F31B
:100F90000097A105B10541F02AE22A95F1F700C0BA
:100FA0000197A109B109E1CF80914E0191E09093A1
:100FB0004D018823B9F0C091B800D091BA0080915A
:100FC000BC008A7B8093BC0060E082E10E94DE006E
:100FD00060E083E10E94DE000E941803D093BA0013
:100FE000C093B800DF91CF910895FF920F931F93A4
:100FF000CF93DF93EC01F62E08811981C8010E947E
:10100000940EF81621F06F2DC8010E949C0ECE019F
:10101000DF91CF911F910F91FF900895AF92BF92F2
:10102000CF92DF92EF92FF920F931F93CF93DF93B4
:1010300000D0CDB7DEB78B016B0124E0C20ED11C0E
:101040007B015C01A61AB70AC5018E0D9F1D9A830C
:101050008983F70161917F01CE0101960E94F50716
:10106000EC14FD0489F7C8010F900F90DF91CF9128
:101070001F910F91FF90EF90DF90CF90BF90AF90B6
:101080000895CF93DF9300D0CDB7DEB79A838983DD
:10109000CE0101960E94F5070F900F90DF91CF913E
:1010A00008951F920F920FB60F9211242F933F9322
:1010B0008F939F93AF93BF93809100029091010211
:1010C000A0910202B09103023091FF0123E0230FAF
:1010D0002D3758F50196A11DB11D2093FF01809376
:1010E000000290930102A0930202B0930302809148
:1010F000040290910502A0910602B09107020196A8
:10110000A11DB11D8093040290930502A0930602D5
:10111000B0930702BF91AF919F918F913F912F9113
:101120000F900FBE0F901F90189526E8230F029680
:10113000A11DB11DD2CF1F920F920FB60F92112495
:101140002F933F934F935F936F937F938F939F93CF
:10115000AF93BF93EF93FF938091B900887F803660
:1011600009F44AC0F0F5883209F4A7C018F58031B7
:1011700009F49BC0B8F4882309F4F9C0883009F455
:1011800094C0FF91EF91BF91AF919F918F917F910B
:101190006F915F914F913F912F910F900FBE0F90E4
:1011A0001F901895883109F488C0803251F78093D8
:1011B000960114C0803409F49DC040F48033B9F323
:1011C0008833F9F68093960185ECB0C0803509F438
:1011D00085C0883509F496C0883499F60E949E0728
:1011E000D0CF883909F48CC038F5883729F050F40D
:1011F000883611F0803729F683E0809397011092AA
:10120000950157C0883809F47BC0803919F08038BF
:1012100009F0B7CF80919501803208F071C0E0915C
:10122000950181E08E0F809395018091BB00F0E0E5
:10123000EB58FE4F80833DC0803B39F0E0F4803AAC
:1012400009F479C0883A09F09CCF84E08093970133
:101250001092740110927301E091C001F091C101EC
:1012600009958091730181110FC081E08093730112
:101270001092530109C0803C09F4A6CF883C09F4C0
:10128000A3CF883B09F07DCFE091740181E08E0F00
:1012900080937401F0E0ED5AFE4F80818093BB0093
:1012A000909174018091730129C08091BC01809359
:1012B000BB0085EC8093BC0064CF9091BB01809112
:1012C000BA01981758F5E091BB0181E08E0F809329
:1012D000BB01F0E0E656FE4F8081E9CFE091BB0113
:1012E00081E08E0F8093BB018091BB00F0E0E65659
:1012F000FE4F80839091BB018091BA019817C8F28C
:1013000085E8D8CFE091BB0181E08E0F8093BB01CF
:101310008091BB00F0E0E656FE4F808380919901FA
:1013200081115CCF81E08093980184EA8093BC00B6
:101330001092970126CF85EC8093BC001092970104
:1013400080919501803230F4E0919501F0E0EB5806
:10135000FE4F10826091950170E0E091BE01F09126
:10136000BF0185E791E00995109295010ACF10928F
:10137000960134CFCF93DF93E8E0F2E0138212823C
:1013800088EE93E0A0E0B0E084839583A683B783E2
:1013900086E091E091838083C4E1D2E01B861A86C7
:1013A000198218821E8A1F8A188E198E86EF97E07E
:1013B0009F838E838BE090E09D878C8789E090E00F
:1013C0009F878E878AE090E0998B888B88E090E0F9
:1013D0009B8B8A8B61E08BE00E941C0261E08E8512
:1013E0000E941C0261E088890E941C0261E08A89D7
:1013F0000E941C021D8A1C8A84E090E099878887DD
:10140000DF91CF910895CF93DF93CDB7DEB7C0546E
:10141000D1090FB6F894DEBF0FBECDBF789484B566
:10142000826084BD84B5816084BD85B5826085BDE0
:1014300085B5816085BD80916E00816080936E006E
:101440001092810080918100826080938100809160
:101450008100816080938100809180008160809311
:1014600080008091B10084608093B1008091B000D1
:1014700081608093B00080917A00846080937A00CC
:1014800080917A00826080937A0080917A008160F6
:1014900080937A0080917A00806880937A0010921D
:1014A000C10084B78093CE0114BE0FB6F894A895FE
:1014B00080916000886180936000109260000FBE90
:1014C00086E090E00E949C078A3509F03BC184E0E9
:1014D00090E00E949C078093CD0185E090E00E94FF
:1014E0009C078093CC018091CE0182FF0BC060915C
:1014F000CD016F3F39F06F5F6093CD0184E090E0E4
:101500000E9441088091CE0183FF0BC06091CC0105
:101510006F3F39F06F5F6093CC0185E090E00E94EF
:10152000410887E090E00E949C07833C09F01EC1BF
:101530008E010F5F1F4F680178E0E72EF12C5801F4
:1015400024E0A20EB11C4701801A910AC401800F49
:10155000911F0E94940EF80181938F01AE16BF0671
:10156000A9F7F4E0EF0EF11C850128E4E216F1047E
:1015700031F721E030E02C0F3D1F205C3F4F80E031
:1015800090E0DC01F60141915191619171916F01FF
:101590004F3FFFEF5F076F077F0739F0841795070D
:1015A000A607B70710F4DB01CA012C153D0551F75A
:1015B0008093DC019093DD01A093DE01B093DF0105
:1015C0008091DC019091DD01A091DE01B091DF01FD
:1015D0008093D8019093D901A093DA01B093DB01F5
:1015E0008093E2019093E301A093E401B093E501BD
:1015F00062E086E00E941C0262E085E00E941C021C
:1016000062E084E00E941C0262E083E00E941C020F
:1016100060E087E00E941C0261E08DE00E941C02F5
:1016200060E08DE00E94DE0082E090E00E949C0776
:10163000853A09F0BAC083E090E00E949C079FEFD2
:10164000980F9E3708F0B1C091E09093BD01082F2C
:1016500010E01093CB010093CA0190E080E00E945B
:10166000940E898381E090E00E94940E8A838981A0
:101670009A818A50984F8D3E9F4010F01A821982AD
:1016800089819A819093FA018093F9011092C501A2
:101690001092C4011092C3011092C2010E9418035B
:1016A0008BEB92E09093C1018093C00187EC92E0B4
:1016B0009093BF018093BE01000F0093BA00809108
:1016C000BA0081608093BA0089EB96E09093C701DD
:1016D0008093C60188EC95E09093C9018093C8017E
:1016E00088E199E20FB6F894A895809360000FBE48
:1016F0009093600081E00E94D804C12C47E8D42E6A
:1017000043E9E42E43E0F42E22242394312C412C8F
:10171000512C32014394A8958091FE01882309F44D
:1017200074C06AE070E080E090E00E947D0288E191
:1017300098E00FB6F894A895809360000FBE909340
:101740006000FFCF1092CD011092CC0160E084E0E8
:1017500090E00E94410860E085E090E00E9441082E
:101760006AE586E090E00E944108BDCE19821A82A7
:101770001B821C8208E010E0BE016F5F7F4FC80132
:101780000E940E080C5F1F4F08341105A9F763EC87
:1017900087E090E00E9441081092DC011092DD0188
:1017A0001092DE011092DF010BCF83E00E94B500A2
:1017B00001E010E0892B11F010E000E084E00E94CD
:1017C000B500892BC9F090E080E0080F191F85E073
:1017D0000E94B500892B99F090E080E0080F191F56
:1017E00086E00E94B500892B69F090E080E0080F48
:1017F000191F0F5F1F4F2DCF82E090E0E6CF84E0EE
:1018000090E0ECCF88E090E0F2CF8091FD0188235A
:1018100021F1F8940091FB011091FC011092FD015F
:101820001093FA010093F90178941A821982602FBB
:10183000CE0101960E94F5073A822982612FCE01DE
:1018400001960E94F5070E94AF026093F501709324
:10185000F6018093F7019093F8018091F4018823B9
:10186000C9F0F8941092F401789481E00E94D804B1
:101870001092F3011092F2011092F1011092F00116
:101880000E94AF026093F5017093F6018093F70117
:101890009093F8018091EF01882309F449C0F894EE
:1018A000B090EF011092EF0178940E947F030091B5
:1018B00000011091010120911A0230911B02032EA8
:1018C000000C440B550BC701B6010E94E00ECA0183
:1018D000B9019801110F440B550B0E94E00E2093A3
:1018E00016023093170240931802509319028B2D61
:1018F000BB0C990B0E94D70362E370E080E090E09C
:101900000E947D020E9499030E94AF026093EB0146
:101910007093EC018093ED019093EE010E94AF0271
:101920006093F5017093F6018093F7019093F801AD
:101930008091EA018823B9F0F8946091E90110924E
:10194000EA0178948FEF860F8E3708F061C183E04B
:1019500090E00E94410865EA82E090E00E94410820
:1019600081E08093FE018091E701882361F0F89483
:101970001092E70178946FEF82E090E00E944108B6
:1019800081E08093FE018091E6018823D9F1F894EB
:101990001092E6011092E2011092E3011092E4012C
:1019A0001092E50178941092DC011092DD01109202
:1019B000DE011092DF011092E1011092E00110921D
:1019C000D8011092D9011092DA011092DB0119822C
:1019D0001A821B821C8208E010E0BE016F5F7F4FFD
:1019E000C8010E940E080C5F1F4F08341105A9F7AB
:1019F0000E94AF026093F5017093F6018093F701A6
:101A00009093F8018091DC019091DD01A091DE01BD
:101A1000B091DF014091D8015091D9016091DA0174
:101A20007091DB018C019D01041B150B260B370BFC
:101A3000B901A801403851056105710518F1898384
:101A40009A83AB83BC8327E0B695A7959795879536
:101A50002A95D1F78F7090E00296BE016F5F7F4F9D
:101A6000880F991F880F991F0E940E0889819A81FB
:101A7000AB81BC818093D8019093D901A093DA0106
:101A8000B093DB018091D7018823D1F0F8941092B4
:101A9000D70178940E94AF026093D3017093D40170
:101AA0008093D5019093D601672B682B692B41F465
:101AB0004092D3015092D4016092D5017092D60128
:101AC0000E94AF024B015C018091D3019091D4013F
:101AD000A091D501B091D6010097A105B10519F1EA
:101AE0008092F5019092F601A092F701B092F80170
:101AF000A5019401281B390B4A0B5B0BCA01B901E4
:101B0000683B3BE073078105910508F48DC060E0F8
:101B10008DE00E94DE001092D3011092D401109249
:101B2000D5011092D601C501B40128EE33E040E0A2
:101B300050E00E94BE0E2115310581E04807510595
:101B400020F02FEF3FEF40E050E0F8943093D201C7
:101B50002093D10178948091F5019091F601A091A4
:101B6000F701B091F80195018401081B190B2A0BAC
:101B70003B0BD901C801803D9740A105B10590F00C
:101B800083B7817F83BF83B7816083BF889583B725
:101B90008E7F83BF8092F5019092F601A092F701AB
:101BA000B092F8012091F0013091F1018091F201A1
:101BB0009091F3012817390719F10091F201109162
:101BC000F3010D321105E0F48090EB019090EC01EF
:101BD000A090ED01B090EE0181149104A104B10434
:101BE000B9F10E94AF02681979098A099B09613D20
:101BF00077408105910560F53092D0012092CF01A8
:101C000040E050E0452B09F486CD0E94000083CDD2
:101C1000F8948091E8018F3F29F08091E8018F5F6F
:101C20008093E80178949FCE2DE730E040E050E0CB
:101C30000E94BE0ECA01B90160957095809590957D
:101C400061707727882799278DE00E94DE006BCF8F
:101C50000E94AF026093EB017093EC018093ED0161
:101C60009093EE018090F0019090F1010815190514
:101C7000A4F10E947F03A0900001B0900101209187
:101C80001A0230911B02032E000C440B550BC701A6
:101C9000B6010E94E00ECA01B9019501BB0C440BCC
:101CA000550B0E94E00E20931602309317024093CA
:101CB000180250931902C801881999090E947705E2
:101CC0001093F1010093F00164E670E080E090E091
:101CD0000E947D020E94990393CF80E00E94D80465
:101CE000809000019090010120911A0230911B0216
:101CF000032E000C440B550BC701B6010E94E00EE9
:101D0000092C000CAA08BB08CA01B901A50194015D
:101D10000E94E00E2093160230931702409318029F
:101D200050931902C801CACFF999FECF92BD81BD67
:101D3000F89A992780B50895262FF999FECF1FBAF2
:101D400092BD81BD20BD0FB6F894FA9AF99A0FBEE4
:101D50000196089597FB072E16F4009407D077FD9F
:101D600009D00E94050F07FC05D03EF4909581959F
:101D70009F4F0895709561957F4F0895A1E21A2EA7
:101D8000AA1BBB1BFD010DC0AA1FBB1FEE1FFF1F1F
:101D9000A217B307E407F50720F0A21BB30BE40B6F
:101DA000F50B661F771F881F991F1A9469F76095B6
:101DB0007095809590959B01AC01BD01CF01089570
:101DC000052E97FB1EF400940E94F70E57FD07D0D6
:101DD0000E94BE0E07FC03D04EF40C94F70E5095F3
:101DE0004095309521953F4F4F4F5F4F0895909507
:101DF0008095709561957F4F8F4F9F4F0895EE0F9F
:101E0000FF1F0590F491E02D0994AA1BBB1B51E123
:101E100007C0AA1FBB1FA617B70710F0A61BB70B5A
:101E2000881F991F5A95A9F780959095BC01CD01FF
:101E300008955058BB27AA270E94310F0C949D0F7C
:101E40000E948F0F38F00E94960F20F039F49F3FC8
:101E500019F426F40C948C0F0EF4E095E7FB0C9427
:101E6000860FE92F0E94AE0F58F3BA176207730767
:101E70008407950720F079F4A6F50C94D00F0EF4A2
:101E8000E0950B2EBA2FA02D0B01B90190010C018A
:101E9000CA01A0011124FF27591B99F0593F50F4A2
:101EA000503E68F11A16F040A22F232F342F4427FA
:101EB000585FF3CF469537952795A795F0405395F2
:101EC000C9F77EF41F16BA0B620B730B840BBAF0C2
:101ED0009150A1F0FF0FBB1F661F771F881FC2F72D
:101EE0000EC0BA0F621F731F841F48F48795779541
:101EF0006795B795F7959E3F08F0B0CF9395880FFB
:101F000008F09927EE0F97958795089597F99F67A1
:101F100080E870E060E008959FEF80EC0895002471
:101F20000A941616170618060906089500240A943E
:101F300012161306140605060895092E0394000CC4
:101F400011F4882352F0BB0F40F4BF2B11F460FF53
:101F500004C06F5F7F4F8F4F9F4F089557FD90587C
:101F6000440F551F59F05F3F71F04795880F97FB5D
:101F7000991F61F09F3F79F0879508951216130617
:101F80001406551FF2CF4695F1DF08C01616170646
:101F90001806991FF1CF869571056105089408957B
:101FA000E894BB2766277727CB0197F908950E940D
:101FB000DC0F08F48FEF0895990F0008550FAA0B56
:101FC000E0E8FEEF16161706E807F907C0F012164C
:101FD0001306E407F50798F0621B730B840B950B4F
:101FE00039F40A2661F0232B242B252B21F40895A4
:101FF0000A2609F4A140A6958FEF811D811D089541
:04200000F894FFCF82
:102004000A00000000006B0360037C0336035903DD
:0C20140046033703613136653833300075
:00000001FF
