:107c0000112484b78ebb14bee0e6f0e088e18083e7
:107c1000108211e0a0e0b1e0eeecfee702c00590ba
:107c20000d92aa31b107d9f721e0aae1b1e001c074
:107c30001d92ae39b207e1f780e384b92d9af0e0e6
:107c4000e0e085919491019611f41092000188e092
:107c50008bbd85e085bd8ab187788ab98bb188678d
:107c60008bb986e900008150e9f789b183fb882749
:107c700080f991e089274c9b82604d9b84604e9bec
:107c800088608f5f880f8093ba0084e48093bc0083
:107c900083e0e82ecde9d1e001e095e0f92e21e185
:107ca000d22e30e2c32e41e2b42e80919d0181326a
:107cb00039f41092bc0015bc15b8f0e0e0e009956d
:107cc0008091bc0087ff18c01091bc008091b90062
:107cd000887f803a09f471c038f5803809f445c0ce
:107ce000883809f461c0803609f0abc010921a01df
:107cf0002c9a10681093bc00a89bd7cff6bc85b116
:107d00008c2585b980910001882361f08ab58f5f49
:107d10008abd883038f01abc8bb5823008f493c025
:107d200081508bbd05bbc1cf883b49f0803c09f435
:107d300085c0883a09f085c010921a012c9ae0910a
:107d40001a0181e08e0f80931a0180919d0182318a
:107d5000c9f08232e1f0813029f5ef70f0e0e75fa1
:107d6000fe4f80818093bb00c4cf6091bb008091a7
:107d70001a0191e0980f90931a016bd08111b9cf3d
:107d80001f7bb7cfe770f0e0ef5ffe4feacfe091e7
:107d90001b01f0911c0184913196f0931c01e0933a
:107da0001b01e0cf8fefdecf6091bb0080911a0105
:107db00091e0980f90931a014cd080919d018234ec
:107dc00009f03ac01f7b812f80688093bc008091ae
:107dd0001b0190911c018115ece79e0768f5fc01e1
:107de000e0925700e89507b600fcfdcfade1b1e0a9
:107df000ac014d5151402c91fa01ea0ffb1f119635
:107e00003c911197090100935700e89511241296af
:107e1000ca17db0781f79c0120583f4f30931c01a4
:107e200020931b01fc01f0925700e89507b600fc77
:107e3000fdcfd0925700e89510921a012c9810644b
:107e400058cf106156cf813009f06ccfb0929d01b0
:107e500069cf8130c1f058f0843058f580e09091be
:107e60001b01862b90931c0180931b0106c063307d
:107e700030f48aee8bbd60939d0181e0089591e21c
:107e800090939d01089590919d01913021f0923041
:107e900041f080e0089581e26038d9f780939d0138
:107ea000f8cf611102c092e1ebcf92e2613089f725
:107eb000e7cf90919d01923261f78450e82ff0e076
:107ec000e35efe4f60838f37c0f282e4e7cf011e8e
:107ed000950f807c000000545749424f4f54207644
:107ee000332e320000000000ffffffffffffffff07
:107ef000ffffffffffffffffffffffffffffffff92
:107f0000ffffffffffffffffffffffffffffffff81
:107f1000ffffffffffffffffffffffffffffffff71
:107f2000ffffffffffffffffffffffffffffffff61
:107f3000ffffffffffffffffffffffffffffffff51
:107f4000ffffffffffffffffffffffffffffffff41
:107f5000ffffffffffffffffffffffffffffffff31
:107f6000ffffffffffffffffffffffffffffffff21
:107f7000ffffffffffffffffffffffffffffffff11
:107f8000fc010a0167bfe89577b770fdfdcf1124aa
:107f90000895ffffffffffffffffffffffffffff52
:107fa000ffffffffffffffffffffffffffffffffe1
:107fb000ffffffffffffffffffffffffffffffffd1
:107fc000ffffffffffffffffffffffffffffffffc1
:107fd000ffffffffffffffffffffffffffffffffb1
:107fe000ffffffffffffffffffffffffffffffffa1
:107ff000ffffffffffffffffffffffffffff01fe90
:00000001FF
