:107C0000112484B78EBB14BEE0E6F0E088E18083E7
:107C1000108211E0A0E0B1E0EEEEFEE702C00590B8
:107C20000D92AC31B107D9F721E0ACE1B1E001C070
:107C30001D92A03AB207E1F71F92CDB7DEB780E3FD
:107C400084B92D9AF0E0E0E085919491019611F4C9
:107C50001092000185E085BD8AB187788AB98BB121
:107C600088678BB919828981823380F189B183FB5E
:107C7000882780F991E089274C9B82604D9B846026
:107C80004E9B88608F5F880F8093BA0084E4809356
:107C9000BC0083E0982E9FE9E92E91E0F92E01E0E7
:107CA00025E0D22E31E1C32E40E2B42E51E2A52EC2
:107CB00080919F01813279F41092BC0015BC15B8F7
:107CC000F0E0E0E000003197E9F7099500008981D4
:107CD0008F5F8983C8CF8091BC0087FF18C0109147
:107CE000BC008091B900887F803A09F472C040F5E9
:107CF000803809F446C0883809F462C0803609F03B
:107D0000ACC010921C012C9A10681093BC00A89B68
:107D1000CFCFD6BC85B18B2585B980910001882352
:107D200069F080910101909102018230910508F47F
:107D300096C00197909302018093010105BBB8CFD3
:107D4000883B49F0803C09F485C0883A09F085C039
:107D500010921C012C9AE0911C0181E08E0F8093FF
:107D60001C0180919F018231C9F08232E1F08130A3
:107D700029F5EF70F0E0E55FFE4F80818093BB0056
:107D8000C3CF6091BB0080911C0191E0980F90934C
:107D90001C016BD08111B8CF1F7BB6CFE770F0E02C
:107DA000ED5FFE4FEACFE0911D01F0911E0184913D
:107DB0003196F0931E01E0931D01E0CF8FEFDECFEF
:107DC0006091BB0080911C0191E0980F90931C0181
:107DD0004CD080919F01823409F03AC01F7B812FE3
:107DE00080688093BC0080911D0190911E018115D7
:107DF000ECE79E0768F5FC0190925700E89507B6FE
:107E000000FCFDCFAFE1B1E0AC014F5151402C91EE
:107E1000FA01EA0FFB1F11963C911197090100939B
:107E20005700E89511241296EA16FB0681F79C018B
:107E300020583F4F30931E0120931D01FC01D0922A
:107E40005700E89507B600FCFDCFC0925700E895B3
:107E500010921C012C98106457CF106155CF0197D8
:107E600009F06CCFA0929F0169CF8130E1F058F00A
:107E7000843078F580E090911D01862B90931E014F
:107E800080931D010AC0633050F483E597E090931E
:107E900002018093010160939F0181E0089591E2C6
:107EA00090939F01089590919F01913021F092301D
:107EB00041F080E0089581E26038D9F780939F0116
:107EC000F8CF611102C092E1EBCF92E2613089F705
:107ED000E7CF90919F01923261F78450E82FF0E054
:107EE000E15EFE4F60838F37C0F282E4E7CF013E50
:107EF000001E950F807C000000545749424F4F549C
:107F00002076332E320000000000FFFFFFFFFFFF4E
:107F1000FFFFFFFFFFFFFFFFFFFFFFFFFFFFFFFF71
:107F2000FFFFFFFFFFFFFFFFFFFFFFFFFFFFFFFF61
:107F3000FFFFFFFFFFFFFFFFFFFFFFFFFFFFFFFF51
:107F4000FFFFFFFFFFFFFFFFFFFFFFFFFFFFFFFF41
:107F5000FFFFFFFFFFFFFFFFFFFFFFFFFFFFFFFF31
:107F6000FFFFFFFFFFFFFFFFFFFFFFFFFFFFFFFF21
:107F7000FFFFFFFFFFFFFFFFFFFFFFFFFFFFFFFF11
:107F8000FC010A0167BFE89577B770FDFDCF1124AA
:107F90000895FFFFFFFFFFFFFFFFFFFFFFFFFFFF52
:107FA000FFFFFFFFFFFFFFFFFFFFFFFFFFFFFFFFE1
:107FB000FFFFFFFFFFFFFFFFFFFFFFFFFFFFFFFFD1
:107FC000FFFFFFFFFFFFFFFFFFFFFFFFFFFFFFFFC1
:107FD000FFFFFFFFFFFFFFFFFFFFFFFFFFFFFFFFB1
:107FE000FFFFFFFFFFFFFFFFFFFFFFFFFFFFFFFFA1
:107FF000FFFFFFFFFFFFFFFFFFFFFFFFFFFF01FE90
:00000001FF
