:100000000C9463000C948B000C948B000C948B006C
:100010000C948B000C948B000C948B000C948B0034
:100020000C948B000C948B000C948B000C948B0024
:100030000C948B000C948B000C948B000C948B0014
:100040000C94DA050C948B000C948B000C948B00B0
:100050000C948B000C948B000C948B000C948B00F4
:100060000C9424060C948B00000000002400270050
:100070002A0000000000250028002B0000000000DE
:1000800023002600290004040404040404040202DA
:100090000202020203030303030301020408102007
:1000A0004080010204081020010204081020000012
:1000B0000008000201000003040700000000000027
:1000C000000043070D0B11241FBECFEFD8E0DEBFA9
:1000D000CDBF23E0AEE7B1E001C01D92A537B20766
:1000E000E1F711E0A0E0B1E0E6E6FDE102C0059035
:1000F0000D92AE37B107D9F710E0C2E6D0E004C0E8
:100100002197FE010E94060CC136D107C9F70E9453
:100110009A080C94A60E0C940000833081F028F409
:10012000813099F08230A9F008958730A9F08830A5
:10013000C9F08430B1F4809180008F7D03C080913C
:1001400080008F7780938000089584B58F7784BD79
:10015000089584B58F7DFBCF8091B0008F77809319
:10016000B00008958091B0008F7DF9CFCF93DF93D9
:10017000282F30E0F901E255FF4F8491F901E6564E
:10018000FF4FD491F901EA57FF4FC491CC23A1F05E
:1001900081110E948D00EC2FF0E0EE0FFF1FE4585C
:1001A000FF4FA591B491EC91ED2381E090E009F42B
:1001B00080E0DF91CF91089580E090E0FACF1F9327
:1001C000CF93DF93282F30E0F901E255FF4F849160
:1001D000F901E656FF4FD491F901EA57FF4FC49158
:1001E000CC23A9F0162F81110E948D00EC2FF0E096
:1001F000EE0FFF1FEE58FF4FA591B4918FB7F89403
:10020000EC91111108C0D095DE23DC938FBFDF91F4
:10021000CF911F910895DE2BF8CFCF93DF93EC01A0
:100220008091510290915202029749F4C130D10558
:1002300009F43BC06CF560E0209709F437C0809169
:10024000510290915202049749F4C130D10509F44A
:100250005CC00CF037C0209709F442C08091510275
:1002600090915202059709F0E5C0CA30D10508F017
:10027000E1C0FE01E25CFE4F0C94060C9D01A90159
:10028000BA01D001EB01ED01F401000211021802E4
:10029000C230D105A9F060E0C330D10581F680916C
:1002A00055020E94DF0060E006C061E080915502C7
:1002B0000E94DF0061E0809157020E94DF00BFCF03
:1002C00061E0EDCFC230D10539F1C330D10509F07D
:1002D000C5CF61E0809155020E94DF0060E022C03E
:1002E00061E0809155020E94DF0060E0809157023A
:1002F0000E94DF0061E0809159020E94DF0060E00F
:1003000080915B020E94DF00A9CF60E080915502DE
:100310000E94DF0061E0EACF60E0809155020E9418
:10032000DF0061E0809157020E94DF0060E0809171
:1003300059020E94DF0061E0E3CF60E08091550246
:100340000E94DF0061E0809157020E94DF0061E0BF
:100350000BC060E0809155020E94DF0061E0809157
:1003600057020E94DF0060E0809159020E94DF0086
:1003700060E010C060E0809155020E94DF0061E003
:10038000809157020E94DF0060E0809159020E9434
:10039000DF0061E080915B020E94DF0061E015C038
:1003A00060E0809155020E94DF0061E08091570279
:1003B0000E94DF0060E0809159020E94DF0061E04E
:1003C00080915B020E94DF0060E080915D02DF911E
:1003D000CF910C94DF0061E0E4CF61E080915502A1
:1003E0000E94DF0060E0E2CF61E0809155020E9450
:1003F000DF0060E0809157020E94DF0061E0DBCF08
:1004000061E0809155020E94DF0060E08091570218
:100410000E94DF0061E0809159020E94DF0060E0ED
:10042000CFCF61E0809155020E94DF0060E08BCF6A
:1004300060E0F8CFDF91CF910895CF93DF9390E004
:10044000FC01E656FF4F24918A579F4FFC0184918F
:100450008823C9F090E0880F991FFC01E859FF4FED
:10046000A591B491FC01EE58FF4FC591D491611153
:100470000DC09FB7F8948C91209582238C9388812E
:10048000282328839FBFDF91CF910895623051F4D4
:100490009FB7F8943C91822F809583238C93E881B9
:1004A0002E2BEFCF8FB7F894EC912E2B2C938FBF80
:1004B000EACF3FB7F8948091390290913A02A09127
:1004C0003B02B0913C0226B5A89B05C02F3F19F016
:1004D0000196A11DB11D3FBFBA2FA92F982F8827C4
:1004E000BC01CD01620F711D811D911D42E0660F9F
:1004F000771F881F991F4A95D1F708954F925F92F1
:100500006F927F928F929F92AF92BF92EF92FF92E3
:100510000F931F93CF93DF93EC0197FF04C0CC2779
:10052000DD27C81BD90B181619060CF061C081E035
:1005300090E090934A028093490204E010E08AE040
:10054000E82EF12C209709F46FC00E945902809088
:100550005F0290906002A0906102B09062022B0155
:100560003C01481859086A087B0880904B0290901B
:100570004C02A0904D02B0904E02481459046A04F7
:100580007B0400F360935F027093600280936102CA
:1005900090936202809153029091540220914902FB
:1005A00030914A022130310559F501969093540259
:1005B0008093530220914F0230915002821793078B
:1005C00021F4109254021092530221978091530209
:1005D000909154022091510230915202B70125307E
:1005E000310509F0B8010E94D30B0E940D01AACF7A
:1005F000892B09F4A2CF10924A02109249029DCF92
:10060000892B41F480914F029091500290935402B3
:1006100080935302809153029091540201979093DA
:10062000540280935302D1CFDF91CF911F910F914C
:10063000FF90EF90BF90AF909F908F907F906F90C2
:100640005F904F9008958F929F92AF92BF92CF92FA
:10065000DF92EF92FF924B015C010E9459026B0105
:100660007C010E9459026C197D098E099F09683E20
:10067000734081059105A8F321E0821A9108A10831
:10068000B10888EEC80E83E0D81EE11CF11C81146D
:100690009104A104B10429F7FF90EF90DF90CF906F
:1006A000BF90AF909F908F900895E0911902F091C4
:1006B0001A02309729F01092140210921302099432
:1006C0000895CF93DF93AC01E0911702F0911802E7
:1006D0003097F1F090911602809115029817C0F0B2
:1006E00090E0292F30E02617370754F4D901A1589C
:1006F000BE4F240F351FE90128812C939F5FF1CF56
:100700001092160260931502CB01DF91CF910994EC
:10071000DF91CF9108952091C501260F3327331F14
:1007200021323105ECF42091E901FC0190E080E0F8
:10073000243069F082E00895A091C5012191AC01B7
:100740004B555E4FA40FB52FB11D2C930196861704
:1007500098F38091C501680F6093C50180E008950A
:1007600081E008951092E90181E08093EB011092FD
:10077000EA0161E082E10E94DF0061E083E10E9422
:10078000DF00E9EBF0E080818E7F808380818D7FC8
:10079000808388E48093B80085E48093BC0008954A
:1007A0000895E091160280911502E81730F4F0E008
:1007B000E158FE4F808190E008958FEF9FEF0895FC
:1007C00090911602809115022FEF3FEF981748F491
:1007D000E92FF0E0E158FE4F208130E09F5F9093D9
:1007E0001602C90108958091150290911602891B85
:1007F000990B0895CF93DF93CB01EA01642F0E94F8
:100800008B03CE01DF91CF910895CF93DF931F9299
:10081000CDB7DEB7698361E0CE0101960E948B03FC
:1008200081E090E00F90DF91CF91089590E080E01B
:1008300008958BE00E94B60021E0892B09F420E0A6
:10084000209320028AE00E94B60021E0892B09F45F
:1008500020E020931F0289E00E94B60021E0892B4E
:1008600009F420E020931E0288E00E94B60021E0F7
:10087000892B09F420E020931D0260E08BE00E94A8
:10088000DF0060E08AE00E94DF0060E089E00E9413
:10089000DF0060E088E00E94DF00109222021092E8
:1008A000210264E670E080E090E00C942303FF9264
:1008B000CF93DF93F82E81E090E090932202809313
:1008C000210220914F0230915002032E000C440B64
:1008D000550B60E077E883E993E00E94E70BCA01DB
:1008E000B9012091000130910101032E000C440B4D
:1008F000550B0E94E70B20934B0230934C02409320
:100900004D0250934E02D0E0C0E087E00E94B60056
:100910000197D9F4209741F482E390E00E947E028F
:10092000C2E3D0E02196F1CF81E090E00E947E0208
:10093000C33E87E1D807B4F310922E0210922D0225
:100940000E941904CFEFDFEF15C080911B02909138
:100950001C020E947E0210922E0210922D02109212
:100960002302109224021092250210922602F11006
:100970000E941904CE01DF91CF91FF900895CF938B
:10098000DF93CDB7DEB728970FB6F894DEBF0FBE62
:10099000CDBF80917E01882321F1BE016F5F7F4F23
:1009A00088E0FB0111928A95E9F7EAE1F1E0DB01C9
:1009B0008191882329F08D9381E0E232F807C1F715
:1009C00048E050E08DE392E00E94FA0310927E012D
:1009D00028960FB6F894DEBF0FBECDBFDF91CF9142
:1009E0000895609121028DE392E00E940504F0CF0A
:1009F0000F931F93CF93DF9318161906BCF4EC01E5
:100A00008DE392E00E94E0038C018D329105DCF0D1
:100A1000219729F08DE392E00E94E003F9CF11279E
:100A20000038110541F00138110549F0DF91CF91EF
:100A30001F910F91089581E080933302F7CF81E0F9
:100A400080937E01F3CFC230D10539F0219771F345
:100A50008DE392E00E94E003F9CF90932C02809303
:100A60002B028DE392E00E94E003909301018093BA
:100A70000001DCCFEF92FF920F931F93CF93DF9390
:100A8000EC017B01198218821B821A821D821C8252
:100A9000FB0101900020E9F731978F01061B170B2E
:100AA000B8016F5F7F4F90E080E00E94D90D009702
:100AB000B9F0998388831B830A832C813D81232B82
:100AC00011F4FC0110821D830C83B7018881998188
:100AD000DF91CF911F910F91FF90EF900C949F0E9B
:100AE00088819981009711F00E94500D1982188217
:100AF0001D821C821B821A82DF91CF911F910F9160
:100B0000FF90EF900895CF93DF9385ED8093BC0025
:100B10008091A1019091A201A091A301B091A401A3
:100B20000796A11DB11D23E0B695A79597958795CA
:100B30002A95D1F72091BC0024FD03C01092E90151
:100B400036C04091A1015091A2016091A301709122
:100B5000A401452B462B472B69F30097A105B1054E
:100B600041F02AE22A95F1F700C00197A109B109E5
:100B7000E1CF8091A00191E090939F018823B9F08B
:100B8000C091B800D091BA008091BC008A7B80935C
:100B9000BC0060E082E10E94DF0060E083E10E942F
:100BA000DF000E94B203D093BA00C093B800DF9177
:100BB000CF9108951F920F920FB60F9211242F9389
:100BC0003F938F939F93AF93BF9380913502909102
:100BD0003602A0913702B09138023091340223E0FE
:100BE000230F2D3758F50196A11DB11D2093340216
:100BF0008093350290933602A0933702B093380267
:100C00008091390290913A02A0913B02B0913C024E
:100C10000196A11DB11D8093390290933A02A093D1
:100C20003B02B0933C02BF91AF919F918F913F9156
:100C30002F910F900FBE0F901F90189526E8230F4D
:100C40000296A11DB11DD2CF1F920F920FB60F9227
:100C500011242F933F934F935F936F937F938F93C1
:100C60009F93AF93BF93EF93FF938091B900887FD9
:100C7000803609F44AC0F0F5883209F4A7C018F5A7
:100C8000803109F49BC0B8F4882309F4F9C0883096
:100C900009F494C0FF91EF91BF91AF919F918F9113
:100CA0007F916F915F914F913F912F910F900FBE68
:100CB0000F901F901895883109F488C0803251F741
:100CC0008093E80114C0803409F49DC040F480335F
:100CD000B9F38833F9F68093E80185ECB0C080352C
:100CE00009F485C0883509F496C0883499F60E94C5
:100CF0008305D0CF883909F48CC038F5883729F0BE
:100D000050F4883611F0803729F683E08093E901AA
:100D10001092E70157C0883809F47BC0803919F078
:100D2000803809F0B7CF8091E701803208F071C0B8
:100D3000E091E70181E08E0F8093E7018091BB0095
:100D4000F0E0E953FE4F80833DC0803B39F0E0F492
:100D5000803A09F479C0883A09F09CCF84E0809306
:100D6000E9011092C6011092C501E0911102F091C3
:100D7000120209958091C50181110FC081E0809315
:100D8000C5011092A50109C0803C09F4A6CF883C9A
:100D900009F4A3CF883B09F07DCFE091C60181E043
:100DA0008E0F8093C601F0E0EB55FE4F808180935B
:100DB000BB009091C6018091C50129C080910E02AF
:100DC0008093BB0085EC8093BC0064CF90910D02B2
:100DD00080910C02981758F5E0910D0281E08E0F7A
:100DE00080930D02F0E0E451FE4F8081E9CFE09165
:100DF0000D0281E08E0F80930D028091BB00F0E028
:100E0000E451FE4F808390910D0280910C0298175F
:100E1000C8F285E8D8CFE0910D0281E08E0F809373
:100E20000D028091BB00F0E0E451FE4F8083809181
:100E3000EB0181115CCF81E08093EA0184EA809329
:100E4000BC001092E90126CF85EC8093BC00109283
:100E5000E9018091E701803230F4E091E701F0E0B0
:100E6000E953FE4F10826091E70170E0E0910F02BC
:100E7000F091100287EC91E009951092E7010ACFFA
:100E80001092E80134CFCF93DF93EDE3F2E01382C9
:100E9000128288EE93E0A0E0B0E084839583A6837D
:100EA000B7838CE091E09183808362E271E083E616
:100EB00092E00E943A0564E271E089E692E00E94C5
:100EC0003A0566E271E08FE692E00E943A0568E238
:100ED00071E085E792E00E943A056AE271E08BE7F3
:100EE00092E00E943A056CE271E081E892E00E9493
:100EF0003A056EE271E087E892E00E943A0560E30D
:100F000071E08DE892E00E943A0562E371E083E9C6
:100F100092E00E943A0564E371E089E992E00E9460
:100F20003A0566E371E08FE992E00E943A0568E3D2
:100F300071E085EA92E00E943A056AE371E08BEA8B
:100F400092E00E943A056CE371E081EB92E00E942E
:100F50003A056EE371E087EB92E00E943A0560E4A7
:100F600071E08DEB92E00E943A0562E471E083EC5F
:100F700092E00E943A0564E471E089EC92E00E94FC
:100F80003A0566E471E08FEC92E00E943A0568E46D
:100F900071E085ED92E00E943A056AE471E08BED24
:100FA00092E00E943A056CE471E081EE92E00E94CA
:100FB0003A056EE471E087EE92E00E943A0560E542
:100FC00071E08DEE92E00E943A0562E571E083EFF8
:100FD00092E00E943A0564E571E089EF92E00E9498
:100FE0003A0566E571E08FEF92E00E943A0568E508
:100FF00071E085E093E00E943A056BE571E08BE0DB
:1010000093E00E943A056EE571E081E193E00E9471
:101010003A0561E671E087E193E00E943A0563E6F4
:1010200071E08DE193E00E943A0565E671E083E2AC
:1010300093E00E943A0567E671E089E293E00E943E
:101040003A0569E671E08FE293E00E943A056BE6AB
:1010500071E085E393E00E943A0560E271E08BE382
:1010600093E00E943A056DE671E081E493E00E940E
:101070003A056FE671E087E493E00E943A0561E784
:1010800071E08DE493E00E943A0563E771E083E547
:1010900093E00E943A0565E771E089E593E00E94DC
:1010A0003A0567E771E08FE593E00E943A0569E74A
:1010B00071E085E693E00E943A056BE771E08BE60C
:1010C00093E00E943A05C9E4D2E01B861A86198291
:1010D00018821E8A1F8A188E198E86EF97E09F83CA
:1010E0008E838BE090E09D878C8789E090E09F87DE
:1010F0008E878AE090E0998B888B88E090E09B8BCC
:101100008A8B61E08BE00E941D0261E08E850E9467
:101110001D0261E088890E941D0261E08A890E94A7
:101120001D021D8A1C8A84E090E099878887DF91E0
:10113000CF910895789484B5826084BD84B5816030
:1011400084BD85B5826085BD85B5816085BD809192
:101150006E00816080936E0010928100809181000A
:101160008260809381008091810081608093810002
:10117000809180008160809380008091B1008460C4
:101180008093B1008091B00081608093B000809125
:101190007A00846080937A0080917A0082608093E4
:1011A0007A0080917A00816080937A0080917A0041
:1011B000806880937A001092C10084B7877F84BFD3
:1011C0000FB6F894A89580916000886180936000C4
:1011D000109260000FBE62E086E00E941D0262E095
:1011E00085E00E941D0262E084E00E941D0262E030
:1011F00083E00E941D0260E087E00E941D0282E001
:1012000090E00E94940B853A49F483E090E00E94BC
:10121000940B9FEF980FC82F9E3740F183E00E94F8
:10122000B600C1E0D0E0892B11F0D0E0C0E084E04E
:101230000E94B600892B09F070C082E090E0C80FD0
:10124000D91F85E00E94B600892B09F069C084E0AF
:1012500090E0C80FD91F86E00E94B600892B09F0E4
:1012600062C088E090E0C80FD91F21961092160244
:101270001092150210921402109213020E94B203EF
:1012800085E593E0909312028093110281E693E04A
:101290009093100280930F02CC0FC093BA0088EF96
:1012A00094E090931802809317028FEB94E0909350
:1012B0001A028093190290E080E00E94940B8093C0
:1012C0001B0281E090E00E94940B80931C0281E05D
:1012D0000E945704412C87E8582E83E9682E83E04A
:1012E000782E90E0292E90E0392E88248394912C3A
:1012F000809133028823D1F06AE070E080E090E0D2
:101300000E94230388E198E00FB6F894A895809393
:1013100060000FBE90936000FFCF90E080E08FCF21
:1013200090E080E096CF90E080E09DCF8FB7F8947A
:101330004091350250913602609137027091380227
:101340008FBF80912F0290913002A0913102B09115
:1013500032028A019B01081B190B2A0B3B0BD90196
:10136000C801803D9740A105B10590F083B7817F0A
:1013700083BF83B7816083BF889583B78E7F83BF28
:1013800040932F02509330026093310270933202E7
:10139000C0912B02D0912C0280912D0290912E02AF
:1013A0008C179D0709F18091270290912802A09146
:1013B0002902B0912A02892B8A2B8B2BE1F42FB7BB
:1013C000F8948091350290913602A0913702B09145
:1013D00038022FBF8093270290932802A0932902FE
:1013E000B0932A02D7FF24C02114310409F480CF1E
:1013F0000E9400007DCF2FB7F89480913502909124
:101400003602A0913702B09138022FBF40912702D7
:10141000509128026091290270912A02841B950B39
:10142000A60BB70B813D9740A105B10540F6DCCF77
:1014300080912D0290912E02C0900001D090010168
:101440000D2C000CEE08FF08C817D9070CF475C066
:101450005E01A81AB90A909222028092210260913C
:1014600020028BE00E94DF0060911F028AE00E9450
:10147000DF0060911E0289E00E94DF0060911D0282
:1014800088E00E94DF0020914F0230915002032E2D
:10149000000C440B550BC301B2010E94E70BCA01BB
:1014A000B901A70196010E94E70B20934B023093EC
:1014B0004C0240934D0250934E0210E000E0A01603
:1014C000B10609F49DC020E039EE43E95EE3609186
:1014D00023027091240280912502909126020E949D
:1014E000430C6B017C0120E030E040E85FE30E94A8
:1014F000AF0C18167CF0C0922302D0922402E09226
:101500002502F09226028DE290E00E947E020F5F9B
:101510001F4FD5CF20E030E040E85FE3C701B601C0
:101520000E94420C60932302709324028093250250
:10153000909326028EE290E0E8CF80E00E9457046C
:1015400020914F0230915002032E000C440B550B9A
:10155000C301B2010E94E70BCA01B901A7019601BC
:101560000E94E70B20934B0230934C0240934D02B4
:1015700050934E0210E000E0C017D10709F440C0BC
:1015800022ED37E245E352E4609123027091240298
:1015900080912502909126020E94430C20E030E0C9
:1015A00044E352E40E94420C6B017C0120E030E0F5
:1015B00040E85FE30E94AF0C18167CF0C092230253
:1015C000D0922402E0922502F09226028DE290E071
:1015D0000E947E020F5F1F4FCFCF20E030E040E837
:1015E0005FE3C701B6010E94420C6093230270932F
:1015F000240280932502909326028EE290E0E8CFA9
:10160000D0932E02C0932D0264E670E080E090E05B
:101610000E9423030E941904E7CECF93DF93C1E712
:10162000D3E0269788819981009711F00E94500D90
:1016300082E0C336D807A9F7DF91CF910895990FBB
:101640000008550FAA0BE0E8FEEF16161706E8078C
:10165000F907C0F012161306E407F50798F0621BAD
:10166000730B840B950B39F40A2661F0232B242B82
:10167000252B21F408950A2609F4A140A6958FEFA1
:10168000811D811D089597F99F6780E870E060E0F3
:1016900008959FEF80EC089500240A94161617060B
:1016A00018060906089500240A9412161306140653
:1016B00005060895092E0394000C11F4882352F0B6
:1016C000BB0F40F4BF2B11F460FF04C06F5F7F4F6E
:1016D0008F4F9F4F089557FD9058440F551F59F055
:1016E0005F3F71F04795880F97FB991F61F09F3F0F
:1016F00079F087950895121613061406551FF2CF38
:101700004695F1DF08C0161617061806991FF1CF87
:1017100086957105610508940895E894BB276627AE
:101720007727CB0197F90895F999FECF92BD81BD36
:10173000F89A992780B508952F923F924F925F9221
:101740006F927F928F929F92AF92BF92CF92DF92D1
:10175000EF92FF920F931F93CF93DF93CDB7DEB736
:10176000CA1BDB0B0FB6F894DEBF0FBECDBF0994CA
:101770002A88398848885F846E847D848C849B8421
:10178000AA84B984C884DF80EE80FD800C811B812F
:10179000AA81B981CE0FD11D0FB6F894DEBF0FBE5E
:1017A000CDBFED01089597FB072E16F4009407D0E6
:1017B00077FD09D00E940C0C07FC05D03EF49095F3
:1017C00081959F4F0895709561957F4F0895052EDF
:1017D00097FB1EF400940E94FE0B57FD07D00E9459
:1017E000200C07FC03D04EF40C94FE0B5095409552
:1017F000309521953F4F4F4F5F4F089590958095BD
:10180000709561957F4F8F4F9F4F0895EE0FFF1F8B
:101810000590F491E02D0994AA1BBB1B51E107C070
:10182000AA1FBB1FA617B70710F0A61BB70B881F70
:10183000991F5A95A9F780959095BC01CD010895FF
:10184000A1E21A2EAA1BBB1BFD010DC0AA1FBB1FC4
:10185000EE1FFF1FA217B307E407F50720F0A21B36
:10186000B30BE40BF50B661F771F881F991F1A94A3
:1018700069F760957095809590959B01AC01BD01CD
:10188000CF0108955058BB27AA270E945A0C0C94E8
:101890005A0B0E944C0B38F00E94530B20F039F485
:1018A0009F3F19F426F40C94490B0EF4E095E7FBE6
:1018B0000C94430BE92F0E946B0B58F3BA17620785
:1018C00073078407950720F079F4A6F50C948D0B27
:1018D0000EF4E0950B2EBA2FA02D0B01B90190014B
:1018E0000C01CA01A0011124FF27591B99F0593F8F
:1018F00050F4503E68F11A16F040A22F232F342FD7
:101900004427585FF3CF469537952795A795F04024
:101910005395C9F77EF41F16BA0B620B730B840B39
:10192000BAF09150A1F0FF0FBB1F661F771F881FF1
:10193000C2F70EC0BA0F621F731F841F48F4879549
:1019400077956795B795F7959E3F08F0B0CF93953B
:10195000880F08F09927EE0F9795879508950E94B4
:101960001F0B08F48FEF08950F931F93CF93DF930E
:101970008230910510F482E090E0E0917303F091E1
:10198000740330E020E0B0E0A0E0309799F4211536
:10199000310509F44AC0281B390B24303105D8F52C
:1019A0008A819B816115710589F1FB019383828393
:1019B000FE0111C0408151810281138148175907EE
:1019C000E0F04817590799F4109761F012960C93BC
:1019D000129713961C933296CF01DF91CF911F91EE
:1019E0000F9108950093730310937403F4CF21159E
:1019F000310551F04217530738F0A901DB019A0174
:101A0000BD01DF01F801C1CFEF01F9CF909374035D
:101A100080937303CDCFFE01E20FF31F8193919367
:101A20002250310939832883D7CF20917103309117
:101A30007203232B41F4209104013091050130936E
:101A4000720320937103209102013091030121154B
:101A5000310541F42DB73EB7409106015091070181
:101A6000241B350BE0917103F0917203E217F30729
:101A7000A0F42E1B3F0B2817390778F0AC014E5FFE
:101A80005F4F2417350748F04E0F5F1F50937203C6
:101A900040937103819391939FCFF0E0E0E09CCF5E
:101AA000CF93DF930097E9F0FC0132971382128203
:101AB000A0917303B0917403ED0130E020E0109722
:101AC000A1F420813181820F931F20917103309105
:101AD00072032817390709F061C0F0937203E0938D
:101AE0007103DF91CF910895EA01CE17DF07E8F582
:101AF0004A815B819E0141155105B1F7E901FB83E4
:101B0000EA8349915991C40FD51FEC17FD0761F481
:101B1000808191810296840F951FE90199838883C2
:101B2000828193819B838A83F0E0E0E012968D911D
:101B30009C9113970097B9F52D913C911197CD0188
:101B40000296820F931F2091710330917203281720
:101B5000390739F6309751F51092740310927303D8
:101B6000B0937203A0937103BCCFD383C28340812F
:101B70005181840F951FC817D90761F44E5F5F4FDD
:101B800088819981480F591F518340838A819B81A5
:101B9000938382832115310509F0B0CFF09374034C
:101BA000E09373039ECFFD01DC01C0CF138212824C
:101BB000D7CFB0E0A0E0EFEDFDE00C949E0B8C01E0
:101BC000009751F4CB010E94B40C8C01C801CDB731
:101BD000DEB7E0E10C94BA0BFC01E60FF71F9C01A5
:101BE00022503109E217F30708F49DC0D901CD91C5
:101BF000DC911197C617D70798F0C530D10530F39F
:101C0000CE0104978617970708F3C61BD70B2297B8
:101C1000C193D1936D937C93CF010E94500DD6CF89
:101C20005B01AC1ABD0A4C018C0E9D1EA091730382
:101C3000B0917403512C412CF12CE12C109731F50B
:101C400080917103909172038815990509F05CC029
:101C50004616570608F058C0809102019091030182
:101C6000009741F48DB79EB740910601509107014E
:101C7000841B950BE817F90708F055C0F093720321
:101C8000E0937103F90171836083A0CF8D919C91E2
:101C9000119712966C90129713967C901397A81533
:101CA000B90559F56C0142E0C40ED11CCA14DB041D
:101CB00020F1AC014A195B09DA011296159780F000
:101CC0006282738251834083D9016D937C93E114C6
:101CD000F10471F0D7011396FC93EE93129776CF2F
:101CE00022968C0F9D1FF90191838083F301EFCF22
:101CF000F0937403E093730369CF4816590608F410
:101D00002C017D01D3019ACFCB010E94B40C7C0140
:101D1000009749F0AE01B8010E94960EC8010E94DA
:101D2000500D870153CF10E000E050CFFB01DC01E4
:101D300002C001900D9241505040D8F70895FB0128
:101D4000DC0101900D920020E1F7089510E0C2E659
:101D5000D0E004C0FE010E94060C2196C336D107D4
:061D6000C9F7F894FFCF63
:101D66000A00000075038000000000000504FA0365
:101D76001604D003F303E003D1033033623663392C
:101D86003600200041004200430044004500460062
:101D96004700480049004A004B004C004D004E00E9
:101DA6004F00500051005200530054005500560099
:101DB6005700580059005A00C38400C39600C39CBC
:101DC600003000310032003300340035003700386F
:0E1DD6000039003A002E002D003F00210000D1
:00000001FF
