:100000000C9463000C948B000C948B000C948B006C
:100010000C948B000C948B000C948B000C948B0034
:100020000C948B000C948B000C948B000C948B0024
:100030000C948B000C948B000C948B000C948B0014
:100040000C949D050C948B000C948B000C948B00ED
:100050000C948B000C948B000C948B000C948B00F4
:100060000C94E7050C948B0000000000240027008E
:100070002A0000000000250028002B0000000000DE
:1000800023002600290004040404040404040202DA
:100090000202020203030303030301020408102007
:1000A0004080010204081020010204081020000012
:1000B0000008000201000003040700000000000027
:1000C00000000607D00A11241FBECFEFD8E0DEBF24
:1000D000CDBF23E0A8E7B1E001C01D92AE36B20764
:1000E000E1F711E0A0E0B1E0ECEEFCE102C0059028
:1000F0000D92A837B107D9F710E0C2E6D0E004C0EE
:100100002197FE010E94C90BC136D107C9F70E9491
:100110005D080C94690E0C940000833081F028F483
:10012000813099F08230A9F008958730A9F08830A5
:10013000C9F08430B1F4809180008F7D03C080913C
:1001400080008F7780938000089584B58F7784BD79
:10015000089584B58F7DFBCF8091B0008F77809319
:10016000B00008958091B0008F7DF9CFCF93DF93D9
:10017000282F30E0F901E255FF4F8491F901E6564E
:10018000FF4FD491F901EA57FF4FC491CC23A1F05E
:1001900081110E948D00EC2FF0E0EE0FFF1FE4585C
:1001A000FF4FA591B491EC91ED2381E090E009F42B
:1001B00080E0DF91CF91089580E090E0FACF1F9327
:1001C000CF93DF93282F30E0F901E255FF4F849160
:1001D000F901E656FF4FD491F901EA57FF4FC49158
:1001E000CC23A9F0162F81110E948D00EC2FF0E096
:1001F000EE0FFF1FEE58FF4FA591B4918FB7F89403
:10020000EC91111108C0D095DE23DC938FBFDF91F4
:10021000CF911F910895DE2BF8CFCF93DF93EC01A0
:1002200080914A0290914B02029749F4C130D10566
:1002300009F43BC06CF560E0209709F437C0809169
:100240004A0290914B02049749F4C130D10509F458
:100250005CC00CF037C0209709F442C080914A027C
:1002600090914B02059709F0E5C0CA30D10508F01E
:10027000E1C0FE01E25CFE4F0C94C90B9D01A90197
:10028000BA01D001EB01ED01F401000211021802E4
:10029000C230D105A9F060E0C330D10581F680916C
:1002A0004E020E94DF0060E006C061E080914E02D5
:1002B0000E94DF0061E0809150020E94DF00BFCF0A
:1002C00061E0EDCFC230D10539F1C330D10509F07D
:1002D000C5CF61E080914E020E94DF0060E022C045
:1002E00061E080914E020E94DF0060E08091500248
:1002F0000E94DF0061E0809152020E94DF0060E016
:10030000809154020E94DF00A9CF60E080914E02EC
:100310000E94DF0061E0EACF60E080914E020E941F
:10032000DF0061E0809150020E94DF0060E0809178
:1003300052020E94DF0061E0E3CF60E080914E0254
:100340000E94DF0061E0809150020E94DF0061E0C6
:100350000BC060E080914E020E94DF0061E080915E
:1003600050020E94DF0060E0809152020E94DF0094
:1003700060E010C060E080914E020E94DF0061E00A
:10038000809150020E94DF0060E0809152020E9442
:10039000DF0061E0809154020E94DF0061E015C03F
:1003A00060E080914E020E94DF0061E08091500287
:1003B0000E94DF0060E0809152020E94DF0061E055
:1003C000809154020E94DF0060E080915602DF912C
:1003D000CF910C94DF0061E0E4CF61E080914E02A8
:1003E0000E94DF0060E0E2CF61E080914E020E9457
:1003F000DF0060E0809150020E94DF0061E0DBCF0F
:1004000061E080914E020E94DF0060E08091500226
:100410000E94DF0061E0809152020E94DF0060E0F4
:10042000CFCF61E080914E020E94DF0060E08BCF71
:1004300060E0F8CFDF91CF910895CF93DF9390E004
:10044000FC01E656FF4F24918A579F4FFC0184918F
:100450008823C9F090E0880F991FFC01E859FF4FED
:10046000A591B491FC01EE58FF4FC591D491611153
:100470000DC09FB7F8948C91209582238C9388812E
:10048000282328839FBFDF91CF910895623051F4D4
:100490009FB7F8943C91822F809583238C93E881B9
:1004A0002E2BEFCF8FB7F894EC912E2B2C938FBF80
:1004B000EACF3FB7F8948091320290913302A09135
:1004C0003402B091350226B5A89B05C02F3F19F024
:1004D0000196A11DB11D3FBFBA2FA92F982F8827C4
:1004E000BC01CD01620F711D811D911D42E0660F9F
:1004F000771F881F991F4A95D1F708954F925F92F1
:100500006F927F928F929F92AF92BF92EF92FF92E3
:100510000F931F93CF93DF93EC0197FF04C0CC2779
:10052000DD27C81BD90B181619060CF061C081E035
:1005300090E0909343028093420204E010E08AE04E
:10054000E82EF12C209709F46FC00E945902809088
:10055000580290905902A0905A02B0905B022B0171
:100560003C01481859086A087B0880904402909022
:100570004502A0904602B0904702481459046A040C
:100580007B0400F3609358027093590280935A02DF
:1005900090935B0280914C0290914D022091420217
:1005A000309143022130310559F5019690934D0267
:1005B00080934C02209148023091490282179307A0
:1005C00021F410924D0210924C02219780914C021E
:1005D00090914D0220914A0230914B02B701253093
:1005E000310509F0B8010E94960B0E940D01AACFB7
:1005F000892B09F4A2CF10924302109242029DCFA0
:10060000892B41F4809148029091490290934D02C8
:1006100080934C0280914C0290914D0201979093EF
:100620004D0280934C02D1CFDF91CF911F910F915A
:10063000FF90EF90BF90AF909F908F907F906F90C2
:100640005F904F9008958F929F92AF92BF92CF92FA
:10065000DF92EF92FF924B015C010E9459026B0105
:100660007C010E9459026C197D098E099F09683E20
:10067000734081059105A8F321E0821A9108A10831
:10068000B10888EEC80E83E0D81EE11CF11C81146D
:100690009104A104B10429F7FF90EF90DF90CF906F
:1006A000BF90AF909F908F900895E0911202F091CB
:1006B0001302309729F010920D0210920C02099447
:1006C0000895CF93DF93AC01E0911002F0911102F5
:1006D0003097F1F090910F0280910E029817C0F0C0
:1006E00090E0292F30E02617370754F4D901A85895
:1006F000BE4F240F351FE90128812C939F5FF1CF56
:1007000010920F0260930E02CB01DF91CF910994FA
:10071000DF91CF9108952091BE01260F3327331F1B
:1007200021323105ECF42091E201FC0190E080E0FF
:10073000243069F082E00895A091BE012191AC01BE
:1007400042565E4FA40FB52FB11D2C93019686170C
:1007500098F38091BE01680F6093BE0180E0089518
:1007600081E008951092E20181E08093E40110920B
:10077000E30161E082E10E94DF0061E083E10E9429
:10078000DF00E9EBF0E080818E7F808380818D7FC8
:10079000808388E48093B80085E48093BC0008954A
:1007A0000895E0910F0280910E02E81730F4F0E016
:1007B000E858FE4F808190E008958FEF9FEF0895F5
:1007C00090910F0280910E022FEF3FEF981748F49F
:1007D000E92FF0E0E858FE4F208130E09F5F9093D2
:1007E0000F02C901089580910E0290910F02891B9A
:1007F000990B0895CF93DF93CB01EA01642F0E94F8
:100800008B03CE01DF91CF910895CF93DF931F9299
:10081000CDB7DEB7698361E0CE0101960E948B03FC
:1008200081E090E00F90DF91CF91089590E080E01B
:1008300008958BE00E94B60021E0892B09F420E0A6
:10084000209319028AE00E94B60021E0892B09F466
:1008500020E02093180289E00E94B60021E0892B55
:1008600009F420E02093170288E00E94B60021E0FE
:10087000892B09F420E02093160260E08BE00E94AF
:10088000DF0060E08AE00E94DF0060E089E00E9413
:10089000DF0060E088E00E94DF0010921B021092EF
:1008A0001A0264E670E080E090E00C942303FF926B
:1008B000CF93DF93F82E81E090E090931B0280931A
:1008C0001A022091480230914902032E000C440B79
:1008D000550B60E077E883E993E00E94AA0BCA0118
:1008E000B9012091000130910101032E000C440B4D
:1008F000550B0E94AA0B209344023093450240936B
:10090000460250934702D0E0C0E087E00E94B60064
:100910000197D9F4209741F482E390E00E947E028F
:10092000C2E3D0E02196F1CF81E090E00E947E0208
:10093000C33E87E1D807B4F3109227021092260233
:100940000E941904CFEFDFEF15C08091140290913F
:1009500015020E947E021092270210922602109227
:100960001C0210921D0210921E0210921F02F11022
:100970000E941904CE01DF91CF91FF9008956091FC
:100980001A0286E392E00C9405040F931F93CF9311
:10099000DF9318161906ACF4EC0186E392E00E948E
:1009A000E0038C018D3291058CF0219729F086E3CC
:1009B00092E00E94E003F9CF003819F481E08093BF
:1009C0002C02DF91CF911F910F910895C230D10574
:1009D00039F02197B1F386E392E00E94E003F9CF6A
:1009E000909325028093240286E392E00E94E00324
:1009F0009093010180930001E4CFEF92FF920F9357
:100A00001F93CF93DF93EC017B01198218821B8225
:100A10001A821D821C82FB0101900020E9F73197A8
:100A20008F01061B170BB8016F5F7F4F90E080E0CE
:100A30000E949C0D0097B9F0998388831B830A83D9
:100A40002C813D81232B11F4FC0110821D830C832A
:100A5000B70188819981DF91CF911F910F91FF900C
:100A6000EF900C94620E88819981009711F00E949A
:100A7000130D198218821D821C821B821A82DF913B
:100A8000CF911F910F91FF90EF900895CF93DF9337
:100A900085ED8093BC0080919A0190919B01A0917B
:100AA0009C01B0919D010796A11DB11D23E0B69553
:100AB000A795979587952A95D1F72091BC0024FD9D
:100AC00003C01092E20136C040919A0150919B01FF
:100AD00060919C0170919D01452B462B472B69F33A
:100AE0000097A105B10541F02AE22A95F1F700C06F
:100AF0000197A109B109E1CF8091990191E090930B
:100B000098018823B9F0C091B800D091BA008091C3
:100B1000BC008A7B8093BC0060E082E10E94DF0021
:100B200060E083E10E94DF000E94B203D093BA002C
:100B3000C093B800DF91CF9108951F920F920FB626
:100B40000F9211242F933F938F939F93AF93BF9353
:100B500080912E0290912F02A0913002B09131022B
:100B600030912D0223E0230F2D3758F50196A11D5A
:100B7000B11D20932D0280932E0290932F02A093FB
:100B80003002B09331028091320290913302A091F1
:100B90003402B09135020196A11DB11D809332023D
:100BA00090933302A0933402B0933502BF91AF917A
:100BB0009F918F913F912F910F900FBE0F901F909B
:100BC000189526E8230F0296A11DB11DD2CF1F92C2
:100BD0000F920FB60F9211242F933F934F935F9371
:100BE0006F937F938F939F93AF93BF93EF93FF93F5
:100BF0008091B900887F803609F44AC0F0F58832C8
:100C000009F4A7C018F5803109F49BC0B8F4882313
:100C100009F4F9C0883009F494C0FF91EF91BF91B5
:100C2000AF919F918F917F916F915F914F913F9184
:100C30002F910F900FBE0F901F901895883109F4D7
:100C400088C0803251F78093E10114C0803409F4E8
:100C50009DC040F48033B9F38833F9F68093E10105
:100C600085ECB0C0803509F485C0883509F496C09C
:100C7000883499F60E944605D0CF883909F48CC093
:100C800038F5883729F050F4883611F0803729F686
:100C900083E08093E2011092E00157C0883809F4A4
:100CA0007BC0803919F0803809F0B7CF8091E0011E
:100CB000803208F071C0E091E00181E08E0F8093F6
:100CC000E0018091BB00F0E0E054FE4F80833DC026
:100CD000803B39F0E0F4803A09F479C0883A09F0B1
:100CE0009CCF84E08093E2011092BF011092BE017C
:100CF000E0910A02F0910B0209958091BE018111E9
:100D00000FC081E08093BE0110929E0109C0803C1B
:100D100009F4A6CF883C09F4A3CF883B09F07DCF26
:100D2000E091BF0181E08E0F8093BF01F0E0E256B9
:100D3000FE4F80818093BB009091BF018091BE01E6
:100D400029C0809107028093BB0085EC8093BC0092
:100D500064CF9091060280910502981758F5E091B2
:100D6000060281E08E0F80930602F0E0EB51FE4F09
:100D70008081E9CFE091060281E08E0F8093060228
:100D80008091BB00F0E0EB51FE4F80839091060212
:100D9000809105029817C8F285E8D8CFE091060245
:100DA00081E08E0F809306028091BB00F0E0EB5152
:100DB000FE4F80838091E40181115CCF81E08093BC
:100DC000E30184EA8093BC001092E20126CF85EC17
:100DD0008093BC001092E2018091E001803230F4F7
:100DE000E091E001F0E0E054FE4F10826091E001FC
:100DF00070E0E0910802F091090280EC91E0099521
:100E00001092E0010ACF1092E10134CFCF93DF932B
:100E1000E6E3F2E01382128288EE93E0A0E0B0E015
:100E200084839583A683B7838CE091E0918380834C
:100E30006AE171E08CE592E00E94FD046CE171E0F2
:100E400082E692E00E94FD046EE171E088E692E0A5
:100E50000E94FD0460E271E08EE692E00E94FD04D3
:100E600062E271E084E792E00E94FD0464E271E0D6
:100E70008AE792E00E94FD0466E271E080E892E079
:100E80000E94FD0468E271E086E892E00E94FD04A1
:100E90006AE271E08CE892E00E94FD046CE271E08D
:100EA00082E992E00E94FD046EE271E088E992E03E
:100EB0000E94FD0460E371E08EE992E00E94FD046F
:100EC00062E371E084EA92E00E94FD0464E371E071
:100ED0008AEA92E00E94FD0466E371E080EB92E012
:100EE0000E94FD0468E371E086EB92E00E94FD043D
:100EF0006AE371E08CEB92E00E94FD046CE371E028
:100F000082EC92E00E94FD046EE371E088EC92E0D6
:100F10000E94FD0460E471E08EEC92E00E94FD040A
:100F200062E471E084ED92E00E94FD0464E471E00B
:100F30008AED92E00E94FD0466E471E080EE92E0AA
:100F40000E94FD0468E471E086EE92E00E94FD04D8
:100F50006AE471E08CEE92E00E94FD046CE471E0C2
:100F600082EF92E00E94FD046EE471E088EF92E06F
:100F70000E94FD0460E571E08EEF92E00E94FD04A6
:100F800063E571E084E093E00E94FD0466E571E0B2
:100F90008AE093E00E94FD0469E571E080E193E05E
:100FA0000E94FD046BE571E086E193E00E94FD0480
:100FB0006DE571E08CE193E00E94FD046FE571E066
:100FC00082E293E00E94FD0461E671E088E293E032
:100FD0000E94FD0463E671E08EE293E00E94FD044E
:100FE00065E671E084E393E00E94FD0467E671E04A
:100FF0008AE393E00E94FD0469E671E080E493E0F7
:101000000E94FD046BE671E086E493E00E94FD041B
:101010006DE671E08CE493E00E94FD046FE671E000
:1010200082E593E00E94FD0461E771E088E593E0CA
:101030000E94FD0463E771E08EE593E00E94FD04E9
:1010400065E771E084E693E00E94FD04C2E4D2E02B
:101050001B861A86198218821E8A1F8A188E198E7C
:1010600086EF97E09F838E838BE090E09D878C874F
:1010700089E090E09F878E878AE090E0998B888B4B
:1010800088E090E09B8B8A8B61E08BE00E941D02E0
:1010900061E08E850E941D0261E088890E941D0228
:1010A00061E08A890E941D021D8A1C8A84E090E00A
:1010B00099878887DF91CF910895789484B582606D
:1010C00084BD84B5816084BD85B5826085BD85B5EC
:1010D000816085BD80916E00816080936E0010926A
:1010E00081008091810082608093810080918100E5
:1010F0008160809381008091800081608093800076
:101100008091B10084608093B1008091B0008160D3
:101110008093B00080917A00846080937A008091FF
:101120007A00826080937A0080917A008160809357
:101130007A0080917A00806880937A001092C100D2
:1011400084B7877F84BF0FB6F894A895809160001C
:10115000886180936000109260000FBE62E086E0BC
:101160000E941D0262E085E00E941D0262E084E0B0
:101170000E941D0262E083E00E941D0260E087E0A1
:101180000E941D0282E090E00E94570B853A49F4CC
:1011900083E090E00E94570B9FEF980FC82F9E3777
:1011A00040F183E00E94B600C1E0D0E0892B11F04D
:1011B000D0E0C0E084E00E94B600892B09F070C046
:1011C00082E090E0C80FD91F85E00E94B600892B0D
:1011D00009F069C084E090E0C80FD91F86E00E9442
:1011E000B600892B09F062C088E090E0C80FD91FD3
:1011F000219610920F0210920E0210920D02109280
:101200000C020E94B20385E593E090930B02809359
:101210000A0281E693E09093090280930802CC0FC2
:10122000C093BA0085EC94E0909311028093100271
:101230008FEB94E0909313028093120290E080E091
:101240000E94570B8093140281E090E00E94570B9C
:101250008093150281E00E945704412C87E8582EA4
:1012600083E9682E83E0782E90E0292E90E0392ED5
:1012700088248394912C80912C028823D1F06AE0F9
:1012800070E080E090E00E94230388E198E00FB6D0
:10129000F894A895809360000FBE90936000FFCFF4
:1012A00090E080E08FCF90E080E096CF90E080E00B
:1012B0009DCF8FB7F89440912E0250912F026091EC
:1012C0003002709131028FBF8091280290912902E3
:1012D000A0912A02B0912B028A019B01081B190BD5
:1012E0002A0B3B0BD901C801803D9740A105B105F0
:1012F00090F083B7817F83BF83B7816083BF889578
:1013000083B78E7F83BF4093280250932902609356
:101310002A0270932B02C0912402D0912502809161
:101320002602909127028C179D0709F180912002D7
:1013300090912102A0912202B0912302892B8A2B45
:101340008B2BE1F42FB7F89480912E0290912F020D
:10135000A0913002B09131022FBF80932002909370
:101360002102A0932202B0932302D7FF24C02114AC
:10137000310409F480CF0E9400007DCF2FB7F8948C
:1013800080912E0290912F02A0913002B0913102F3
:101390002FBF409120025091210260912202709152
:1013A0002302841B950BA60BB70B813D9740A1052B
:1013B000B10540F6DCCF8091260290912702C090C3
:1013C0000001D09001010D2C000CEE08FF08C81799
:1013D000D9070CF475C05E01A81AB90A90921B02D5
:1013E00080921A02609119028BE00E94DF006091E6
:1013F00018028AE00E94DF006091170289E00E94D3
:10140000DF006091160288E00E94DF002091480210
:1014100030914902032E000C440B550BC301B2015D
:101420000E94AA0BCA01B901A70196010E94AA0B4A
:101430002093440230934502409346025093470262
:1014400010E000E0A016B10609F49DC020E039EEDE
:1014500043E95EE360911C0270911D0280911E02BF
:1014600090911F020E94060C6B017C0120E030E08D
:1014700040E85FE30E94720C18167CF0C0921C02D8
:10148000D0921D02E0921E02F0921F028DE290E0C7
:101490000E947E020F5F1F4FD5CF20E030E040E872
:1014A0005FE3C701B6010E94050C60931C027093B4
:1014B0001D0280931E0290931F028EE290E0E8CFFF
:1014C00080E00E9457042091480230914902032E87
:1014D000000C440B550BC301B2010E94AA0BCA01B8
:1014E000B901A70196010E94AA0B209344023093F0
:1014F0004502409346025093470210E000E0C017B7
:10150000D10709F440C022ED37E245E352E460918F
:101510001C0270911D0280911E0290911F020E9478
:10152000060C20E030E044E352E40E94050C6B011D
:101530007C0120E030E040E85FE30E94720C181666
:101540007CF0C0921C02D0921D02E0921E02F0922A
:101550001F028DE290E00E947E020F5F1F4FCFCFEF
:1015600020E030E040E85FE3C701B6010E94050CCF
:1015700060931C0270931D0280931E0290931F02C1
:101580008EE290E0E8CFD0932702C093260264E673
:1015900070E080E090E00E9423030E941904E7CEEF
:1015A000CF93DF93CAE6D3E026978881998100978D
:1015B00011F00E94130D82E0CC35D807A9F7DF9116
:1015C000CF910895990F0008550FAA0BE0E8FEEFA0
:1015D00016161706E807F907C0F012161306E407F7
:1015E000F50798F0621B730B840B950B39F40A26F0
:1015F00061F0232B242B252B21F408950A2609F4CE
:10160000A140A6958FEF811D811D089597F99F67D1
:1016100080E870E060E008959FEF80EC089500247A
:101620000A941616170618060906089500240A9447
:1016300012161306140605060895092E0394000CCD
:1016400011F4882352F0BB0F40F4BF2B11F460FF5C
:1016500004C06F5F7F4F8F4F9F4F089557FD905885
:10166000440F551F59F05F3F71F04795880F97FB66
:10167000991F61F09F3F79F0879508951216130620
:101680001406551FF2CF4695F1DF08C0161617064F
:101690001806991FF1CF8695710561050894089584
:1016A000E894BB2766277727CB0197F90895F99926
:1016B000FECF92BD81BDF89A992780B508952F92EB
:1016C0003F924F925F926F927F928F929F92AF92D2
:1016D000BF92CF92DF92EF92FF920F931F93CF931F
:1016E000DF93CDB7DEB7CA1BDB0B0FB6F894DEBFB6
:1016F0000FBECDBF09942A88398848885F846E84DC
:101700007D848C849B84AA84B984C884DF80EE8025
:10171000FD800C811B81AA81B981CE0FD11D0FB62E
:10172000F894DEBF0FBECDBFED01089597FB072EE5
:1017300016F4009407D077FD09D00E94CF0B07FC68
:1017400005D03EF4909581959F4F089570956195D1
:101750007F4F0895052E97FB1EF400940E94C10B45
:1017600057FD07D00E94E30B07FC03D04EF40C9406
:10177000C10B50954095309521953F4F4F4F5F4F8E
:10178000089590958095709561957F4F8F4F9F4FED
:101790000895EE0FFF1F0590F491E02D0994AA1B08
:1017A000BB1B51E107C0AA1FBB1FA617B70710F04C
:1017B000A61BB70B881F991F5A95A9F7809590957E
:1017C000BC01CD010895A1E21A2EAA1BBB1BFD018D
:1017D0000DC0AA1FBB1FEE1FFF1FA217B307E40710
:1017E000F50720F0A21BB30BE40BF50B661F771F68
:1017F000881F991F1A9469F7609570958095909548
:101800009B01AC01BD01CF0108955058BB27AA2709
:101810000E941D0C0C941D0B0E940F0B38F00E94AF
:10182000160B20F039F49F3F19F426F40C940C0B9E
:101830000EF4E095E7FB0C94060BE92F0E942E0BAB
:1018400058F3BA17620773078407950720F079F4F5
:10185000A6F50C94500B0EF4E0950B2EBA2FA02D8C
:101860000B01B90190010C01CA01A0011124FF274D
:10187000591B99F0593F50F4503E68F11A16F04048
:10188000A22F232F342F4427585FF3CF4695379547
:101890002795A795F0405395C9F77EF41F16BA0B0C
:1018A000620B730B840BBAF09150A1F0FF0FBB1FBA
:1018B000661F771F881FC2F70EC0BA0F621F731F03
:1018C000841F48F4879577956795B795F7959E3F60
:1018D00008F0B0CF9395880F08F09927EE0F9795F1
:1018E000879508950E94E20A08F48FEF08950F93F8
:1018F0001F93CF93DF938230910510F482E090E044
:10190000E0916C03F0916D0330E020E0B0E0A0E0E6
:10191000309799F42115310509F44AC0281B390B79
:1019200024303105D8F58A819B816115710589F1D3
:10193000FB0193838283FE0111C0408151810281AA
:10194000138148175907E0F04817590799F4109781
:1019500061F012960C93129713961C933296CF0156
:10196000DF91CF911F910F91089500936C03109315
:101970006D03F4CF2115310551F04217530738F0AC
:10198000A901DB019A01BD01DF01F801C1CFEF011F
:10199000F9CF90936D0380936C03CDCFFE01E20FDE
:1019A000F31F819391932250310939832883D7CF34
:1019B00020916A0330916B03232B41F420910401A1
:1019C0003091050130936B0320936A03209102014B
:1019D000309103012115310541F42DB73EB74091F7
:1019E000060150910701241B350BE0916A03F09129
:1019F0006B03E217F307A0F42E1B3F0B28173907E0
:101A000078F0AC014E5F5F4F2417350748F04E0F5A
:101A10005F1F50936B0340936A03819391939FCF11
:101A2000F0E0E0E09CCFCF93DF930097E9F0FC017A
:101A3000329713821282A0916C03B0916D03ED0175
:101A400030E020E01097A1F420813181820F931FB4
:101A500020916A0330916B032817390709F061C0A0
:101A6000F0936B03E0936A03DF91CF910895EA014D
:101A7000CE17DF07E8F54A815B819E0141155105CC
:101A8000B1F7E901FB83EA8349915991C40FD51F4E
:101A9000EC17FD0761F4808191810296840F951FF8
:101AA000E90199838883828193819B838A83F0E013
:101AB000E0E012968D919C9113970097B9F52D91C6
:101AC0003C911197CD010296820F931F20916A03DA
:101AD00030916B032817390739F6309751F510927A
:101AE0006D0310926C03B0936B03A0936A03BCCF99
:101AF000D383C28340815181840F951FC817D907B2
:101B000061F44E5F5F4F88819981480F591F51835F
:101B100040838A819B81938382832115310509F05B
:101B2000B0CFF0936D03E0936C039ECFFD01DC0119
:101B3000C0CF13821282D7CFB0E0A0E0E2EAFDE08E
:101B40000C94610B8C01009751F4CB010E94770C2F
:101B50008C01C801CDB7DEB7E0E10C947D0BFC0130
:101B6000E60FF71F9C0122503109E217F30708F432
:101B70009DC0D901CD91DC911197C617D70798F078
:101B8000C530D10530F3CE0104978617970708F3C7
:101B9000C61BD70B2297C193D1936D937C93CF0132
:101BA0000E94130DD6CF5B01AC1ABD0A4C018C0EFE
:101BB0009D1EA0916C03B0916D03512C412CF12C12
:101BC000E12C109731F580916A0390916B03881591
:101BD000990509F05CC04616570608F058C0809178
:101BE000020190910301009741F48DB79EB7409197
:101BF000060150910701841B950BE817F90708F0BF
:101C000055C0F0936B03E0936A03F901718360831D
:101C1000A0CF8D919C91119712966C90129713966C
:101C20007C901397A815B90559F56C0142E0C40ED4
:101C3000D11CCA14DB0420F1AC014A195B09DA019A
:101C40001296159780F06282738251834083D90186
:101C50006D937C93E114F10471F0D7011396FC931A
:101C6000EE93129776CF22968C0F9D1FF9019183E8
:101C70008083F301EFCFF0936D03E0936C0369CFA2
:101C80004816590608F42C017D01D3019ACFCB01E7
:101C90000E94770C7C01009749F0AE01B8010E94C8
:101CA000590EC8010E94130D870153CF10E000E0C8
:101CB00050CFFB01DC0102C001900D924150504019
:101CC000D8F70895FB01DC0101900D920020E1F7A7
:101CD000089510E0C2E6D0E004C0FE010E94C90BE6
:0C1CE0002196C336D107C9F7F894FFCF56
:101CEC000A0000006E038000000000000504FA03E7
:101CFC001604D003F303E003D1032000410042009B
:101D0C0043004400450046004700480049004A0093
:101D1C004B004C004D004E004F0050005100520043
:101D2C0053005400550056005700580059005A00F3
:101D3C00C38400C39600C39C0030003100320033D2
:101D4C00003400350036003700380039003A002ED8
:081D5C00002D003F00210000F2
:00000001FF
